{
  "address": "0x20140C04A2646D0283EA82D7EF2f27a6277DfF6C",
  "abi": [
    {
      "inputs": [
        {
          "internalType": "address",
          "name": "_verifier",
          "type": "address"
        }
      ],
      "stateMutability": "nonpayable",
      "type": "constructor"
    },
    {
      "inputs": [],
      "name": "PromiseFactory__EMPTY_FIELD",
      "type": "error"
    },
    {
      "inputs": [],
      "name": "PromiseFactory__INCORRECT_FIELD_LENGTH",
      "type": "error"
    },
    {
      "inputs": [],
      "name": "PromiseFactory__NOT_OWNER",
      "type": "error"
    },
    {
      "inputs": [],
      "name": "PromiseFactory__NOT_VERIFIER",
      "type": "error"
    },
    {
      "inputs": [],
      "name": "PromiseFactory__addParticipant__ALREADY_PARTICIPANT",
      "type": "error"
    },
    {
      "inputs": [],
      "name": "PromiseFactory__addParticipant__NOT_PARTICIPANT",
      "type": "error"
    },
    {
      "inputs": [],
      "name": "PromiseFactory__createPromiseContract__DUPLICATE_FIELD",
      "type": "error"
    },
    {
      "anonymous": false,
      "inputs": [
        {
          "indexed": true,
          "internalType": "address",
          "name": "_contractAddress",
          "type": "address"
        },
        {
          "indexed": false,
          "internalType": "string",
          "name": "_participantName",
          "type": "string"
        },
        {
          "indexed": false,
          "internalType": "string",
          "name": "_participantTwitterHandle",
          "type": "string"
        },
        {
          "indexed": false,
          "internalType": "address",
          "name": "_participantAddress",
          "type": "address"
        }
      ],
      "name": "ParticipantAdded",
      "type": "event"
    },
    {
      "anonymous": false,
      "inputs": [
        {
          "indexed": true,
          "internalType": "address",
          "name": "_owner",
          "type": "address"
        },
        {
          "indexed": true,
          "internalType": "address",
          "name": "_contractAddress",
          "type": "address"
        },
        {
          "indexed": false,
          "internalType": "string",
          "name": "_promiseName",
          "type": "string"
        },
        {
          "indexed": false,
          "internalType": "string",
          "name": "_ipfsCid",
          "type": "string"
        },
        {
          "indexed": false,
          "internalType": "string[]",
          "name": "_partyNames",
          "type": "string[]"
        },
        {
          "indexed": false,
          "internalType": "string[]",
          "name": "_partyTwitterHandles",
          "type": "string[]"
        },
        {
          "indexed": false,
          "internalType": "address[]",
          "name": "_partyAddresses",
          "type": "address[]"
        }
      ],
      "name": "PromiseContractCreated",
      "type": "event"
    },
    {
      "anonymous": false,
      "inputs": [
        {
          "indexed": true,
          "internalType": "address",
          "name": "_owner",
          "type": "address"
        },
        {
          "indexed": false,
          "internalType": "string",
          "name": "_twitterHandle",
          "type": "string"
        }
      ],
      "name": "TwitterAddVerifiedSuccessful",
      "type": "event"
    },
    {
      "inputs": [
        {
          "internalType": "address",
          "name": "_promiseContractAddress",
          "type": "address"
        },
        {
          "internalType": "string",
          "name": "_partyName",
          "type": "string"
        },
        {
          "internalType": "string",
          "name": "_partyTwitterHandle",
          "type": "string"
        },
        {
          "internalType": "address",
          "name": "_partyAddress",
          "type": "address"
        }
      ],
      "name": "addParticipant",
      "outputs": [],
      "stateMutability": "nonpayable",
      "type": "function"
    },
    {
      "inputs": [
        {
          "internalType": "address",
          "name": "_userAddress",
          "type": "address"
        },
        {
          "internalType": "string",
          "name": "_twitterHandle",
          "type": "string"
        }
      ],
      "name": "addTwitterVerifiedUser",
      "outputs": [],
      "stateMutability": "nonpayable",
      "type": "function"
    },
    {
      "inputs": [
        {
          "internalType": "string",
          "name": "_promiseName",
          "type": "string"
        },
        {
          "internalType": "string",
          "name": "_ipfsCid",
          "type": "string"
        },
        {
          "internalType": "string[]",
          "name": "_partyNames",
          "type": "string[]"
        },
        {
          "internalType": "string[]",
          "name": "_partyTwitterHandles",
          "type": "string[]"
        },
        {
          "internalType": "address[]",
          "name": "_partyAddresses",
          "type": "address[]"
        }
      ],
      "name": "createPromiseContract",
      "outputs": [
        {
          "internalType": "address",
          "name": "promiseContractAddress",
          "type": "address"
        }
      ],
      "stateMutability": "nonpayable",
      "type": "function"
    },
    {
      "inputs": [],
      "name": "getOwner",
      "outputs": [
        {
          "internalType": "address",
          "name": "",
          "type": "address"
        }
      ],
      "stateMutability": "view",
      "type": "function"
    },
    {
      "inputs": [
        {
          "internalType": "address",
          "name": "_owner",
          "type": "address"
        }
      ],
      "name": "getPromiseContractAddresses",
      "outputs": [
        {
          "internalType": "contract PromiseContract[]",
          "name": "",
          "type": "address[]"
        }
      ],
      "stateMutability": "view",
      "type": "function"
    },
    {
      "inputs": [
        {
          "internalType": "address",
          "name": "_userAddress",
          "type": "address"
        }
      ],
      "name": "getPromiseContractCount",
      "outputs": [
        {
          "internalType": "uint256",
          "name": "",
          "type": "uint256"
        }
      ],
      "stateMutability": "view",
      "type": "function"
    },
    {
      "inputs": [
        {
          "internalType": "address",
          "name": "_userAddress",
          "type": "address"
        }
      ],
      "name": "getTwitterVerifiedHandle",
      "outputs": [
        {
          "internalType": "string[]",
          "name": "",
          "type": "string[]"
        }
      ],
      "stateMutability": "view",
      "type": "function"
    },
    {
      "inputs": [],
      "name": "getVerifier",
      "outputs": [
        {
          "internalType": "address",
          "name": "",
          "type": "address"
        }
      ],
      "stateMutability": "view",
      "type": "function"
    },
    {
      "inputs": [
        {
          "internalType": "address",
          "name": "_verifier",
          "type": "address"
        }
      ],
      "name": "setVerifier",
      "outputs": [],
      "stateMutability": "nonpayable",
      "type": "function"
    }
  ],
  "transactionHash": "0xe40b4f02e022d3c64b19e792a617dc1226ae3969ac91548cd9bc435ad558a0e4",
  "args": [
    "0x734f9D8321e4D19815E82C0c330f00ab2fbaEe92"
  ],
  "numDeployments": 10,
  "solcInputHash": "5067bf4f285c6cb57a60df8b5064c71a",
  "bytecode": "0x60a06040523480156200001157600080fd5b5060405162004dc238038062004dc283398181016040528101906200003791906200011c565b3373ffffffffffffffffffffffffffffffffffffffff1660808173ffffffffffffffffffffffffffffffffffffffff1681525050806000806101000a81548173ffffffffffffffffffffffffffffffffffffffff021916908373ffffffffffffffffffffffffffffffffffffffff160217905550506200014e565b600080fd5b600073ffffffffffffffffffffffffffffffffffffffff82169050919050565b6000620000e482620000b7565b9050919050565b620000f681620000d7565b81146200010257600080fd5b50565b6000815190506200011681620000eb565b92915050565b600060208284031215620001355762000134620000b2565b5b6000620001458482850162000105565b91505092915050565b608051614c51620001716000396000818161029801526107510152614c516000f3fe60806040523480156200001157600080fd5b5060043610620000a05760003560e01c8063893d20e8116200006f578063893d20e81462000153578063c4fd18641462000175578063d210fee31462000195578063d488f9a014620001cb578063e31db573146200020157620000a0565b806346657fe914620000a55780634784336f14620000c75780635437988d14620000fd57806386605062146200011d575b600080fd5b620000af62000221565b604051620000be9190620012e2565b60405180910390f35b620000e56004803603810190620000df919062001344565b6200024a565b604051620000f4919062001391565b60405180910390f35b6200011b600480360381019062000115919062001344565b62000296565b005b6200013b6004803603810190620001359190620016e2565b6200035f565b6040516200014a9190620012e2565b60405180910390f35b6200015d6200074d565b6040516200016c9190620012e2565b60405180910390f35b6200019360048036038101906200018d919062001805565b62000775565b005b620001b36004803603810190620001ad919062001344565b620009ef565b604051620001c29190620019dd565b60405180910390f35b620001e96004803603810190620001e3919062001344565b62000abe565b604051620001f8919062001b5a565b60405180910390f35b6200021f600480360381019062000219919062001b7e565b62000c8e565b005b60008060009054906101000a900473ffffffffffffffffffffffffffffffffffffffff16905090565b6000600160008373ffffffffffffffffffffffffffffffffffffffff1673ffffffffffffffffffffffffffffffffffffffff168152602001908152602001600020805490509050919050565b7f000000000000000000000000000000000000000000000000000000000000000073ffffffffffffffffffffffffffffffffffffffff163373ffffffffffffffffffffffffffffffffffffffff16146200031c576040517fadf438e600000000000000000000000000000000000000000000000000000000815260040160405180910390fd5b806000806101000a81548173ffffffffffffffffffffffffffffffffffffffff021916908373ffffffffffffffffffffffffffffffffffffffff16021790555050565b600080865111801562000373575060008551115b801562000381575060008451115b80156200038f575060008351115b80156200039d575060008251115b620003d4576040517feaf3bd8900000000000000000000000000000000000000000000000000000000815260040160405180910390fd5b82518251148015620003e7575083518251145b6200041e576040517f35e961c400000000000000000000000000000000000000000000000000000000815260040160405180910390fd5b60005b8251811015620005ac5760006001826200043c919062001c13565b90505b835181101562000595578381815181106200045f576200045e62001c4e565b5b602002602001015173ffffffffffffffffffffffffffffffffffffffff1684838151811062000493576200049262001c4e565b5b602002602001015173ffffffffffffffffffffffffffffffffffffffff161480620005475750848181518110620004cf57620004ce62001c4e565b5b6020026020010151604051602001620004e9919062001cbf565b6040516020818303038152906040528051906020012085838151811062000515576200051462001c4e565b5b60200260200101516040516020016200052f919062001cbf565b60405160208183030381529060405280519060200120145b156200057f576040517f301cd94e00000000000000000000000000000000000000000000000000000000815260040160405180910390fd5b80806200058c9062001cd8565b9150506200043f565b508080620005a39062001cd8565b91505062000421565b50604686511115620005ea576040517f35e961c400000000000000000000000000000000000000000000000000000000815260040160405180910390fd5b60003387878787876040516200060090620011a2565b620006119695949392919062001e34565b604051809103906000f0801580156200062e573d6000803e3d6000fd5b509050600160003373ffffffffffffffffffffffffffffffffffffffff1673ffffffffffffffffffffffffffffffffffffffff168152602001908152602001600020819080600181540180825580915050600190039060005260206000200160009091909190916101000a81548173ffffffffffffffffffffffffffffffffffffffff021916908373ffffffffffffffffffffffffffffffffffffffff1602179055508073ffffffffffffffffffffffffffffffffffffffff163373ffffffffffffffffffffffffffffffffffffffff167f7218ecb1d60a4ca32226db62922bd3917372e8801cddba0cc86fffd285ff744289898989896040516200073895949392919062001ec4565b60405180910390a38091505095945050505050565b60007f0000000000000000000000000000000000000000000000000000000000000000905090565b8373ffffffffffffffffffffffffffffffffffffffff166399ae1ec2336040518263ffffffff1660e01b8152600401620007b09190620012e2565b602060405180830381865afa158015620007ce573d6000803e3d6000fd5b505050506040513d601f19601f82011682018060405250810190620007f4919062001f81565b6200082b576040517f473da96a00000000000000000000000000000000000000000000000000000000815260040160405180910390fd5b8373ffffffffffffffffffffffffffffffffffffffff166399ae1ec2826040518263ffffffff1660e01b8152600401620008669190620012e2565b602060405180830381865afa15801562000884573d6000803e3d6000fd5b505050506040513d601f19601f82011682018060405250810190620008aa919062001f81565b15620008e2576040517fbba97c9c00000000000000000000000000000000000000000000000000000000815260040160405180910390fd5b601e835111156200091f576040517f35e961c400000000000000000000000000000000000000000000000000000000815260040160405180910390fd5b8373ffffffffffffffffffffffffffffffffffffffff166319c953df84848460016040518563ffffffff1660e01b815260040162000961949392919062001fc4565b600060405180830381600087803b1580156200097c57600080fd5b505af115801562000991573d6000803e3d6000fd5b505050508373ffffffffffffffffffffffffffffffffffffffff167fca8be768c3e2ef69996f18134c17e8f458e3149408ddf4b162cc2a4c48d871a4848484604051620009e1939291906200201f565b60405180910390a250505050565b6060600160008373ffffffffffffffffffffffffffffffffffffffff1673ffffffffffffffffffffffffffffffffffffffff16815260200190815260200160002080548060200260200160405190810160405280929190818152602001828054801562000ab257602002820191906000526020600020905b8160009054906101000a900473ffffffffffffffffffffffffffffffffffffffff1673ffffffffffffffffffffffffffffffffffffffff168152602001906001019080831162000a67575b50505050509050919050565b60606000600260008473ffffffffffffffffffffffffffffffffffffffff1673ffffffffffffffffffffffffffffffffffffffff16815260200190815260200160002080549050111562000c2d57600260008373ffffffffffffffffffffffffffffffffffffffff1673ffffffffffffffffffffffffffffffffffffffff168152602001908152602001600020805480602002602001604051908101604052809291908181526020016000905b8282101562000c2157838290600052602060002001805462000b8d9062002099565b80601f016020809104026020016040519081016040528092919081815260200182805462000bbb9062002099565b801562000c0c5780601f1062000be05761010080835404028352916020019162000c0c565b820191906000526020600020905b81548152906001019060200180831162000bee57829003601f168201915b50505050508152602001906001019062000b6b565b50505050905062000c89565b60008067ffffffffffffffff81111562000c4c5762000c4b620013c9565b5b60405190808252806020026020018201604052801562000c8157816020015b606081526020019060019003908162000c6b5790505b509050809150505b919050565b60008054906101000a900473ffffffffffffffffffffffffffffffffffffffff1673ffffffffffffffffffffffffffffffffffffffff163373ffffffffffffffffffffffffffffffffffffffff161462000d13576040517e11415300000000000000000000000000000000000000000000000000000000815260040160405180910390fd5b6000600260008473ffffffffffffffffffffffffffffffffffffffff1673ffffffffffffffffffffffffffffffffffffffff168152602001908152602001600020805490500362000e7c57600167ffffffffffffffff81111562000d7c5762000d7b620013c9565b5b60405190808252806020026020018201604052801562000db157816020015b606081526020019060019003908162000d9b5790505b50600260008473ffffffffffffffffffffffffffffffffffffffff1673ffffffffffffffffffffffffffffffffffffffff168152602001908152602001600020908051906020019062000e06929190620011b0565b5080600260008473ffffffffffffffffffffffffffffffffffffffff1673ffffffffffffffffffffffffffffffffffffffff16815260200190815260200160002060008154811062000e5d5762000e5c62001c4e565b5b90600052602060002001908162000e75919062002296565b506200114d565b6000600260008473ffffffffffffffffffffffffffffffffffffffff1673ffffffffffffffffffffffffffffffffffffffff1681526020019081526020016000208054905011156200114c576000600260008473ffffffffffffffffffffffffffffffffffffffff1673ffffffffffffffffffffffffffffffffffffffff168152602001908152602001600020805480602002602001604051908101604052809291908181526020016000905b8282101562000fdf57838290600052602060002001805462000f4b9062002099565b80601f016020809104026020016040519081016040528092919081815260200182805462000f799062002099565b801562000fca5780601f1062000f9e5761010080835404028352916020019162000fca565b820191906000526020600020905b81548152906001019060200180831162000fac57829003601f168201915b50505050508152602001906001019062000f29565b50505050905060005b8151811015620010d5578260405160200162001005919062001cbf565b6040516020818303038152906040528051906020012082828151811062001031576200103062001c4e565b5b60200260200101516040516020016200104b919062001cbf565b6040516020818303038152906040528051906020012003620010bf578373ffffffffffffffffffffffffffffffffffffffff167fb84b5dc40da8cd280dee1aaf74b3abbd449725a972daf3ad8cbc9d0adc089eff84604051620010af91906200237d565b60405180910390a250506200119e565b8080620010cc9062001cd8565b91505062000fe8565b50600260008473ffffffffffffffffffffffffffffffffffffffff1673ffffffffffffffffffffffffffffffffffffffff1681526020019081526020016000208290806001815401808255809150506001900390600052602060002001600090919091909150908162001149919062002296565b50505b5b8173ffffffffffffffffffffffffffffffffffffffff167fb84b5dc40da8cd280dee1aaf74b3abbd449725a972daf3ad8cbc9d0adc089eff826040516200119591906200237d565b60405180910390a25b5050565b61287a80620023a283390190565b828054828255906000526020600020908101928215620011fd579160200282015b82811115620011fc578251829081620011eb919062002296565b5091602001919060010190620011d1565b5b5090506200120c919062001210565b5090565b5b808211156200123457600081816200122a919062001238565b5060010162001211565b5090565b508054620012469062002099565b6000825580601f106200125a57506200127b565b601f0160209004906000526020600020908101906200127a91906200127e565b5b50565b5b80821115620012995760008160009055506001016200127f565b5090565b600073ffffffffffffffffffffffffffffffffffffffff82169050919050565b6000620012ca826200129d565b9050919050565b620012dc81620012bd565b82525050565b6000602082019050620012f96000830184620012d1565b92915050565b6000604051905090565b600080fd5b600080fd5b6200131e81620012bd565b81146200132a57600080fd5b50565b6000813590506200133e8162001313565b92915050565b6000602082840312156200135d576200135c62001309565b5b60006200136d848285016200132d565b91505092915050565b6000819050919050565b6200138b8162001376565b82525050565b6000602082019050620013a8600083018462001380565b92915050565b600080fd5b600080fd5b6000601f19601f8301169050919050565b7f4e487b7100000000000000000000000000000000000000000000000000000000600052604160045260246000fd5b6200140382620013b8565b810181811067ffffffffffffffff82111715620014255762001424620013c9565b5b80604052505050565b60006200143a620012ff565b9050620014488282620013f8565b919050565b600067ffffffffffffffff8211156200146b576200146a620013c9565b5b6200147682620013b8565b9050602081019050919050565b82818337600083830152505050565b6000620014a9620014a3846200144d565b6200142e565b905082815260208101848484011115620014c857620014c7620013b3565b5b620014d584828562001483565b509392505050565b600082601f830112620014f557620014f4620013ae565b5b81356200150784826020860162001492565b91505092915050565b600067ffffffffffffffff8211156200152e576200152d620013c9565b5b602082029050602081019050919050565b600080fd5b60006200155b620015558462001510565b6200142e565b905080838252602082019050602084028301858111156200158157620015806200153f565b5b835b81811015620015cf57803567ffffffffffffffff811115620015aa57620015a9620013ae565b5b808601620015b98982620014dd565b8552602085019450505060208101905062001583565b5050509392505050565b600082601f830112620015f157620015f0620013ae565b5b81356200160384826020860162001544565b91505092915050565b600067ffffffffffffffff8211156200162a5762001629620013c9565b5b602082029050602081019050919050565b6000620016526200164c846200160c565b6200142e565b905080838252602082019050602084028301858111156200167857620016776200153f565b5b835b81811015620016a557806200169088826200132d565b8452602084019350506020810190506200167a565b5050509392505050565b600082601f830112620016c757620016c6620013ae565b5b8135620016d98482602086016200163b565b91505092915050565b600080600080600060a0868803121562001701576200170062001309565b5b600086013567ffffffffffffffff8111156200172257620017216200130e565b5b6200173088828901620014dd565b955050602086013567ffffffffffffffff8111156200175457620017536200130e565b5b6200176288828901620014dd565b945050604086013567ffffffffffffffff8111156200178657620017856200130e565b5b6200179488828901620015d9565b935050606086013567ffffffffffffffff811115620017b857620017b76200130e565b5b620017c688828901620015d9565b925050608086013567ffffffffffffffff811115620017ea57620017e96200130e565b5b620017f888828901620016af565b9150509295509295909350565b6000806000806080858703121562001822576200182162001309565b5b600062001832878288016200132d565b945050602085013567ffffffffffffffff8111156200185657620018556200130e565b5b6200186487828801620014dd565b935050604085013567ffffffffffffffff8111156200188857620018876200130e565b5b6200189687828801620014dd565b9250506060620018a9878288016200132d565b91505092959194509250565b600081519050919050565b600082825260208201905092915050565b6000819050602082019050919050565b6000819050919050565b60006200190c6200190662001900846200129d565b620018e1565b6200129d565b9050919050565b60006200192082620018eb565b9050919050565b6000620019348262001913565b9050919050565b620019468162001927565b82525050565b60006200195a83836200193b565b60208301905092915050565b6000602082019050919050565b60006200198082620018b5565b6200198c8185620018c0565b93506200199983620018d1565b8060005b83811015620019d0578151620019b488826200194c565b9750620019c18362001966565b9250506001810190506200199d565b5085935050505092915050565b60006020820190508181036000830152620019f9818462001973565b905092915050565b600081519050919050565b600082825260208201905092915050565b6000819050602082019050919050565b600081519050919050565b600082825260208201905092915050565b60005b8381101562001a6957808201518184015260208101905062001a4c565b60008484015250505050565b600062001a828262001a2d565b62001a8e818562001a38565b935062001aa081856020860162001a49565b62001aab81620013b8565b840191505092915050565b600062001ac4838362001a75565b905092915050565b6000602082019050919050565b600062001ae68262001a01565b62001af2818562001a0c565b93508360208202850162001b068562001a1d565b8060005b8581101562001b48578484038952815162001b26858262001ab6565b945062001b338362001acc565b925060208a0199505060018101905062001b0a565b50829750879550505050505092915050565b6000602082019050818103600083015262001b76818462001ad9565b905092915050565b6000806040838503121562001b985762001b9762001309565b5b600062001ba8858286016200132d565b925050602083013567ffffffffffffffff81111562001bcc5762001bcb6200130e565b5b62001bda85828601620014dd565b9150509250929050565b7f4e487b7100000000000000000000000000000000000000000000000000000000600052601160045260246000fd5b600062001c208262001376565b915062001c2d8362001376565b925082820190508082111562001c485762001c4762001be4565b5b92915050565b7f4e487b7100000000000000000000000000000000000000000000000000000000600052603260045260246000fd5b600081905092915050565b600062001c958262001a2d565b62001ca1818562001c7d565b935062001cb381856020860162001a49565b80840191505092915050565b600062001ccd828462001c88565b915081905092915050565b600062001ce58262001376565b91507fffffffffffffffffffffffffffffffffffffffffffffffffffffffffffffffff820362001d1a5762001d1962001be4565b5b600182019050919050565b600082825260208201905092915050565b600062001d438262001a2d565b62001d4f818562001d25565b935062001d6181856020860162001a49565b62001d6c81620013b8565b840191505092915050565b600081519050919050565b6000819050602082019050919050565b62001d9d81620012bd565b82525050565b600062001db1838362001d92565b60208301905092915050565b6000602082019050919050565b600062001dd78262001d77565b62001de38185620018c0565b935062001df08362001d82565b8060005b8381101562001e2757815162001e0b888262001da3565b975062001e188362001dbd565b92505060018101905062001df4565b5085935050505092915050565b600060c08201905062001e4b6000830189620012d1565b818103602083015262001e5f818862001d36565b9050818103604083015262001e75818762001d36565b9050818103606083015262001e8b818662001ad9565b9050818103608083015262001ea1818562001ad9565b905081810360a083015262001eb7818462001dca565b9050979650505050505050565b600060a082019050818103600083015262001ee0818862001d36565b9050818103602083015262001ef6818762001d36565b9050818103604083015262001f0c818662001ad9565b9050818103606083015262001f22818562001ad9565b9050818103608083015262001f38818462001dca565b90509695505050505050565b60008115159050919050565b62001f5b8162001f44565b811462001f6757600080fd5b50565b60008151905062001f7b8162001f50565b92915050565b60006020828403121562001f9a5762001f9962001309565b5b600062001faa8482850162001f6a565b91505092915050565b62001fbe8162001f44565b82525050565b6000608082019050818103600083015262001fe0818762001d36565b9050818103602083015262001ff6818662001d36565b9050620020076040830185620012d1565b62002016606083018462001fb3565b95945050505050565b600060608201905081810360008301526200203b818662001d36565b9050818103602083015262002051818562001d36565b9050620020626040830184620012d1565b949350505050565b7f4e487b7100000000000000000000000000000000000000000000000000000000600052602260045260246000fd5b60006002820490506001821680620020b257607f821691505b602082108103620020c857620020c76200206a565b5b50919050565b60008190508160005260206000209050919050565b60006020601f8301049050919050565b600082821b905092915050565b600060088302620021327fffffffffffffffffffffffffffffffffffffffffffffffffffffffffffffffff82620020f3565b6200213e8683620020f3565b95508019841693508086168417925050509392505050565b600062002177620021716200216b8462001376565b620018e1565b62001376565b9050919050565b6000819050919050565b620021938362002156565b620021ab620021a2826200217e565b84845462002100565b825550505050565b600090565b620021c2620021b3565b620021cf81848462002188565b505050565b5b81811015620021f757620021eb600082620021b8565b600181019050620021d5565b5050565b601f82111562002246576200221081620020ce565b6200221b84620020e3565b810160208510156200222b578190505b620022436200223a85620020e3565b830182620021d4565b50505b505050565b600082821c905092915050565b60006200226b600019846008026200224b565b1980831691505092915050565b600062002286838362002258565b9150826002028217905092915050565b620022a18262001a2d565b67ffffffffffffffff811115620022bd57620022bc620013c9565b5b620022c9825462002099565b620022d6828285620021fb565b600060209050601f8311600181146200230e5760008415620022f9578287015190505b62002305858262002278565b86555062002375565b601f1984166200231e86620020ce565b60005b82811015620023485784890151825560018201915060208501945060208101905062002321565b8683101562002368578489015162002364601f89168262002258565b8355505b6001600288020188555050505b505050505050565b6000602082019050818103600083015262002399818462001d36565b90509291505056fe60c0604052600080556000600460006101000a81548160ff0219169083151502179055503480156200003057600080fd5b506040516200287a3803806200287a8339818101604052810190620000569190620009ad565b3373ffffffffffffffffffffffffffffffffffffffff1660a08173ffffffffffffffffffffffffffffffffffffffff16815250508573ffffffffffffffffffffffffffffffffffffffff1660808173ffffffffffffffffffffffffffffffffffffffff16815250508460019081620000cf919062000d2f565b508360029081620000e1919062000d2f565b5060005b815181101562000171576200015b84828151811062000109576200010862000e16565b5b602002602001015184838151811062000127576200012662000e16565b5b602002602001015184848151811062000145576200014462000e16565b5b602002602001015160006200017e60201b60201c565b8080620001689062000e74565b915050620000e5565b5050505050505062000f4e565b60a05173ffffffffffffffffffffffffffffffffffffffff163373ffffffffffffffffffffffffffffffffffffffff1614620001e6576040517feee85f7800000000000000000000000000000000000000000000000000000000815260040160405180910390fd5b600460009054906101000a900460ff16156200022e576040517f6bbe2df800000000000000000000000000000000000000000000000000000000815260040160405180910390fd5b600284511080620002405750601e8451115b1562000278576040517ffce3699600000000000000000000000000000000000000000000000000000000815260040160405180910390fd5b600060405180606001604052808681526020018581526020018473ffffffffffffffffffffffffffffffffffffffff16815250905080600560008573ffffffffffffffffffffffffffffffffffffffff1673ffffffffffffffffffffffffffffffffffffffff168152602001908152602001600020600082015181600001908162000304919062000d2f565b5060208201518160010190816200031c919062000d2f565b5060408201518160020160006101000a81548173ffffffffffffffffffffffffffffffffffffffff021916908373ffffffffffffffffffffffffffffffffffffffff1602179055509050506003839080600181540180825580915050600190039060005260206000200160009091909190916101000a81548173ffffffffffffffffffffffffffffffffffffffff021916908373ffffffffffffffffffffffffffffffffffffffff160217905550600080815480929190620003de9062000e74565b919050555081156200058a57600060038054806020026020016040519081016040528092919081815260200182805480156200047057602002820191906000526020600020905b8160009054906101000a900473ffffffffffffffffffffffffffffffffffffffff1673ffffffffffffffffffffffffffffffffffffffff168152602001906001019080831162000425575b5050505050905060005b60005481101562000587576001151560066000848481518110620004a357620004a262000e16565b5b602002602001015173ffffffffffffffffffffffffffffffffffffffff1673ffffffffffffffffffffffffffffffffffffffff16815260200190815260200160002060009054906101000a900460ff16151503620005715760006006600084848151811062000517576200051662000e16565b5b602002602001015173ffffffffffffffffffffffffffffffffffffffff1673ffffffffffffffffffffffffffffffffffffffff16815260200190815260200160002060006101000a81548160ff0219169083151502179055505b80806200057e9062000e74565b9150506200047a565b50505b8273ffffffffffffffffffffffffffffffffffffffff167fd76352dcc1f8336c0abdec06ee73330eee3e75ba620ba2c87510a25a32439d4e8686604051620005d492919062000f13565b60405180910390a25050505050565b6000604051905090565b600080fd5b600080fd5b600073ffffffffffffffffffffffffffffffffffffffff82169050919050565b60006200062482620005f7565b9050919050565b620006368162000617565b81146200064257600080fd5b50565b60008151905062000656816200062b565b92915050565b600080fd5b600080fd5b6000601f19601f8301169050919050565b7f4e487b7100000000000000000000000000000000000000000000000000000000600052604160045260246000fd5b620006b18262000666565b810181811067ffffffffffffffff82111715620006d357620006d262000677565b5b80604052505050565b6000620006e8620005e3565b9050620006f68282620006a6565b919050565b600067ffffffffffffffff82111562000719576200071862000677565b5b620007248262000666565b9050602081019050919050565b60005b838110156200075157808201518184015260208101905062000734565b60008484015250505050565b6000620007746200076e84620006fb565b620006dc565b90508281526020810184848401111562000793576200079262000661565b5b620007a084828562000731565b509392505050565b600082601f830112620007c057620007bf6200065c565b5b8151620007d28482602086016200075d565b91505092915050565b600067ffffffffffffffff821115620007f957620007f862000677565b5b602082029050602081019050919050565b600080fd5b6000620008266200082084620007db565b620006dc565b905080838252602082019050602084028301858111156200084c576200084b6200080a565b5b835b818110156200089a57805167ffffffffffffffff8111156200087557620008746200065c565b5b808601620008848982620007a8565b855260208501945050506020810190506200084e565b5050509392505050565b600082601f830112620008bc57620008bb6200065c565b5b8151620008ce8482602086016200080f565b91505092915050565b600067ffffffffffffffff821115620008f557620008f462000677565b5b602082029050602081019050919050565b60006200091d6200091784620008d7565b620006dc565b905080838252602082019050602084028301858111156200094357620009426200080a565b5b835b818110156200097057806200095b888262000645565b84526020840193505060208101905062000945565b5050509392505050565b600082601f8301126200099257620009916200065c565b5b8151620009a484826020860162000906565b91505092915050565b60008060008060008060c08789031215620009cd57620009cc620005ed565b5b6000620009dd89828a0162000645565b965050602087015167ffffffffffffffff81111562000a015762000a00620005f2565b5b62000a0f89828a01620007a8565b955050604087015167ffffffffffffffff81111562000a335762000a32620005f2565b5b62000a4189828a01620007a8565b945050606087015167ffffffffffffffff81111562000a655762000a64620005f2565b5b62000a7389828a01620008a4565b935050608087015167ffffffffffffffff81111562000a975762000a96620005f2565b5b62000aa589828a01620008a4565b92505060a087015167ffffffffffffffff81111562000ac95762000ac8620005f2565b5b62000ad789828a016200097a565b9150509295509295509295565b600081519050919050565b7f4e487b7100000000000000000000000000000000000000000000000000000000600052602260045260246000fd5b6000600282049050600182168062000b3757607f821691505b60208210810362000b4d5762000b4c62000aef565b5b50919050565b60008190508160005260206000209050919050565b60006020601f8301049050919050565b600082821b905092915050565b60006008830262000bb77fffffffffffffffffffffffffffffffffffffffffffffffffffffffffffffffff8262000b78565b62000bc3868362000b78565b95508019841693508086168417925050509392505050565b6000819050919050565b6000819050919050565b600062000c1062000c0a62000c048462000bdb565b62000be5565b62000bdb565b9050919050565b6000819050919050565b62000c2c8362000bef565b62000c4462000c3b8262000c17565b84845462000b85565b825550505050565b600090565b62000c5b62000c4c565b62000c6881848462000c21565b505050565b5b8181101562000c905762000c8460008262000c51565b60018101905062000c6e565b5050565b601f82111562000cdf5762000ca98162000b53565b62000cb48462000b68565b8101602085101562000cc4578190505b62000cdc62000cd38562000b68565b83018262000c6d565b50505b505050565b600082821c905092915050565b600062000d046000198460080262000ce4565b1980831691505092915050565b600062000d1f838362000cf1565b9150826002028217905092915050565b62000d3a8262000ae4565b67ffffffffffffffff81111562000d565762000d5562000677565b5b62000d62825462000b1e565b62000d6f82828562000c94565b600060209050601f83116001811462000da7576000841562000d92578287015190505b62000d9e858262000d11565b86555062000e0e565b601f19841662000db78662000b53565b60005b8281101562000de15784890151825560018201915060208501945060208101905062000dba565b8683101562000e01578489015162000dfd601f89168262000cf1565b8355505b6001600288020188555050505b505050505050565b7f4e487b7100000000000000000000000000000000000000000000000000000000600052603260045260246000fd5b7f4e487b7100000000000000000000000000000000000000000000000000000000600052601160045260246000fd5b600062000e818262000bdb565b91507fffffffffffffffffffffffffffffffffffffffffffffffffffffffffffffffff820362000eb65762000eb562000e45565b5b600182019050919050565b600082825260208201905092915050565b600062000edf8262000ae4565b62000eeb818562000ec1565b935062000efd81856020860162000731565b62000f088162000666565b840191505092915050565b6000604082019050818103600083015262000f2f818562000ed2565b9050818103602083015262000f45818462000ed2565b90509392505050565b60805160a0516118ff62000f7b600039600081816102c101526109a801526000610c1201526118ff6000f3fe608060405234801561001057600080fd5b50600436106100b45760003560e01c80637b560fc2116100715780637b560fc21461017d578063893d20e81461018757806399ae1ec2146101a5578063ad605729146101d5578063d6781324146101f3578063ee9706ac146101fd576100b4565b806317d7de7c146100b957806319c953df146100d757806354181ded146100f357806364fb931b146101115780637143059f1461012f57806372c0c0a81461015f575b600080fd5b6100c161022d565b6040516100ce919061102c565b60405180910390f35b6100f160048036038101906100ec919061122d565b6102bf565b005b6100fb610728565b604051610108919061102c565b60405180910390f35b6101196107ba565b60405161012691906112db565b60405180910390f35b610149600480360381019061014491906112f6565b6107d1565b60405161015691906113d3565b60405180910390f35b6101676109a4565b6040516101749190611404565b60405180910390f35b6101856109cc565b005b61018f610c0e565b60405161019c9190611404565b60405180910390f35b6101bf60048036038101906101ba91906112f6565b610c36565b6040516101cc91906112db565b60405180910390f35b6101dd610ce0565b6040516101ea9190611438565b60405180910390f35b6101fb610ce9565b005b610217600480360381019061021291906112f6565b610f0f565b60405161022491906112db565b60405180910390f35b60606001805461023c90611482565b80601f016020809104026020016040519081016040528092919081815260200182805461026890611482565b80156102b55780601f1061028a576101008083540402835291602001916102b5565b820191906000526020600020905b81548152906001019060200180831161029857829003601f168201915b5050505050905090565b7f000000000000000000000000000000000000000000000000000000000000000073ffffffffffffffffffffffffffffffffffffffff163373ffffffffffffffffffffffffffffffffffffffff1614610344576040517feee85f7800000000000000000000000000000000000000000000000000000000815260040160405180910390fd5b600460009054906101000a900460ff161561038b576040517f6bbe2df800000000000000000000000000000000000000000000000000000000815260040160405180910390fd5b60028451108061039c5750601e8451115b156103d3576040517ffce3699600000000000000000000000000000000000000000000000000000000815260040160405180910390fd5b600060405180606001604052808681526020018581526020018473ffffffffffffffffffffffffffffffffffffffff16815250905080600560008573ffffffffffffffffffffffffffffffffffffffff1673ffffffffffffffffffffffffffffffffffffffff168152602001908152602001600020600082015181600001908161045d919061165f565b506020820151816001019081610473919061165f565b5060408201518160020160006101000a81548173ffffffffffffffffffffffffffffffffffffffff021916908373ffffffffffffffffffffffffffffffffffffffff1602179055509050506003839080600181540180825580915050600190039060005260206000200160009091909190916101000a81548173ffffffffffffffffffffffffffffffffffffffff021916908373ffffffffffffffffffffffffffffffffffffffff16021790555060008081548092919061053390611760565b919050555081156106d157600060038054806020026020016040519081016040528092919081815260200182805480156105c257602002820191906000526020600020905b8160009054906101000a900473ffffffffffffffffffffffffffffffffffffffff1673ffffffffffffffffffffffffffffffffffffffff1681526020019060010190808311610578575b5050505050905060005b6000548110156106ce5760011515600660008484815181106105f1576105f06117a8565b5b602002602001015173ffffffffffffffffffffffffffffffffffffffff1673ffffffffffffffffffffffffffffffffffffffff16815260200190815260200160002060009054906101000a900460ff161515036106bb57600060066000848481518110610661576106606117a8565b5b602002602001015173ffffffffffffffffffffffffffffffffffffffff1673ffffffffffffffffffffffffffffffffffffffff16815260200190815260200160002060006101000a81548160ff0219169083151502179055505b80806106c690611760565b9150506105cc565b50505b8273ffffffffffffffffffffffffffffffffffffffff167fd76352dcc1f8336c0abdec06ee73330eee3e75ba620ba2c87510a25a32439d4e86866040516107199291906117d7565b60405180910390a25050505050565b60606002805461073790611482565b80601f016020809104026020016040519081016040528092919081815260200182805461076390611482565b80156107b05780601f10610785576101008083540402835291602001916107b0565b820191906000526020600020905b81548152906001019060200180831161079357829003601f168201915b5050505050905090565b6000600460009054906101000a900460ff16905090565b6107d9610f65565b600560008373ffffffffffffffffffffffffffffffffffffffff1673ffffffffffffffffffffffffffffffffffffffff16815260200190815260200160002060405180606001604052908160008201805461083390611482565b80601f016020809104026020016040519081016040528092919081815260200182805461085f90611482565b80156108ac5780601f10610881576101008083540402835291602001916108ac565b820191906000526020600020905b81548152906001019060200180831161088f57829003601f168201915b505050505081526020016001820180546108c590611482565b80601f01602080910402602001604051908101604052809291908181526020018280546108f190611482565b801561093e5780601f106109135761010080835404028352916020019161093e565b820191906000526020600020905b81548152906001019060200180831161092157829003601f168201915b505050505081526020016002820160009054906101000a900473ffffffffffffffffffffffffffffffffffffffff1673ffffffffffffffffffffffffffffffffffffffff1673ffffffffffffffffffffffffffffffffffffffff16815250509050919050565b60007f0000000000000000000000000000000000000000000000000000000000000000905090565b60006109d733610c36565b905080610a10576040517ffccacf3300000000000000000000000000000000000000000000000000000000815260040160405180910390fd5b600460009054906101000a900460ff1615610a57576040517f6bbe2df800000000000000000000000000000000000000000000000000000000815260040160405180910390fd5b60011515600660003373ffffffffffffffffffffffffffffffffffffffff1673ffffffffffffffffffffffffffffffffffffffff16815260200190815260200160002060009054906101000a900460ff16151503610ae1576040517f3b4b7dcf00000000000000000000000000000000000000000000000000000000815260040160405180910390fd5b6001600660003373ffffffffffffffffffffffffffffffffffffffff1673ffffffffffffffffffffffffffffffffffffffff16815260200190815260200160002060006101000a81548160ff0219169083151502179055503373ffffffffffffffffffffffffffffffffffffffff167f26c25af05520e978d353f976c99fa4c277ddc75aed4170ec47c9e24f06e62a1c600560003373ffffffffffffffffffffffffffffffffffffffff1673ffffffffffffffffffffffffffffffffffffffff168152602001908152602001600020600001600560003373ffffffffffffffffffffffffffffffffffffffff1673ffffffffffffffffffffffffffffffffffffffff168152602001908152602001600020600101604051610c03929190611892565b60405180910390a250565b60007f0000000000000000000000000000000000000000000000000000000000000000905090565b60008073ffffffffffffffffffffffffffffffffffffffff16600560008473ffffffffffffffffffffffffffffffffffffffff1673ffffffffffffffffffffffffffffffffffffffff16815260200190815260200160002060020160009054906101000a900473ffffffffffffffffffffffffffffffffffffffff1673ffffffffffffffffffffffffffffffffffffffff1603610cd65760009050610cdb565b600190505b919050565b60008054905090565b6000610cf433610c36565b905080610d2d576040517ffccacf3300000000000000000000000000000000000000000000000000000000815260040160405180910390fd5b600460009054906101000a900460ff1615610d74576040517f6bbe2df800000000000000000000000000000000000000000000000000000000815260040160405180910390fd5b60006003805480602002602001604051908101604052809291908181526020018280548015610df857602002820191906000526020600020905b8160009054906101000a900473ffffffffffffffffffffffffffffffffffffffff1673ffffffffffffffffffffffffffffffffffffffff1681526020019060010190808311610dae575b5050505050905060005b600054811015610ec3576000151560066000848481518110610e2757610e266117a8565b5b602002602001015173ffffffffffffffffffffffffffffffffffffffff1673ffffffffffffffffffffffffffffffffffffffff16815260200190815260200160002060009054906101000a900460ff16151503610eb0576040517fadba427200000000000000000000000000000000000000000000000000000000815260040160405180910390fd5b8080610ebb90611760565b915050610e02565b506001600460006101000a81548160ff0219169083151502179055507f77b99c173854235e0f45948e541b3d590e15d05c680efbedc9c18bcb845aa01c60405160405180910390a15050565b6000600660008373ffffffffffffffffffffffffffffffffffffffff1673ffffffffffffffffffffffffffffffffffffffff16815260200190815260200160002060009054906101000a900460ff169050919050565b60405180606001604052806060815260200160608152602001600073ffffffffffffffffffffffffffffffffffffffff1681525090565b600081519050919050565b600082825260208201905092915050565b60005b83811015610fd6578082015181840152602081019050610fbb565b60008484015250505050565b6000601f19601f8301169050919050565b6000610ffe82610f9c565b6110088185610fa7565b9350611018818560208601610fb8565b61102181610fe2565b840191505092915050565b600060208201905081810360008301526110468184610ff3565b905092915050565b6000604051905090565b600080fd5b600080fd5b600080fd5b600080fd5b7f4e487b7100000000000000000000000000000000000000000000000000000000600052604160045260246000fd5b6110a482610fe2565b810181811067ffffffffffffffff821117156110c3576110c261106c565b5b80604052505050565b60006110d661104e565b90506110e2828261109b565b919050565b600067ffffffffffffffff8211156111025761110161106c565b5b61110b82610fe2565b9050602081019050919050565b82818337600083830152505050565b600061113a611135846110e7565b6110cc565b90508281526020810184848401111561115657611155611067565b5b611161848285611118565b509392505050565b600082601f83011261117e5761117d611062565b5b813561118e848260208601611127565b91505092915050565b600073ffffffffffffffffffffffffffffffffffffffff82169050919050565b60006111c282611197565b9050919050565b6111d2816111b7565b81146111dd57600080fd5b50565b6000813590506111ef816111c9565b92915050565b60008115159050919050565b61120a816111f5565b811461121557600080fd5b50565b60008135905061122781611201565b92915050565b6000806000806080858703121561124757611246611058565b5b600085013567ffffffffffffffff8111156112655761126461105d565b5b61127187828801611169565b945050602085013567ffffffffffffffff8111156112925761129161105d565b5b61129e87828801611169565b93505060406112af878288016111e0565b92505060606112c087828801611218565b91505092959194509250565b6112d5816111f5565b82525050565b60006020820190506112f060008301846112cc565b92915050565b60006020828403121561130c5761130b611058565b5b600061131a848285016111e0565b91505092915050565b600082825260208201905092915050565b600061133f82610f9c565b6113498185611323565b9350611359818560208601610fb8565b61136281610fe2565b840191505092915050565b611376816111b7565b82525050565b600060608301600083015184820360008601526113998282611334565b915050602083015184820360208601526113b38282611334565b91505060408301516113c8604086018261136d565b508091505092915050565b600060208201905081810360008301526113ed818461137c565b905092915050565b6113fe816111b7565b82525050565b600060208201905061141960008301846113f5565b92915050565b6000819050919050565b6114328161141f565b82525050565b600060208201905061144d6000830184611429565b92915050565b7f4e487b7100000000000000000000000000000000000000000000000000000000600052602260045260246000fd5b6000600282049050600182168061149a57607f821691505b6020821081036114ad576114ac611453565b5b50919050565b60008190508160005260206000209050919050565b60006020601f8301049050919050565b600082821b905092915050565b6000600883026115157fffffffffffffffffffffffffffffffffffffffffffffffffffffffffffffffff826114d8565b61151f86836114d8565b95508019841693508086168417925050509392505050565b6000819050919050565b600061155c6115576115528461141f565b611537565b61141f565b9050919050565b6000819050919050565b61157683611541565b61158a61158282611563565b8484546114e5565b825550505050565b600090565b61159f611592565b6115aa81848461156d565b505050565b5b818110156115ce576115c3600082611597565b6001810190506115b0565b5050565b601f821115611613576115e4816114b3565b6115ed846114c8565b810160208510156115fc578190505b611610611608856114c8565b8301826115af565b50505b505050565b600082821c905092915050565b600061163660001984600802611618565b1980831691505092915050565b600061164f8383611625565b9150826002028217905092915050565b61166882610f9c565b67ffffffffffffffff8111156116815761168061106c565b5b61168b8254611482565b6116968282856115d2565b600060209050601f8311600181146116c957600084156116b7578287015190505b6116c18582611643565b865550611729565b601f1984166116d7866114b3565b60005b828110156116ff578489015182556001820191506020850194506020810190506116da565b8683101561171c5784890151611718601f891682611625565b8355505b6001600288020188555050505b505050505050565b7f4e487b7100000000000000000000000000000000000000000000000000000000600052601160045260246000fd5b600061176b8261141f565b91507fffffffffffffffffffffffffffffffffffffffffffffffffffffffffffffffff820361179d5761179c611731565b5b600182019050919050565b7f4e487b7100000000000000000000000000000000000000000000000000000000600052603260045260246000fd5b600060408201905081810360008301526117f18185610ff3565b905081810360208301526118058184610ff3565b90509392505050565b6000815461181b81611482565b6118258186610fa7565b94506001821660008114611840576001811461185657611889565b60ff198316865281151560200286019350611889565b61185f856114b3565b60005b8381101561188157815481890152600182019150602081019050611862565b808801955050505b50505092915050565b600060408201905081810360008301526118ac818561180e565b905081810360208301526118c0818461180e565b9050939250505056fea26469706673582212200b2ed26ccb0f97a90383f147cda179e70be916433dea443ee7435a0175afd36164736f6c63430008100033a264697066735822122078fce8b326df35464b2f9637f62276303f40ddd976812b53a9ca0189a8ba3ec664736f6c63430008100033",
  "devdoc": {
    "author": "polarzero",
    "kind": "dev",
    "methods": {
      "addParticipant(address,string,string,address)": {
        "details": "Only a participant of the contract can call this functionIt can only be called if the contract is not locked (the child contract takes care of that)",
        "params": {
          "_partyAddress": "The address of the party",
          "_partyName": "The name of the party",
          "_partyTwitterHandle": "The Twitter handle of the party",
          "_promiseContractAddress": "The address of the promise contract"
        }
      },
      "addTwitterVerifiedUser(address,string)": {
        "details": "Only the verifier contract can call this function, after the account has been verified with the Chainlink Node + External Adapter",
        "params": {
          "_twitterHandle": "The Twitter handle of the verified account",
          "_userAddress": "The address of the user"
        }
      },
      "createPromiseContract(string,string,string[],string[],address[])": {
        "params": {
          "_ipfsCid": "The CID of the directory stored on IPFS",
          "_partyAddresses": "The addresses specified by the user that will be allowed to interact with the contract",
          "_partyNames": "The names of the parties specified by the user",
          "_partyTwitterHandles": "The Twitter handles of the parties specified by the user",
          "_promiseName": "The name of the contract specified by the user"
        }
      }
    },
    "title": "Master Contract",
    "version": 1
  },
  "userdoc": {
    "errors": {
      "PromiseFactory__EMPTY_FIELD()": [
        {
          "notice": "Errors"
        }
      ]
    },
    "events": {
      "PromiseContractCreated(address,address,string,string,string[],string[],address[])": {
        "notice": "Events"
      }
    },
    "kind": "user",
    "methods": {
      "addParticipant(address,string,string,address)": {
        "notice": "Add a participant to a promise contract"
      },
      "addTwitterVerifiedUser(address,string)": {
        "notice": "Add a verified Twitter account to the list of verified accounts"
      },
      "constructor": {
        "notice": "Initialize the contract"
      },
      "createPromiseContract(string,string,string[],string[],address[])": {
        "notice": "Create a new contract and add it to the list of child contracts"
      },
      "getPromiseContractAddresses(address)": {
        "notice": "Getters"
      },
      "setVerifier(address)": {
        "notice": "Setters"
      }
    },
    "notice": "This is the master contract initializing & referencing all child contracts",
    "version": 1
  },
  "storageLayout": {
    "storage": [
      {
        "astId": 3168,
        "contract": "contracts/PromiseFactory.sol:PromiseFactory",
        "label": "s_verifier",
        "offset": 0,
        "slot": "0",
        "type": "t_address"
      },
      {
        "astId": 3174,
        "contract": "contracts/PromiseFactory.sol:PromiseFactory",
        "label": "s_promiseContracts",
        "offset": 0,
        "slot": "1",
        "type": "t_mapping(t_address,t_array(t_contract(PromiseContract)3143)dyn_storage)"
      },
      {
        "astId": 3179,
        "contract": "contracts/PromiseFactory.sol:PromiseFactory",
        "label": "s_twitterVerifiedUsers",
        "offset": 0,
        "slot": "2",
        "type": "t_mapping(t_address,t_array(t_string_storage)dyn_storage)"
      }
    ],
    "types": {
      "t_address": {
        "encoding": "inplace",
        "label": "address",
        "numberOfBytes": "20"
      },
      "t_array(t_contract(PromiseContract)3143)dyn_storage": {
        "base": "t_contract(PromiseContract)3143",
        "encoding": "dynamic_array",
        "label": "contract PromiseContract[]",
        "numberOfBytes": "32"
      },
      "t_array(t_string_storage)dyn_storage": {
        "base": "t_string_storage",
        "encoding": "dynamic_array",
        "label": "string[]",
        "numberOfBytes": "32"
      },
      "t_contract(PromiseContract)3143": {
        "encoding": "inplace",
        "label": "contract PromiseContract",
        "numberOfBytes": "20"
      },
      "t_mapping(t_address,t_array(t_contract(PromiseContract)3143)dyn_storage)": {
        "encoding": "mapping",
        "key": "t_address",
        "label": "mapping(address => contract PromiseContract[])",
        "numberOfBytes": "32",
        "value": "t_array(t_contract(PromiseContract)3143)dyn_storage"
      },
      "t_mapping(t_address,t_array(t_string_storage)dyn_storage)": {
        "encoding": "mapping",
        "key": "t_address",
        "label": "mapping(address => string[])",
        "numberOfBytes": "32",
        "value": "t_array(t_string_storage)dyn_storage"
      },
      "t_string_storage": {
        "encoding": "bytes",
        "label": "string",
        "numberOfBytes": "32"
      }
    }
  }
}