{
  "address": "0xA29afEC04B4b99B3BE9101AC6aDEF52a6Fd137a8",
  "abi": [
    {
      "inputs": [],
      "name": "PromiseFactory__createContract__DUPLICATE_FIELD",
      "type": "error"
    },
    {
      "inputs": [],
      "name": "PromiseFactory__createContract__EMPTY_FIELD",
      "type": "error"
    },
    {
      "inputs": [],
      "name": "PromiseFactory__createContract__INCORRECT_FIELD_LENGTH",
      "type": "error"
    },
    {
      "inputs": [],
      "name": "PromiseFactory__createContract__INVALID_URI",
      "type": "error"
    },
    {
      "anonymous": false,
      "inputs": [
        {
          "indexed": true,
          "internalType": "address",
          "name": "_owner",
          "type": "address"
        },
        {
          "indexed": true,
          "internalType": "address",
          "name": "_contractAddress",
          "type": "address"
        },
        {
          "indexed": false,
          "internalType": "string",
          "name": "_promiseName",
          "type": "string"
        },
        {
          "indexed": false,
          "internalType": "string",
          "name": "_pdfUri",
          "type": "string"
        },
        {
          "indexed": false,
          "internalType": "string[]",
          "name": "_partyNames",
          "type": "string[]"
        },
        {
          "indexed": false,
          "internalType": "string[]",
          "name": "_partyTwitterHandles",
          "type": "string[]"
        },
        {
          "indexed": false,
          "internalType": "address[]",
          "name": "_partyAddresses",
          "type": "address[]"
        }
      ],
      "name": "PromiseContractCreated",
      "type": "event"
    },
    {
      "inputs": [
        {
          "internalType": "string",
          "name": "_promiseName",
          "type": "string"
        },
        {
          "internalType": "string",
          "name": "_pdfUri",
          "type": "string"
        },
        {
          "internalType": "string[]",
          "name": "_partyNames",
          "type": "string[]"
        },
        {
          "internalType": "string[]",
          "name": "_partyTwitterHandles",
          "type": "string[]"
        },
        {
          "internalType": "address[]",
          "name": "_partyAddresses",
          "type": "address[]"
        }
      ],
      "name": "createContract",
      "outputs": [
        {
          "internalType": "address",
          "name": "promiseContractAddress",
          "type": "address"
        }
      ],
      "stateMutability": "nonpayable",
      "type": "function"
    },
    {
      "inputs": [
        {
          "internalType": "address",
          "name": "_owner",
          "type": "address"
        }
      ],
      "name": "getPromiseContractAddresses",
      "outputs": [
        {
          "internalType": "contract PromiseContract[]",
          "name": "",
          "type": "address[]"
        }
      ],
      "stateMutability": "view",
      "type": "function"
    },
    {
      "inputs": [
        {
          "internalType": "address",
          "name": "_userAddress",
          "type": "address"
        }
      ],
      "name": "getPromiseContractCount",
      "outputs": [
        {
          "internalType": "uint256",
          "name": "",
          "type": "uint256"
        }
      ],
      "stateMutability": "view",
      "type": "function"
    },
    {
      "inputs": [
        {
          "internalType": "address",
          "name": "",
          "type": "address"
        },
        {
          "internalType": "uint256",
          "name": "",
          "type": "uint256"
        }
      ],
      "name": "promiseContracts",
      "outputs": [
        {
          "internalType": "contract PromiseContract",
          "name": "",
          "type": "address"
        }
      ],
      "stateMutability": "view",
      "type": "function"
    }
  ],
  "transactionHash": "0xac30a1e80529f4f880bfbbb3c5292c72499be09356dd8f436ab1fb9017238b86",
  "args": [],
  "numDeployments": 1,
  "solcInputHash": "5a4c349ca4277db6f638f7506858171f",
  "bytecode": "0x608060405234801561001057600080fd5b506139f5806100206000396000f3fe60806040523480156200001157600080fd5b5060043610620000525760003560e01c80634784336f1462000057578063d210fee3146200008d578063da9f385e14620000c3578063e9a54d4214620000f9575b600080fd5b6200007560048036038101906200006f9190620007da565b6200012f565b60405162000084919062000827565b60405180910390f35b620000ab6004803603810190620000a59190620007da565b6200017a565b604051620000ba91906200096c565b60405180910390f35b620000e16004803603810190620000db9190620009c1565b62000248565b604051620000f0919062000a19565b60405180910390f35b62000117600480360381019062000111919062000d6a565b62000297565b60405162000126919062000e9e565b60405180910390f35b60008060008373ffffffffffffffffffffffffffffffffffffffff1673ffffffffffffffffffffffffffffffffffffffff168152602001908152602001600020805490509050919050565b60606000808373ffffffffffffffffffffffffffffffffffffffff1673ffffffffffffffffffffffffffffffffffffffff1681526020019081526020016000208054806020026020016040519081016040528092919081815260200182805480156200023c57602002820191906000526020600020905b8160009054906101000a900473ffffffffffffffffffffffffffffffffffffffff1673ffffffffffffffffffffffffffffffffffffffff1681526020019060010190808311620001f1575b50505050509050919050565b600060205281600052604060002081815481106200026557600080fd5b906000526020600020016000915091509054906101000a900473ffffffffffffffffffffffffffffffffffffffff1681565b6000808651118015620002ab575060008551115b8015620002b9575060008451115b8015620002c7575060008251115b620002fe576040517f8b591cbb00000000000000000000000000000000000000000000000000000000815260040160405180910390fd5b8251825114801562000311575083518251145b62000348576040517fd789bf4700000000000000000000000000000000000000000000000000000000815260040160405180910390fd5b60005b8251811015620004d657600060018262000366919062000eea565b90505b8351811015620004bf5783818151811062000389576200038862000f25565b5b602002602001015173ffffffffffffffffffffffffffffffffffffffff16848381518110620003bd57620003bc62000f25565b5b602002602001015173ffffffffffffffffffffffffffffffffffffffff161480620004715750848181518110620003f957620003f862000f25565b5b602002602001015160405160200162000413919062000fcd565b604051602081830303815290604052805190602001208583815181106200043f576200043e62000f25565b5b602002602001015160405160200162000459919062000fcd565b60405160208183030381529060405280519060200120145b15620004a9576040517f2a7e1bf300000000000000000000000000000000000000000000000000000000815260040160405180910390fd5b8080620004b69062000fe6565b91505062000369565b508080620004cd9062000fe6565b9150506200034b565b5060468651111562000514576040517fd789bf4700000000000000000000000000000000000000000000000000000000815260040160405180910390fd5b6000859050600681511162000555576040517f9db542f700000000000000000000000000000000000000000000000000000000815260040160405180910390fd5b60005b8151811015620005ef5760008282815181106200057a576200057962000f25565b5b602001015160f81c60f81b60f81c60ff166001901b6f07ffeffe07ff7dfe03fe0000000000001611620005d9576040517f9db542f700000000000000000000000000000000000000000000000000000000815260040160405180910390fd5b8080620005e69062000fe6565b91505062000558565b506000338888888888604051620006069062000753565b620006179695949392919062001264565b604051809103906000f08015801562000634573d6000803e3d6000fd5b5090506000803373ffffffffffffffffffffffffffffffffffffffff1673ffffffffffffffffffffffffffffffffffffffff168152602001908152602001600020819080600181540180825580915050600190039060005260206000200160009091909190916101000a81548173ffffffffffffffffffffffffffffffffffffffff021916908373ffffffffffffffffffffffffffffffffffffffff1602179055508073ffffffffffffffffffffffffffffffffffffffff163373ffffffffffffffffffffffffffffffffffffffff167f7218ecb1d60a4ca32226db62922bd3917372e8801cddba0cc86fffd285ff74428a8a8a8a8a6040516200073d959493929190620012f4565b60405180910390a3809250505095945050505050565b61264b806200137583390190565b6000604051905090565b600080fd5b600080fd5b600073ffffffffffffffffffffffffffffffffffffffff82169050919050565b6000620007a28262000775565b9050919050565b620007b48162000795565b8114620007c057600080fd5b50565b600081359050620007d481620007a9565b92915050565b600060208284031215620007f357620007f26200076b565b5b60006200080384828501620007c3565b91505092915050565b6000819050919050565b62000821816200080c565b82525050565b60006020820190506200083e600083018462000816565b92915050565b600081519050919050565b600082825260208201905092915050565b6000819050602082019050919050565b6000819050919050565b60006200089b620008956200088f8462000775565b62000870565b62000775565b9050919050565b6000620008af826200087a565b9050919050565b6000620008c382620008a2565b9050919050565b620008d581620008b6565b82525050565b6000620008e98383620008ca565b60208301905092915050565b6000602082019050919050565b60006200090f8262000844565b6200091b81856200084f565b9350620009288362000860565b8060005b838110156200095f578151620009438882620008db565b97506200095083620008f5565b9250506001810190506200092c565b5085935050505092915050565b6000602082019050818103600083015262000988818462000902565b905092915050565b6200099b816200080c565b8114620009a757600080fd5b50565b600081359050620009bb8162000990565b92915050565b60008060408385031215620009db57620009da6200076b565b5b6000620009eb85828601620007c3565b9250506020620009fe85828601620009aa565b9150509250929050565b62000a1381620008b6565b82525050565b600060208201905062000a30600083018462000a08565b92915050565b600080fd5b600080fd5b6000601f19601f8301169050919050565b7f4e487b7100000000000000000000000000000000000000000000000000000000600052604160045260246000fd5b62000a8b8262000a40565b810181811067ffffffffffffffff8211171562000aad5762000aac62000a51565b5b80604052505050565b600062000ac262000761565b905062000ad0828262000a80565b919050565b600067ffffffffffffffff82111562000af35762000af262000a51565b5b62000afe8262000a40565b9050602081019050919050565b82818337600083830152505050565b600062000b3162000b2b8462000ad5565b62000ab6565b90508281526020810184848401111562000b505762000b4f62000a3b565b5b62000b5d84828562000b0b565b509392505050565b600082601f83011262000b7d5762000b7c62000a36565b5b813562000b8f84826020860162000b1a565b91505092915050565b600067ffffffffffffffff82111562000bb65762000bb562000a51565b5b602082029050602081019050919050565b600080fd5b600062000be362000bdd8462000b98565b62000ab6565b9050808382526020820190506020840283018581111562000c095762000c0862000bc7565b5b835b8181101562000c5757803567ffffffffffffffff81111562000c325762000c3162000a36565b5b80860162000c41898262000b65565b8552602085019450505060208101905062000c0b565b5050509392505050565b600082601f83011262000c795762000c7862000a36565b5b813562000c8b84826020860162000bcc565b91505092915050565b600067ffffffffffffffff82111562000cb25762000cb162000a51565b5b602082029050602081019050919050565b600062000cda62000cd48462000c94565b62000ab6565b9050808382526020820190506020840283018581111562000d005762000cff62000bc7565b5b835b8181101562000d2d578062000d188882620007c3565b84526020840193505060208101905062000d02565b5050509392505050565b600082601f83011262000d4f5762000d4e62000a36565b5b813562000d6184826020860162000cc3565b91505092915050565b600080600080600060a0868803121562000d895762000d886200076b565b5b600086013567ffffffffffffffff81111562000daa5762000da962000770565b5b62000db88882890162000b65565b955050602086013567ffffffffffffffff81111562000ddc5762000ddb62000770565b5b62000dea8882890162000b65565b945050604086013567ffffffffffffffff81111562000e0e5762000e0d62000770565b5b62000e1c8882890162000c61565b935050606086013567ffffffffffffffff81111562000e405762000e3f62000770565b5b62000e4e8882890162000c61565b925050608086013567ffffffffffffffff81111562000e725762000e7162000770565b5b62000e808882890162000d37565b9150509295509295909350565b62000e988162000795565b82525050565b600060208201905062000eb5600083018462000e8d565b92915050565b7f4e487b7100000000000000000000000000000000000000000000000000000000600052601160045260246000fd5b600062000ef7826200080c565b915062000f04836200080c565b925082820190508082111562000f1f5762000f1e62000ebb565b5b92915050565b7f4e487b7100000000000000000000000000000000000000000000000000000000600052603260045260246000fd5b600081519050919050565b600081905092915050565b60005b8381101562000f8a57808201518184015260208101905062000f6d565b60008484015250505050565b600062000fa38262000f54565b62000faf818562000f5f565b935062000fc181856020860162000f6a565b80840191505092915050565b600062000fdb828462000f96565b915081905092915050565b600062000ff3826200080c565b91507fffffffffffffffffffffffffffffffffffffffffffffffffffffffffffffffff820362001028576200102762000ebb565b5b600182019050919050565b600082825260208201905092915050565b6000620010518262000f54565b6200105d818562001033565b93506200106f81856020860162000f6a565b6200107a8162000a40565b840191505092915050565b600081519050919050565b600082825260208201905092915050565b6000819050602082019050919050565b600082825260208201905092915050565b6000620010cf8262000f54565b620010db8185620010b1565b9350620010ed81856020860162000f6a565b620010f88162000a40565b840191505092915050565b6000620011118383620010c2565b905092915050565b6000602082019050919050565b6000620011338262001085565b6200113f818562001090565b9350836020820285016200115385620010a1565b8060005b8581101562001195578484038952815162001173858262001103565b9450620011808362001119565b925060208a0199505060018101905062001157565b50829750879550505050505092915050565b600081519050919050565b6000819050602082019050919050565b620011cd8162000795565b82525050565b6000620011e18383620011c2565b60208301905092915050565b6000602082019050919050565b60006200120782620011a7565b6200121381856200084f565b93506200122083620011b2565b8060005b83811015620012575781516200123b8882620011d3565b97506200124883620011ed565b92505060018101905062001224565b5085935050505092915050565b600060c0820190506200127b600083018962000e8d565b81810360208301526200128f818862001044565b90508181036040830152620012a5818762001044565b90508181036060830152620012bb818662001126565b90508181036080830152620012d1818562001126565b905081810360a0830152620012e78184620011fa565b9050979650505050505050565b600060a082019050818103600083015262001310818862001044565b9050818103602083015262001326818762001044565b905081810360408301526200133c818662001126565b9050818103606083015262001352818562001126565b90508181036080830152620013688184620011fa565b9050969550505050505056fe60a06040526000600460006101000a81548160ff0219169083151502179055503480156200002c57600080fd5b506040516200264b3803806200264b8339818101604052810190620000529190620006c0565b8573ffffffffffffffffffffffffffffffffffffffff1660808173ffffffffffffffffffffffffffffffffffffffff1681525050846001908162000097919062000a42565b508360029081620000a9919062000a42565b50805160008190555060005b81518110156200013f5762000129848281518110620000d957620000d862000b29565b5b6020026020010151848381518110620000f757620000f662000b29565b5b602002602001015184848151811062000115576200011462000b29565b5b60200260200101516200014c60201b60201c565b8080620001369062000b87565b915050620000b5565b5050505050505062000c61565b600060405180606001604052808581526020018481526020018373ffffffffffffffffffffffffffffffffffffffff16815250905080600560008473ffffffffffffffffffffffffffffffffffffffff1673ffffffffffffffffffffffffffffffffffffffff1681526020019081526020016000206000820151816000019081620001d8919062000a42565b506020820151816001019081620001f0919062000a42565b5060408201518160020160006101000a81548173ffffffffffffffffffffffffffffffffffffffff021916908373ffffffffffffffffffffffffffffffffffffffff1602179055509050506003829080600181540180825580915050600190039060005260206000200160009091909190916101000a81548173ffffffffffffffffffffffffffffffffffffffff021916908373ffffffffffffffffffffffffffffffffffffffff1602179055508173ffffffffffffffffffffffffffffffffffffffff167fd76352dcc1f8336c0abdec06ee73330eee3e75ba620ba2c87510a25a32439d4e8585604051620002e892919062000c26565b60405180910390a250505050565b6000604051905090565b600080fd5b600080fd5b600073ffffffffffffffffffffffffffffffffffffffff82169050919050565b600062000337826200030a565b9050919050565b62000349816200032a565b81146200035557600080fd5b50565b60008151905062000369816200033e565b92915050565b600080fd5b600080fd5b6000601f19601f8301169050919050565b7f4e487b7100000000000000000000000000000000000000000000000000000000600052604160045260246000fd5b620003c48262000379565b810181811067ffffffffffffffff82111715620003e657620003e56200038a565b5b80604052505050565b6000620003fb620002f6565b9050620004098282620003b9565b919050565b600067ffffffffffffffff8211156200042c576200042b6200038a565b5b620004378262000379565b9050602081019050919050565b60005b838110156200046457808201518184015260208101905062000447565b60008484015250505050565b60006200048762000481846200040e565b620003ef565b905082815260208101848484011115620004a657620004a562000374565b5b620004b384828562000444565b509392505050565b600082601f830112620004d357620004d26200036f565b5b8151620004e584826020860162000470565b91505092915050565b600067ffffffffffffffff8211156200050c576200050b6200038a565b5b602082029050602081019050919050565b600080fd5b6000620005396200053384620004ee565b620003ef565b905080838252602082019050602084028301858111156200055f576200055e6200051d565b5b835b81811015620005ad57805167ffffffffffffffff8111156200058857620005876200036f565b5b808601620005978982620004bb565b8552602085019450505060208101905062000561565b5050509392505050565b600082601f830112620005cf57620005ce6200036f565b5b8151620005e184826020860162000522565b91505092915050565b600067ffffffffffffffff8211156200060857620006076200038a565b5b602082029050602081019050919050565b6000620006306200062a84620005ea565b620003ef565b905080838252602082019050602084028301858111156200065657620006556200051d565b5b835b818110156200068357806200066e888262000358565b84526020840193505060208101905062000658565b5050509392505050565b600082601f830112620006a557620006a46200036f565b5b8151620006b784826020860162000619565b91505092915050565b60008060008060008060c08789031215620006e057620006df62000300565b5b6000620006f089828a0162000358565b965050602087015167ffffffffffffffff81111562000714576200071362000305565b5b6200072289828a01620004bb565b955050604087015167ffffffffffffffff81111562000746576200074562000305565b5b6200075489828a01620004bb565b945050606087015167ffffffffffffffff81111562000778576200077762000305565b5b6200078689828a01620005b7565b935050608087015167ffffffffffffffff811115620007aa57620007a962000305565b5b620007b889828a01620005b7565b92505060a087015167ffffffffffffffff811115620007dc57620007db62000305565b5b620007ea89828a016200068d565b9150509295509295509295565b600081519050919050565b7f4e487b7100000000000000000000000000000000000000000000000000000000600052602260045260246000fd5b600060028204905060018216806200084a57607f821691505b60208210810362000860576200085f62000802565b5b50919050565b60008190508160005260206000209050919050565b60006020601f8301049050919050565b600082821b905092915050565b600060088302620008ca7fffffffffffffffffffffffffffffffffffffffffffffffffffffffffffffffff826200088b565b620008d686836200088b565b95508019841693508086168417925050509392505050565b6000819050919050565b6000819050919050565b6000620009236200091d6200091784620008ee565b620008f8565b620008ee565b9050919050565b6000819050919050565b6200093f8362000902565b620009576200094e826200092a565b84845462000898565b825550505050565b600090565b6200096e6200095f565b6200097b81848462000934565b505050565b5b81811015620009a3576200099760008262000964565b60018101905062000981565b5050565b601f821115620009f257620009bc8162000866565b620009c7846200087b565b81016020851015620009d7578190505b620009ef620009e6856200087b565b83018262000980565b50505b505050565b600082821c905092915050565b600062000a1760001984600802620009f7565b1980831691505092915050565b600062000a32838362000a04565b9150826002028217905092915050565b62000a4d82620007f7565b67ffffffffffffffff81111562000a695762000a686200038a565b5b62000a75825462000831565b62000a82828285620009a7565b600060209050601f83116001811462000aba576000841562000aa5578287015190505b62000ab1858262000a24565b86555062000b21565b601f19841662000aca8662000866565b60005b8281101562000af45784890151825560018201915060208501945060208101905062000acd565b8683101562000b14578489015162000b10601f89168262000a04565b8355505b6001600288020188555050505b505050505050565b7f4e487b7100000000000000000000000000000000000000000000000000000000600052603260045260246000fd5b7f4e487b7100000000000000000000000000000000000000000000000000000000600052601160045260246000fd5b600062000b9482620008ee565b91507fffffffffffffffffffffffffffffffffffffffffffffffffffffffffffffffff820362000bc95762000bc862000b58565b5b600182019050919050565b600082825260208201905092915050565b600062000bf282620007f7565b62000bfe818562000bd4565b935062000c1081856020860162000444565b62000c1b8162000379565b840191505092915050565b6000604082019050818103600083015262000c42818562000be5565b9050818103602083015262000c58818462000be5565b90509392505050565b6080516119b962000c9260003960008181610531015281816109d601528181611051015261126801526119b96000f3fe608060405234801561001057600080fd5b50600436106101165760003560e01c80637143059f116100a257806392be02d81161007157806392be02d8146102c1578063a7d136a8146102f3578063ad60572914610311578063dba6335f1461032f578063fbba434c1461034d57610116565b80637143059f146102255780637488b7ab1461025557806375e5725114610285578063893d20e8146102a357610116565b80633686b778116100e95780633686b7781461019157806349004a86146101c157806353d54866146101df57806363cf7ce2146101fd5780636538eb871461021b57610116565b80630cc375281461011b57806317d7de7c1461013957806319dec62a146101575780633683b58314610161575b600080fd5b61012361036b565b6040516101309190611426565b60405180910390f35b6101416103f9565b60405161014e9190611426565b60405180910390f35b61015f61048b565b005b61017b600480360381019061017691906114ab565b610822565b60405161018891906114f3565b60405180910390f35b6101ab60048036038101906101a69190611544565b610842565b6040516101b89190611580565b60405180910390f35b6101c9610881565b6040516101d691906114f3565b60405180910390f35b6101e7610898565b6040516101f491906115aa565b60405180910390f35b61020561089e565b6040516102129190611426565b60405180910390f35b610223610930565b005b61023f600480360381019061023a91906114ab565b610cce565b60405161024c9190611675565b60405180910390f35b61026f600480360381019061026a91906114ab565b610f69565b60405161027c91906114f3565b60405180910390f35b61028d610fbf565b60405161029a9190611426565b60405180910390f35b6102ab61104d565b6040516102b89190611580565b60405180910390f35b6102db60048036038101906102d691906114ab565b611075565b6040516102ea93929190611697565b60405180910390f35b6102fb6111cf565b604051610308919061178b565b60405180910390f35b61031961125d565b60405161032691906115aa565b60405180910390f35b610337611266565b6040516103449190611580565b60405180910390f35b61035561128a565b60405161036291906114f3565b60405180910390f35b60018054610378906117dc565b80601f01602080910402602001604051908101604052809291908181526020018280546103a4906117dc565b80156103f15780601f106103c6576101008083540402835291602001916103f1565b820191906000526020600020905b8154815290600101906020018083116103d457829003601f168201915b505050505081565b606060018054610408906117dc565b80601f0160208091040260200160405190810160405280929190818152602001828054610434906117dc565b80156104815780601f1061045657610100808354040283529160200191610481565b820191906000526020600020905b81548152906001019060200180831161046457829003601f168201915b5050505050905090565b6000600380548060200260200160405190810160405280929190818152602001828054801561050f57602002820191906000526020600020905b8160009054906101000a900473ffffffffffffffffffffffffffffffffffffffff1673ffffffffffffffffffffffffffffffffffffffff16815260200190600101908083116104c5575b5050505050905060003373ffffffffffffffffffffffffffffffffffffffff167f000000000000000000000000000000000000000000000000000000000000000073ffffffffffffffffffffffffffffffffffffffff160361057457600190506105ec565b60005b6000548110156105ea573373ffffffffffffffffffffffffffffffffffffffff168382815181106105ab576105aa61180d565b5b602002602001015173ffffffffffffffffffffffffffffffffffffffff16036105d757600191506105ea565b80806105e29061186b565b915050610577565b505b80610623576040517ffccacf3300000000000000000000000000000000000000000000000000000000815260040160405180910390fd5b600460009054906101000a900460ff161561066a576040517f849e1a5500000000000000000000000000000000000000000000000000000000815260040160405180910390fd5b60011515600660003373ffffffffffffffffffffffffffffffffffffffff1673ffffffffffffffffffffffffffffffffffffffff16815260200190815260200160002060009054906101000a900460ff161515036106f4576040517ff882d90900000000000000000000000000000000000000000000000000000000815260040160405180910390fd5b6001600660003373ffffffffffffffffffffffffffffffffffffffff1673ffffffffffffffffffffffffffffffffffffffff16815260200190815260200160002060006101000a81548160ff0219169083151502179055503373ffffffffffffffffffffffffffffffffffffffff167f26c25af05520e978d353f976c99fa4c277ddc75aed4170ec47c9e24f06e62a1c600560003373ffffffffffffffffffffffffffffffffffffffff1673ffffffffffffffffffffffffffffffffffffffff168152602001908152602001600020600001600560003373ffffffffffffffffffffffffffffffffffffffff1673ffffffffffffffffffffffffffffffffffffffff16815260200190815260200160002060010160405161081692919061194c565b60405180910390a25050565b60066020528060005260406000206000915054906101000a900460ff1681565b6003818154811061085257600080fd5b906000526020600020016000915054906101000a900473ffffffffffffffffffffffffffffffffffffffff1681565b6000600460009054906101000a900460ff16905090565b60005481565b6060600280546108ad906117dc565b80601f01602080910402602001604051908101604052809291908181526020018280546108d9906117dc565b80156109265780601f106108fb57610100808354040283529160200191610926565b820191906000526020600020905b81548152906001019060200180831161090957829003601f168201915b5050505050905090565b600060038054806020026020016040519081016040528092919081815260200182805480156109b457602002820191906000526020600020905b8160009054906101000a900473ffffffffffffffffffffffffffffffffffffffff1673ffffffffffffffffffffffffffffffffffffffff168152602001906001019080831161096a575b5050505050905060003373ffffffffffffffffffffffffffffffffffffffff167f000000000000000000000000000000000000000000000000000000000000000073ffffffffffffffffffffffffffffffffffffffff1603610a195760019050610a91565b60005b600054811015610a8f573373ffffffffffffffffffffffffffffffffffffffff16838281518110610a5057610a4f61180d565b5b602002602001015173ffffffffffffffffffffffffffffffffffffffff1603610a7c5760019150610a8f565b8080610a879061186b565b915050610a1c565b505b80610ac8576040517ffccacf3300000000000000000000000000000000000000000000000000000000815260040160405180910390fd5b600460009054906101000a900460ff1615610b0f576040517f849e1a5500000000000000000000000000000000000000000000000000000000815260040160405180910390fd5b60006003805480602002602001604051908101604052809291908181526020018280548015610b9357602002820191906000526020600020905b8160009054906101000a900473ffffffffffffffffffffffffffffffffffffffff1673ffffffffffffffffffffffffffffffffffffffff1681526020019060010190808311610b49575b5050505050905060005b600054811015610c81576000151560066000848481518110610bc257610bc161180d565b5b602002602001015173ffffffffffffffffffffffffffffffffffffffff1673ffffffffffffffffffffffffffffffffffffffff16815260200190815260200160002060009054906101000a900460ff16151503610c6e57610c3c828281518110610c2f57610c2e61180d565b5b602002602001015161129d565b6040517fb51b0acc00000000000000000000000000000000000000000000000000000000815260040160405180910390fd5b8080610c799061186b565b915050610b9d565b506001600460006101000a81548160ff0219169083151502179055507f8f684ec4e5cf6918ed76f89bf575e71e4c85067265dd93331fc3fa67122720dc60405160405180910390a1505050565b610cd661135f565b600073ffffffffffffffffffffffffffffffffffffffff16600560008473ffffffffffffffffffffffffffffffffffffffff1673ffffffffffffffffffffffffffffffffffffffff16815260200190815260200160002060020160009054906101000a900473ffffffffffffffffffffffffffffffffffffffff1673ffffffffffffffffffffffffffffffffffffffff1603610d9e576040517ffccacf3300000000000000000000000000000000000000000000000000000000815260040160405180910390fd5b600560008373ffffffffffffffffffffffffffffffffffffffff1673ffffffffffffffffffffffffffffffffffffffff168152602001908152602001600020604051806060016040529081600082018054610df8906117dc565b80601f0160208091040260200160405190810160405280929190818152602001828054610e24906117dc565b8015610e715780601f10610e4657610100808354040283529160200191610e71565b820191906000526020600020905b815481529060010190602001808311610e5457829003601f168201915b50505050508152602001600182018054610e8a906117dc565b80601f0160208091040260200160405190810160405280929190818152602001828054610eb6906117dc565b8015610f035780601f10610ed857610100808354040283529160200191610f03565b820191906000526020600020905b815481529060010190602001808311610ee657829003601f168201915b505050505081526020016002820160009054906101000a900473ffffffffffffffffffffffffffffffffffffffff1673ffffffffffffffffffffffffffffffffffffffff1673ffffffffffffffffffffffffffffffffffffffff16815250509050919050565b6000600660008373ffffffffffffffffffffffffffffffffffffffff1673ffffffffffffffffffffffffffffffffffffffff16815260200190815260200160002060009054906101000a900460ff169050919050565b60028054610fcc906117dc565b80601f0160208091040260200160405190810160405280929190818152602001828054610ff8906117dc565b80156110455780601f1061101a57610100808354040283529160200191611045565b820191906000526020600020905b81548152906001019060200180831161102857829003601f168201915b505050505081565b60007f0000000000000000000000000000000000000000000000000000000000000000905090565b6005602052806000526040600020600091509050806000018054611098906117dc565b80601f01602080910402602001604051908101604052809291908181526020018280546110c4906117dc565b80156111115780601f106110e657610100808354040283529160200191611111565b820191906000526020600020905b8154815290600101906020018083116110f457829003601f168201915b505050505090806001018054611126906117dc565b80601f0160208091040260200160405190810160405280929190818152602001828054611152906117dc565b801561119f5780601f106111745761010080835404028352916020019161119f565b820191906000526020600020905b81548152906001019060200180831161118257829003601f168201915b5050505050908060020160009054906101000a900473ffffffffffffffffffffffffffffffffffffffff16905083565b6060600380548060200260200160405190810160405280929190818152602001828054801561125357602002820191906000526020600020905b8160009054906101000a900473ffffffffffffffffffffffffffffffffffffffff1673ffffffffffffffffffffffffffffffffffffffff1681526020019060010190808311611209575b5050505050905090565b60008054905090565b7f000000000000000000000000000000000000000000000000000000000000000081565b600460009054906101000a900460ff1681565b611333816040516024016112b19190611580565b6040516020818303038152906040527f2c2ecbc2000000000000000000000000000000000000000000000000000000007bffffffffffffffffffffffffffffffffffffffffffffffffffffffff19166020820180517bffffffffffffffffffffffffffffffffffffffffffffffffffffffff8381831617835250505050611336565b50565b60008151905060006a636f6e736f6c652e6c6f679050602083016000808483855afa5050505050565b60405180606001604052806060815260200160608152602001600073ffffffffffffffffffffffffffffffffffffffff1681525090565b600081519050919050565b600082825260208201905092915050565b60005b838110156113d05780820151818401526020810190506113b5565b60008484015250505050565b6000601f19601f8301169050919050565b60006113f882611396565b61140281856113a1565b93506114128185602086016113b2565b61141b816113dc565b840191505092915050565b6000602082019050818103600083015261144081846113ed565b905092915050565b600080fd5b600073ffffffffffffffffffffffffffffffffffffffff82169050919050565b60006114788261144d565b9050919050565b6114888161146d565b811461149357600080fd5b50565b6000813590506114a58161147f565b92915050565b6000602082840312156114c1576114c0611448565b5b60006114cf84828501611496565b91505092915050565b60008115159050919050565b6114ed816114d8565b82525050565b600060208201905061150860008301846114e4565b92915050565b6000819050919050565b6115218161150e565b811461152c57600080fd5b50565b60008135905061153e81611518565b92915050565b60006020828403121561155a57611559611448565b5b60006115688482850161152f565b91505092915050565b61157a8161146d565b82525050565b60006020820190506115956000830184611571565b92915050565b6115a48161150e565b82525050565b60006020820190506115bf600083018461159b565b92915050565b600082825260208201905092915050565b60006115e182611396565b6115eb81856115c5565b93506115fb8185602086016113b2565b611604816113dc565b840191505092915050565b6116188161146d565b82525050565b6000606083016000830151848203600086015261163b82826115d6565b9150506020830151848203602086015261165582826115d6565b915050604083015161166a604086018261160f565b508091505092915050565b6000602082019050818103600083015261168f818461161e565b905092915050565b600060608201905081810360008301526116b181866113ed565b905081810360208301526116c581856113ed565b90506116d46040830184611571565b949350505050565b600081519050919050565b600082825260208201905092915050565b6000819050602082019050919050565b6000611714838361160f565b60208301905092915050565b6000602082019050919050565b6000611738826116dc565b61174281856116e7565b935061174d836116f8565b8060005b8381101561177e5781516117658882611708565b975061177083611720565b925050600181019050611751565b5085935050505092915050565b600060208201905081810360008301526117a5818461172d565b905092915050565b7f4e487b7100000000000000000000000000000000000000000000000000000000600052602260045260246000fd5b600060028204905060018216806117f457607f821691505b602082108103611807576118066117ad565b5b50919050565b7f4e487b7100000000000000000000000000000000000000000000000000000000600052603260045260246000fd5b7f4e487b7100000000000000000000000000000000000000000000000000000000600052601160045260246000fd5b60006118768261150e565b91507fffffffffffffffffffffffffffffffffffffffffffffffffffffffffffffffff82036118a8576118a761183c565b5b600182019050919050565b60008190508160005260206000209050919050565b600081546118d5816117dc565b6118df81866113a1565b945060018216600081146118fa576001811461191057611943565b60ff198316865281151560200286019350611943565b611919856118b3565b60005b8381101561193b5781548189015260018201915060208101905061191c565b808801955050505b50505092915050565b6000604082019050818103600083015261196681856118c8565b9050818103602083015261197a81846118c8565b9050939250505056fea264697066735822122063f9079e72bad32cc920efc50eac51d45e11107ff0dd0b0caf050a408bcfae7464736f6c63430008110033a2646970667358221220ca54b36f6ddb673c91f4da0bd9465bfdf24e345edcfd07ead571de79db49188b64736f6c63430008110033",
  "devdoc": {
    "author": "polarzero",
    "kind": "dev",
    "methods": {
      "createContract(string,string,string[],string[],address[])": {
        "params": {
          "_partyAddresses": "The addresses specified by the user that will be allowed to interact with the contract",
          "_partyNames": "The names of the parties specified by the user",
          "_partyTwitterHandles": "The Twitter handles of the parties specified by the user",
          "_pdfUri": "The URI of the PDF file stored on IPFS",
          "_promiseName": "The name of the contract specified by the user"
        }
      }
    },
    "title": "Master Contract",
    "version": 1
  },
  "userdoc": {
    "errors": {
      "PromiseFactory__createContract__EMPTY_FIELD()": [
        {
          "notice": "Errors"
        }
      ]
    },
    "events": {
      "PromiseContractCreated(address,address,string,string,string[],string[],address[])": {
        "notice": "Events"
      }
    },
    "kind": "user",
    "methods": {
      "createContract(string,string,string[],string[],address[])": {
        "notice": "Create a new contract and add it to the list of child contracts"
      },
      "getPromiseContractAddresses(address)": {
        "notice": "Getters"
      }
    },
    "notice": "This is the master contract initializing & referencing all child contracts",
    "version": 1
  },
  "storageLayout": {
    "storage": [
      {
        "astId": 436,
        "contract": "contracts/PromiseFactory.sol:PromiseFactory",
        "label": "promiseContracts",
        "offset": 0,
        "slot": "0",
        "type": "t_mapping(t_address,t_array(t_contract(PromiseContract)416)dyn_storage)"
      }
    ],
    "types": {
      "t_address": {
        "encoding": "inplace",
        "label": "address",
        "numberOfBytes": "20"
      },
      "t_array(t_contract(PromiseContract)416)dyn_storage": {
        "base": "t_contract(PromiseContract)416",
        "encoding": "dynamic_array",
        "label": "contract PromiseContract[]",
        "numberOfBytes": "32"
      },
      "t_contract(PromiseContract)416": {
        "encoding": "inplace",
        "label": "contract PromiseContract",
        "numberOfBytes": "20"
      },
      "t_mapping(t_address,t_array(t_contract(PromiseContract)416)dyn_storage)": {
        "encoding": "mapping",
        "key": "t_address",
        "label": "mapping(address => contract PromiseContract[])",
        "numberOfBytes": "32",
        "value": "t_array(t_contract(PromiseContract)416)dyn_storage"
      }
    }
  }
}