{
  "address": "0xa288Da44e534Ebed813D7ea8aEc7A86A50a878B9",
  "abi": [
    {
      "inputs": [],
      "stateMutability": "nonpayable",
      "type": "constructor"
    },
    {
      "inputs": [],
      "name": "PromiseFactory__EMPTY_FIELD",
      "type": "error"
    },
    {
      "inputs": [],
      "name": "PromiseFactory__INCORRECT_FIELD_LENGTH",
      "type": "error"
    },
    {
      "inputs": [],
      "name": "PromiseFactory__NOT_OWNER",
      "type": "error"
    },
    {
      "inputs": [],
      "name": "PromiseFactory__NOT_VERIFIER",
      "type": "error"
    },
    {
      "inputs": [],
      "name": "PromiseFactory__addParticipant__ALREADY_PARTICIPANT",
      "type": "error"
    },
    {
      "inputs": [],
      "name": "PromiseFactory__addParticipant__NOT_PARTICIPANT",
      "type": "error"
    },
    {
      "inputs": [],
      "name": "PromiseFactory__createPromiseContract__DUPLICATE_FIELD",
      "type": "error"
    },
    {
      "inputs": [],
      "name": "PromiseFactory__createPromiseContract__OWNER_MUST_BE_PARTICIPANT",
      "type": "error"
    },
    {
      "anonymous": false,
      "inputs": [
        {
          "indexed": true,
          "internalType": "address",
          "name": "_contractAddress",
          "type": "address"
        },
        {
          "indexed": false,
          "internalType": "string",
          "name": "_participantName",
          "type": "string"
        },
        {
          "indexed": false,
          "internalType": "string",
          "name": "_participantTwitterHandle",
          "type": "string"
        },
        {
          "indexed": false,
          "internalType": "address",
          "name": "_participantAddress",
          "type": "address"
        }
      ],
      "name": "ParticipantAdded",
      "type": "event"
    },
    {
      "anonymous": false,
      "inputs": [
        {
          "indexed": true,
          "internalType": "address",
          "name": "_owner",
          "type": "address"
        },
        {
          "indexed": true,
          "internalType": "address",
          "name": "_contractAddress",
          "type": "address"
        },
        {
          "indexed": false,
          "internalType": "string",
          "name": "_promiseName",
          "type": "string"
        },
        {
          "indexed": false,
          "internalType": "string",
          "name": "_ipfsCid",
          "type": "string"
        },
        {
          "indexed": false,
          "internalType": "string",
          "name": "_arweaveId",
          "type": "string"
        },
        {
          "indexed": false,
          "internalType": "string",
          "name": "encryptedProof",
          "type": "string"
        },
        {
          "indexed": false,
          "internalType": "string[]",
          "name": "_partyNames",
          "type": "string[]"
        },
        {
          "indexed": false,
          "internalType": "string[]",
          "name": "_partyTwitterHandles",
          "type": "string[]"
        },
        {
          "indexed": false,
          "internalType": "address[]",
          "name": "_partyAddresses",
          "type": "address[]"
        }
      ],
      "name": "PromiseContractCreated",
      "type": "event"
    },
    {
      "anonymous": false,
      "inputs": [
        {
          "indexed": false,
          "internalType": "address",
          "name": "promiseContract",
          "type": "address"
        }
      ],
      "name": "StorageStatusUpdateRequested",
      "type": "event"
    },
    {
      "anonymous": false,
      "inputs": [
        {
          "indexed": true,
          "internalType": "address",
          "name": "_contractAddress",
          "type": "address"
        },
        {
          "indexed": false,
          "internalType": "uint8",
          "name": "_storageStatus",
          "type": "uint8"
        }
      ],
      "name": "StorageStatusUpdated",
      "type": "event"
    },
    {
      "anonymous": false,
      "inputs": [
        {
          "indexed": true,
          "internalType": "address",
          "name": "_owner",
          "type": "address"
        },
        {
          "indexed": false,
          "internalType": "string",
          "name": "_twitterHandle",
          "type": "string"
        }
      ],
      "name": "TwitterAddVerifiedSuccessful",
      "type": "event"
    },
    {
      "inputs": [
        {
          "internalType": "address",
          "name": "_promiseContractAddress",
          "type": "address"
        },
        {
          "internalType": "string",
          "name": "_partyName",
          "type": "string"
        },
        {
          "internalType": "string",
          "name": "_partyTwitterHandle",
          "type": "string"
        },
        {
          "internalType": "address",
          "name": "_partyAddress",
          "type": "address"
        }
      ],
      "name": "addParticipant",
      "outputs": [],
      "stateMutability": "nonpayable",
      "type": "function"
    },
    {
      "inputs": [
        {
          "internalType": "address",
          "name": "_userAddress",
          "type": "address"
        },
        {
          "internalType": "string",
          "name": "_twitterHandle",
          "type": "string"
        }
      ],
      "name": "addTwitterVerifiedUser",
      "outputs": [],
      "stateMutability": "nonpayable",
      "type": "function"
    },
    {
      "inputs": [
        {
          "internalType": "string",
          "name": "_promiseName",
          "type": "string"
        },
        {
          "internalType": "string",
          "name": "_ipfsCid",
          "type": "string"
        },
        {
          "internalType": "string",
          "name": "_arweaveId",
          "type": "string"
        },
        {
          "internalType": "string",
          "name": "_encryptedProof",
          "type": "string"
        },
        {
          "internalType": "string[]",
          "name": "_partyNames",
          "type": "string[]"
        },
        {
          "internalType": "string[]",
          "name": "_partyTwitterHandles",
          "type": "string[]"
        },
        {
          "internalType": "address[]",
          "name": "_partyAddresses",
          "type": "address[]"
        }
      ],
      "name": "createPromiseContract",
      "outputs": [
        {
          "internalType": "address",
          "name": "promiseContractAddress",
          "type": "address"
        }
      ],
      "stateMutability": "nonpayable",
      "type": "function"
    },
    {
      "inputs": [],
      "name": "getOwner",
      "outputs": [
        {
          "internalType": "address",
          "name": "",
          "type": "address"
        }
      ],
      "stateMutability": "view",
      "type": "function"
    },
    {
      "inputs": [
        {
          "internalType": "address",
          "name": "_owner",
          "type": "address"
        }
      ],
      "name": "getPromiseContractAddresses",
      "outputs": [
        {
          "internalType": "contract PromiseContract[]",
          "name": "",
          "type": "address[]"
        }
      ],
      "stateMutability": "view",
      "type": "function"
    },
    {
      "inputs": [
        {
          "internalType": "address",
          "name": "_userAddress",
          "type": "address"
        }
      ],
      "name": "getPromiseContractCount",
      "outputs": [
        {
          "internalType": "uint256",
          "name": "",
          "type": "uint256"
        }
      ],
      "stateMutability": "view",
      "type": "function"
    },
    {
      "inputs": [],
      "name": "getStorageVerifier",
      "outputs": [
        {
          "internalType": "address",
          "name": "",
          "type": "address"
        }
      ],
      "stateMutability": "view",
      "type": "function"
    },
    {
      "inputs": [
        {
          "internalType": "address",
          "name": "_userAddress",
          "type": "address"
        }
      ],
      "name": "getTwitterVerifiedHandle",
      "outputs": [
        {
          "internalType": "string[]",
          "name": "",
          "type": "string[]"
        }
      ],
      "stateMutability": "view",
      "type": "function"
    },
    {
      "inputs": [],
      "name": "getTwitterVerifier",
      "outputs": [
        {
          "internalType": "address",
          "name": "",
          "type": "address"
        }
      ],
      "stateMutability": "view",
      "type": "function"
    },
    {
      "inputs": [
        {
          "internalType": "address",
          "name": "_storageVerifier",
          "type": "address"
        }
      ],
      "name": "setStorageVerifier",
      "outputs": [],
      "stateMutability": "nonpayable",
      "type": "function"
    },
    {
      "inputs": [
        {
          "internalType": "address",
          "name": "_twitterVerifier",
          "type": "address"
        }
      ],
      "name": "setTwitterVerifier",
      "outputs": [],
      "stateMutability": "nonpayable",
      "type": "function"
    },
    {
      "inputs": [
        {
          "internalType": "address",
          "name": "_promiseContractAddress",
          "type": "address"
        },
        {
          "internalType": "uint8",
          "name": "_storageStatus",
          "type": "uint8"
        }
      ],
      "name": "updateStorageStatus",
      "outputs": [],
      "stateMutability": "nonpayable",
      "type": "function"
    }
  ],
  "transactionHash": "0x5e7202bdbd67ddecfd14f2638c8e169dbcc963846641477cd5b35d17d5a96b65",
  "args": [],
  "numDeployments": 1,
  "solcInputHash": "6aae7867926bc1825a4a0a5b718972a0",
  "bytecode": "0x60a060405234801561001057600080fd5b503373ffffffffffffffffffffffffffffffffffffffff1660808173ffffffffffffffffffffffffffffffffffffffff16815250506080516156c761006e6000396000818161031f015281816103e801526104b401526156c76000f3fe60806040523480156200001157600080fd5b5060043610620000c45760003560e01c8063a2d0095e116200007b578063a2d0095e14620001b9578063c4fd186414620001d9578063d210fee314620001f9578063d488f9a0146200022f578063e2b58e621462000265578063e31db573146200028757620000c4565b80634784336f14620000c9578063531e67e214620000ff578063560873a714620001215780636e1e19211462000141578063893d20e814620001615780639e9e84f91462000183575b600080fd5b620000e76004803603810190620000e191906200173a565b620002a7565b604051620000f6919062001787565b60405180910390f35b62000109620002f3565b604051620001189190620017b5565b60405180910390f35b6200013f60048036038101906200013991906200173a565b6200031d565b005b6200015f60048036038101906200015991906200173a565b620003e6565b005b6200016b620004b0565b6040516200017a9190620017b5565b60405180910390f35b620001a160048036038101906200019b919062001b06565b620004d8565b604051620001b09190620017b5565b60405180910390f35b620001d76004803603810190620001d1919062001cd0565b62000a26565b005b620001f76004803603810190620001f1919062001d17565b62000b70565b005b6200021760048036038101906200021191906200173a565b62000dea565b60405162000226919062001eef565b60405180910390f35b6200024d60048036038101906200024791906200173a565b62000eb9565b6040516200025c91906200206c565b60405180910390f35b6200026f62001089565b6040516200027e9190620017b5565b60405180910390f35b620002a560048036038101906200029f919062002090565b620010b2565b005b6000600260008373ffffffffffffffffffffffffffffffffffffffff1673ffffffffffffffffffffffffffffffffffffffff168152602001908152602001600020805490509050919050565b6000600160009054906101000a900473ffffffffffffffffffffffffffffffffffffffff16905090565b7f000000000000000000000000000000000000000000000000000000000000000073ffffffffffffffffffffffffffffffffffffffff163373ffffffffffffffffffffffffffffffffffffffff1614620003a3576040517fadf438e600000000000000000000000000000000000000000000000000000000815260040160405180910390fd5b806000806101000a81548173ffffffffffffffffffffffffffffffffffffffff021916908373ffffffffffffffffffffffffffffffffffffffff16021790555050565b7f000000000000000000000000000000000000000000000000000000000000000073ffffffffffffffffffffffffffffffffffffffff163373ffffffffffffffffffffffffffffffffffffffff16146200046c576040517fadf438e600000000000000000000000000000000000000000000000000000000815260040160405180910390fd5b80600160006101000a81548173ffffffffffffffffffffffffffffffffffffffff021916908373ffffffffffffffffffffffffffffffffffffffff16021790555050565b60007f0000000000000000000000000000000000000000000000000000000000000000905090565b6000808851118015620004ec575060008751115b8015620004fa575060008451115b801562000508575060008351115b801562000516575060008251115b6200054d576040517feaf3bd8900000000000000000000000000000000000000000000000000000000815260040160405180910390fd5b8251825114801562000560575083518251145b62000597576040517f35e961c400000000000000000000000000000000000000000000000000000000815260040160405180910390fd5b60005b825181101562000725576000600182620005b5919062002125565b90505b83518110156200070e57838181518110620005d857620005d762002160565b5b602002602001015173ffffffffffffffffffffffffffffffffffffffff168483815181106200060c576200060b62002160565b5b602002602001015173ffffffffffffffffffffffffffffffffffffffff161480620006c0575084818151811062000648576200064762002160565b5b6020026020010151604051602001620006629190620021d1565b604051602081830303815290604052805190602001208583815181106200068e576200068d62002160565b5b6020026020010151604051602001620006a89190620021d1565b60405160208183030381529060405280519060200120145b15620006f8576040517f301cd94e00000000000000000000000000000000000000000000000000000000815260040160405180910390fd5b80806200070590620021ea565b915050620005b8565b5080806200071c90620021ea565b9150506200059a565b5060468851111562000763576040517f35e961c400000000000000000000000000000000000000000000000000000000815260040160405180910390fd5b3373ffffffffffffffffffffffffffffffffffffffff168260008151811062000791576200079062002160565b5b602002602001015173ffffffffffffffffffffffffffffffffffffffff1614620007e7576040517fdc819ce900000000000000000000000000000000000000000000000000000000815260040160405180910390fd5b60003389898989898989604051620007ff90620015c6565b6200081298979695949392919062002346565b604051809103906000f0801580156200082f573d6000803e3d6000fd5b509050600260003373ffffffffffffffffffffffffffffffffffffffff1673ffffffffffffffffffffffffffffffffffffffff168152602001908152602001600020819080600181540180825580915050600190039060005260206000200160009091909190916101000a81548173ffffffffffffffffffffffffffffffffffffffff021916908373ffffffffffffffffffffffffffffffffffffffff1602179055508073ffffffffffffffffffffffffffffffffffffffff163373ffffffffffffffffffffffffffffffffffffffff167fb088250606fcd5a658357714719acdeff3339105904ccfd3d66d8e26f79bb7728b8b8b8b8b8b8b6040516200093d979695949392919062002405565b60405180910390a3600160009054906101000a900473ffffffffffffffffffffffffffffffffffffffff1673ffffffffffffffffffffffffffffffffffffffff166398b6407d82338b8b8b6040518663ffffffff1660e01b8152600401620009aa959493929190620024b3565b600060405180830381600087803b158015620009c557600080fd5b505af1158015620009da573d6000803e3d6000fd5b505050507f35593e44ccbb372b5ae22d5aa930cd9bc26bc2c92af3cf4a5eb072106715b0098160405162000a0f9190620017b5565b60405180910390a180915050979650505050505050565b600160009054906101000a900473ffffffffffffffffffffffffffffffffffffffff1673ffffffffffffffffffffffffffffffffffffffff163373ffffffffffffffffffffffffffffffffffffffff161462000aad576040517e11415300000000000000000000000000000000000000000000000000000000815260040160405180910390fd5b8173ffffffffffffffffffffffffffffffffffffffff16637d2ef5e7826040518263ffffffff1660e01b815260040162000ae8919062002536565b600060405180830381600087803b15801562000b0357600080fd5b505af115801562000b18573d6000803e3d6000fd5b505050508173ffffffffffffffffffffffffffffffffffffffff167ff800f6157e7c2af6e3b95f2e5980398b6486bcdb01eed234427f3c60dfc2c4668260405162000b64919062002536565b60405180910390a25050565b8373ffffffffffffffffffffffffffffffffffffffff166399ae1ec2336040518263ffffffff1660e01b815260040162000bab9190620017b5565b602060405180830381865afa15801562000bc9573d6000803e3d6000fd5b505050506040513d601f19601f8201168201806040525081019062000bef919062002590565b62000c26576040517f473da96a00000000000000000000000000000000000000000000000000000000815260040160405180910390fd5b8373ffffffffffffffffffffffffffffffffffffffff166399ae1ec2826040518263ffffffff1660e01b815260040162000c619190620017b5565b602060405180830381865afa15801562000c7f573d6000803e3d6000fd5b505050506040513d601f19601f8201168201806040525081019062000ca5919062002590565b1562000cdd576040517fbba97c9c00000000000000000000000000000000000000000000000000000000815260040160405180910390fd5b601e8351111562000d1a576040517f35e961c400000000000000000000000000000000000000000000000000000000815260040160405180910390fd5b8373ffffffffffffffffffffffffffffffffffffffff166319c953df84848460016040518563ffffffff1660e01b815260040162000d5c9493929190620025d3565b600060405180830381600087803b15801562000d7757600080fd5b505af115801562000d8c573d6000803e3d6000fd5b505050508373ffffffffffffffffffffffffffffffffffffffff167fca8be768c3e2ef69996f18134c17e8f458e3149408ddf4b162cc2a4c48d871a484848460405162000ddc939291906200262e565b60405180910390a250505050565b6060600260008373ffffffffffffffffffffffffffffffffffffffff1673ffffffffffffffffffffffffffffffffffffffff16815260200190815260200160002080548060200260200160405190810160405280929190818152602001828054801562000ead57602002820191906000526020600020905b8160009054906101000a900473ffffffffffffffffffffffffffffffffffffffff1673ffffffffffffffffffffffffffffffffffffffff168152602001906001019080831162000e62575b50505050509050919050565b60606000600360008473ffffffffffffffffffffffffffffffffffffffff1673ffffffffffffffffffffffffffffffffffffffff1681526020019081526020016000208054905011156200102857600360008373ffffffffffffffffffffffffffffffffffffffff1673ffffffffffffffffffffffffffffffffffffffff168152602001908152602001600020805480602002602001604051908101604052809291908181526020016000905b828210156200101c57838290600052602060002001805462000f8890620026a8565b80601f016020809104026020016040519081016040528092919081815260200182805462000fb690620026a8565b8015620010075780601f1062000fdb5761010080835404028352916020019162001007565b820191906000526020600020905b81548152906001019060200180831162000fe957829003601f168201915b50505050508152602001906001019062000f66565b50505050905062001084565b60008067ffffffffffffffff811115620010475762001046620017ed565b5b6040519080825280602002602001820160405280156200107c57816020015b6060815260200190600190039081620010665790505b509050809150505b919050565b60008060009054906101000a900473ffffffffffffffffffffffffffffffffffffffff16905090565b60008054906101000a900473ffffffffffffffffffffffffffffffffffffffff1673ffffffffffffffffffffffffffffffffffffffff163373ffffffffffffffffffffffffffffffffffffffff161462001137576040517e11415300000000000000000000000000000000000000000000000000000000815260040160405180910390fd5b6000600360008473ffffffffffffffffffffffffffffffffffffffff1673ffffffffffffffffffffffffffffffffffffffff1681526020019081526020016000208054905003620012a057600167ffffffffffffffff811115620011a0576200119f620017ed565b5b604051908082528060200260200182016040528015620011d557816020015b6060815260200190600190039081620011bf5790505b50600360008473ffffffffffffffffffffffffffffffffffffffff1673ffffffffffffffffffffffffffffffffffffffff16815260200190815260200160002090805190602001906200122a929190620015d4565b5080600360008473ffffffffffffffffffffffffffffffffffffffff1673ffffffffffffffffffffffffffffffffffffffff16815260200190815260200160002060008154811062001281576200128062002160565b5b906000526020600020019081620012999190620028a5565b5062001571565b6000600360008473ffffffffffffffffffffffffffffffffffffffff1673ffffffffffffffffffffffffffffffffffffffff16815260200190815260200160002080549050111562001570576000600360008473ffffffffffffffffffffffffffffffffffffffff1673ffffffffffffffffffffffffffffffffffffffff168152602001908152602001600020805480602002602001604051908101604052809291908181526020016000905b82821015620014035783829060005260206000200180546200136f90620026a8565b80601f01602080910402602001604051908101604052809291908181526020018280546200139d90620026a8565b8015620013ee5780601f10620013c257610100808354040283529160200191620013ee565b820191906000526020600020905b815481529060010190602001808311620013d057829003601f168201915b5050505050815260200190600101906200134d565b50505050905060005b8151811015620014f95782604051602001620014299190620021d1565b6040516020818303038152906040528051906020012082828151811062001455576200145462002160565b5b60200260200101516040516020016200146f9190620021d1565b6040516020818303038152906040528051906020012003620014e3578373ffffffffffffffffffffffffffffffffffffffff167fb84b5dc40da8cd280dee1aaf74b3abbd449725a972daf3ad8cbc9d0adc089eff84604051620014d391906200298c565b60405180910390a25050620015c2565b8080620014f090620021ea565b9150506200140c565b50600360008473ffffffffffffffffffffffffffffffffffffffff1673ffffffffffffffffffffffffffffffffffffffff168152602001908152602001600020829080600181540180825580915050600190039060005260206000200160009091909190915090816200156d9190620028a5565b50505b5b8173ffffffffffffffffffffffffffffffffffffffff167fb84b5dc40da8cd280dee1aaf74b3abbd449725a972daf3ad8cbc9d0adc089eff82604051620015b991906200298c565b60405180910390a25b5050565b612ce180620029b183390190565b82805482825590600052602060002090810192821562001621579160200282015b82811115620016205782518290816200160f9190620028a5565b5091602001919060010190620015f5565b5b50905062001630919062001634565b5090565b5b808211156200165857600081816200164e91906200165c565b5060010162001635565b5090565b5080546200166a90620026a8565b6000825580601f106200167e57506200169f565b601f0160209004906000526020600020908101906200169e9190620016a2565b5b50565b5b80821115620016bd576000816000905550600101620016a3565b5090565b6000604051905090565b600080fd5b600080fd5b600073ffffffffffffffffffffffffffffffffffffffff82169050919050565b60006200170282620016d5565b9050919050565b6200171481620016f5565b81146200172057600080fd5b50565b600081359050620017348162001709565b92915050565b600060208284031215620017535762001752620016cb565b5b6000620017638482850162001723565b91505092915050565b6000819050919050565b62001781816200176c565b82525050565b60006020820190506200179e600083018462001776565b92915050565b620017af81620016f5565b82525050565b6000602082019050620017cc6000830184620017a4565b92915050565b600080fd5b600080fd5b6000601f19601f8301169050919050565b7f4e487b7100000000000000000000000000000000000000000000000000000000600052604160045260246000fd5b6200182782620017dc565b810181811067ffffffffffffffff82111715620018495762001848620017ed565b5b80604052505050565b60006200185e620016c1565b90506200186c82826200181c565b919050565b600067ffffffffffffffff8211156200188f576200188e620017ed565b5b6200189a82620017dc565b9050602081019050919050565b82818337600083830152505050565b6000620018cd620018c78462001871565b62001852565b905082815260208101848484011115620018ec57620018eb620017d7565b5b620018f9848285620018a7565b509392505050565b600082601f830112620019195762001918620017d2565b5b81356200192b848260208601620018b6565b91505092915050565b600067ffffffffffffffff821115620019525762001951620017ed565b5b602082029050602081019050919050565b600080fd5b60006200197f620019798462001934565b62001852565b90508083825260208201905060208402830185811115620019a557620019a462001963565b5b835b81811015620019f357803567ffffffffffffffff811115620019ce57620019cd620017d2565b5b808601620019dd898262001901565b85526020850194505050602081019050620019a7565b5050509392505050565b600082601f83011262001a155762001a14620017d2565b5b813562001a2784826020860162001968565b91505092915050565b600067ffffffffffffffff82111562001a4e5762001a4d620017ed565b5b602082029050602081019050919050565b600062001a7662001a708462001a30565b62001852565b9050808382526020820190506020840283018581111562001a9c5762001a9b62001963565b5b835b8181101562001ac9578062001ab4888262001723565b84526020840193505060208101905062001a9e565b5050509392505050565b600082601f83011262001aeb5762001aea620017d2565b5b813562001afd84826020860162001a5f565b91505092915050565b600080600080600080600060e0888a03121562001b285762001b27620016cb565b5b600088013567ffffffffffffffff81111562001b495762001b48620016d0565b5b62001b578a828b0162001901565b975050602088013567ffffffffffffffff81111562001b7b5762001b7a620016d0565b5b62001b898a828b0162001901565b965050604088013567ffffffffffffffff81111562001bad5762001bac620016d0565b5b62001bbb8a828b0162001901565b955050606088013567ffffffffffffffff81111562001bdf5762001bde620016d0565b5b62001bed8a828b0162001901565b945050608088013567ffffffffffffffff81111562001c115762001c10620016d0565b5b62001c1f8a828b01620019fd565b93505060a088013567ffffffffffffffff81111562001c435762001c42620016d0565b5b62001c518a828b01620019fd565b92505060c088013567ffffffffffffffff81111562001c755762001c74620016d0565b5b62001c838a828b0162001ad3565b91505092959891949750929550565b600060ff82169050919050565b62001caa8162001c92565b811462001cb657600080fd5b50565b60008135905062001cca8162001c9f565b92915050565b6000806040838503121562001cea5762001ce9620016cb565b5b600062001cfa8582860162001723565b925050602062001d0d8582860162001cb9565b9150509250929050565b6000806000806080858703121562001d345762001d33620016cb565b5b600062001d448782880162001723565b945050602085013567ffffffffffffffff81111562001d685762001d67620016d0565b5b62001d768782880162001901565b935050604085013567ffffffffffffffff81111562001d9a5762001d99620016d0565b5b62001da88782880162001901565b925050606062001dbb8782880162001723565b91505092959194509250565b600081519050919050565b600082825260208201905092915050565b6000819050602082019050919050565b6000819050919050565b600062001e1e62001e1862001e1284620016d5565b62001df3565b620016d5565b9050919050565b600062001e328262001dfd565b9050919050565b600062001e468262001e25565b9050919050565b62001e588162001e39565b82525050565b600062001e6c838362001e4d565b60208301905092915050565b6000602082019050919050565b600062001e928262001dc7565b62001e9e818562001dd2565b935062001eab8362001de3565b8060005b8381101562001ee257815162001ec6888262001e5e565b975062001ed38362001e78565b92505060018101905062001eaf565b5085935050505092915050565b6000602082019050818103600083015262001f0b818462001e85565b905092915050565b600081519050919050565b600082825260208201905092915050565b6000819050602082019050919050565b600081519050919050565b600082825260208201905092915050565b60005b8381101562001f7b57808201518184015260208101905062001f5e565b60008484015250505050565b600062001f948262001f3f565b62001fa0818562001f4a565b935062001fb281856020860162001f5b565b62001fbd81620017dc565b840191505092915050565b600062001fd6838362001f87565b905092915050565b6000602082019050919050565b600062001ff88262001f13565b62002004818562001f1e565b935083602082028501620020188562001f2f565b8060005b858110156200205a578484038952815162002038858262001fc8565b9450620020458362001fde565b925060208a019950506001810190506200201c565b50829750879550505050505092915050565b6000602082019050818103600083015262002088818462001feb565b905092915050565b60008060408385031215620020aa57620020a9620016cb565b5b6000620020ba8582860162001723565b925050602083013567ffffffffffffffff811115620020de57620020dd620016d0565b5b620020ec8582860162001901565b9150509250929050565b7f4e487b7100000000000000000000000000000000000000000000000000000000600052601160045260246000fd5b600062002132826200176c565b91506200213f836200176c565b92508282019050808211156200215a5762002159620020f6565b5b92915050565b7f4e487b7100000000000000000000000000000000000000000000000000000000600052603260045260246000fd5b600081905092915050565b6000620021a78262001f3f565b620021b381856200218f565b9350620021c581856020860162001f5b565b80840191505092915050565b6000620021df82846200219a565b915081905092915050565b6000620021f7826200176c565b91507fffffffffffffffffffffffffffffffffffffffffffffffffffffffffffffffff82036200222c576200222b620020f6565b5b600182019050919050565b600082825260208201905092915050565b6000620022558262001f3f565b62002261818562002237565b93506200227381856020860162001f5b565b6200227e81620017dc565b840191505092915050565b600081519050919050565b6000819050602082019050919050565b620022af81620016f5565b82525050565b6000620022c38383620022a4565b60208301905092915050565b6000602082019050919050565b6000620022e98262002289565b620022f5818562001dd2565b9350620023028362002294565b8060005b83811015620023395781516200231d8882620022b5565b97506200232a83620022cf565b92505060018101905062002306565b5085935050505092915050565b6000610100820190506200235e600083018b620017a4565b818103602083015262002372818a62002248565b9050818103604083015262002388818962002248565b905081810360608301526200239e818862002248565b90508181036080830152620023b4818762002248565b905081810360a0830152620023ca818662001feb565b905081810360c0830152620023e0818562001feb565b905081810360e0830152620023f68184620022dc565b90509998505050505050505050565b600060e082019050818103600083015262002421818a62002248565b9050818103602083015262002437818962002248565b905081810360408301526200244d818862002248565b9050818103606083015262002463818762002248565b9050818103608083015262002479818662001feb565b905081810360a08301526200248f818562001feb565b905081810360c0830152620024a58184620022dc565b905098975050505050505050565b600060a082019050620024ca6000830188620017a4565b620024d96020830187620017a4565b8181036040830152620024ed818662002248565b9050818103606083015262002503818562002248565b9050818103608083015262002519818462002248565b90509695505050505050565b620025308162001c92565b82525050565b60006020820190506200254d600083018462002525565b92915050565b60008115159050919050565b6200256a8162002553565b81146200257657600080fd5b50565b6000815190506200258a816200255f565b92915050565b600060208284031215620025a957620025a8620016cb565b5b6000620025b98482850162002579565b91505092915050565b620025cd8162002553565b82525050565b60006080820190508181036000830152620025ef818762002248565b9050818103602083015262002605818662002248565b9050620026166040830185620017a4565b620026256060830184620025c2565b95945050505050565b600060608201905081810360008301526200264a818662002248565b9050818103602083015262002660818562002248565b9050620026716040830184620017a4565b949350505050565b7f4e487b7100000000000000000000000000000000000000000000000000000000600052602260045260246000fd5b60006002820490506001821680620026c157607f821691505b602082108103620026d757620026d662002679565b5b50919050565b60008190508160005260206000209050919050565b60006020601f8301049050919050565b600082821b905092915050565b600060088302620027417fffffffffffffffffffffffffffffffffffffffffffffffffffffffffffffffff8262002702565b6200274d868362002702565b95508019841693508086168417925050509392505050565b600062002786620027806200277a846200176c565b62001df3565b6200176c565b9050919050565b6000819050919050565b620027a28362002765565b620027ba620027b1826200278d565b8484546200270f565b825550505050565b600090565b620027d1620027c2565b620027de81848462002797565b505050565b5b818110156200280657620027fa600082620027c7565b600181019050620027e4565b5050565b601f82111562002855576200281f81620026dd565b6200282a84620026f2565b810160208510156200283a578190505b620028526200284985620026f2565b830182620027e3565b50505b505050565b600082821c905092915050565b60006200287a600019846008026200285a565b1980831691505092915050565b600062002895838362002867565b9150826002028217905092915050565b620028b08262001f3f565b67ffffffffffffffff811115620028cc57620028cb620017ed565b5b620028d88254620026a8565b620028e58282856200280a565b600060209050601f8311600181146200291d576000841562002908578287015190505b62002914858262002887565b86555062002984565b601f1984166200292d86620026dd565b60005b82811015620029575784890151825560018201915060208501945060208101905062002930565b8683101562002977578489015162002973601f89168262002867565b8355505b6001600288020188555050505b505050505050565b60006020820190508181036000830152620029a8818462002248565b90509291505056fe60c0604052600080556000600160006101000a81548160ff021916908360ff1602179055506000600760006101000a81548160ff0219169083151502179055503480156200004c57600080fd5b5060405162002ce138038062002ce18339818101604052810190620000729190620009ef565b3373ffffffffffffffffffffffffffffffffffffffff1660a08173ffffffffffffffffffffffffffffffffffffffff16815250508773ffffffffffffffffffffffffffffffffffffffff1660808173ffffffffffffffffffffffffffffffffffffffff16815250508660029081620000eb919062000ddc565b508560039081620000fd919062000ddc565b5084600490816200010f919062000ddc565b50836005908162000121919062000ddc565b5060005b8151811015620001b1576200019b84828151811062000149576200014862000ec3565b5b602002602001015184838151811062000167576200016662000ec3565b5b602002602001015184848151811062000185576200018462000ec3565b5b60200260200101516000620001c060201b60201c565b8080620001a89062000f21565b91505062000125565b50505050505050505062000ffb565b60a05173ffffffffffffffffffffffffffffffffffffffff163373ffffffffffffffffffffffffffffffffffffffff161462000228576040517feee85f7800000000000000000000000000000000000000000000000000000000815260040160405180910390fd5b600760009054906101000a900460ff161562000270576040517f6bbe2df800000000000000000000000000000000000000000000000000000000815260040160405180910390fd5b600284511080620002825750601e8451115b15620002ba576040517ffce3699600000000000000000000000000000000000000000000000000000000815260040160405180910390fd5b600060405180606001604052808681526020018581526020018473ffffffffffffffffffffffffffffffffffffffff16815250905080600860008573ffffffffffffffffffffffffffffffffffffffff1673ffffffffffffffffffffffffffffffffffffffff168152602001908152602001600020600082015181600001908162000346919062000ddc565b5060208201518160010190816200035e919062000ddc565b5060408201518160020160006101000a81548173ffffffffffffffffffffffffffffffffffffffff021916908373ffffffffffffffffffffffffffffffffffffffff1602179055509050506006839080600181540180825580915050600190039060005260206000200160009091909190916101000a81548173ffffffffffffffffffffffffffffffffffffffff021916908373ffffffffffffffffffffffffffffffffffffffff160217905550600080815480929190620004209062000f21565b91905055508115620005cc5760006006805480602002602001604051908101604052809291908181526020018280548015620004b257602002820191906000526020600020905b8160009054906101000a900473ffffffffffffffffffffffffffffffffffffffff1673ffffffffffffffffffffffffffffffffffffffff168152602001906001019080831162000467575b5050505050905060005b600054811015620005c9576001151560096000848481518110620004e557620004e462000ec3565b5b602002602001015173ffffffffffffffffffffffffffffffffffffffff1673ffffffffffffffffffffffffffffffffffffffff16815260200190815260200160002060009054906101000a900460ff16151503620005b35760006009600084848151811062000559576200055862000ec3565b5b602002602001015173ffffffffffffffffffffffffffffffffffffffff1673ffffffffffffffffffffffffffffffffffffffff16815260200190815260200160002060006101000a81548160ff0219169083151502179055505b8080620005c09062000f21565b915050620004bc565b50505b8273ffffffffffffffffffffffffffffffffffffffff167fd76352dcc1f8336c0abdec06ee73330eee3e75ba620ba2c87510a25a32439d4e86866040516200061692919062000fc0565b60405180910390a25050505050565b6000604051905090565b600080fd5b600080fd5b600073ffffffffffffffffffffffffffffffffffffffff82169050919050565b6000620006668262000639565b9050919050565b620006788162000659565b81146200068457600080fd5b50565b60008151905062000698816200066d565b92915050565b600080fd5b600080fd5b6000601f19601f8301169050919050565b7f4e487b7100000000000000000000000000000000000000000000000000000000600052604160045260246000fd5b620006f382620006a8565b810181811067ffffffffffffffff82111715620007155762000714620006b9565b5b80604052505050565b60006200072a62000625565b9050620007388282620006e8565b919050565b600067ffffffffffffffff8211156200075b576200075a620006b9565b5b6200076682620006a8565b9050602081019050919050565b60005b838110156200079357808201518184015260208101905062000776565b60008484015250505050565b6000620007b6620007b0846200073d565b6200071e565b905082815260208101848484011115620007d557620007d4620006a3565b5b620007e284828562000773565b509392505050565b600082601f8301126200080257620008016200069e565b5b8151620008148482602086016200079f565b91505092915050565b600067ffffffffffffffff8211156200083b576200083a620006b9565b5b602082029050602081019050919050565b600080fd5b60006200086862000862846200081d565b6200071e565b905080838252602082019050602084028301858111156200088e576200088d6200084c565b5b835b81811015620008dc57805167ffffffffffffffff811115620008b757620008b66200069e565b5b808601620008c68982620007ea565b8552602085019450505060208101905062000890565b5050509392505050565b600082601f830112620008fe57620008fd6200069e565b5b81516200091084826020860162000851565b91505092915050565b600067ffffffffffffffff821115620009375762000936620006b9565b5b602082029050602081019050919050565b60006200095f620009598462000919565b6200071e565b905080838252602082019050602084028301858111156200098557620009846200084c565b5b835b81811015620009b257806200099d888262000687565b84526020840193505060208101905062000987565b5050509392505050565b600082601f830112620009d457620009d36200069e565b5b8151620009e684826020860162000948565b91505092915050565b600080600080600080600080610100898b03121562000a135762000a126200062f565b5b600062000a238b828c0162000687565b985050602089015167ffffffffffffffff81111562000a475762000a4662000634565b5b62000a558b828c01620007ea565b975050604089015167ffffffffffffffff81111562000a795762000a7862000634565b5b62000a878b828c01620007ea565b965050606089015167ffffffffffffffff81111562000aab5762000aaa62000634565b5b62000ab98b828c01620007ea565b955050608089015167ffffffffffffffff81111562000add5762000adc62000634565b5b62000aeb8b828c01620007ea565b94505060a089015167ffffffffffffffff81111562000b0f5762000b0e62000634565b5b62000b1d8b828c01620008e6565b93505060c089015167ffffffffffffffff81111562000b415762000b4062000634565b5b62000b4f8b828c01620008e6565b92505060e089015167ffffffffffffffff81111562000b735762000b7262000634565b5b62000b818b828c01620009bc565b9150509295985092959890939650565b600081519050919050565b7f4e487b7100000000000000000000000000000000000000000000000000000000600052602260045260246000fd5b6000600282049050600182168062000be457607f821691505b60208210810362000bfa5762000bf962000b9c565b5b50919050565b60008190508160005260206000209050919050565b60006020601f8301049050919050565b600082821b905092915050565b60006008830262000c647fffffffffffffffffffffffffffffffffffffffffffffffffffffffffffffffff8262000c25565b62000c70868362000c25565b95508019841693508086168417925050509392505050565b6000819050919050565b6000819050919050565b600062000cbd62000cb762000cb18462000c88565b62000c92565b62000c88565b9050919050565b6000819050919050565b62000cd98362000c9c565b62000cf162000ce88262000cc4565b84845462000c32565b825550505050565b600090565b62000d0862000cf9565b62000d1581848462000cce565b505050565b5b8181101562000d3d5762000d3160008262000cfe565b60018101905062000d1b565b5050565b601f82111562000d8c5762000d568162000c00565b62000d618462000c15565b8101602085101562000d71578190505b62000d8962000d808562000c15565b83018262000d1a565b50505b505050565b600082821c905092915050565b600062000db16000198460080262000d91565b1980831691505092915050565b600062000dcc838362000d9e565b9150826002028217905092915050565b62000de78262000b91565b67ffffffffffffffff81111562000e035762000e02620006b9565b5b62000e0f825462000bcb565b62000e1c82828562000d41565b600060209050601f83116001811462000e54576000841562000e3f578287015190505b62000e4b858262000dbe565b86555062000ebb565b601f19841662000e648662000c00565b60005b8281101562000e8e5784890151825560018201915060208501945060208101905062000e67565b8683101562000eae578489015162000eaa601f89168262000d9e565b8355505b6001600288020188555050505b505050505050565b7f4e487b7100000000000000000000000000000000000000000000000000000000600052603260045260246000fd5b7f4e487b7100000000000000000000000000000000000000000000000000000000600052601160045260246000fd5b600062000f2e8262000c88565b91507fffffffffffffffffffffffffffffffffffffffffffffffffffffffffffffffff820362000f635762000f6262000ef2565b5b600182019050919050565b600082825260208201905092915050565b600062000f8c8262000b91565b62000f98818562000f6e565b935062000faa81856020860162000773565b62000fb581620006a8565b840191505092915050565b6000604082019050818103600083015262000fdc818562000f7f565b9050818103602083015262000ff2818462000f7f565b90509392505050565b60805160a051611cb26200102f6000396000818161038301528181610ba50152610e0d01526000610f350152611cb26000f3fe608060405234801561001057600080fd5b50600436106101005760003560e01c806372c0c0a81161009757806399ae1ec21161006657806399ae1ec214610267578063ad60572914610297578063d6781324146102b5578063ee9706ac146102bf57610100565b806372c0c0a8146102055780637b560fc2146102235780637d2ef5e71461022d578063893d20e81461024957610100565b806355d2be82116100d357806355d2be821461017b57806364336fcb1461019957806364fb931b146101b75780637143059f146101d557610100565b806317d7de7c1461010557806319c953df1461012357806354181ded1461013f578063545e1b521461015d575b600080fd5b61010d6102ef565b60405161011a919061134f565b60405180910390f35b61013d60048036038101906101389190611550565b610381565b005b6101476107ea565b604051610154919061134f565b60405180910390f35b61016561087c565b604051610172919061160b565b60405180910390f35b610183610893565b604051610190919061134f565b60405180910390f35b6101a1610925565b6040516101ae919061134f565b60405180910390f35b6101bf6109b7565b6040516101cc9190611635565b60405180910390f35b6101ef60048036038101906101ea9190611650565b6109ce565b6040516101fc919061172d565b60405180910390f35b61020d610ba1565b60405161021a919061175e565b60405180910390f35b61022b610bc9565b005b610247600480360381019061024291906117a5565b610e0b565b005b610251610f31565b60405161025e919061175e565b60405180910390f35b610281600480360381019061027c9190611650565b610f59565b60405161028e9190611635565b60405180910390f35b61029f611003565b6040516102ac91906117eb565b60405180910390f35b6102bd61100c565b005b6102d960048036038101906102d49190611650565b611232565b6040516102e69190611635565b60405180910390f35b6060600280546102fe90611835565b80601f016020809104026020016040519081016040528092919081815260200182805461032a90611835565b80156103775780601f1061034c57610100808354040283529160200191610377565b820191906000526020600020905b81548152906001019060200180831161035a57829003601f168201915b5050505050905090565b7f000000000000000000000000000000000000000000000000000000000000000073ffffffffffffffffffffffffffffffffffffffff163373ffffffffffffffffffffffffffffffffffffffff1614610406576040517feee85f7800000000000000000000000000000000000000000000000000000000815260040160405180910390fd5b600760009054906101000a900460ff161561044d576040517f6bbe2df800000000000000000000000000000000000000000000000000000000815260040160405180910390fd5b60028451108061045e5750601e8451115b15610495576040517ffce3699600000000000000000000000000000000000000000000000000000000815260040160405180910390fd5b600060405180606001604052808681526020018581526020018473ffffffffffffffffffffffffffffffffffffffff16815250905080600860008573ffffffffffffffffffffffffffffffffffffffff1673ffffffffffffffffffffffffffffffffffffffff168152602001908152602001600020600082015181600001908161051f9190611a12565b5060208201518160010190816105359190611a12565b5060408201518160020160006101000a81548173ffffffffffffffffffffffffffffffffffffffff021916908373ffffffffffffffffffffffffffffffffffffffff1602179055509050506006839080600181540180825580915050600190039060005260206000200160009091909190916101000a81548173ffffffffffffffffffffffffffffffffffffffff021916908373ffffffffffffffffffffffffffffffffffffffff1602179055506000808154809291906105f590611b13565b91905055508115610793576000600680548060200260200160405190810160405280929190818152602001828054801561068457602002820191906000526020600020905b8160009054906101000a900473ffffffffffffffffffffffffffffffffffffffff1673ffffffffffffffffffffffffffffffffffffffff168152602001906001019080831161063a575b5050505050905060005b6000548110156107905760011515600960008484815181106106b3576106b2611b5b565b5b602002602001015173ffffffffffffffffffffffffffffffffffffffff1673ffffffffffffffffffffffffffffffffffffffff16815260200190815260200160002060009054906101000a900460ff1615150361077d5760006009600084848151811061072357610722611b5b565b5b602002602001015173ffffffffffffffffffffffffffffffffffffffff1673ffffffffffffffffffffffffffffffffffffffff16815260200190815260200160002060006101000a81548160ff0219169083151502179055505b808061078890611b13565b91505061068e565b50505b8273ffffffffffffffffffffffffffffffffffffffff167fd76352dcc1f8336c0abdec06ee73330eee3e75ba620ba2c87510a25a32439d4e86866040516107db929190611b8a565b60405180910390a25050505050565b6060600380546107f990611835565b80601f016020809104026020016040519081016040528092919081815260200182805461082590611835565b80156108725780601f1061084757610100808354040283529160200191610872565b820191906000526020600020905b81548152906001019060200180831161085557829003601f168201915b5050505050905090565b6000600160009054906101000a900460ff16905090565b6060600480546108a290611835565b80601f01602080910402602001604051908101604052809291908181526020018280546108ce90611835565b801561091b5780601f106108f05761010080835404028352916020019161091b565b820191906000526020600020905b8154815290600101906020018083116108fe57829003601f168201915b5050505050905090565b60606005805461093490611835565b80601f016020809104026020016040519081016040528092919081815260200182805461096090611835565b80156109ad5780601f10610982576101008083540402835291602001916109ad565b820191906000526020600020905b81548152906001019060200180831161099057829003601f168201915b5050505050905090565b6000600760009054906101000a900460ff16905090565b6109d6611288565b600860008373ffffffffffffffffffffffffffffffffffffffff1673ffffffffffffffffffffffffffffffffffffffff168152602001908152602001600020604051806060016040529081600082018054610a3090611835565b80601f0160208091040260200160405190810160405280929190818152602001828054610a5c90611835565b8015610aa95780601f10610a7e57610100808354040283529160200191610aa9565b820191906000526020600020905b815481529060010190602001808311610a8c57829003601f168201915b50505050508152602001600182018054610ac290611835565b80601f0160208091040260200160405190810160405280929190818152602001828054610aee90611835565b8015610b3b5780601f10610b1057610100808354040283529160200191610b3b565b820191906000526020600020905b815481529060010190602001808311610b1e57829003601f168201915b505050505081526020016002820160009054906101000a900473ffffffffffffffffffffffffffffffffffffffff1673ffffffffffffffffffffffffffffffffffffffff1673ffffffffffffffffffffffffffffffffffffffff16815250509050919050565b60007f0000000000000000000000000000000000000000000000000000000000000000905090565b6000610bd433610f59565b905080610c0d576040517ffccacf3300000000000000000000000000000000000000000000000000000000815260040160405180910390fd5b600760009054906101000a900460ff1615610c54576040517f6bbe2df800000000000000000000000000000000000000000000000000000000815260040160405180910390fd5b60011515600960003373ffffffffffffffffffffffffffffffffffffffff1673ffffffffffffffffffffffffffffffffffffffff16815260200190815260200160002060009054906101000a900460ff16151503610cde576040517f3b4b7dcf00000000000000000000000000000000000000000000000000000000815260040160405180910390fd5b6001600960003373ffffffffffffffffffffffffffffffffffffffff1673ffffffffffffffffffffffffffffffffffffffff16815260200190815260200160002060006101000a81548160ff0219169083151502179055503373ffffffffffffffffffffffffffffffffffffffff167f26c25af05520e978d353f976c99fa4c277ddc75aed4170ec47c9e24f06e62a1c600860003373ffffffffffffffffffffffffffffffffffffffff1673ffffffffffffffffffffffffffffffffffffffff168152602001908152602001600020600001600860003373ffffffffffffffffffffffffffffffffffffffff1673ffffffffffffffffffffffffffffffffffffffff168152602001908152602001600020600101604051610e00929190611c45565b60405180910390a250565b7f000000000000000000000000000000000000000000000000000000000000000073ffffffffffffffffffffffffffffffffffffffff163373ffffffffffffffffffffffffffffffffffffffff1614610e90576040517feee85f7800000000000000000000000000000000000000000000000000000000815260040160405180910390fd5b60018160ff161080610ea5575060038160ff16115b15610edc576040517ffaa3262300000000000000000000000000000000000000000000000000000000815260040160405180910390fd5b80600160006101000a81548160ff021916908360ff1602179055507f12ccb854d432ac960202ac0e6cb78d2bd11a925dd3e9aa4f6ede2705462e509981604051610f26919061160b565b60405180910390a150565b60007f0000000000000000000000000000000000000000000000000000000000000000905090565b60008073ffffffffffffffffffffffffffffffffffffffff16600860008473ffffffffffffffffffffffffffffffffffffffff1673ffffffffffffffffffffffffffffffffffffffff16815260200190815260200160002060020160009054906101000a900473ffffffffffffffffffffffffffffffffffffffff1673ffffffffffffffffffffffffffffffffffffffff1603610ff95760009050610ffe565b600190505b919050565b60008054905090565b600061101733610f59565b905080611050576040517ffccacf3300000000000000000000000000000000000000000000000000000000815260040160405180910390fd5b600760009054906101000a900460ff1615611097576040517f6bbe2df800000000000000000000000000000000000000000000000000000000815260040160405180910390fd5b6000600680548060200260200160405190810160405280929190818152602001828054801561111b57602002820191906000526020600020905b8160009054906101000a900473ffffffffffffffffffffffffffffffffffffffff1673ffffffffffffffffffffffffffffffffffffffff16815260200190600101908083116110d1575b5050505050905060005b6000548110156111e657600015156009600084848151811061114a57611149611b5b565b5b602002602001015173ffffffffffffffffffffffffffffffffffffffff1673ffffffffffffffffffffffffffffffffffffffff16815260200190815260200160002060009054906101000a900460ff161515036111d3576040517fadba427200000000000000000000000000000000000000000000000000000000815260040160405180910390fd5b80806111de90611b13565b915050611125565b506001600760006101000a81548160ff0219169083151502179055507f77b99c173854235e0f45948e541b3d590e15d05c680efbedc9c18bcb845aa01c60405160405180910390a15050565b6000600960008373ffffffffffffffffffffffffffffffffffffffff1673ffffffffffffffffffffffffffffffffffffffff16815260200190815260200160002060009054906101000a900460ff169050919050565b60405180606001604052806060815260200160608152602001600073ffffffffffffffffffffffffffffffffffffffff1681525090565b600081519050919050565b600082825260208201905092915050565b60005b838110156112f95780820151818401526020810190506112de565b60008484015250505050565b6000601f19601f8301169050919050565b6000611321826112bf565b61132b81856112ca565b935061133b8185602086016112db565b61134481611305565b840191505092915050565b600060208201905081810360008301526113698184611316565b905092915050565b6000604051905090565b600080fd5b600080fd5b600080fd5b600080fd5b7f4e487b7100000000000000000000000000000000000000000000000000000000600052604160045260246000fd5b6113c782611305565b810181811067ffffffffffffffff821117156113e6576113e561138f565b5b80604052505050565b60006113f9611371565b905061140582826113be565b919050565b600067ffffffffffffffff8211156114255761142461138f565b5b61142e82611305565b9050602081019050919050565b82818337600083830152505050565b600061145d6114588461140a565b6113ef565b9050828152602081018484840111156114795761147861138a565b5b61148484828561143b565b509392505050565b600082601f8301126114a1576114a0611385565b5b81356114b184826020860161144a565b91505092915050565b600073ffffffffffffffffffffffffffffffffffffffff82169050919050565b60006114e5826114ba565b9050919050565b6114f5816114da565b811461150057600080fd5b50565b600081359050611512816114ec565b92915050565b60008115159050919050565b61152d81611518565b811461153857600080fd5b50565b60008135905061154a81611524565b92915050565b6000806000806080858703121561156a5761156961137b565b5b600085013567ffffffffffffffff81111561158857611587611380565b5b6115948782880161148c565b945050602085013567ffffffffffffffff8111156115b5576115b4611380565b5b6115c18782880161148c565b93505060406115d287828801611503565b92505060606115e38782880161153b565b91505092959194509250565b600060ff82169050919050565b611605816115ef565b82525050565b600060208201905061162060008301846115fc565b92915050565b61162f81611518565b82525050565b600060208201905061164a6000830184611626565b92915050565b6000602082840312156116665761166561137b565b5b600061167484828501611503565b91505092915050565b600082825260208201905092915050565b6000611699826112bf565b6116a3818561167d565b93506116b38185602086016112db565b6116bc81611305565b840191505092915050565b6116d0816114da565b82525050565b600060608301600083015184820360008601526116f3828261168e565b9150506020830151848203602086015261170d828261168e565b915050604083015161172260408601826116c7565b508091505092915050565b6000602082019050818103600083015261174781846116d6565b905092915050565b611758816114da565b82525050565b6000602082019050611773600083018461174f565b92915050565b611782816115ef565b811461178d57600080fd5b50565b60008135905061179f81611779565b92915050565b6000602082840312156117bb576117ba61137b565b5b60006117c984828501611790565b91505092915050565b6000819050919050565b6117e5816117d2565b82525050565b600060208201905061180060008301846117dc565b92915050565b7f4e487b7100000000000000000000000000000000000000000000000000000000600052602260045260246000fd5b6000600282049050600182168061184d57607f821691505b6020821081036118605761185f611806565b5b50919050565b60008190508160005260206000209050919050565b60006020601f8301049050919050565b600082821b905092915050565b6000600883026118c87fffffffffffffffffffffffffffffffffffffffffffffffffffffffffffffffff8261188b565b6118d2868361188b565b95508019841693508086168417925050509392505050565b6000819050919050565b600061190f61190a611905846117d2565b6118ea565b6117d2565b9050919050565b6000819050919050565b611929836118f4565b61193d61193582611916565b848454611898565b825550505050565b600090565b611952611945565b61195d818484611920565b505050565b5b818110156119815761197660008261194a565b600181019050611963565b5050565b601f8211156119c65761199781611866565b6119a08461187b565b810160208510156119af578190505b6119c36119bb8561187b565b830182611962565b50505b505050565b600082821c905092915050565b60006119e9600019846008026119cb565b1980831691505092915050565b6000611a0283836119d8565b9150826002028217905092915050565b611a1b826112bf565b67ffffffffffffffff811115611a3457611a3361138f565b5b611a3e8254611835565b611a49828285611985565b600060209050601f831160018114611a7c5760008415611a6a578287015190505b611a7485826119f6565b865550611adc565b601f198416611a8a86611866565b60005b82811015611ab257848901518255600182019150602085019450602081019050611a8d565b86831015611acf5784890151611acb601f8916826119d8565b8355505b6001600288020188555050505b505050505050565b7f4e487b7100000000000000000000000000000000000000000000000000000000600052601160045260246000fd5b6000611b1e826117d2565b91507fffffffffffffffffffffffffffffffffffffffffffffffffffffffffffffffff8203611b5057611b4f611ae4565b5b600182019050919050565b7f4e487b7100000000000000000000000000000000000000000000000000000000600052603260045260246000fd5b60006040820190508181036000830152611ba48185611316565b90508181036020830152611bb88184611316565b90509392505050565b60008154611bce81611835565b611bd881866112ca565b94506001821660008114611bf35760018114611c0957611c3c565b60ff198316865281151560200286019350611c3c565b611c1285611866565b60005b83811015611c3457815481890152600182019150602081019050611c15565b808801955050505b50505092915050565b60006040820190508181036000830152611c5f8185611bc1565b90508181036020830152611c738184611bc1565b9050939250505056fea2646970667358221220c87c97f8ed56a04cd3872b6fd8e8642842ebb28c7f7d3f6aee53b60eca1eb9dc64736f6c63430008100033a264697066735822122037f1735a1ed051dd6fdced7c3c5d8dfc30109b69cc73d02caa78dd13c44c919464736f6c63430008100033",
  "devdoc": {
    "author": "polarzero",
    "details": "This contract is the only one that can create new promises For a successful flow, the following steps are recommended: 1. Deploy the PromiseFactory contract 2. Deploy the verifiers (VerifyStorage, VerifyTwitter) 3. Set the verifiers in the PromiseFactory contract 4. Fund the verifiers with LINK 5. Deploy a new promise contract * Only via the App can the promises be successfully verified by the VerifyStorage contract * If you want to reproduce this verification, you will need your own External Adapter, * and an interface that both encrypt/decrypt the IPFS & Arweave hashes with the same * encryption key. More details in the documentation.",
    "kind": "dev",
    "methods": {
      "addParticipant(address,string,string,address)": {
        "details": "Only a participant of the contract can call this functionIt can only be called if the contract is not locked (the child contract takes care of that)",
        "params": {
          "_partyAddress": "The address of the party",
          "_partyName": "The name of the party",
          "_partyTwitterHandle": "The Twitter handle of the party",
          "_promiseContractAddress": "The address of the promise contract"
        }
      },
      "addTwitterVerifiedUser(address,string)": {
        "details": "Only the verifier contract can call this function, after the account has been verified with the Chainlink Node + External Adapter",
        "params": {
          "_twitterHandle": "The Twitter handle of the verified account",
          "_userAddress": "The address of the user"
        }
      },
      "createPromiseContract(string,string,string,string,string[],string[],address[])": {
        "params": {
          "_arweaveId": "The ID of the zip stored on Arweave",
          "_encryptedProof": "The encrypted string of the promise name, user address, IPFS and Arweave hashes",
          "_ipfsCid": "The CID of the directory stored on IPFS",
          "_partyAddresses": "The addresses specified by the user that will be allowed to interact with the contract",
          "_partyNames": "The names of the parties specified by the user",
          "_partyTwitterHandles": "The Twitter handles of the parties specified by the user",
          "_promiseName": "The name of the contract specified by the user"
        }
      },
      "updateStorageStatus(address,uint8)": {
        "details": "Only the verifier contract can call this function, after the storage has been verified with the Chainlink Node + External AdapterThis step could as well be avoided for better optimization, since VerifyStorage could directly call the PromiseContract to update its status BUT we want to do it this way, because: - it helps us keep this PromiseFactory contract as a mediator, which allows for better event tracking & easier security measures - it is not a major flaw in terms of gas usage, as long as we're deploying on a L2 solution",
        "params": {
          "_promiseContractAddress": "The address of the promise contract",
          "_storageStatus": "The new storage status -> 1 = failed, 2 = IPFS provided & verified, 3 = IPFS + Arweave provided & verified"
        }
      }
    },
    "title": "PromiseFactory",
    "version": 1
  },
  "userdoc": {
    "errors": {
      "PromiseFactory__EMPTY_FIELD()": [
        {
          "notice": "Errors"
        }
      ]
    },
    "events": {
      "PromiseContractCreated(address,address,string,string,string,string,string[],string[],address[])": {
        "notice": "Events"
      }
    },
    "kind": "user",
    "methods": {
      "addParticipant(address,string,string,address)": {
        "notice": "Add a participant to a promise contract"
      },
      "addTwitterVerifiedUser(address,string)": {
        "notice": "Add a verified Twitter account to the list of verified accounts"
      },
      "constructor": {
        "notice": "Initialize the contract"
      },
      "createPromiseContract(string,string,string,string,string[],string[],address[])": {
        "notice": "Create a new contract and add it to the list of child contracts"
      },
      "getPromiseContractAddresses(address)": {
        "notice": "Getters"
      },
      "setTwitterVerifier(address)": {
        "notice": "Setters"
      },
      "updateStorageStatus(address,uint8)": {
        "notice": "Update the storage status of a promise contract"
      }
    },
    "notice": "This is the factory contract initializing & referencing all promises",
    "version": 1
  },
  "storageLayout": {
    "storage": [
      {
        "astId": 4331,
        "contract": "contracts/PromiseFactory.sol:PromiseFactory",
        "label": "s_twitterVerifier",
        "offset": 0,
        "slot": "0",
        "type": "t_address"
      },
      {
        "astId": 4333,
        "contract": "contracts/PromiseFactory.sol:PromiseFactory",
        "label": "s_storageVerifier",
        "offset": 0,
        "slot": "1",
        "type": "t_address"
      },
      {
        "astId": 4339,
        "contract": "contracts/PromiseFactory.sol:PromiseFactory",
        "label": "s_promiseContracts",
        "offset": 0,
        "slot": "2",
        "type": "t_mapping(t_address,t_array(t_contract(PromiseContract)4303)dyn_storage)"
      },
      {
        "astId": 4344,
        "contract": "contracts/PromiseFactory.sol:PromiseFactory",
        "label": "s_twitterVerifiedUsers",
        "offset": 0,
        "slot": "3",
        "type": "t_mapping(t_address,t_array(t_string_storage)dyn_storage)"
      }
    ],
    "types": {
      "t_address": {
        "encoding": "inplace",
        "label": "address",
        "numberOfBytes": "20"
      },
      "t_array(t_contract(PromiseContract)4303)dyn_storage": {
        "base": "t_contract(PromiseContract)4303",
        "encoding": "dynamic_array",
        "label": "contract PromiseContract[]",
        "numberOfBytes": "32"
      },
      "t_array(t_string_storage)dyn_storage": {
        "base": "t_string_storage",
        "encoding": "dynamic_array",
        "label": "string[]",
        "numberOfBytes": "32"
      },
      "t_contract(PromiseContract)4303": {
        "encoding": "inplace",
        "label": "contract PromiseContract",
        "numberOfBytes": "20"
      },
      "t_mapping(t_address,t_array(t_contract(PromiseContract)4303)dyn_storage)": {
        "encoding": "mapping",
        "key": "t_address",
        "label": "mapping(address => contract PromiseContract[])",
        "numberOfBytes": "32",
        "value": "t_array(t_contract(PromiseContract)4303)dyn_storage"
      },
      "t_mapping(t_address,t_array(t_string_storage)dyn_storage)": {
        "encoding": "mapping",
        "key": "t_address",
        "label": "mapping(address => string[])",
        "numberOfBytes": "32",
        "value": "t_array(t_string_storage)dyn_storage"
      },
      "t_string_storage": {
        "encoding": "bytes",
        "label": "string",
        "numberOfBytes": "32"
      }
    }
  }
}