{
  "address": "0xaCB28c30B84a7F651Bfc7100169daEA02459c8CC",
  "abi": [
    {
      "inputs": [
        {
          "internalType": "address",
          "name": "_operator",
          "type": "address"
        }
      ],
      "stateMutability": "nonpayable",
      "type": "constructor"
    },
    {
      "inputs": [],
      "name": "PromiseFactory__NOT_OWNER",
      "type": "error"
    },
    {
      "inputs": [],
      "name": "PromiseFactory__NOT_VERIFIER",
      "type": "error"
    },
    {
      "inputs": [],
      "name": "PromiseFactory__createPromiseContract__DUPLICATE_FIELD",
      "type": "error"
    },
    {
      "inputs": [],
      "name": "PromiseFactory__createPromiseContract__EMPTY_FIELD",
      "type": "error"
    },
    {
      "inputs": [],
      "name": "PromiseFactory__createPromiseContract__INCORRECT_FIELD_LENGTH",
      "type": "error"
    },
    {
      "inputs": [],
      "name": "PromiseFactory__createPromiseContract__INVALID_URI",
      "type": "error"
    },
    {
      "anonymous": false,
      "inputs": [
        {
          "indexed": true,
          "internalType": "address",
          "name": "_owner",
          "type": "address"
        },
        {
          "indexed": true,
          "internalType": "address",
          "name": "_contractAddress",
          "type": "address"
        },
        {
          "indexed": false,
          "internalType": "string",
          "name": "_promiseName",
          "type": "string"
        },
        {
          "indexed": false,
          "internalType": "string",
          "name": "_pdfUri",
          "type": "string"
        },
        {
          "indexed": false,
          "internalType": "string[]",
          "name": "_partyNames",
          "type": "string[]"
        },
        {
          "indexed": false,
          "internalType": "string[]",
          "name": "_partyTwitterHandles",
          "type": "string[]"
        },
        {
          "indexed": false,
          "internalType": "address[]",
          "name": "_partyAddresses",
          "type": "address[]"
        }
      ],
      "name": "PromiseContractCreated",
      "type": "event"
    },
    {
      "anonymous": false,
      "inputs": [
        {
          "indexed": true,
          "internalType": "address",
          "name": "_owner",
          "type": "address"
        },
        {
          "indexed": false,
          "internalType": "string",
          "name": "_twitterHandle",
          "type": "string"
        }
      ],
      "name": "TwitterAddVerifiedFailed",
      "type": "event"
    },
    {
      "anonymous": false,
      "inputs": [
        {
          "indexed": true,
          "internalType": "address",
          "name": "_owner",
          "type": "address"
        },
        {
          "indexed": false,
          "internalType": "string",
          "name": "_twitterHandle",
          "type": "string"
        }
      ],
      "name": "TwitterAddVerifiedSuccessful",
      "type": "event"
    },
    {
      "inputs": [
        {
          "internalType": "address",
          "name": "_userAddress",
          "type": "address"
        },
        {
          "internalType": "string",
          "name": "_twitterHandle",
          "type": "string"
        }
      ],
      "name": "addTwitterVerifiedUser",
      "outputs": [],
      "stateMutability": "nonpayable",
      "type": "function"
    },
    {
      "inputs": [
        {
          "internalType": "string",
          "name": "_promiseName",
          "type": "string"
        },
        {
          "internalType": "string",
          "name": "_pdfUri",
          "type": "string"
        },
        {
          "internalType": "string[]",
          "name": "_partyNames",
          "type": "string[]"
        },
        {
          "internalType": "string[]",
          "name": "_partyTwitterHandles",
          "type": "string[]"
        },
        {
          "internalType": "address[]",
          "name": "_partyAddresses",
          "type": "address[]"
        }
      ],
      "name": "createPromiseContract",
      "outputs": [
        {
          "internalType": "address",
          "name": "promiseContractAddress",
          "type": "address"
        }
      ],
      "stateMutability": "nonpayable",
      "type": "function"
    },
    {
      "inputs": [],
      "name": "getOperator",
      "outputs": [
        {
          "internalType": "address",
          "name": "",
          "type": "address"
        }
      ],
      "stateMutability": "view",
      "type": "function"
    },
    {
      "inputs": [],
      "name": "getOwner",
      "outputs": [
        {
          "internalType": "address",
          "name": "",
          "type": "address"
        }
      ],
      "stateMutability": "view",
      "type": "function"
    },
    {
      "inputs": [
        {
          "internalType": "address",
          "name": "_owner",
          "type": "address"
        }
      ],
      "name": "getPromiseContractAddresses",
      "outputs": [
        {
          "internalType": "contract PromiseContract[]",
          "name": "",
          "type": "address[]"
        }
      ],
      "stateMutability": "view",
      "type": "function"
    },
    {
      "inputs": [
        {
          "internalType": "address",
          "name": "_userAddress",
          "type": "address"
        }
      ],
      "name": "getPromiseContractCount",
      "outputs": [
        {
          "internalType": "uint256",
          "name": "",
          "type": "uint256"
        }
      ],
      "stateMutability": "view",
      "type": "function"
    },
    {
      "inputs": [
        {
          "internalType": "address",
          "name": "_userAddress",
          "type": "address"
        }
      ],
      "name": "getTwitterVerifiedHandle",
      "outputs": [
        {
          "internalType": "string[]",
          "name": "",
          "type": "string[]"
        }
      ],
      "stateMutability": "view",
      "type": "function"
    },
    {
      "inputs": [],
      "name": "getVerifier",
      "outputs": [
        {
          "internalType": "address",
          "name": "",
          "type": "address"
        }
      ],
      "stateMutability": "view",
      "type": "function"
    },
    {
      "inputs": [
        {
          "internalType": "address",
          "name": "_operator",
          "type": "address"
        }
      ],
      "name": "setOperator",
      "outputs": [],
      "stateMutability": "nonpayable",
      "type": "function"
    },
    {
      "inputs": [
        {
          "internalType": "address",
          "name": "_verifier",
          "type": "address"
        }
      ],
      "name": "setVerifier",
      "outputs": [],
      "stateMutability": "nonpayable",
      "type": "function"
    }
  ],
  "transactionHash": "0x8e506ba8de8cb955df9830455adb4459209e084604c5d7808e4d1fc59124e9da",
  "args": [
    "0x2BB8Dd9C16edeF313eb9ccBd5F42A8b577cB1E3c"
  ],
  "numDeployments": 4,
  "solcInputHash": "e038980dfad346d5f9135526c1b1b6bb",
  "bytecode": "0x60a06040523480156200001157600080fd5b50604051620048583803806200485883398181016040528101906200003791906200011c565b3373ffffffffffffffffffffffffffffffffffffffff1660808173ffffffffffffffffffffffffffffffffffffffff1681525050806000806101000a81548173ffffffffffffffffffffffffffffffffffffffff021916908373ffffffffffffffffffffffffffffffffffffffff160217905550506200014e565b600080fd5b600073ffffffffffffffffffffffffffffffffffffffff82169050919050565b6000620000e482620000b7565b9050919050565b620000f681620000d7565b81146200010257600080fd5b50565b6000815190506200011681620000eb565b92915050565b600060208284031215620001355762000134620000b2565b5b6000620001458482850162000105565b91505092915050565b6080516146e062000178600039600081816102c701528181610850015261087601526146e06000f3fe60806040523480156200001157600080fd5b5060043610620000ac5760003560e01c8063b3ab15fb116200006f578063b3ab15fb1462000181578063d210fee314620001a1578063d488f9a014620001d7578063e31db573146200020d578063e7f43c68146200022d57620000ac565b806346657fe914620000b15780634784336f14620000d35780635437988d1462000109578063866050621462000129578063893d20e8146200015f575b600080fd5b620000bb6200024f565b604051620000ca91906200125b565b60405180910390f35b620000f16004803603810190620000eb9190620012bd565b62000279565b6040516200010091906200130a565b60405180910390f35b620001276004803603810190620001219190620012bd565b620002c5565b005b6200014760048036038101906200014191906200165b565b6200038f565b6040516200015691906200125b565b60405180910390f35b620001696200084c565b6040516200017891906200125b565b60405180910390f35b6200019f6004803603810190620001999190620012bd565b62000874565b005b620001bf6004803603810190620001b99190620012bd565b6200093d565b604051620001ce9190620018a6565b60405180910390f35b620001f56004803603810190620001ef9190620012bd565b62000a0c565b60405162000204919062001a23565b60405180910390f35b6200022b600480360381019062000225919062001a47565b62000bdc565b005b62000237620010f2565b6040516200024691906200125b565b60405180910390f35b6000600160009054906101000a900473ffffffffffffffffffffffffffffffffffffffff16905090565b6000600260008373ffffffffffffffffffffffffffffffffffffffff1673ffffffffffffffffffffffffffffffffffffffff168152602001908152602001600020805490509050919050565b7f000000000000000000000000000000000000000000000000000000000000000073ffffffffffffffffffffffffffffffffffffffff163373ffffffffffffffffffffffffffffffffffffffff16146200034b576040517fadf438e600000000000000000000000000000000000000000000000000000000815260040160405180910390fd5b80600160006101000a81548173ffffffffffffffffffffffffffffffffffffffff021916908373ffffffffffffffffffffffffffffffffffffffff16021790555050565b6000808651118015620003a3575060008551115b8015620003b1575060008451115b8015620003bf575060008251115b620003f6576040517fb0bac3b800000000000000000000000000000000000000000000000000000000815260040160405180910390fd5b8251825114801562000409575083518251145b62000440576040517f21938d4e00000000000000000000000000000000000000000000000000000000815260040160405180910390fd5b60005b8251811015620005ce5760006001826200045e919062001adc565b90505b8351811015620005b75783818151811062000481576200048062001b17565b5b602002602001015173ffffffffffffffffffffffffffffffffffffffff16848381518110620004b557620004b462001b17565b5b602002602001015173ffffffffffffffffffffffffffffffffffffffff161480620005695750848181518110620004f157620004f062001b17565b5b60200260200101516040516020016200050b919062001b88565b6040516020818303038152906040528051906020012085838151811062000537576200053662001b17565b5b602002602001015160405160200162000551919062001b88565b60405160208183030381529060405280519060200120145b15620005a1576040517f301cd94e00000000000000000000000000000000000000000000000000000000815260040160405180910390fd5b8080620005ae9062001ba1565b91505062000461565b508080620005c59062001ba1565b91505062000443565b506046865111156200060c576040517f21938d4e00000000000000000000000000000000000000000000000000000000815260040160405180910390fd5b600085905060068151116200064d576040517f7f916f4900000000000000000000000000000000000000000000000000000000815260040160405180910390fd5b60005b8151811015620006e757600082828151811062000672576200067162001b17565b5b602001015160f81c60f81b60f81c60ff166001901b6f07ffeffe07ff7dfe03fe0000000000001611620006d1576040517f7f916f4900000000000000000000000000000000000000000000000000000000815260040160405180910390fd5b8080620006de9062001ba1565b91505062000650565b506000338888888888604051620006fe906200111b565b6200070f9695949392919062001cfd565b604051809103906000f0801580156200072c573d6000803e3d6000fd5b509050600260003373ffffffffffffffffffffffffffffffffffffffff1673ffffffffffffffffffffffffffffffffffffffff168152602001908152602001600020819080600181540180825580915050600190039060005260206000200160009091909190916101000a81548173ffffffffffffffffffffffffffffffffffffffff021916908373ffffffffffffffffffffffffffffffffffffffff1602179055508073ffffffffffffffffffffffffffffffffffffffff163373ffffffffffffffffffffffffffffffffffffffff167f7218ecb1d60a4ca32226db62922bd3917372e8801cddba0cc86fffd285ff74428a8a8a8a8a6040516200083695949392919062001d8d565b60405180910390a3809250505095945050505050565b60007f0000000000000000000000000000000000000000000000000000000000000000905090565b7f000000000000000000000000000000000000000000000000000000000000000073ffffffffffffffffffffffffffffffffffffffff163373ffffffffffffffffffffffffffffffffffffffff1614620008fa576040517fadf438e600000000000000000000000000000000000000000000000000000000815260040160405180910390fd5b806000806101000a81548173ffffffffffffffffffffffffffffffffffffffff021916908373ffffffffffffffffffffffffffffffffffffffff16021790555050565b6060600260008373ffffffffffffffffffffffffffffffffffffffff1673ffffffffffffffffffffffffffffffffffffffff16815260200190815260200160002080548060200260200160405190810160405280929190818152602001828054801562000a0057602002820191906000526020600020905b8160009054906101000a900473ffffffffffffffffffffffffffffffffffffffff1673ffffffffffffffffffffffffffffffffffffffff1681526020019060010190808311620009b5575b50505050509050919050565b60606000600360008473ffffffffffffffffffffffffffffffffffffffff1673ffffffffffffffffffffffffffffffffffffffff16815260200190815260200160002080549050111562000b7b57600360008373ffffffffffffffffffffffffffffffffffffffff1673ffffffffffffffffffffffffffffffffffffffff168152602001908152602001600020805480602002602001604051908101604052809291908181526020016000905b8282101562000b6f57838290600052602060002001805462000adb9062001e3c565b80601f016020809104026020016040519081016040528092919081815260200182805462000b099062001e3c565b801562000b5a5780601f1062000b2e5761010080835404028352916020019162000b5a565b820191906000526020600020905b81548152906001019060200180831162000b3c57829003601f168201915b50505050508152602001906001019062000ab9565b50505050905062000bd7565b60008067ffffffffffffffff81111562000b9a5762000b9962001342565b5b60405190808252806020026020018201604052801562000bcf57816020015b606081526020019060019003908162000bb95790505b509050809150505b919050565b600160009054906101000a900473ffffffffffffffffffffffffffffffffffffffff1673ffffffffffffffffffffffffffffffffffffffff163373ffffffffffffffffffffffffffffffffffffffff161462000c63576040517e11415300000000000000000000000000000000000000000000000000000000815260040160405180910390fd5b6000600360008473ffffffffffffffffffffffffffffffffffffffff1673ffffffffffffffffffffffffffffffffffffffff168152602001908152602001600020805490500362000dcc57600167ffffffffffffffff81111562000ccc5762000ccb62001342565b5b60405190808252806020026020018201604052801562000d0157816020015b606081526020019060019003908162000ceb5790505b50600360008473ffffffffffffffffffffffffffffffffffffffff1673ffffffffffffffffffffffffffffffffffffffff168152602001908152602001600020908051906020019062000d5692919062001129565b5080600360008473ffffffffffffffffffffffffffffffffffffffff1673ffffffffffffffffffffffffffffffffffffffff16815260200190815260200160002060008154811062000dad5762000dac62001b17565b5b90600052602060002001908162000dc5919062002039565b50620010ed565b6000600360008473ffffffffffffffffffffffffffffffffffffffff1673ffffffffffffffffffffffffffffffffffffffff168152602001908152602001600020805490501115620010ec576000600360008473ffffffffffffffffffffffffffffffffffffffff1673ffffffffffffffffffffffffffffffffffffffff168152602001908152602001600020805480602002602001604051908101604052809291908181526020016000905b8282101562000f2f57838290600052602060002001805462000e9b9062001e3c565b80601f016020809104026020016040519081016040528092919081815260200182805462000ec99062001e3c565b801562000f1a5780601f1062000eee5761010080835404028352916020019162000f1a565b820191906000526020600020905b81548152906001019060200180831162000efc57829003601f168201915b50505050508152602001906001019062000e79565b50505050905060005b815181101562001025578260405160200162000f55919062001b88565b6040516020818303038152906040528051906020012082828151811062000f815762000f8062001b17565b5b602002602001015160405160200162000f9b919062001b88565b60405160208183030381529060405280519060200120036200100f578373ffffffffffffffffffffffffffffffffffffffff167f805acb17edee217f5128327239971ea045c5e3d394dfed02278df9d8795f2cfe8460405162000fff919062002120565b60405180910390a25050620010ee565b80806200101c9062001ba1565b91505062000f38565b50600360008473ffffffffffffffffffffffffffffffffffffffff1673ffffffffffffffffffffffffffffffffffffffff1681526020019081526020016000208290806001815401808255809150506001900390600052602060002001600090919091909150908162001099919062002039565b508273ffffffffffffffffffffffffffffffffffffffff167fb84b5dc40da8cd280dee1aaf74b3abbd449725a972daf3ad8cbc9d0adc089eff83604051620010e2919062002120565b60405180910390a2505b5b5b5050565b60008060009054906101000a900473ffffffffffffffffffffffffffffffffffffffff16905090565b612566806200214583390190565b82805482825590600052602060002090810192821562001176579160200282015b828111156200117557825182908162001164919062002039565b50916020019190600101906200114a565b5b50905062001185919062001189565b5090565b5b80821115620011ad5760008181620011a39190620011b1565b506001016200118a565b5090565b508054620011bf9062001e3c565b6000825580601f10620011d35750620011f4565b601f016020900490600052602060002090810190620011f39190620011f7565b5b50565b5b8082111562001212576000816000905550600101620011f8565b5090565b600073ffffffffffffffffffffffffffffffffffffffff82169050919050565b6000620012438262001216565b9050919050565b620012558162001236565b82525050565b60006020820190506200127260008301846200124a565b92915050565b6000604051905090565b600080fd5b600080fd5b620012978162001236565b8114620012a357600080fd5b50565b600081359050620012b7816200128c565b92915050565b600060208284031215620012d657620012d562001282565b5b6000620012e684828501620012a6565b91505092915050565b6000819050919050565b6200130481620012ef565b82525050565b6000602082019050620013216000830184620012f9565b92915050565b600080fd5b600080fd5b6000601f19601f8301169050919050565b7f4e487b7100000000000000000000000000000000000000000000000000000000600052604160045260246000fd5b6200137c8262001331565b810181811067ffffffffffffffff821117156200139e576200139d62001342565b5b80604052505050565b6000620013b362001278565b9050620013c1828262001371565b919050565b600067ffffffffffffffff821115620013e457620013e362001342565b5b620013ef8262001331565b9050602081019050919050565b82818337600083830152505050565b6000620014226200141c84620013c6565b620013a7565b9050828152602081018484840111156200144157620014406200132c565b5b6200144e848285620013fc565b509392505050565b600082601f8301126200146e576200146d62001327565b5b8135620014808482602086016200140b565b91505092915050565b600067ffffffffffffffff821115620014a757620014a662001342565b5b602082029050602081019050919050565b600080fd5b6000620014d4620014ce8462001489565b620013a7565b90508083825260208201905060208402830185811115620014fa57620014f9620014b8565b5b835b818110156200154857803567ffffffffffffffff81111562001523576200152262001327565b5b80860162001532898262001456565b85526020850194505050602081019050620014fc565b5050509392505050565b600082601f8301126200156a576200156962001327565b5b81356200157c848260208601620014bd565b91505092915050565b600067ffffffffffffffff821115620015a357620015a262001342565b5b602082029050602081019050919050565b6000620015cb620015c58462001585565b620013a7565b90508083825260208201905060208402830185811115620015f157620015f0620014b8565b5b835b818110156200161e5780620016098882620012a6565b845260208401935050602081019050620015f3565b5050509392505050565b600082601f83011262001640576200163f62001327565b5b813562001652848260208601620015b4565b91505092915050565b600080600080600060a086880312156200167a576200167962001282565b5b600086013567ffffffffffffffff8111156200169b576200169a62001287565b5b620016a98882890162001456565b955050602086013567ffffffffffffffff811115620016cd57620016cc62001287565b5b620016db8882890162001456565b945050604086013567ffffffffffffffff811115620016ff57620016fe62001287565b5b6200170d8882890162001552565b935050606086013567ffffffffffffffff81111562001731576200173062001287565b5b6200173f8882890162001552565b925050608086013567ffffffffffffffff81111562001763576200176262001287565b5b620017718882890162001628565b9150509295509295909350565b600081519050919050565b600082825260208201905092915050565b6000819050602082019050919050565b6000819050919050565b6000620017d5620017cf620017c98462001216565b620017aa565b62001216565b9050919050565b6000620017e982620017b4565b9050919050565b6000620017fd82620017dc565b9050919050565b6200180f81620017f0565b82525050565b600062001823838362001804565b60208301905092915050565b6000602082019050919050565b600062001849826200177e565b62001855818562001789565b935062001862836200179a565b8060005b83811015620018995781516200187d888262001815565b97506200188a836200182f565b92505060018101905062001866565b5085935050505092915050565b60006020820190508181036000830152620018c281846200183c565b905092915050565b600081519050919050565b600082825260208201905092915050565b6000819050602082019050919050565b600081519050919050565b600082825260208201905092915050565b60005b838110156200193257808201518184015260208101905062001915565b60008484015250505050565b60006200194b82620018f6565b62001957818562001901565b93506200196981856020860162001912565b620019748162001331565b840191505092915050565b60006200198d83836200193e565b905092915050565b6000602082019050919050565b6000620019af82620018ca565b620019bb8185620018d5565b935083602082028501620019cf85620018e6565b8060005b8581101562001a115784840389528151620019ef85826200197f565b9450620019fc8362001995565b925060208a01995050600181019050620019d3565b50829750879550505050505092915050565b6000602082019050818103600083015262001a3f8184620019a2565b905092915050565b6000806040838503121562001a615762001a6062001282565b5b600062001a7185828601620012a6565b925050602083013567ffffffffffffffff81111562001a955762001a9462001287565b5b62001aa38582860162001456565b9150509250929050565b7f4e487b7100000000000000000000000000000000000000000000000000000000600052601160045260246000fd5b600062001ae982620012ef565b915062001af683620012ef565b925082820190508082111562001b115762001b1062001aad565b5b92915050565b7f4e487b7100000000000000000000000000000000000000000000000000000000600052603260045260246000fd5b600081905092915050565b600062001b5e82620018f6565b62001b6a818562001b46565b935062001b7c81856020860162001912565b80840191505092915050565b600062001b96828462001b51565b915081905092915050565b600062001bae82620012ef565b91507fffffffffffffffffffffffffffffffffffffffffffffffffffffffffffffffff820362001be35762001be262001aad565b5b600182019050919050565b600082825260208201905092915050565b600062001c0c82620018f6565b62001c18818562001bee565b935062001c2a81856020860162001912565b62001c358162001331565b840191505092915050565b600081519050919050565b6000819050602082019050919050565b62001c668162001236565b82525050565b600062001c7a838362001c5b565b60208301905092915050565b6000602082019050919050565b600062001ca08262001c40565b62001cac818562001789565b935062001cb98362001c4b565b8060005b8381101562001cf057815162001cd4888262001c6c565b975062001ce18362001c86565b92505060018101905062001cbd565b5085935050505092915050565b600060c08201905062001d1460008301896200124a565b818103602083015262001d28818862001bff565b9050818103604083015262001d3e818762001bff565b9050818103606083015262001d548186620019a2565b9050818103608083015262001d6a8185620019a2565b905081810360a083015262001d80818462001c93565b9050979650505050505050565b600060a082019050818103600083015262001da9818862001bff565b9050818103602083015262001dbf818762001bff565b9050818103604083015262001dd58186620019a2565b9050818103606083015262001deb8185620019a2565b9050818103608083015262001e01818462001c93565b90509695505050505050565b7f4e487b7100000000000000000000000000000000000000000000000000000000600052602260045260246000fd5b6000600282049050600182168062001e5557607f821691505b60208210810362001e6b5762001e6a62001e0d565b5b50919050565b60008190508160005260206000209050919050565b60006020601f8301049050919050565b600082821b905092915050565b60006008830262001ed57fffffffffffffffffffffffffffffffffffffffffffffffffffffffffffffffff8262001e96565b62001ee1868362001e96565b95508019841693508086168417925050509392505050565b600062001f1a62001f1462001f0e84620012ef565b620017aa565b620012ef565b9050919050565b6000819050919050565b62001f368362001ef9565b62001f4e62001f458262001f21565b84845462001ea3565b825550505050565b600090565b62001f6562001f56565b62001f7281848462001f2b565b505050565b5b8181101562001f9a5762001f8e60008262001f5b565b60018101905062001f78565b5050565b601f82111562001fe95762001fb38162001e71565b62001fbe8462001e86565b8101602085101562001fce578190505b62001fe662001fdd8562001e86565b83018262001f77565b50505b505050565b600082821c905092915050565b60006200200e6000198460080262001fee565b1980831691505092915050565b600062002029838362001ffb565b9150826002028217905092915050565b6200204482620018f6565b67ffffffffffffffff81111562002060576200205f62001342565b5b6200206c825462001e3c565b6200207982828562001f9e565b600060209050601f831160018114620020b157600084156200209c578287015190505b620020a885826200201b565b86555062002118565b601f198416620020c18662001e71565b60005b82811015620020eb57848901518255600182019150602085019450602081019050620020c4565b868310156200210b578489015162002107601f89168262001ffb565b8355505b6001600288020188555050505b505050505050565b600060208201905081810360008301526200213c818462001bff565b90509291505056fe60a06040526000600460006101000a81548160ff0219169083151502179055503480156200002c57600080fd5b5060405162002566380380620025668339818101604052810190620000529190620006c0565b8573ffffffffffffffffffffffffffffffffffffffff1660808173ffffffffffffffffffffffffffffffffffffffff1681525050846001908162000097919062000a42565b508360029081620000a9919062000a42565b50805160008190555060005b81518110156200013f5762000129848281518110620000d957620000d862000b29565b5b6020026020010151848381518110620000f757620000f662000b29565b5b602002602001015184848151811062000115576200011462000b29565b5b60200260200101516200014c60201b60201c565b8080620001369062000b87565b915050620000b5565b5050505050505062000c61565b600060405180606001604052808581526020018481526020018373ffffffffffffffffffffffffffffffffffffffff16815250905080600560008473ffffffffffffffffffffffffffffffffffffffff1673ffffffffffffffffffffffffffffffffffffffff1681526020019081526020016000206000820151816000019081620001d8919062000a42565b506020820151816001019081620001f0919062000a42565b5060408201518160020160006101000a81548173ffffffffffffffffffffffffffffffffffffffff021916908373ffffffffffffffffffffffffffffffffffffffff1602179055509050506003829080600181540180825580915050600190039060005260206000200160009091909190916101000a81548173ffffffffffffffffffffffffffffffffffffffff021916908373ffffffffffffffffffffffffffffffffffffffff1602179055508173ffffffffffffffffffffffffffffffffffffffff167fd76352dcc1f8336c0abdec06ee73330eee3e75ba620ba2c87510a25a32439d4e8585604051620002e892919062000c26565b60405180910390a250505050565b6000604051905090565b600080fd5b600080fd5b600073ffffffffffffffffffffffffffffffffffffffff82169050919050565b600062000337826200030a565b9050919050565b62000349816200032a565b81146200035557600080fd5b50565b60008151905062000369816200033e565b92915050565b600080fd5b600080fd5b6000601f19601f8301169050919050565b7f4e487b7100000000000000000000000000000000000000000000000000000000600052604160045260246000fd5b620003c48262000379565b810181811067ffffffffffffffff82111715620003e657620003e56200038a565b5b80604052505050565b6000620003fb620002f6565b9050620004098282620003b9565b919050565b600067ffffffffffffffff8211156200042c576200042b6200038a565b5b620004378262000379565b9050602081019050919050565b60005b838110156200046457808201518184015260208101905062000447565b60008484015250505050565b60006200048762000481846200040e565b620003ef565b905082815260208101848484011115620004a657620004a562000374565b5b620004b384828562000444565b509392505050565b600082601f830112620004d357620004d26200036f565b5b8151620004e584826020860162000470565b91505092915050565b600067ffffffffffffffff8211156200050c576200050b6200038a565b5b602082029050602081019050919050565b600080fd5b6000620005396200053384620004ee565b620003ef565b905080838252602082019050602084028301858111156200055f576200055e6200051d565b5b835b81811015620005ad57805167ffffffffffffffff8111156200058857620005876200036f565b5b808601620005978982620004bb565b8552602085019450505060208101905062000561565b5050509392505050565b600082601f830112620005cf57620005ce6200036f565b5b8151620005e184826020860162000522565b91505092915050565b600067ffffffffffffffff8211156200060857620006076200038a565b5b602082029050602081019050919050565b6000620006306200062a84620005ea565b620003ef565b905080838252602082019050602084028301858111156200065657620006556200051d565b5b835b818110156200068357806200066e888262000358565b84526020840193505060208101905062000658565b5050509392505050565b600082601f830112620006a557620006a46200036f565b5b8151620006b784826020860162000619565b91505092915050565b60008060008060008060c08789031215620006e057620006df62000300565b5b6000620006f089828a0162000358565b965050602087015167ffffffffffffffff81111562000714576200071362000305565b5b6200072289828a01620004bb565b955050604087015167ffffffffffffffff81111562000746576200074562000305565b5b6200075489828a01620004bb565b945050606087015167ffffffffffffffff81111562000778576200077762000305565b5b6200078689828a01620005b7565b935050608087015167ffffffffffffffff811115620007aa57620007a962000305565b5b620007b889828a01620005b7565b92505060a087015167ffffffffffffffff811115620007dc57620007db62000305565b5b620007ea89828a016200068d565b9150509295509295509295565b600081519050919050565b7f4e487b7100000000000000000000000000000000000000000000000000000000600052602260045260246000fd5b600060028204905060018216806200084a57607f821691505b60208210810362000860576200085f62000802565b5b50919050565b60008190508160005260206000209050919050565b60006020601f8301049050919050565b600082821b905092915050565b600060088302620008ca7fffffffffffffffffffffffffffffffffffffffffffffffffffffffffffffffff826200088b565b620008d686836200088b565b95508019841693508086168417925050509392505050565b6000819050919050565b6000819050919050565b6000620009236200091d6200091784620008ee565b620008f8565b620008ee565b9050919050565b6000819050919050565b6200093f8362000902565b620009576200094e826200092a565b84845462000898565b825550505050565b600090565b6200096e6200095f565b6200097b81848462000934565b505050565b5b81811015620009a3576200099760008262000964565b60018101905062000981565b5050565b601f821115620009f257620009bc8162000866565b620009c7846200087b565b81016020851015620009d7578190505b620009ef620009e6856200087b565b83018262000980565b50505b505050565b600082821c905092915050565b600062000a1760001984600802620009f7565b1980831691505092915050565b600062000a32838362000a04565b9150826002028217905092915050565b62000a4d82620007f7565b67ffffffffffffffff81111562000a695762000a686200038a565b5b62000a75825462000831565b62000a82828285620009a7565b600060209050601f83116001811462000aba576000841562000aa5578287015190505b62000ab1858262000a24565b86555062000b21565b601f19841662000aca8662000866565b60005b8281101562000af45784890151825560018201915060208501945060208101905062000acd565b8683101562000b14578489015162000b10601f89168262000a04565b8355505b6001600288020188555050505b505050505050565b7f4e487b7100000000000000000000000000000000000000000000000000000000600052603260045260246000fd5b7f4e487b7100000000000000000000000000000000000000000000000000000000600052601160045260246000fd5b600062000b9482620008ee565b91507fffffffffffffffffffffffffffffffffffffffffffffffffffffffffffffffff820362000bc95762000bc862000b58565b5b600182019050919050565b600082825260208201905092915050565b600062000bf282620007f7565b62000bfe818562000bd4565b935062000c1081856020860162000444565b62000c1b8162000379565b840191505092915050565b6000604082019050818103600083015262000c42818562000be5565b9050818103602083015262000c58818462000be5565b90509392505050565b6080516118d462000c926000396000818161097b01528181610c7001528181610f2b015261120201526118d46000f3fe608060405234801561001057600080fd5b50600436106101165760003560e01c806375e57251116100a2578063a7d136a811610071578063a7d136a8146102d7578063ad605729146102f5578063d678132414610313578063dba6335f1461031d578063ee9706ac1461033b57610116565b806375e572511461025f5780637b560fc21461027d578063893d20e81461028757806392be02d8146102a557610116565b8063384786d6116100e9578063384786d6146101b757806353d54866146101d557806363cf7ce2146101f357806364fb931b146102115780637143059f1461022f57610116565b80630cc375281461011b57806317d7de7c146101395780633683b583146101575780633686b77814610187575b600080fd5b61012361036b565b6040516101309190611341565b60405180910390f35b6101416103f9565b60405161014e9190611341565b60405180910390f35b610171600480360381019061016c91906113c6565b61048b565b60405161017e919061140e565b60405180910390f35b6101a1600480360381019061019c919061145f565b6104ab565b6040516101ae919061149b565b60405180910390f35b6101bf6104ea565b6040516101cc919061140e565b60405180910390f35b6101dd6104fd565b6040516101ea91906114c5565b60405180910390f35b6101fb610503565b6040516102089190611341565b60405180910390f35b610219610595565b604051610226919061140e565b60405180910390f35b610249600480360381019061024491906113c6565b6105ac565b6040516102569190611590565b60405180910390f35b610267610847565b6040516102749190611341565b60405180910390f35b6102856108d5565b005b61028f610c6c565b60405161029c919061149b565b60405180910390f35b6102bf60048036038101906102ba91906113c6565b610c94565b6040516102ce939291906115b2565b60405180910390f35b6102df610dee565b6040516102ec91906116a6565b60405180910390f35b6102fd610e7c565b60405161030a91906114c5565b60405180910390f35b61031b610e85565b005b610325611200565b604051610332919061149b565b60405180910390f35b610355600480360381019061035091906113c6565b611224565b604051610362919061140e565b60405180910390f35b60018054610378906116f7565b80601f01602080910402602001604051908101604052809291908181526020018280546103a4906116f7565b80156103f15780601f106103c6576101008083540402835291602001916103f1565b820191906000526020600020905b8154815290600101906020018083116103d457829003601f168201915b505050505081565b606060018054610408906116f7565b80601f0160208091040260200160405190810160405280929190818152602001828054610434906116f7565b80156104815780601f1061045657610100808354040283529160200191610481565b820191906000526020600020905b81548152906001019060200180831161046457829003601f168201915b5050505050905090565b60066020528060005260406000206000915054906101000a900460ff1681565b600381815481106104bb57600080fd5b906000526020600020016000915054906101000a900473ffffffffffffffffffffffffffffffffffffffff1681565b600460009054906101000a900460ff1681565b60005481565b606060028054610512906116f7565b80601f016020809104026020016040519081016040528092919081815260200182805461053e906116f7565b801561058b5780601f106105605761010080835404028352916020019161058b565b820191906000526020600020905b81548152906001019060200180831161056e57829003601f168201915b5050505050905090565b6000600460009054906101000a900460ff16905090565b6105b461127a565b600073ffffffffffffffffffffffffffffffffffffffff16600560008473ffffffffffffffffffffffffffffffffffffffff1673ffffffffffffffffffffffffffffffffffffffff16815260200190815260200160002060020160009054906101000a900473ffffffffffffffffffffffffffffffffffffffff1673ffffffffffffffffffffffffffffffffffffffff160361067c576040517ffccacf3300000000000000000000000000000000000000000000000000000000815260040160405180910390fd5b600560008373ffffffffffffffffffffffffffffffffffffffff1673ffffffffffffffffffffffffffffffffffffffff1681526020019081526020016000206040518060600160405290816000820180546106d6906116f7565b80601f0160208091040260200160405190810160405280929190818152602001828054610702906116f7565b801561074f5780601f106107245761010080835404028352916020019161074f565b820191906000526020600020905b81548152906001019060200180831161073257829003601f168201915b50505050508152602001600182018054610768906116f7565b80601f0160208091040260200160405190810160405280929190818152602001828054610794906116f7565b80156107e15780601f106107b6576101008083540402835291602001916107e1565b820191906000526020600020905b8154815290600101906020018083116107c457829003601f168201915b505050505081526020016002820160009054906101000a900473ffffffffffffffffffffffffffffffffffffffff1673ffffffffffffffffffffffffffffffffffffffff1673ffffffffffffffffffffffffffffffffffffffff16815250509050919050565b60028054610854906116f7565b80601f0160208091040260200160405190810160405280929190818152602001828054610880906116f7565b80156108cd5780601f106108a2576101008083540402835291602001916108cd565b820191906000526020600020905b8154815290600101906020018083116108b057829003601f168201915b505050505081565b6000600380548060200260200160405190810160405280929190818152602001828054801561095957602002820191906000526020600020905b8160009054906101000a900473ffffffffffffffffffffffffffffffffffffffff1673ffffffffffffffffffffffffffffffffffffffff168152602001906001019080831161090f575b5050505050905060003373ffffffffffffffffffffffffffffffffffffffff167f000000000000000000000000000000000000000000000000000000000000000073ffffffffffffffffffffffffffffffffffffffff16036109be5760019050610a36565b60005b600054811015610a34573373ffffffffffffffffffffffffffffffffffffffff168382815181106109f5576109f4611728565b5b602002602001015173ffffffffffffffffffffffffffffffffffffffff1603610a215760019150610a34565b8080610a2c90611786565b9150506109c1565b505b80610a6d576040517ffccacf3300000000000000000000000000000000000000000000000000000000815260040160405180910390fd5b600460009054906101000a900460ff1615610ab4576040517f6bbe2df800000000000000000000000000000000000000000000000000000000815260040160405180910390fd5b60011515600660003373ffffffffffffffffffffffffffffffffffffffff1673ffffffffffffffffffffffffffffffffffffffff16815260200190815260200160002060009054906101000a900460ff16151503610b3e576040517f3b4b7dcf00000000000000000000000000000000000000000000000000000000815260040160405180910390fd5b6001600660003373ffffffffffffffffffffffffffffffffffffffff1673ffffffffffffffffffffffffffffffffffffffff16815260200190815260200160002060006101000a81548160ff0219169083151502179055503373ffffffffffffffffffffffffffffffffffffffff167f26c25af05520e978d353f976c99fa4c277ddc75aed4170ec47c9e24f06e62a1c600560003373ffffffffffffffffffffffffffffffffffffffff1673ffffffffffffffffffffffffffffffffffffffff168152602001908152602001600020600001600560003373ffffffffffffffffffffffffffffffffffffffff1673ffffffffffffffffffffffffffffffffffffffff168152602001908152602001600020600101604051610c60929190611867565b60405180910390a25050565b60007f0000000000000000000000000000000000000000000000000000000000000000905090565b6005602052806000526040600020600091509050806000018054610cb7906116f7565b80601f0160208091040260200160405190810160405280929190818152602001828054610ce3906116f7565b8015610d305780601f10610d0557610100808354040283529160200191610d30565b820191906000526020600020905b815481529060010190602001808311610d1357829003601f168201915b505050505090806001018054610d45906116f7565b80601f0160208091040260200160405190810160405280929190818152602001828054610d71906116f7565b8015610dbe5780601f10610d9357610100808354040283529160200191610dbe565b820191906000526020600020905b815481529060010190602001808311610da157829003601f168201915b5050505050908060020160009054906101000a900473ffffffffffffffffffffffffffffffffffffffff16905083565b60606003805480602002602001604051908101604052809291908181526020018280548015610e7257602002820191906000526020600020905b8160009054906101000a900473ffffffffffffffffffffffffffffffffffffffff1673ffffffffffffffffffffffffffffffffffffffff1681526020019060010190808311610e28575b5050505050905090565b60008054905090565b60006003805480602002602001604051908101604052809291908181526020018280548015610f0957602002820191906000526020600020905b8160009054906101000a900473ffffffffffffffffffffffffffffffffffffffff1673ffffffffffffffffffffffffffffffffffffffff1681526020019060010190808311610ebf575b5050505050905060003373ffffffffffffffffffffffffffffffffffffffff167f000000000000000000000000000000000000000000000000000000000000000073ffffffffffffffffffffffffffffffffffffffff1603610f6e5760019050610fe6565b60005b600054811015610fe4573373ffffffffffffffffffffffffffffffffffffffff16838281518110610fa557610fa4611728565b5b602002602001015173ffffffffffffffffffffffffffffffffffffffff1603610fd15760019150610fe4565b8080610fdc90611786565b915050610f71565b505b8061101d576040517ffccacf3300000000000000000000000000000000000000000000000000000000815260040160405180910390fd5b600460009054906101000a900460ff1615611064576040517f6bbe2df800000000000000000000000000000000000000000000000000000000815260040160405180910390fd5b600060038054806020026020016040519081016040528092919081815260200182805480156110e857602002820191906000526020600020905b8160009054906101000a900473ffffffffffffffffffffffffffffffffffffffff1673ffffffffffffffffffffffffffffffffffffffff168152602001906001019080831161109e575b5050505050905060005b6000548110156111b357600015156006600084848151811061111757611116611728565b5b602002602001015173ffffffffffffffffffffffffffffffffffffffff1673ffffffffffffffffffffffffffffffffffffffff16815260200190815260200160002060009054906101000a900460ff161515036111a0576040517fadba427200000000000000000000000000000000000000000000000000000000815260040160405180910390fd5b80806111ab90611786565b9150506110f2565b506001600460006101000a81548160ff0219169083151502179055507f77b99c173854235e0f45948e541b3d590e15d05c680efbedc9c18bcb845aa01c60405160405180910390a1505050565b7f000000000000000000000000000000000000000000000000000000000000000081565b6000600660008373ffffffffffffffffffffffffffffffffffffffff1673ffffffffffffffffffffffffffffffffffffffff16815260200190815260200160002060009054906101000a900460ff169050919050565b60405180606001604052806060815260200160608152602001600073ffffffffffffffffffffffffffffffffffffffff1681525090565b600081519050919050565b600082825260208201905092915050565b60005b838110156112eb5780820151818401526020810190506112d0565b60008484015250505050565b6000601f19601f8301169050919050565b6000611313826112b1565b61131d81856112bc565b935061132d8185602086016112cd565b611336816112f7565b840191505092915050565b6000602082019050818103600083015261135b8184611308565b905092915050565b600080fd5b600073ffffffffffffffffffffffffffffffffffffffff82169050919050565b600061139382611368565b9050919050565b6113a381611388565b81146113ae57600080fd5b50565b6000813590506113c08161139a565b92915050565b6000602082840312156113dc576113db611363565b5b60006113ea848285016113b1565b91505092915050565b60008115159050919050565b611408816113f3565b82525050565b600060208201905061142360008301846113ff565b92915050565b6000819050919050565b61143c81611429565b811461144757600080fd5b50565b60008135905061145981611433565b92915050565b60006020828403121561147557611474611363565b5b60006114838482850161144a565b91505092915050565b61149581611388565b82525050565b60006020820190506114b0600083018461148c565b92915050565b6114bf81611429565b82525050565b60006020820190506114da60008301846114b6565b92915050565b600082825260208201905092915050565b60006114fc826112b1565b61150681856114e0565b93506115168185602086016112cd565b61151f816112f7565b840191505092915050565b61153381611388565b82525050565b6000606083016000830151848203600086015261155682826114f1565b9150506020830151848203602086015261157082826114f1565b9150506040830151611585604086018261152a565b508091505092915050565b600060208201905081810360008301526115aa8184611539565b905092915050565b600060608201905081810360008301526115cc8186611308565b905081810360208301526115e08185611308565b90506115ef604083018461148c565b949350505050565b600081519050919050565b600082825260208201905092915050565b6000819050602082019050919050565b600061162f838361152a565b60208301905092915050565b6000602082019050919050565b6000611653826115f7565b61165d8185611602565b935061166883611613565b8060005b838110156116995781516116808882611623565b975061168b8361163b565b92505060018101905061166c565b5085935050505092915050565b600060208201905081810360008301526116c08184611648565b905092915050565b7f4e487b7100000000000000000000000000000000000000000000000000000000600052602260045260246000fd5b6000600282049050600182168061170f57607f821691505b602082108103611722576117216116c8565b5b50919050565b7f4e487b7100000000000000000000000000000000000000000000000000000000600052603260045260246000fd5b7f4e487b7100000000000000000000000000000000000000000000000000000000600052601160045260246000fd5b600061179182611429565b91507fffffffffffffffffffffffffffffffffffffffffffffffffffffffffffffffff82036117c3576117c2611757565b5b600182019050919050565b60008190508160005260206000209050919050565b600081546117f0816116f7565b6117fa81866112bc565b94506001821660008114611815576001811461182b5761185e565b60ff19831686528115156020028601935061185e565b611834856117ce565b60005b8381101561185657815481890152600182019150602081019050611837565b808801955050505b50505092915050565b6000604082019050818103600083015261188181856117e3565b9050818103602083015261189581846117e3565b9050939250505056fea26469706673582212208136947216c9a0148a12b09caf58bc26c624089ff32f49b8c07537728ffb521064736f6c63430008100033a2646970667358221220633c4627348f5e212c8b226b8edabf707b4cfe3522524b6102bd19ae4fa8bb2e64736f6c63430008100033",
  "devdoc": {
    "author": "polarzero",
    "kind": "dev",
    "methods": {
      "addTwitterVerifiedUser(address,string)": {
        "details": "Only the operator contract can call this function, after the account has been verified with the Chainlink Node + External Adapter",
        "params": {
          "_twitterHandle": "The Twitter handle of the verified account",
          "_userAddress": "The address of the user"
        }
      },
      "constructor": {
        "params": {
          "_operator": "The operator address"
        }
      },
      "createPromiseContract(string,string,string[],string[],address[])": {
        "params": {
          "_partyAddresses": "The addresses specified by the user that will be allowed to interact with the contract",
          "_partyNames": "The names of the parties specified by the user",
          "_partyTwitterHandles": "The Twitter handles of the parties specified by the user",
          "_pdfUri": "The URI of the PDF file stored on IPFS",
          "_promiseName": "The name of the contract specified by the user"
        }
      }
    },
    "title": "Master Contract",
    "version": 1
  },
  "userdoc": {
    "errors": {
      "PromiseFactory__createPromiseContract__EMPTY_FIELD()": [
        {
          "notice": "Errors"
        }
      ]
    },
    "events": {
      "PromiseContractCreated(address,address,string,string,string[],string[],address[])": {
        "notice": "Events"
      }
    },
    "kind": "user",
    "methods": {
      "addTwitterVerifiedUser(address,string)": {
        "notice": "Add a verified Twitter account to the list of verified accounts"
      },
      "constructor": {
        "notice": "Initialize the contract"
      },
      "createPromiseContract(string,string,string[],string[],address[])": {
        "notice": "Create a new contract and add it to the list of child contracts"
      },
      "getPromiseContractAddresses(address)": {
        "notice": "Getters"
      },
      "setOperator(address)": {
        "notice": "Setters"
      }
    },
    "notice": "This is the master contract initializing & referencing all child contracts",
    "version": 1
  },
  "storageLayout": {
    "storage": [
      {
        "astId": 3109,
        "contract": "contracts/PromiseFactory.sol:PromiseFactory",
        "label": "s_operator",
        "offset": 0,
        "slot": "0",
        "type": "t_address"
      },
      {
        "astId": 3111,
        "contract": "contracts/PromiseFactory.sol:PromiseFactory",
        "label": "s_verifier",
        "offset": 0,
        "slot": "1",
        "type": "t_address"
      },
      {
        "astId": 3117,
        "contract": "contracts/PromiseFactory.sol:PromiseFactory",
        "label": "s_promiseContracts",
        "offset": 0,
        "slot": "2",
        "type": "t_mapping(t_address,t_array(t_contract(PromiseContract)3087)dyn_storage)"
      },
      {
        "astId": 3122,
        "contract": "contracts/PromiseFactory.sol:PromiseFactory",
        "label": "s_twitterVerifiedUsers",
        "offset": 0,
        "slot": "3",
        "type": "t_mapping(t_address,t_array(t_string_storage)dyn_storage)"
      }
    ],
    "types": {
      "t_address": {
        "encoding": "inplace",
        "label": "address",
        "numberOfBytes": "20"
      },
      "t_array(t_contract(PromiseContract)3087)dyn_storage": {
        "base": "t_contract(PromiseContract)3087",
        "encoding": "dynamic_array",
        "label": "contract PromiseContract[]",
        "numberOfBytes": "32"
      },
      "t_array(t_string_storage)dyn_storage": {
        "base": "t_string_storage",
        "encoding": "dynamic_array",
        "label": "string[]",
        "numberOfBytes": "32"
      },
      "t_contract(PromiseContract)3087": {
        "encoding": "inplace",
        "label": "contract PromiseContract",
        "numberOfBytes": "20"
      },
      "t_mapping(t_address,t_array(t_contract(PromiseContract)3087)dyn_storage)": {
        "encoding": "mapping",
        "key": "t_address",
        "label": "mapping(address => contract PromiseContract[])",
        "numberOfBytes": "32",
        "value": "t_array(t_contract(PromiseContract)3087)dyn_storage"
      },
      "t_mapping(t_address,t_array(t_string_storage)dyn_storage)": {
        "encoding": "mapping",
        "key": "t_address",
        "label": "mapping(address => string[])",
        "numberOfBytes": "32",
        "value": "t_array(t_string_storage)dyn_storage"
      },
      "t_string_storage": {
        "encoding": "bytes",
        "label": "string",
        "numberOfBytes": "32"
      }
    }
  }
}