{
  "address": "0xC98bC3b8886960473e7877C89915745b27fBf12f",
  "abi": [
    {
      "inputs": [
        {
          "internalType": "address",
          "name": "_verifier",
          "type": "address"
        }
      ],
      "stateMutability": "nonpayable",
      "type": "constructor"
    },
    {
      "inputs": [],
      "name": "PromiseFactory__NOT_OWNER",
      "type": "error"
    },
    {
      "inputs": [],
      "name": "PromiseFactory__NOT_VERIFIER",
      "type": "error"
    },
    {
      "inputs": [],
      "name": "PromiseFactory__addTwitterVerifiedUser__ALREADY_VERIFIED",
      "type": "error"
    },
    {
      "inputs": [],
      "name": "PromiseFactory__createPromiseContract__DUPLICATE_FIELD",
      "type": "error"
    },
    {
      "inputs": [],
      "name": "PromiseFactory__createPromiseContract__EMPTY_FIELD",
      "type": "error"
    },
    {
      "inputs": [],
      "name": "PromiseFactory__createPromiseContract__INCORRECT_FIELD_LENGTH",
      "type": "error"
    },
    {
      "anonymous": false,
      "inputs": [
        {
          "indexed": true,
          "internalType": "address",
          "name": "_owner",
          "type": "address"
        },
        {
          "indexed": true,
          "internalType": "address",
          "name": "_contractAddress",
          "type": "address"
        },
        {
          "indexed": false,
          "internalType": "string",
          "name": "_promiseName",
          "type": "string"
        },
        {
          "indexed": false,
          "internalType": "string",
          "name": "_ipfsCid",
          "type": "string"
        },
        {
          "indexed": false,
          "internalType": "string[]",
          "name": "_partyNames",
          "type": "string[]"
        },
        {
          "indexed": false,
          "internalType": "string[]",
          "name": "_partyTwitterHandles",
          "type": "string[]"
        },
        {
          "indexed": false,
          "internalType": "address[]",
          "name": "_partyAddresses",
          "type": "address[]"
        }
      ],
      "name": "PromiseContractCreated",
      "type": "event"
    },
    {
      "anonymous": false,
      "inputs": [
        {
          "indexed": true,
          "internalType": "address",
          "name": "_owner",
          "type": "address"
        },
        {
          "indexed": false,
          "internalType": "string",
          "name": "_twitterHandle",
          "type": "string"
        }
      ],
      "name": "TwitterAddVerifiedFailed",
      "type": "event"
    },
    {
      "anonymous": false,
      "inputs": [
        {
          "indexed": true,
          "internalType": "address",
          "name": "_owner",
          "type": "address"
        },
        {
          "indexed": false,
          "internalType": "string",
          "name": "_twitterHandle",
          "type": "string"
        }
      ],
      "name": "TwitterAddVerifiedSuccessful",
      "type": "event"
    },
    {
      "inputs": [
        {
          "internalType": "address",
          "name": "_userAddress",
          "type": "address"
        },
        {
          "internalType": "string",
          "name": "_twitterHandle",
          "type": "string"
        }
      ],
      "name": "addTwitterVerifiedUser",
      "outputs": [],
      "stateMutability": "nonpayable",
      "type": "function"
    },
    {
      "inputs": [
        {
          "internalType": "string",
          "name": "_promiseName",
          "type": "string"
        },
        {
          "internalType": "string",
          "name": "_ipfsCid",
          "type": "string"
        },
        {
          "internalType": "string[]",
          "name": "_partyNames",
          "type": "string[]"
        },
        {
          "internalType": "string[]",
          "name": "_partyTwitterHandles",
          "type": "string[]"
        },
        {
          "internalType": "address[]",
          "name": "_partyAddresses",
          "type": "address[]"
        }
      ],
      "name": "createPromiseContract",
      "outputs": [
        {
          "internalType": "address",
          "name": "promiseContractAddress",
          "type": "address"
        }
      ],
      "stateMutability": "nonpayable",
      "type": "function"
    },
    {
      "inputs": [],
      "name": "getOwner",
      "outputs": [
        {
          "internalType": "address",
          "name": "",
          "type": "address"
        }
      ],
      "stateMutability": "view",
      "type": "function"
    },
    {
      "inputs": [
        {
          "internalType": "address",
          "name": "_owner",
          "type": "address"
        }
      ],
      "name": "getPromiseContractAddresses",
      "outputs": [
        {
          "internalType": "contract PromiseContract[]",
          "name": "",
          "type": "address[]"
        }
      ],
      "stateMutability": "view",
      "type": "function"
    },
    {
      "inputs": [
        {
          "internalType": "address",
          "name": "_userAddress",
          "type": "address"
        }
      ],
      "name": "getPromiseContractCount",
      "outputs": [
        {
          "internalType": "uint256",
          "name": "",
          "type": "uint256"
        }
      ],
      "stateMutability": "view",
      "type": "function"
    },
    {
      "inputs": [
        {
          "internalType": "address",
          "name": "_userAddress",
          "type": "address"
        }
      ],
      "name": "getTwitterVerifiedHandle",
      "outputs": [
        {
          "internalType": "string[]",
          "name": "",
          "type": "string[]"
        }
      ],
      "stateMutability": "view",
      "type": "function"
    },
    {
      "inputs": [],
      "name": "getVerifier",
      "outputs": [
        {
          "internalType": "address",
          "name": "",
          "type": "address"
        }
      ],
      "stateMutability": "view",
      "type": "function"
    },
    {
      "inputs": [
        {
          "internalType": "address",
          "name": "_verifier",
          "type": "address"
        }
      ],
      "name": "setVerifier",
      "outputs": [],
      "stateMutability": "nonpayable",
      "type": "function"
    }
  ],
  "transactionHash": "0x52025e5bf6027932eed393c57fa9e81c4136937900368feb44307cb572ab37b4",
  "args": [
    "0xf58A128C2052BaBb194C244e90395Ba3FDaae74f"
  ],
  "numDeployments": 6,
  "solcInputHash": "1180bd2e329d8f4aacc3900cc62468d9",
  "bytecode": "0x60a06040523480156200001157600080fd5b50604051620045893803806200458983398181016040528101906200003791906200011c565b3373ffffffffffffffffffffffffffffffffffffffff1660808173ffffffffffffffffffffffffffffffffffffffff1681525050806000806101000a81548173ffffffffffffffffffffffffffffffffffffffff021916908373ffffffffffffffffffffffffffffffffffffffff160217905550506200014e565b600080fd5b600073ffffffffffffffffffffffffffffffffffffffff82169050919050565b6000620000e482620000b7565b9050919050565b620000f681620000d7565b81146200010257600080fd5b50565b6000815190506200011681620000eb565b92915050565b600060208284031215620001355762000134620000b2565b5b6000620001458482850162000105565b91505092915050565b608051614418620001716000396000818161026c015261071701526144186000f3fe60806040523480156200001157600080fd5b5060043610620000945760003560e01c8063893d20e81162000063578063893d20e81462000147578063d210fee31462000169578063d488f9a0146200019f578063e31db57314620001d55762000094565b806346657fe914620000995780634784336f14620000bb5780635437988d14620000f1578063866050621462000111575b600080fd5b620000a3620001f5565b604051620000b2919062000fb7565b60405180910390f35b620000d96004803603810190620000d3919062001019565b6200021e565b604051620000e8919062001066565b60405180910390f35b6200010f600480360381019062000109919062001019565b6200026a565b005b6200012f6004803603810190620001299190620013b7565b62000333565b6040516200013e919062000fb7565b60405180910390f35b6200015162000713565b60405162000160919062000fb7565b60405180910390f35b62000187600480360381019062000181919062001019565b6200073b565b60405162000196919062001602565b60405180910390f35b620001bd6004803603810190620001b7919062001019565b6200080a565b604051620001cc91906200177f565b60405180910390f35b620001f36004803603810190620001ed9190620017a3565b620009da565b005b60008060009054906101000a900473ffffffffffffffffffffffffffffffffffffffff16905090565b6000600160008373ffffffffffffffffffffffffffffffffffffffff1673ffffffffffffffffffffffffffffffffffffffff168152602001908152602001600020805490509050919050565b7f000000000000000000000000000000000000000000000000000000000000000073ffffffffffffffffffffffffffffffffffffffff163373ffffffffffffffffffffffffffffffffffffffff1614620002f0576040517fadf438e600000000000000000000000000000000000000000000000000000000815260040160405180910390fd5b806000806101000a81548173ffffffffffffffffffffffffffffffffffffffff021916908373ffffffffffffffffffffffffffffffffffffffff16021790555050565b600080865111801562000347575060008551115b801562000355575060008451115b801562000363575060008251115b6200039a576040517fb0bac3b800000000000000000000000000000000000000000000000000000000815260040160405180910390fd5b82518251148015620003ad575083518251145b620003e4576040517f21938d4e00000000000000000000000000000000000000000000000000000000815260040160405180910390fd5b60005b82518110156200057257600060018262000402919062001838565b90505b83518110156200055b5783818151811062000425576200042462001873565b5b602002602001015173ffffffffffffffffffffffffffffffffffffffff1684838151811062000459576200045862001873565b5b602002602001015173ffffffffffffffffffffffffffffffffffffffff1614806200050d575084818151811062000495576200049462001873565b5b6020026020010151604051602001620004af9190620018e4565b60405160208183030381529060405280519060200120858381518110620004db57620004da62001873565b5b6020026020010151604051602001620004f59190620018e4565b60405160208183030381529060405280519060200120145b1562000545576040517f301cd94e00000000000000000000000000000000000000000000000000000000815260040160405180910390fd5b80806200055290620018fd565b91505062000405565b5080806200056990620018fd565b915050620003e7565b50604686511115620005b0576040517f21938d4e00000000000000000000000000000000000000000000000000000000815260040160405180910390fd5b6000338787878787604051620005c69062000e77565b620005d79695949392919062001a59565b604051809103906000f080158015620005f4573d6000803e3d6000fd5b509050600160003373ffffffffffffffffffffffffffffffffffffffff1673ffffffffffffffffffffffffffffffffffffffff168152602001908152602001600020819080600181540180825580915050600190039060005260206000200160009091909190916101000a81548173ffffffffffffffffffffffffffffffffffffffff021916908373ffffffffffffffffffffffffffffffffffffffff1602179055508073ffffffffffffffffffffffffffffffffffffffff163373ffffffffffffffffffffffffffffffffffffffff167f7218ecb1d60a4ca32226db62922bd3917372e8801cddba0cc86fffd285ff74428989898989604051620006fe95949392919062001ae9565b60405180910390a38091505095945050505050565b60007f0000000000000000000000000000000000000000000000000000000000000000905090565b6060600160008373ffffffffffffffffffffffffffffffffffffffff1673ffffffffffffffffffffffffffffffffffffffff168152602001908152602001600020805480602002602001604051908101604052809291908181526020018280548015620007fe57602002820191906000526020600020905b8160009054906101000a900473ffffffffffffffffffffffffffffffffffffffff1673ffffffffffffffffffffffffffffffffffffffff1681526020019060010190808311620007b3575b50505050509050919050565b60606000600260008473ffffffffffffffffffffffffffffffffffffffff1673ffffffffffffffffffffffffffffffffffffffff1681526020019081526020016000208054905011156200097957600260008373ffffffffffffffffffffffffffffffffffffffff1673ffffffffffffffffffffffffffffffffffffffff168152602001908152602001600020805480602002602001604051908101604052809291908181526020016000905b828210156200096d578382906000526020600020018054620008d99062001b98565b80601f0160208091040260200160405190810160405280929190818152602001828054620009079062001b98565b8015620009585780601f106200092c5761010080835404028352916020019162000958565b820191906000526020600020905b8154815290600101906020018083116200093a57829003601f168201915b505050505081526020019060010190620008b7565b505050509050620009d5565b60008067ffffffffffffffff8111156200099857620009976200109e565b5b604051908082528060200260200182016040528015620009cd57816020015b6060815260200190600190039081620009b75790505b509050809150505b919050565b60008054906101000a900473ffffffffffffffffffffffffffffffffffffffff1673ffffffffffffffffffffffffffffffffffffffff163373ffffffffffffffffffffffffffffffffffffffff161462000a5f576040517e11415300000000000000000000000000000000000000000000000000000000815260040160405180910390fd5b6000600260008473ffffffffffffffffffffffffffffffffffffffff1673ffffffffffffffffffffffffffffffffffffffff168152602001908152602001600020805490500362000bc857600167ffffffffffffffff81111562000ac85762000ac76200109e565b5b60405190808252806020026020018201604052801562000afd57816020015b606081526020019060019003908162000ae75790505b50600260008473ffffffffffffffffffffffffffffffffffffffff1673ffffffffffffffffffffffffffffffffffffffff168152602001908152602001600020908051906020019062000b5292919062000e85565b5080600260008473ffffffffffffffffffffffffffffffffffffffff1673ffffffffffffffffffffffffffffffffffffffff16815260200190815260200160002060008154811062000ba95762000ba862001873565b5b90600052602060002001908162000bc1919062001d95565b5062000e73565b6000600260008473ffffffffffffffffffffffffffffffffffffffff1673ffffffffffffffffffffffffffffffffffffffff16815260200190815260200160002080549050111562000e72576000600260008473ffffffffffffffffffffffffffffffffffffffff1673ffffffffffffffffffffffffffffffffffffffff168152602001908152602001600020805480602002602001604051908101604052809291908181526020016000905b8282101562000d2b57838290600052602060002001805462000c979062001b98565b80601f016020809104026020016040519081016040528092919081815260200182805462000cc59062001b98565b801562000d165780601f1062000cea5761010080835404028352916020019162000d16565b820191906000526020600020905b81548152906001019060200180831162000cf857829003601f168201915b50505050508152602001906001019062000c75565b50505050905060005b815181101562000dfb578260405160200162000d519190620018e4565b6040516020818303038152906040528051906020012082828151811062000d7d5762000d7c62001873565b5b602002602001015160405160200162000d979190620018e4565b604051602081830303815290604052805190602001200362000de5576040517ff0ed3d3000000000000000000000000000000000000000000000000000000000815260040160405180910390fd5b808062000df290620018fd565b91505062000d34565b50600260008473ffffffffffffffffffffffffffffffffffffffff1673ffffffffffffffffffffffffffffffffffffffff1681526020019081526020016000208290806001815401808255809150506001900390600052602060002001600090919091909150908162000e6f919062001d95565b50505b5b5050565b6125668062001e7d83390190565b82805482825590600052602060002090810192821562000ed2579160200282015b8281111562000ed157825182908162000ec0919062001d95565b509160200191906001019062000ea6565b5b50905062000ee1919062000ee5565b5090565b5b8082111562000f09576000818162000eff919062000f0d565b5060010162000ee6565b5090565b50805462000f1b9062001b98565b6000825580601f1062000f2f575062000f50565b601f01602090049060005260206000209081019062000f4f919062000f53565b5b50565b5b8082111562000f6e57600081600090555060010162000f54565b5090565b600073ffffffffffffffffffffffffffffffffffffffff82169050919050565b600062000f9f8262000f72565b9050919050565b62000fb18162000f92565b82525050565b600060208201905062000fce600083018462000fa6565b92915050565b6000604051905090565b600080fd5b600080fd5b62000ff38162000f92565b811462000fff57600080fd5b50565b600081359050620010138162000fe8565b92915050565b60006020828403121562001032576200103162000fde565b5b6000620010428482850162001002565b91505092915050565b6000819050919050565b62001060816200104b565b82525050565b60006020820190506200107d600083018462001055565b92915050565b600080fd5b600080fd5b6000601f19601f8301169050919050565b7f4e487b7100000000000000000000000000000000000000000000000000000000600052604160045260246000fd5b620010d8826200108d565b810181811067ffffffffffffffff82111715620010fa57620010f96200109e565b5b80604052505050565b60006200110f62000fd4565b90506200111d8282620010cd565b919050565b600067ffffffffffffffff82111562001140576200113f6200109e565b5b6200114b826200108d565b9050602081019050919050565b82818337600083830152505050565b60006200117e620011788462001122565b62001103565b9050828152602081018484840111156200119d576200119c62001088565b5b620011aa84828562001158565b509392505050565b600082601f830112620011ca57620011c962001083565b5b8135620011dc84826020860162001167565b91505092915050565b600067ffffffffffffffff8211156200120357620012026200109e565b5b602082029050602081019050919050565b600080fd5b6000620012306200122a84620011e5565b62001103565b9050808382526020820190506020840283018581111562001256576200125562001214565b5b835b81811015620012a457803567ffffffffffffffff8111156200127f576200127e62001083565b5b8086016200128e8982620011b2565b8552602085019450505060208101905062001258565b5050509392505050565b600082601f830112620012c657620012c562001083565b5b8135620012d884826020860162001219565b91505092915050565b600067ffffffffffffffff821115620012ff57620012fe6200109e565b5b602082029050602081019050919050565b6000620013276200132184620012e1565b62001103565b905080838252602082019050602084028301858111156200134d576200134c62001214565b5b835b818110156200137a578062001365888262001002565b8452602084019350506020810190506200134f565b5050509392505050565b600082601f8301126200139c576200139b62001083565b5b8135620013ae84826020860162001310565b91505092915050565b600080600080600060a08688031215620013d657620013d562000fde565b5b600086013567ffffffffffffffff811115620013f757620013f662000fe3565b5b6200140588828901620011b2565b955050602086013567ffffffffffffffff81111562001429576200142862000fe3565b5b6200143788828901620011b2565b945050604086013567ffffffffffffffff8111156200145b576200145a62000fe3565b5b6200146988828901620012ae565b935050606086013567ffffffffffffffff8111156200148d576200148c62000fe3565b5b6200149b88828901620012ae565b925050608086013567ffffffffffffffff811115620014bf57620014be62000fe3565b5b620014cd8882890162001384565b9150509295509295909350565b600081519050919050565b600082825260208201905092915050565b6000819050602082019050919050565b6000819050919050565b6000620015316200152b620015258462000f72565b62001506565b62000f72565b9050919050565b6000620015458262001510565b9050919050565b6000620015598262001538565b9050919050565b6200156b816200154c565b82525050565b60006200157f838362001560565b60208301905092915050565b6000602082019050919050565b6000620015a582620014da565b620015b18185620014e5565b9350620015be83620014f6565b8060005b83811015620015f5578151620015d9888262001571565b9750620015e6836200158b565b925050600181019050620015c2565b5085935050505092915050565b600060208201905081810360008301526200161e818462001598565b905092915050565b600081519050919050565b600082825260208201905092915050565b6000819050602082019050919050565b600081519050919050565b600082825260208201905092915050565b60005b838110156200168e57808201518184015260208101905062001671565b60008484015250505050565b6000620016a78262001652565b620016b381856200165d565b9350620016c58185602086016200166e565b620016d0816200108d565b840191505092915050565b6000620016e983836200169a565b905092915050565b6000602082019050919050565b60006200170b8262001626565b62001717818562001631565b9350836020820285016200172b8562001642565b8060005b858110156200176d57848403895281516200174b8582620016db565b94506200175883620016f1565b925060208a019950506001810190506200172f565b50829750879550505050505092915050565b600060208201905081810360008301526200179b8184620016fe565b905092915050565b60008060408385031215620017bd57620017bc62000fde565b5b6000620017cd8582860162001002565b925050602083013567ffffffffffffffff811115620017f157620017f062000fe3565b5b620017ff85828601620011b2565b9150509250929050565b7f4e487b7100000000000000000000000000000000000000000000000000000000600052601160045260246000fd5b600062001845826200104b565b915062001852836200104b565b92508282019050808211156200186d576200186c62001809565b5b92915050565b7f4e487b7100000000000000000000000000000000000000000000000000000000600052603260045260246000fd5b600081905092915050565b6000620018ba8262001652565b620018c68185620018a2565b9350620018d88185602086016200166e565b80840191505092915050565b6000620018f28284620018ad565b915081905092915050565b60006200190a826200104b565b91507fffffffffffffffffffffffffffffffffffffffffffffffffffffffffffffffff82036200193f576200193e62001809565b5b600182019050919050565b600082825260208201905092915050565b6000620019688262001652565b6200197481856200194a565b9350620019868185602086016200166e565b62001991816200108d565b840191505092915050565b600081519050919050565b6000819050602082019050919050565b620019c28162000f92565b82525050565b6000620019d68383620019b7565b60208301905092915050565b6000602082019050919050565b6000620019fc826200199c565b62001a088185620014e5565b935062001a1583620019a7565b8060005b8381101562001a4c57815162001a308882620019c8565b975062001a3d83620019e2565b92505060018101905062001a19565b5085935050505092915050565b600060c08201905062001a70600083018962000fa6565b818103602083015262001a8481886200195b565b9050818103604083015262001a9a81876200195b565b9050818103606083015262001ab08186620016fe565b9050818103608083015262001ac68185620016fe565b905081810360a083015262001adc8184620019ef565b9050979650505050505050565b600060a082019050818103600083015262001b0581886200195b565b9050818103602083015262001b1b81876200195b565b9050818103604083015262001b318186620016fe565b9050818103606083015262001b478185620016fe565b9050818103608083015262001b5d8184620019ef565b90509695505050505050565b7f4e487b7100000000000000000000000000000000000000000000000000000000600052602260045260246000fd5b6000600282049050600182168062001bb157607f821691505b60208210810362001bc75762001bc662001b69565b5b50919050565b60008190508160005260206000209050919050565b60006020601f8301049050919050565b600082821b905092915050565b60006008830262001c317fffffffffffffffffffffffffffffffffffffffffffffffffffffffffffffffff8262001bf2565b62001c3d868362001bf2565b95508019841693508086168417925050509392505050565b600062001c7662001c7062001c6a846200104b565b62001506565b6200104b565b9050919050565b6000819050919050565b62001c928362001c55565b62001caa62001ca18262001c7d565b84845462001bff565b825550505050565b600090565b62001cc162001cb2565b62001cce81848462001c87565b505050565b5b8181101562001cf65762001cea60008262001cb7565b60018101905062001cd4565b5050565b601f82111562001d455762001d0f8162001bcd565b62001d1a8462001be2565b8101602085101562001d2a578190505b62001d4262001d398562001be2565b83018262001cd3565b50505b505050565b600082821c905092915050565b600062001d6a6000198460080262001d4a565b1980831691505092915050565b600062001d85838362001d57565b9150826002028217905092915050565b62001da08262001652565b67ffffffffffffffff81111562001dbc5762001dbb6200109e565b5b62001dc8825462001b98565b62001dd582828562001cfa565b600060209050601f83116001811462001e0d576000841562001df8578287015190505b62001e04858262001d77565b86555062001e74565b601f19841662001e1d8662001bcd565b60005b8281101562001e475784890151825560018201915060208501945060208101905062001e20565b8683101562001e67578489015162001e63601f89168262001d57565b8355505b6001600288020188555050505b50505050505056fe60a06040526000600460006101000a81548160ff0219169083151502179055503480156200002c57600080fd5b5060405162002566380380620025668339818101604052810190620000529190620006c0565b8573ffffffffffffffffffffffffffffffffffffffff1660808173ffffffffffffffffffffffffffffffffffffffff1681525050846001908162000097919062000a42565b508360029081620000a9919062000a42565b50805160008190555060005b81518110156200013f5762000129848281518110620000d957620000d862000b29565b5b6020026020010151848381518110620000f757620000f662000b29565b5b602002602001015184848151811062000115576200011462000b29565b5b60200260200101516200014c60201b60201c565b8080620001369062000b87565b915050620000b5565b5050505050505062000c61565b600060405180606001604052808581526020018481526020018373ffffffffffffffffffffffffffffffffffffffff16815250905080600560008473ffffffffffffffffffffffffffffffffffffffff1673ffffffffffffffffffffffffffffffffffffffff1681526020019081526020016000206000820151816000019081620001d8919062000a42565b506020820151816001019081620001f0919062000a42565b5060408201518160020160006101000a81548173ffffffffffffffffffffffffffffffffffffffff021916908373ffffffffffffffffffffffffffffffffffffffff1602179055509050506003829080600181540180825580915050600190039060005260206000200160009091909190916101000a81548173ffffffffffffffffffffffffffffffffffffffff021916908373ffffffffffffffffffffffffffffffffffffffff1602179055508173ffffffffffffffffffffffffffffffffffffffff167fd76352dcc1f8336c0abdec06ee73330eee3e75ba620ba2c87510a25a32439d4e8585604051620002e892919062000c26565b60405180910390a250505050565b6000604051905090565b600080fd5b600080fd5b600073ffffffffffffffffffffffffffffffffffffffff82169050919050565b600062000337826200030a565b9050919050565b62000349816200032a565b81146200035557600080fd5b50565b60008151905062000369816200033e565b92915050565b600080fd5b600080fd5b6000601f19601f8301169050919050565b7f4e487b7100000000000000000000000000000000000000000000000000000000600052604160045260246000fd5b620003c48262000379565b810181811067ffffffffffffffff82111715620003e657620003e56200038a565b5b80604052505050565b6000620003fb620002f6565b9050620004098282620003b9565b919050565b600067ffffffffffffffff8211156200042c576200042b6200038a565b5b620004378262000379565b9050602081019050919050565b60005b838110156200046457808201518184015260208101905062000447565b60008484015250505050565b60006200048762000481846200040e565b620003ef565b905082815260208101848484011115620004a657620004a562000374565b5b620004b384828562000444565b509392505050565b600082601f830112620004d357620004d26200036f565b5b8151620004e584826020860162000470565b91505092915050565b600067ffffffffffffffff8211156200050c576200050b6200038a565b5b602082029050602081019050919050565b600080fd5b6000620005396200053384620004ee565b620003ef565b905080838252602082019050602084028301858111156200055f576200055e6200051d565b5b835b81811015620005ad57805167ffffffffffffffff8111156200058857620005876200036f565b5b808601620005978982620004bb565b8552602085019450505060208101905062000561565b5050509392505050565b600082601f830112620005cf57620005ce6200036f565b5b8151620005e184826020860162000522565b91505092915050565b600067ffffffffffffffff8211156200060857620006076200038a565b5b602082029050602081019050919050565b6000620006306200062a84620005ea565b620003ef565b905080838252602082019050602084028301858111156200065657620006556200051d565b5b835b818110156200068357806200066e888262000358565b84526020840193505060208101905062000658565b5050509392505050565b600082601f830112620006a557620006a46200036f565b5b8151620006b784826020860162000619565b91505092915050565b60008060008060008060c08789031215620006e057620006df62000300565b5b6000620006f089828a0162000358565b965050602087015167ffffffffffffffff81111562000714576200071362000305565b5b6200072289828a01620004bb565b955050604087015167ffffffffffffffff81111562000746576200074562000305565b5b6200075489828a01620004bb565b945050606087015167ffffffffffffffff81111562000778576200077762000305565b5b6200078689828a01620005b7565b935050608087015167ffffffffffffffff811115620007aa57620007a962000305565b5b620007b889828a01620005b7565b92505060a087015167ffffffffffffffff811115620007dc57620007db62000305565b5b620007ea89828a016200068d565b9150509295509295509295565b600081519050919050565b7f4e487b7100000000000000000000000000000000000000000000000000000000600052602260045260246000fd5b600060028204905060018216806200084a57607f821691505b60208210810362000860576200085f62000802565b5b50919050565b60008190508160005260206000209050919050565b60006020601f8301049050919050565b600082821b905092915050565b600060088302620008ca7fffffffffffffffffffffffffffffffffffffffffffffffffffffffffffffffff826200088b565b620008d686836200088b565b95508019841693508086168417925050509392505050565b6000819050919050565b6000819050919050565b6000620009236200091d6200091784620008ee565b620008f8565b620008ee565b9050919050565b6000819050919050565b6200093f8362000902565b620009576200094e826200092a565b84845462000898565b825550505050565b600090565b6200096e6200095f565b6200097b81848462000934565b505050565b5b81811015620009a3576200099760008262000964565b60018101905062000981565b5050565b601f821115620009f257620009bc8162000866565b620009c7846200087b565b81016020851015620009d7578190505b620009ef620009e6856200087b565b83018262000980565b50505b505050565b600082821c905092915050565b600062000a1760001984600802620009f7565b1980831691505092915050565b600062000a32838362000a04565b9150826002028217905092915050565b62000a4d82620007f7565b67ffffffffffffffff81111562000a695762000a686200038a565b5b62000a75825462000831565b62000a82828285620009a7565b600060209050601f83116001811462000aba576000841562000aa5578287015190505b62000ab1858262000a24565b86555062000b21565b601f19841662000aca8662000866565b60005b8281101562000af45784890151825560018201915060208501945060208101905062000acd565b8683101562000b14578489015162000b10601f89168262000a04565b8355505b6001600288020188555050505b505050505050565b7f4e487b7100000000000000000000000000000000000000000000000000000000600052603260045260246000fd5b7f4e487b7100000000000000000000000000000000000000000000000000000000600052601160045260246000fd5b600062000b9482620008ee565b91507fffffffffffffffffffffffffffffffffffffffffffffffffffffffffffffffff820362000bc95762000bc862000b58565b5b600182019050919050565b600082825260208201905092915050565b600062000bf282620007f7565b62000bfe818562000bd4565b935062000c1081856020860162000444565b62000c1b8162000379565b840191505092915050565b6000604082019050818103600083015262000c42818562000be5565b9050818103602083015262000c58818462000be5565b90509392505050565b6080516118d462000c926000396000818161097b01528181610c7001528181610f2b015261120201526118d46000f3fe608060405234801561001057600080fd5b50600436106101165760003560e01c80637143059f116100a2578063a7d136a811610071578063a7d136a8146102d7578063ad605729146102f5578063d678132414610313578063dba6335f1461031d578063ee9706ac1461033b57610116565b80637143059f1461024d5780637b560fc21461027d578063893d20e81461028757806392be02d8146102a557610116565b80633686b778116100e95780633686b778146101a5578063384786d6146101d557806353d54866146101f357806354181ded1461021157806364fb931b1461022f57610116565b80630cc375281461011b57806317d7de7c1461013957806325f9eef3146101575780633683b58314610175575b600080fd5b61012361036b565b6040516101309190611341565b60405180910390f35b6101416103f9565b60405161014e9190611341565b60405180910390f35b61015f61048b565b60405161016c9190611341565b60405180910390f35b61018f600480360381019061018a91906113c6565b610519565b60405161019c919061140e565b60405180910390f35b6101bf60048036038101906101ba919061145f565b610539565b6040516101cc919061149b565b60405180910390f35b6101dd610578565b6040516101ea919061140e565b60405180910390f35b6101fb61058b565b60405161020891906114c5565b60405180910390f35b610219610591565b6040516102269190611341565b60405180910390f35b610237610623565b604051610244919061140e565b60405180910390f35b610267600480360381019061026291906113c6565b61063a565b6040516102749190611590565b60405180910390f35b6102856108d5565b005b61028f610c6c565b60405161029c919061149b565b60405180910390f35b6102bf60048036038101906102ba91906113c6565b610c94565b6040516102ce939291906115b2565b60405180910390f35b6102df610dee565b6040516102ec91906116a6565b60405180910390f35b6102fd610e7c565b60405161030a91906114c5565b60405180910390f35b61031b610e85565b005b610325611200565b604051610332919061149b565b60405180910390f35b610355600480360381019061035091906113c6565b611224565b604051610362919061140e565b60405180910390f35b60018054610378906116f7565b80601f01602080910402602001604051908101604052809291908181526020018280546103a4906116f7565b80156103f15780601f106103c6576101008083540402835291602001916103f1565b820191906000526020600020905b8154815290600101906020018083116103d457829003601f168201915b505050505081565b606060018054610408906116f7565b80601f0160208091040260200160405190810160405280929190818152602001828054610434906116f7565b80156104815780601f1061045657610100808354040283529160200191610481565b820191906000526020600020905b81548152906001019060200180831161046457829003601f168201915b5050505050905090565b60028054610498906116f7565b80601f01602080910402602001604051908101604052809291908181526020018280546104c4906116f7565b80156105115780601f106104e657610100808354040283529160200191610511565b820191906000526020600020905b8154815290600101906020018083116104f457829003601f168201915b505050505081565b60066020528060005260406000206000915054906101000a900460ff1681565b6003818154811061054957600080fd5b906000526020600020016000915054906101000a900473ffffffffffffffffffffffffffffffffffffffff1681565b600460009054906101000a900460ff1681565b60005481565b6060600280546105a0906116f7565b80601f01602080910402602001604051908101604052809291908181526020018280546105cc906116f7565b80156106195780601f106105ee57610100808354040283529160200191610619565b820191906000526020600020905b8154815290600101906020018083116105fc57829003601f168201915b5050505050905090565b6000600460009054906101000a900460ff16905090565b61064261127a565b600073ffffffffffffffffffffffffffffffffffffffff16600560008473ffffffffffffffffffffffffffffffffffffffff1673ffffffffffffffffffffffffffffffffffffffff16815260200190815260200160002060020160009054906101000a900473ffffffffffffffffffffffffffffffffffffffff1673ffffffffffffffffffffffffffffffffffffffff160361070a576040517ffccacf3300000000000000000000000000000000000000000000000000000000815260040160405180910390fd5b600560008373ffffffffffffffffffffffffffffffffffffffff1673ffffffffffffffffffffffffffffffffffffffff168152602001908152602001600020604051806060016040529081600082018054610764906116f7565b80601f0160208091040260200160405190810160405280929190818152602001828054610790906116f7565b80156107dd5780601f106107b2576101008083540402835291602001916107dd565b820191906000526020600020905b8154815290600101906020018083116107c057829003601f168201915b505050505081526020016001820180546107f6906116f7565b80601f0160208091040260200160405190810160405280929190818152602001828054610822906116f7565b801561086f5780601f106108445761010080835404028352916020019161086f565b820191906000526020600020905b81548152906001019060200180831161085257829003601f168201915b505050505081526020016002820160009054906101000a900473ffffffffffffffffffffffffffffffffffffffff1673ffffffffffffffffffffffffffffffffffffffff1673ffffffffffffffffffffffffffffffffffffffff16815250509050919050565b6000600380548060200260200160405190810160405280929190818152602001828054801561095957602002820191906000526020600020905b8160009054906101000a900473ffffffffffffffffffffffffffffffffffffffff1673ffffffffffffffffffffffffffffffffffffffff168152602001906001019080831161090f575b5050505050905060003373ffffffffffffffffffffffffffffffffffffffff167f000000000000000000000000000000000000000000000000000000000000000073ffffffffffffffffffffffffffffffffffffffff16036109be5760019050610a36565b60005b600054811015610a34573373ffffffffffffffffffffffffffffffffffffffff168382815181106109f5576109f4611728565b5b602002602001015173ffffffffffffffffffffffffffffffffffffffff1603610a215760019150610a34565b8080610a2c90611786565b9150506109c1565b505b80610a6d576040517ffccacf3300000000000000000000000000000000000000000000000000000000815260040160405180910390fd5b600460009054906101000a900460ff1615610ab4576040517f6bbe2df800000000000000000000000000000000000000000000000000000000815260040160405180910390fd5b60011515600660003373ffffffffffffffffffffffffffffffffffffffff1673ffffffffffffffffffffffffffffffffffffffff16815260200190815260200160002060009054906101000a900460ff16151503610b3e576040517f3b4b7dcf00000000000000000000000000000000000000000000000000000000815260040160405180910390fd5b6001600660003373ffffffffffffffffffffffffffffffffffffffff1673ffffffffffffffffffffffffffffffffffffffff16815260200190815260200160002060006101000a81548160ff0219169083151502179055503373ffffffffffffffffffffffffffffffffffffffff167f26c25af05520e978d353f976c99fa4c277ddc75aed4170ec47c9e24f06e62a1c600560003373ffffffffffffffffffffffffffffffffffffffff1673ffffffffffffffffffffffffffffffffffffffff168152602001908152602001600020600001600560003373ffffffffffffffffffffffffffffffffffffffff1673ffffffffffffffffffffffffffffffffffffffff168152602001908152602001600020600101604051610c60929190611867565b60405180910390a25050565b60007f0000000000000000000000000000000000000000000000000000000000000000905090565b6005602052806000526040600020600091509050806000018054610cb7906116f7565b80601f0160208091040260200160405190810160405280929190818152602001828054610ce3906116f7565b8015610d305780601f10610d0557610100808354040283529160200191610d30565b820191906000526020600020905b815481529060010190602001808311610d1357829003601f168201915b505050505090806001018054610d45906116f7565b80601f0160208091040260200160405190810160405280929190818152602001828054610d71906116f7565b8015610dbe5780601f10610d9357610100808354040283529160200191610dbe565b820191906000526020600020905b815481529060010190602001808311610da157829003601f168201915b5050505050908060020160009054906101000a900473ffffffffffffffffffffffffffffffffffffffff16905083565b60606003805480602002602001604051908101604052809291908181526020018280548015610e7257602002820191906000526020600020905b8160009054906101000a900473ffffffffffffffffffffffffffffffffffffffff1673ffffffffffffffffffffffffffffffffffffffff1681526020019060010190808311610e28575b5050505050905090565b60008054905090565b60006003805480602002602001604051908101604052809291908181526020018280548015610f0957602002820191906000526020600020905b8160009054906101000a900473ffffffffffffffffffffffffffffffffffffffff1673ffffffffffffffffffffffffffffffffffffffff1681526020019060010190808311610ebf575b5050505050905060003373ffffffffffffffffffffffffffffffffffffffff167f000000000000000000000000000000000000000000000000000000000000000073ffffffffffffffffffffffffffffffffffffffff1603610f6e5760019050610fe6565b60005b600054811015610fe4573373ffffffffffffffffffffffffffffffffffffffff16838281518110610fa557610fa4611728565b5b602002602001015173ffffffffffffffffffffffffffffffffffffffff1603610fd15760019150610fe4565b8080610fdc90611786565b915050610f71565b505b8061101d576040517ffccacf3300000000000000000000000000000000000000000000000000000000815260040160405180910390fd5b600460009054906101000a900460ff1615611064576040517f6bbe2df800000000000000000000000000000000000000000000000000000000815260040160405180910390fd5b600060038054806020026020016040519081016040528092919081815260200182805480156110e857602002820191906000526020600020905b8160009054906101000a900473ffffffffffffffffffffffffffffffffffffffff1673ffffffffffffffffffffffffffffffffffffffff168152602001906001019080831161109e575b5050505050905060005b6000548110156111b357600015156006600084848151811061111757611116611728565b5b602002602001015173ffffffffffffffffffffffffffffffffffffffff1673ffffffffffffffffffffffffffffffffffffffff16815260200190815260200160002060009054906101000a900460ff161515036111a0576040517fadba427200000000000000000000000000000000000000000000000000000000815260040160405180910390fd5b80806111ab90611786565b9150506110f2565b506001600460006101000a81548160ff0219169083151502179055507f77b99c173854235e0f45948e541b3d590e15d05c680efbedc9c18bcb845aa01c60405160405180910390a1505050565b7f000000000000000000000000000000000000000000000000000000000000000081565b6000600660008373ffffffffffffffffffffffffffffffffffffffff1673ffffffffffffffffffffffffffffffffffffffff16815260200190815260200160002060009054906101000a900460ff169050919050565b60405180606001604052806060815260200160608152602001600073ffffffffffffffffffffffffffffffffffffffff1681525090565b600081519050919050565b600082825260208201905092915050565b60005b838110156112eb5780820151818401526020810190506112d0565b60008484015250505050565b6000601f19601f8301169050919050565b6000611313826112b1565b61131d81856112bc565b935061132d8185602086016112cd565b611336816112f7565b840191505092915050565b6000602082019050818103600083015261135b8184611308565b905092915050565b600080fd5b600073ffffffffffffffffffffffffffffffffffffffff82169050919050565b600061139382611368565b9050919050565b6113a381611388565b81146113ae57600080fd5b50565b6000813590506113c08161139a565b92915050565b6000602082840312156113dc576113db611363565b5b60006113ea848285016113b1565b91505092915050565b60008115159050919050565b611408816113f3565b82525050565b600060208201905061142360008301846113ff565b92915050565b6000819050919050565b61143c81611429565b811461144757600080fd5b50565b60008135905061145981611433565b92915050565b60006020828403121561147557611474611363565b5b60006114838482850161144a565b91505092915050565b61149581611388565b82525050565b60006020820190506114b0600083018461148c565b92915050565b6114bf81611429565b82525050565b60006020820190506114da60008301846114b6565b92915050565b600082825260208201905092915050565b60006114fc826112b1565b61150681856114e0565b93506115168185602086016112cd565b61151f816112f7565b840191505092915050565b61153381611388565b82525050565b6000606083016000830151848203600086015261155682826114f1565b9150506020830151848203602086015261157082826114f1565b9150506040830151611585604086018261152a565b508091505092915050565b600060208201905081810360008301526115aa8184611539565b905092915050565b600060608201905081810360008301526115cc8186611308565b905081810360208301526115e08185611308565b90506115ef604083018461148c565b949350505050565b600081519050919050565b600082825260208201905092915050565b6000819050602082019050919050565b600061162f838361152a565b60208301905092915050565b6000602082019050919050565b6000611653826115f7565b61165d8185611602565b935061166883611613565b8060005b838110156116995781516116808882611623565b975061168b8361163b565b92505060018101905061166c565b5085935050505092915050565b600060208201905081810360008301526116c08184611648565b905092915050565b7f4e487b7100000000000000000000000000000000000000000000000000000000600052602260045260246000fd5b6000600282049050600182168061170f57607f821691505b602082108103611722576117216116c8565b5b50919050565b7f4e487b7100000000000000000000000000000000000000000000000000000000600052603260045260246000fd5b7f4e487b7100000000000000000000000000000000000000000000000000000000600052601160045260246000fd5b600061179182611429565b91507fffffffffffffffffffffffffffffffffffffffffffffffffffffffffffffffff82036117c3576117c2611757565b5b600182019050919050565b60008190508160005260206000209050919050565b600081546117f0816116f7565b6117fa81866112bc565b94506001821660008114611815576001811461182b5761185e565b60ff19831686528115156020028601935061185e565b611834856117ce565b60005b8381101561185657815481890152600182019150602081019050611837565b808801955050505b50505092915050565b6000604082019050818103600083015261188181856117e3565b9050818103602083015261189581846117e3565b9050939250505056fea26469706673582212208c5881562a079189434da1f2af8f3a9337c83b44d3154eef57b56c83ca222d7264736f6c63430008100033a2646970667358221220a0d5a1cef7913e4cd0fd09a4fa6c7441edeb36554d06fdcea6a9076c8554024b64736f6c63430008100033",
  "devdoc": {
    "author": "polarzero",
    "kind": "dev",
    "methods": {
      "addTwitterVerifiedUser(address,string)": {
        "details": "Only the verifier contract can call this function, after the account has been verified with the Chainlink Node + External Adapter",
        "params": {
          "_twitterHandle": "The Twitter handle of the verified account",
          "_userAddress": "The address of the user"
        }
      },
      "createPromiseContract(string,string,string[],string[],address[])": {
        "params": {
          "_ipfsCid": "The CID of the directory stored on IPFS",
          "_partyAddresses": "The addresses specified by the user that will be allowed to interact with the contract",
          "_partyNames": "The names of the parties specified by the user",
          "_partyTwitterHandles": "The Twitter handles of the parties specified by the user",
          "_promiseName": "The name of the contract specified by the user"
        }
      }
    },
    "title": "Master Contract",
    "version": 1
  },
  "userdoc": {
    "errors": {
      "PromiseFactory__createPromiseContract__EMPTY_FIELD()": [
        {
          "notice": "Errors"
        }
      ]
    },
    "events": {
      "PromiseContractCreated(address,address,string,string,string[],string[],address[])": {
        "notice": "Events"
      }
    },
    "kind": "user",
    "methods": {
      "addTwitterVerifiedUser(address,string)": {
        "notice": "Add a verified Twitter account to the list of verified accounts"
      },
      "constructor": {
        "notice": "Initialize the contract"
      },
      "createPromiseContract(string,string,string[],string[],address[])": {
        "notice": "Create a new contract and add it to the list of child contracts"
      },
      "getPromiseContractAddresses(address)": {
        "notice": "Getters"
      },
      "setVerifier(address)": {
        "notice": "Setters"
      }
    },
    "notice": "This is the master contract initializing & referencing all child contracts",
    "version": 1
  },
  "storageLayout": {
    "storage": [
      {
        "astId": 3109,
        "contract": "contracts/PromiseFactory.sol:PromiseFactory",
        "label": "s_verifier",
        "offset": 0,
        "slot": "0",
        "type": "t_address"
      },
      {
        "astId": 3115,
        "contract": "contracts/PromiseFactory.sol:PromiseFactory",
        "label": "s_promiseContracts",
        "offset": 0,
        "slot": "1",
        "type": "t_mapping(t_address,t_array(t_contract(PromiseContract)3087)dyn_storage)"
      },
      {
        "astId": 3120,
        "contract": "contracts/PromiseFactory.sol:PromiseFactory",
        "label": "s_twitterVerifiedUsers",
        "offset": 0,
        "slot": "2",
        "type": "t_mapping(t_address,t_array(t_string_storage)dyn_storage)"
      }
    ],
    "types": {
      "t_address": {
        "encoding": "inplace",
        "label": "address",
        "numberOfBytes": "20"
      },
      "t_array(t_contract(PromiseContract)3087)dyn_storage": {
        "base": "t_contract(PromiseContract)3087",
        "encoding": "dynamic_array",
        "label": "contract PromiseContract[]",
        "numberOfBytes": "32"
      },
      "t_array(t_string_storage)dyn_storage": {
        "base": "t_string_storage",
        "encoding": "dynamic_array",
        "label": "string[]",
        "numberOfBytes": "32"
      },
      "t_contract(PromiseContract)3087": {
        "encoding": "inplace",
        "label": "contract PromiseContract",
        "numberOfBytes": "20"
      },
      "t_mapping(t_address,t_array(t_contract(PromiseContract)3087)dyn_storage)": {
        "encoding": "mapping",
        "key": "t_address",
        "label": "mapping(address => contract PromiseContract[])",
        "numberOfBytes": "32",
        "value": "t_array(t_contract(PromiseContract)3087)dyn_storage"
      },
      "t_mapping(t_address,t_array(t_string_storage)dyn_storage)": {
        "encoding": "mapping",
        "key": "t_address",
        "label": "mapping(address => string[])",
        "numberOfBytes": "32",
        "value": "t_array(t_string_storage)dyn_storage"
      },
      "t_string_storage": {
        "encoding": "bytes",
        "label": "string",
        "numberOfBytes": "32"
      }
    }
  }
}