{
  "address": "0x32f69C266A4a7Ba54d4a63C5D306468Fa5da7969",
  "abi": [
    {
      "inputs": [
        {
          "internalType": "address",
          "name": "_linkTokenContract",
          "type": "address"
        },
        {
          "internalType": "address",
          "name": "_oracleContract",
          "type": "address"
        },
        {
          "internalType": "address",
          "name": "_promiseFactoryContract",
          "type": "address"
        }
      ],
      "stateMutability": "nonpayable",
      "type": "constructor"
    },
    {
      "anonymous": false,
      "inputs": [
        {
          "indexed": true,
          "internalType": "bytes32",
          "name": "id",
          "type": "bytes32"
        }
      ],
      "name": "ChainlinkCancelled",
      "type": "event"
    },
    {
      "anonymous": false,
      "inputs": [
        {
          "indexed": true,
          "internalType": "bytes32",
          "name": "id",
          "type": "bytes32"
        }
      ],
      "name": "ChainlinkFulfilled",
      "type": "event"
    },
    {
      "anonymous": false,
      "inputs": [
        {
          "indexed": true,
          "internalType": "bytes32",
          "name": "id",
          "type": "bytes32"
        }
      ],
      "name": "ChainlinkRequested",
      "type": "event"
    },
    {
      "anonymous": false,
      "inputs": [
        {
          "indexed": false,
          "internalType": "uint256",
          "name": "amount",
          "type": "uint256"
        }
      ],
      "name": "FundsWithdrawn",
      "type": "event"
    },
    {
      "anonymous": false,
      "inputs": [
        {
          "indexed": true,
          "internalType": "address",
          "name": "from",
          "type": "address"
        },
        {
          "indexed": true,
          "internalType": "address",
          "name": "to",
          "type": "address"
        }
      ],
      "name": "OwnershipTransferRequested",
      "type": "event"
    },
    {
      "anonymous": false,
      "inputs": [
        {
          "indexed": true,
          "internalType": "address",
          "name": "from",
          "type": "address"
        },
        {
          "indexed": true,
          "internalType": "address",
          "name": "to",
          "type": "address"
        }
      ],
      "name": "OwnershipTransferred",
      "type": "event"
    },
    {
      "anonymous": false,
      "inputs": [
        {
          "indexed": true,
          "internalType": "bytes32",
          "name": "requestId",
          "type": "bytes32"
        },
        {
          "indexed": false,
          "internalType": "string",
          "name": "username",
          "type": "string"
        }
      ],
      "name": "VerificationFailed",
      "type": "event"
    },
    {
      "anonymous": false,
      "inputs": [
        {
          "indexed": true,
          "internalType": "bytes32",
          "name": "requestId",
          "type": "bytes32"
        },
        {
          "indexed": false,
          "internalType": "string",
          "name": "username",
          "type": "string"
        }
      ],
      "name": "VerificationRequested",
      "type": "event"
    },
    {
      "anonymous": false,
      "inputs": [
        {
          "indexed": true,
          "internalType": "bytes32",
          "name": "requestId",
          "type": "bytes32"
        },
        {
          "indexed": false,
          "internalType": "string",
          "name": "username",
          "type": "string"
        },
        {
          "indexed": false,
          "internalType": "address",
          "name": "userAddress",
          "type": "address"
        },
        {
          "indexed": false,
          "internalType": "bool",
          "name": "verified",
          "type": "bool"
        }
      ],
      "name": "VerificationSuccessful",
      "type": "event"
    },
    {
      "inputs": [],
      "name": "acceptOwnership",
      "outputs": [],
      "stateMutability": "nonpayable",
      "type": "function"
    },
    {
      "inputs": [
        {
          "internalType": "bytes32",
          "name": "_requestId",
          "type": "bytes32"
        },
        {
          "internalType": "string",
          "name": "_username",
          "type": "string"
        },
        {
          "internalType": "bool",
          "name": "_verified",
          "type": "bool"
        },
        {
          "internalType": "address",
          "name": "_userAddress",
          "type": "address"
        }
      ],
      "name": "fulfillVerification",
      "outputs": [],
      "stateMutability": "nonpayable",
      "type": "function"
    },
    {
      "inputs": [],
      "name": "getLinkBalance",
      "outputs": [
        {
          "internalType": "uint256",
          "name": "",
          "type": "uint256"
        }
      ],
      "stateMutability": "view",
      "type": "function"
    },
    {
      "inputs": [],
      "name": "getOracleJobId",
      "outputs": [
        {
          "internalType": "bytes32",
          "name": "",
          "type": "bytes32"
        }
      ],
      "stateMutability": "view",
      "type": "function"
    },
    {
      "inputs": [],
      "name": "getOraclePayment",
      "outputs": [
        {
          "internalType": "uint256",
          "name": "",
          "type": "uint256"
        }
      ],
      "stateMutability": "pure",
      "type": "function"
    },
    {
      "inputs": [],
      "name": "getPromiseFactoryContract",
      "outputs": [
        {
          "internalType": "address",
          "name": "",
          "type": "address"
        }
      ],
      "stateMutability": "view",
      "type": "function"
    },
    {
      "inputs": [],
      "name": "owner",
      "outputs": [
        {
          "internalType": "address",
          "name": "",
          "type": "address"
        }
      ],
      "stateMutability": "view",
      "type": "function"
    },
    {
      "inputs": [
        {
          "internalType": "string",
          "name": "_username",
          "type": "string"
        }
      ],
      "name": "requestVerification",
      "outputs": [
        {
          "internalType": "bytes32",
          "name": "requestId",
          "type": "bytes32"
        }
      ],
      "stateMutability": "nonpayable",
      "type": "function"
    },
    {
      "inputs": [
        {
          "internalType": "bytes32",
          "name": "_oracleJobId",
          "type": "bytes32"
        }
      ],
      "name": "setOracleJobId",
      "outputs": [],
      "stateMutability": "nonpayable",
      "type": "function"
    },
    {
      "inputs": [
        {
          "internalType": "address",
          "name": "_promiseFactoryContract",
          "type": "address"
        }
      ],
      "name": "setPromiseFactoryContract",
      "outputs": [],
      "stateMutability": "nonpayable",
      "type": "function"
    },
    {
      "inputs": [
        {
          "internalType": "address",
          "name": "to",
          "type": "address"
        }
      ],
      "name": "transferOwnership",
      "outputs": [],
      "stateMutability": "nonpayable",
      "type": "function"
    },
    {
      "inputs": [],
      "name": "withdrawLink",
      "outputs": [],
      "stateMutability": "nonpayable",
      "type": "function"
    }
  ],
  "transactionHash": "0x521910dd96d4fd371e2951e7d6e43d5037985daf165405c5d55f93b9f6bbb8e4",
  "args": [
    "0x326C977E6efc84E512bB9C30f76E30c160eD06FB",
    "0x2BB8Dd9C16edeF313eb9ccBd5F42A8b577cB1E3c",
    "0x9a26cA9509C6E2bBE7CcB59A1fbbfcf9DFf37f60"
  ],
  "numDeployments": 9,
  "solcInputHash": "afb9a3a878253fa36495af54f151a9d1",
  "bytecode": "0x608060405260016004557f34353963613830383036666434656263393266303536626630313561323664636008556000600c60146101000a81548160ff0219169083151502179055503480156200005557600080fd5b50604051620031853803806200318583398181016040528101906200007b919062000504565b338060008073ffffffffffffffffffffffffffffffffffffffff168273ffffffffffffffffffffffffffffffffffffffff1603620000f0576040517f08c379a0000000000000000000000000000000000000000000000000000000008152600401620000e790620005c1565b60405180910390fd5b81600660006101000a81548173ffffffffffffffffffffffffffffffffffffffff021916908373ffffffffffffffffffffffffffffffffffffffff160217905550600073ffffffffffffffffffffffffffffffffffffffff168173ffffffffffffffffffffffffffffffffffffffff161462000178576200017781620001b760201b60201c565b5b5050506200018c83620002e860201b60201c565b6200019d826200032c60201b60201c565b620001ae816200037060201b60201c565b505050620006c7565b3373ffffffffffffffffffffffffffffffffffffffff168173ffffffffffffffffffffffffffffffffffffffff160362000228576040517f08c379a00000000000000000000000000000000000000000000000000000000081526004016200021f9062000633565b60405180910390fd5b80600760006101000a81548173ffffffffffffffffffffffffffffffffffffffff021916908373ffffffffffffffffffffffffffffffffffffffff1602179055508073ffffffffffffffffffffffffffffffffffffffff16600660009054906101000a900473ffffffffffffffffffffffffffffffffffffffff1673ffffffffffffffffffffffffffffffffffffffff167fed8889f560326eb138920d842192f0eb3dd22b4f139c87a2c57538e05bae127860405160405180910390a350565b80600260006101000a81548173ffffffffffffffffffffffffffffffffffffffff021916908373ffffffffffffffffffffffffffffffffffffffff16021790555050565b80600360006101000a81548173ffffffffffffffffffffffffffffffffffffffff021916908373ffffffffffffffffffffffffffffffffffffffff16021790555050565b620003806200040560201b60201c565b80600960006101000a81548173ffffffffffffffffffffffffffffffffffffffff021916908373ffffffffffffffffffffffffffffffffffffffff16021790555080600a60006101000a81548173ffffffffffffffffffffffffffffffffffffffff021916908373ffffffffffffffffffffffffffffffffffffffff16021790555050565b600660009054906101000a900473ffffffffffffffffffffffffffffffffffffffff1673ffffffffffffffffffffffffffffffffffffffff163373ffffffffffffffffffffffffffffffffffffffff161462000498576040517f08c379a00000000000000000000000000000000000000000000000000000000081526004016200048f90620006a5565b60405180910390fd5b565b600080fd5b600073ffffffffffffffffffffffffffffffffffffffff82169050919050565b6000620004cc826200049f565b9050919050565b620004de81620004bf565b8114620004ea57600080fd5b50565b600081519050620004fe81620004d3565b92915050565b60008060006060848603121562000520576200051f6200049a565b5b60006200053086828701620004ed565b93505060206200054386828701620004ed565b92505060406200055686828701620004ed565b9150509250925092565b600082825260208201905092915050565b7f43616e6e6f7420736574206f776e657220746f207a65726f0000000000000000600082015250565b6000620005a960188362000560565b9150620005b68262000571565b602082019050919050565b60006020820190508181036000830152620005dc816200059a565b9050919050565b7f43616e6e6f74207472616e7366657220746f2073656c66000000000000000000600082015250565b60006200061b60178362000560565b91506200062882620005e3565b602082019050919050565b600060208201905081810360008301526200064e816200060c565b9050919050565b7f4f6e6c792063616c6c61626c65206279206f776e657200000000000000000000600082015250565b60006200068d60168362000560565b91506200069a8262000655565b602082019050919050565b60006020820190508181036000830152620006c0816200067e565b9050919050565b612aae80620006d76000396000f3fe608060405234801561001057600080fd5b50600436106100b45760003560e01c806379ba50971161007157806379ba50971461017b5780638da5cb5b146101855780638dc654a2146101a3578063c78613da146101ad578063df9776cf146101cb578063f2fde38b146101e7576100b4565b80632bde7979146100b9578063435a7b90146100d557806350c5f975146100f15780636986f2e91461010f5780636cbff42a1461012d57806372c0c0a81461015d575b600080fd5b6100d360048036038101906100ce9190611b4d565b610203565b005b6100ef60048036038101906100ea9190611bd0565b610489565b005b6100f9610516565b6040516101069190611c16565b60405180910390f35b6101176105a3565b6040516101249190611c16565b60405180910390f35b61014760048036038101906101429190611c31565b6105cb565b6040516101549190611c89565b60405180910390f35b6101656106f0565b6040516101729190611cb3565b60405180910390f35b61018361071a565b005b61018d6108b1565b60405161019a9190611cb3565b60405180910390f35b6101ab6108db565b005b6101b5610b46565b6040516101c29190611c89565b60405180910390f35b6101e560048036038101906101e09190611cce565b610b50565b005b61020160048036038101906101fc9190611bd0565b610b62565b005b836005600082815260200190815260200160002060009054906101000a900473ffffffffffffffffffffffffffffffffffffffff1673ffffffffffffffffffffffffffffffffffffffff163373ffffffffffffffffffffffffffffffffffffffff16146102a5576040517f08c379a000000000000000000000000000000000000000000000000000000000815260040161029c90611d7e565b60405180910390fd5b6005600082815260200190815260200160002060006101000a81549073ffffffffffffffffffffffffffffffffffffffff0219169055807f7cc135e0cebb02c3480ae5d74d377283180a2601f8f644edf7987b009316c63a60405160405180910390a283600b90816103179190611fb5565b5081600c60006101000a81548173ffffffffffffffffffffffffffffffffffffffff021916908373ffffffffffffffffffffffffffffffffffffffff16021790555082600c60146101000a81548160ff021916908315150217905550821561044957600a60009054906101000a900473ffffffffffffffffffffffffffffffffffffffff1673ffffffffffffffffffffffffffffffffffffffff1663e31db57383866040518363ffffffff1660e01b81526004016103d69291906120ea565b600060405180830381600087803b1580156103f057600080fd5b505af1158015610404573d6000803e3d6000fd5b50505050847f11e51421fae5ce18b197a586401e292b3e0a8b6108ae67ade651f8bfbb73603085848660405161043c93929190612129565b60405180910390a2610482565b847f1b274bac0e8bb49d3ad90709790a3bf2aa1b86313b4c1a7ae5af9cb7832f7204856040516104799190612167565b60405180910390a25b5050505050565b610491610b76565b80600960006101000a81548173ffffffffffffffffffffffffffffffffffffffff021916908373ffffffffffffffffffffffffffffffffffffffff16021790555080600a60006101000a81548173ffffffffffffffffffffffffffffffffffffffff021916908373ffffffffffffffffffffffffffffffffffffffff16021790555050565b600080610521610c08565b90508073ffffffffffffffffffffffffffffffffffffffff166370a08231306040518263ffffffff1660e01b815260040161055c9190611cb3565b602060405180830381865afa158015610579573d6000803e3d6000fd5b505050506040513d601f19601f8201168201806040525081019061059d91906121b5565b91505090565b6000600a670de0b6b3a764000060016105bc9190612211565b6105c6919061229a565b905090565b6000806105e260085430632bde797960e01b610c32565b905060006105ef33610c63565b905061063b6040518060400160405280600881526020017f757365726e616d650000000000000000000000000000000000000000000000008152508584610f6e9092919063ffffffff16565b6106856040518060400160405280600781526020017f61646472657373000000000000000000000000000000000000000000000000008152508284610f6e9092919063ffffffff16565b6106af82600a670de0b6b3a764000060016106a09190612211565b6106aa919061229a565b610fa1565b9250827fc34ceda1e3b95f3c685a13629829c6cd83b0804b62f6362feaef6c1e61e740ca856040516106e19190612167565b60405180910390a25050919050565b6000600960009054906101000a900473ffffffffffffffffffffffffffffffffffffffff16905090565b600760009054906101000a900473ffffffffffffffffffffffffffffffffffffffff1673ffffffffffffffffffffffffffffffffffffffff163373ffffffffffffffffffffffffffffffffffffffff16146107aa576040517f08c379a00000000000000000000000000000000000000000000000000000000081526004016107a190612317565b60405180910390fd5b6000600660009054906101000a900473ffffffffffffffffffffffffffffffffffffffff16905033600660006101000a81548173ffffffffffffffffffffffffffffffffffffffff021916908373ffffffffffffffffffffffffffffffffffffffff1602179055506000600760006101000a81548173ffffffffffffffffffffffffffffffffffffffff021916908373ffffffffffffffffffffffffffffffffffffffff1602179055503373ffffffffffffffffffffffffffffffffffffffff168173ffffffffffffffffffffffffffffffffffffffff167f8be0079c531659141344cd1fd0a4f28419497f9722a3daafe3b4186f6b6457e060405160405180910390a350565b6000600660009054906101000a900473ffffffffffffffffffffffffffffffffffffffff16905090565b6108e3610b76565b60006108ed610c08565b905060008173ffffffffffffffffffffffffffffffffffffffff166370a08231306040518263ffffffff1660e01b815260040161092a9190611cb3565b602060405180830381865afa158015610947573d6000803e3d6000fd5b505050506040513d601f19601f8201168201806040525081019061096b91906121b5565b905060003073ffffffffffffffffffffffffffffffffffffffff1663a9059cbb60e01b338573ffffffffffffffffffffffffffffffffffffffff166370a08231306040518263ffffffff1660e01b81526004016109c89190611cb3565b602060405180830381865afa1580156109e5573d6000803e3d6000fd5b505050506040513d601f19601f82011682018060405250810190610a0991906121b5565b604051602401610a1a929190612337565b604051602081830303815290604052907bffffffffffffffffffffffffffffffffffffffffffffffffffffffff19166020820180517bffffffffffffffffffffffffffffffffffffffffffffffffffffffff8381831617835250505050604051610a8491906123a7565b6000604051808303816000865af19150503d8060008114610ac1576040519150601f19603f3d011682016040523d82523d6000602084013e610ac6565b606091505b5050905080610b0a576040517f08c379a0000000000000000000000000000000000000000000000000000000008152600401610b019061240a565b60405180910390fd5b7f4a37b25aab49761ecf63117fe82b98d750917451133cf797507bc9fb5b96044a82604051610b399190611c16565b60405180910390a1505050565b6000600854905090565b610b58610b76565b8060088190555050565b610b6a610b76565b610b7381610fd8565b50565b600660009054906101000a900473ffffffffffffffffffffffffffffffffffffffff1673ffffffffffffffffffffffffffffffffffffffff163373ffffffffffffffffffffffffffffffffffffffff1614610c06576040517f08c379a0000000000000000000000000000000000000000000000000000000008152600401610bfd90612476565b60405180910390fd5b565b6000600260009054906101000a900473ffffffffffffffffffffffffffffffffffffffff16905090565b610c3a6118a0565b610c426118a0565b610c5985858584611106909392919063ffffffff16565b9150509392505050565b606060008273ffffffffffffffffffffffffffffffffffffffff1660001b905060006040518060400160405280601081526020017f303132333435363738396162636465660000000000000000000000000000000081525090506000602a67ffffffffffffffff811115610cda57610cd961198c565b5b6040519080825280601f01601f191660200182016040528015610d0c5781602001600182028036833780820191505090505b5090507f300000000000000000000000000000000000000000000000000000000000000081600081518110610d4457610d43612496565b5b60200101907effffffffffffffffffffffffffffffffffffffffffffffffffffffffffffff1916908160001a9053507f780000000000000000000000000000000000000000000000000000000000000081600181518110610da857610da7612496565b5b60200101907effffffffffffffffffffffffffffffffffffffffffffffffffffffffffffff1916908160001a90535060005b6014811015610f625782600485600c84610df491906124c5565b60208110610e0557610e04612496565b5b1a60f81b7effffffffffffffffffffffffffffffffffffffffffffffffffffffffffffff1916901c60f81c60ff1681518110610e4457610e43612496565b5b602001015160f81c60f81b82600283610e5d9190612211565b6002610e6991906124c5565b81518110610e7a57610e79612496565b5b60200101907effffffffffffffffffffffffffffffffffffffffffffffffffffffffffffff1916908160001a90535082600f60f81b85600c84610ebd91906124c5565b60208110610ece57610ecd612496565b5b1a60f81b1660f81c60ff1681518110610eea57610ee9612496565b5b602001015160f81c60f81b82600283610f039190612211565b6003610f0f91906124c5565b81518110610f2057610f1f612496565b5b60200101907effffffffffffffffffffffffffffffffffffffffffffffffffffffffffffff1916908160001a9053508080610f5a906124f9565b915050610dda565b50809350505050919050565b610f858284608001516111b690919063ffffffff16565b610f9c8184608001516111b690919063ffffffff16565b505050565b6000610fd0600360009054906101000a900473ffffffffffffffffffffffffffffffffffffffff1684846111db565b905092915050565b3373ffffffffffffffffffffffffffffffffffffffff168173ffffffffffffffffffffffffffffffffffffffff1603611046576040517f08c379a000000000000000000000000000000000000000000000000000000000815260040161103d9061258d565b60405180910390fd5b80600760006101000a81548173ffffffffffffffffffffffffffffffffffffffff021916908373ffffffffffffffffffffffffffffffffffffffff1602179055508073ffffffffffffffffffffffffffffffffffffffff16600660009054906101000a900473ffffffffffffffffffffffffffffffffffffffff1673ffffffffffffffffffffffffffffffffffffffff167fed8889f560326eb138920d842192f0eb3dd22b4f139c87a2c57538e05bae127860405160405180910390a350565b61110e6118a0565b61111e85608001516101006112a5565b508385600001818152505082856020019073ffffffffffffffffffffffffffffffffffffffff16908173ffffffffffffffffffffffffffffffffffffffff16815250508185604001907bffffffffffffffffffffffffffffffffffffffffffffffffffffffff191690817bffffffffffffffffffffffffffffffffffffffffffffffffffffffff191681525050849050949350505050565b6111c3826003835161130f565b6111d6818361149490919063ffffffff16565b505050565b60008060045490506001816111f091906124c5565b6004819055506000633c6d41b960e01b600080876000015188604001518660028b608001516000015160405160240161122f9796959493929190612632565b604051602081830303815290604052907bffffffffffffffffffffffffffffffffffffffffffffffffffffffff19166020820180517bffffffffffffffffffffffffffffffffffffffffffffffffffffffff8381831617835250505050905061129a868386846114b6565b925050509392505050565b6112ad61190d565b60006020836112bc91906126a8565b146112e8576020826112ce91906126a8565b60206112da91906126d9565b826112e591906124c5565b91505b81836020018181525050604051808452600081528281016020016040525082905092915050565b60178167ffffffffffffffff1611611346576113408160058460ff16901b60ff16178461164b90919063ffffffff16565b5061148f565b60ff8167ffffffffffffffff161161139c57611375601860058460ff16901b178461164b90919063ffffffff16565b506113968167ffffffffffffffff1660018561166b9092919063ffffffff16565b5061148e565b61ffff8167ffffffffffffffff16116113f3576113cc601960058460ff16901b178461164b90919063ffffffff16565b506113ed8167ffffffffffffffff1660028561166b9092919063ffffffff16565b5061148d565b63ffffffff8167ffffffffffffffff161161144c57611425601a60058460ff16901b178461164b90919063ffffffff16565b506114468167ffffffffffffffff1660048561166b9092919063ffffffff16565b5061148c565b611469601b60058460ff16901b178461164b90919063ffffffff16565b5061148a8167ffffffffffffffff1660088561166b9092919063ffffffff16565b505b5b5b5b505050565b61149c61190d565b6114ae8384600001515184855161168d565b905092915050565b600030846040516020016114cb9291906127bc565b604051602081830303815290604052805190602001209050846005600083815260200190815260200160002060006101000a81548173ffffffffffffffffffffffffffffffffffffffff021916908373ffffffffffffffffffffffffffffffffffffffff160217905550807fb5e6e01e79f91267dc17b4e6314d5d4d03593d2ceee0fbb452b750bd70ea5af960405160405180910390a2600260009054906101000a900473ffffffffffffffffffffffffffffffffffffffff1673ffffffffffffffffffffffffffffffffffffffff16634000aea08685856040518463ffffffff1660e01b81526004016115c1939291906127e8565b6020604051808303816000875af11580156115e0573d6000803e3d6000fd5b505050506040513d601f19601f82011682018060405250810190611604919061283b565b611643576040517f08c379a000000000000000000000000000000000000000000000000000000000815260040161163a906128da565b60405180910390fd5b949350505050565b61165361190d565b611663838460000151518461177c565b905092915050565b61167361190d565b6116848485600001515185856117d2565b90509392505050565b61169561190d565b82518211156116a357600080fd5b846020015182856116b491906124c5565b11156116e9576116e88560026116d9886020015188876116d491906124c5565b611860565b6116e39190612211565b61187c565b5b6000808651805187602083010193508088870111156117085787860182525b60208701925050505b6020841061174f578051825260208261172a91906124c5565b915060208161173991906124c5565b905060208461174891906126d9565b9350611711565b60006001856020036101000a03905080198251168184511681811785525050508692505050949350505050565b61178461190d565b836020015183106117aa576117a984600286602001516117a49190612211565b61187c565b5b835180516020858301018481538186036117c5576001820183525b5050508390509392505050565b6117da61190d565b846020015184836117eb91906124c5565b111561181357611812856002868561180391906124c5565b61180d9190612211565b61187c565b5b60006001836101006118259190612a2d565b61182f91906126d9565b905085518386820101858319825116178152815185880111156118525784870182525b505085915050949350505050565b60008183111561187257829050611876565b8190505b92915050565b60008260000151905061188f83836112a5565b5061189a8382611494565b50505050565b6040518060a0016040528060008019168152602001600073ffffffffffffffffffffffffffffffffffffffff16815260200160007bffffffffffffffffffffffffffffffffffffffffffffffffffffffff191681526020016000815260200161190761190d565b81525090565b604051806040016040528060608152602001600081525090565b6000604051905090565b600080fd5b600080fd5b6000819050919050565b61194e8161193b565b811461195957600080fd5b50565b60008135905061196b81611945565b92915050565b600080fd5b600080fd5b6000601f19601f8301169050919050565b7f4e487b7100000000000000000000000000000000000000000000000000000000600052604160045260246000fd5b6119c48261197b565b810181811067ffffffffffffffff821117156119e3576119e261198c565b5b80604052505050565b60006119f6611927565b9050611a0282826119bb565b919050565b600067ffffffffffffffff821115611a2257611a2161198c565b5b611a2b8261197b565b9050602081019050919050565b82818337600083830152505050565b6000611a5a611a5584611a07565b6119ec565b905082815260208101848484011115611a7657611a75611976565b5b611a81848285611a38565b509392505050565b600082601f830112611a9e57611a9d611971565b5b8135611aae848260208601611a47565b91505092915050565b60008115159050919050565b611acc81611ab7565b8114611ad757600080fd5b50565b600081359050611ae981611ac3565b92915050565b600073ffffffffffffffffffffffffffffffffffffffff82169050919050565b6000611b1a82611aef565b9050919050565b611b2a81611b0f565b8114611b3557600080fd5b50565b600081359050611b4781611b21565b92915050565b60008060008060808587031215611b6757611b66611931565b5b6000611b758782880161195c565b945050602085013567ffffffffffffffff811115611b9657611b95611936565b5b611ba287828801611a89565b9350506040611bb387828801611ada565b9250506060611bc487828801611b38565b91505092959194509250565b600060208284031215611be657611be5611931565b5b6000611bf484828501611b38565b91505092915050565b6000819050919050565b611c1081611bfd565b82525050565b6000602082019050611c2b6000830184611c07565b92915050565b600060208284031215611c4757611c46611931565b5b600082013567ffffffffffffffff811115611c6557611c64611936565b5b611c7184828501611a89565b91505092915050565b611c838161193b565b82525050565b6000602082019050611c9e6000830184611c7a565b92915050565b611cad81611b0f565b82525050565b6000602082019050611cc86000830184611ca4565b92915050565b600060208284031215611ce457611ce3611931565b5b6000611cf28482850161195c565b91505092915050565b600082825260208201905092915050565b7f536f75726365206d75737420626520746865206f7261636c65206f662074686560008201527f2072657175657374000000000000000000000000000000000000000000000000602082015250565b6000611d68602883611cfb565b9150611d7382611d0c565b604082019050919050565b60006020820190508181036000830152611d9781611d5b565b9050919050565b600081519050919050565b7f4e487b7100000000000000000000000000000000000000000000000000000000600052602260045260246000fd5b60006002820490506001821680611df057607f821691505b602082108103611e0357611e02611da9565b5b50919050565b60008190508160005260206000209050919050565b60006020601f8301049050919050565b600082821b905092915050565b600060088302611e6b7fffffffffffffffffffffffffffffffffffffffffffffffffffffffffffffffff82611e2e565b611e758683611e2e565b95508019841693508086168417925050509392505050565b6000819050919050565b6000611eb2611ead611ea884611bfd565b611e8d565b611bfd565b9050919050565b6000819050919050565b611ecc83611e97565b611ee0611ed882611eb9565b848454611e3b565b825550505050565b600090565b611ef5611ee8565b611f00818484611ec3565b505050565b5b81811015611f2457611f19600082611eed565b600181019050611f06565b5050565b601f821115611f6957611f3a81611e09565b611f4384611e1e565b81016020851015611f52578190505b611f66611f5e85611e1e565b830182611f05565b50505b505050565b600082821c905092915050565b6000611f8c60001984600802611f6e565b1980831691505092915050565b6000611fa58383611f7b565b9150826002028217905092915050565b611fbe82611d9e565b67ffffffffffffffff811115611fd757611fd661198c565b5b611fe18254611dd8565b611fec828285611f28565b600060209050601f83116001811461201f576000841561200d578287015190505b6120178582611f99565b86555061207f565b601f19841661202d86611e09565b60005b8281101561205557848901518255600182019150602085019450602081019050612030565b86831015612072578489015161206e601f891682611f7b565b8355505b6001600288020188555050505b505050505050565b60005b838110156120a557808201518184015260208101905061208a565b60008484015250505050565b60006120bc82611d9e565b6120c68185611cfb565b93506120d6818560208601612087565b6120df8161197b565b840191505092915050565b60006040820190506120ff6000830185611ca4565b818103602083015261211181846120b1565b90509392505050565b61212381611ab7565b82525050565b6000606082019050818103600083015261214381866120b1565b90506121526020830185611ca4565b61215f604083018461211a565b949350505050565b6000602082019050818103600083015261218181846120b1565b905092915050565b61219281611bfd565b811461219d57600080fd5b50565b6000815190506121af81612189565b92915050565b6000602082840312156121cb576121ca611931565b5b60006121d9848285016121a0565b91505092915050565b7f4e487b7100000000000000000000000000000000000000000000000000000000600052601160045260246000fd5b600061221c82611bfd565b915061222783611bfd565b9250817fffffffffffffffffffffffffffffffffffffffffffffffffffffffffffffffff04831182151516156122605761225f6121e2565b5b828202905092915050565b7f4e487b7100000000000000000000000000000000000000000000000000000000600052601260045260246000fd5b60006122a582611bfd565b91506122b083611bfd565b9250826122c0576122bf61226b565b5b828204905092915050565b7f4d7573742062652070726f706f736564206f776e657200000000000000000000600082015250565b6000612301601683611cfb565b915061230c826122cb565b602082019050919050565b60006020820190508181036000830152612330816122f4565b9050919050565b600060408201905061234c6000830185611ca4565b6123596020830184611c07565b9392505050565b600081519050919050565b600081905092915050565b600061238182612360565b61238b818561236b565b935061239b818560208601612087565b80840191505092915050565b60006123b38284612376565b915081905092915050565b7f556e61626c6520746f207472616e736665720000000000000000000000000000600082015250565b60006123f4601283611cfb565b91506123ff826123be565b602082019050919050565b60006020820190508181036000830152612423816123e7565b9050919050565b7f4f6e6c792063616c6c61626c65206279206f776e657200000000000000000000600082015250565b6000612460601683611cfb565b915061246b8261242a565b602082019050919050565b6000602082019050818103600083015261248f81612453565b9050919050565b7f4e487b7100000000000000000000000000000000000000000000000000000000600052603260045260246000fd5b60006124d082611bfd565b91506124db83611bfd565b92508282019050808211156124f3576124f26121e2565b5b92915050565b600061250482611bfd565b91507fffffffffffffffffffffffffffffffffffffffffffffffffffffffffffffffff8203612536576125356121e2565b5b600182019050919050565b7f43616e6e6f74207472616e7366657220746f2073656c66000000000000000000600082015250565b6000612577601783611cfb565b915061258282612541565b602082019050919050565b600060208201905081810360008301526125a68161256a565b9050919050565b60007fffffffff0000000000000000000000000000000000000000000000000000000082169050919050565b6125e2816125ad565b82525050565b600082825260208201905092915050565b600061260482612360565b61260e81856125e8565b935061261e818560208601612087565b6126278161197b565b840191505092915050565b600060e082019050612647600083018a611ca4565b6126546020830189611c07565b6126616040830188611c7a565b61266e60608301876125d9565b61267b6080830186611c07565b61268860a0830185611c07565b81810360c083015261269a81846125f9565b905098975050505050505050565b60006126b382611bfd565b91506126be83611bfd565b9250826126ce576126cd61226b565b5b828206905092915050565b60006126e482611bfd565b91506126ef83611bfd565b9250828203905081811115612707576127066121e2565b5b92915050565b600061272861272361271e84611aef565b611e8d565b611aef565b9050919050565b600061273a8261270d565b9050919050565b600061274c8261272f565b9050919050565b60008160601b9050919050565b600061276b82612753565b9050919050565b600061277d82612760565b9050919050565b61279561279082612741565b612772565b82525050565b6000819050919050565b6127b66127b182611bfd565b61279b565b82525050565b60006127c88285612784565b6014820191506127d882846127a5565b6020820191508190509392505050565b60006060820190506127fd6000830186611ca4565b61280a6020830185611c07565b818103604083015261281c81846125f9565b9050949350505050565b60008151905061283581611ac3565b92915050565b60006020828403121561285157612850611931565b5b600061285f84828501612826565b91505092915050565b7f756e61626c6520746f207472616e73666572416e6443616c6c20746f206f726160008201527f636c650000000000000000000000000000000000000000000000000000000000602082015250565b60006128c4602383611cfb565b91506128cf82612868565b604082019050919050565b600060208201905081810360008301526128f3816128b7565b9050919050565b60008160011c9050919050565b6000808291508390505b60018511156129515780860481111561292d5761292c6121e2565b5b600185161561293c5780820291505b808102905061294a856128fa565b9450612911565b94509492505050565b60008261296a5760019050612a26565b816129785760009050612a26565b816001811461298e5760028114612998576129c7565b6001915050612a26565b60ff8411156129aa576129a96121e2565b5b8360020a9150848211156129c1576129c06121e2565b5b50612a26565b5060208310610133831016604e8410600b84101617156129fc5782820a9050838111156129f7576129f66121e2565b5b612a26565b612a098484846001612907565b92509050818404811115612a2057612a1f6121e2565b5b81810290505b9392505050565b6000612a3882611bfd565b9150612a4383611bfd565b9250612a707fffffffffffffffffffffffffffffffffffffffffffffffffffffffffffffffff848461295a565b90509291505056fea2646970667358221220505385948b6bbe95c9b13f963504cd3452b595d83415bcfec82d9f0f7f4fb04364736f6c63430008100033",
  "devdoc": {
    "author": "polarzero",
    "kind": "dev",
    "methods": {
      "constructor": {
        "params": {
          "_linkTokenContract": "(Mumbai): 0x326C977E6efc84E512bB9C30f76E30c160eD06FB",
          "_oracleContract": "(Mumbai): 0x2BB8Dd9C16edeF313eb9ccBd5F42A8b577cB1E3c",
          "_promiseFactoryContract": ": The address of the PromiseFactory contract"
        }
      },
      "fulfillVerification(bytes32,string,bool,address)": {
        "params": {
          "_requestId": "The request ID",
          "_username": "The username to verify",
          "_verified": "The verification result"
        }
      },
      "requestVerification(string)": {
        "params": {
          "_username": "The username to verify"
        }
      },
      "setPromiseFactoryContract(address)": {
        "details": "It also sets the promise factory contract interface with this address",
        "params": {
          "_promiseFactoryContract": "The address of the PromiseFactory contract"
        }
      }
    },
    "title": "VerifyTwitter",
    "version": 1
  },
  "userdoc": {
    "kind": "user",
    "methods": {
      "acceptOwnership()": {
        "notice": "Allows an ownership transfer to be completed by the recipient."
      },
      "constructor": {
        "notice": "Initialize the link token and target oracle"
      },
      "fulfillVerification(bytes32,string,bool,address)": {
        "notice": "Callback function used by the oracle to return the verification result"
      },
      "owner()": {
        "notice": "Get the current owner"
      },
      "requestVerification(string)": {
        "notice": "Request a Twitter username to be verified"
      },
      "setPromiseFactoryContract(address)": {
        "notice": "Call the promise factory contract to verify a Twitter account"
      },
      "transferOwnership(address)": {
        "notice": "Allows an owner to begin transferring ownership to a new address, pending."
      },
      "withdrawLink()": {
        "notice": "Withdraw LINK from this contract"
      }
    },
    "notice": "Sends a request to the Chainlink oracle to verify a Twitter account - The oracle will return the username, address, and verification status - It uses a Chainlink node & an external adapter to interact with the Twitter API",
    "version": 1
  },
  "storageLayout": {
    "storage": [
      {
        "astId": 319,
        "contract": "contracts/VerifyTwitter.sol:VerifyTwitter",
        "label": "s_ens",
        "offset": 0,
        "slot": "0",
        "type": "t_contract(ENSInterface)1156"
      },
      {
        "astId": 321,
        "contract": "contracts/VerifyTwitter.sol:VerifyTwitter",
        "label": "s_ensNode",
        "offset": 0,
        "slot": "1",
        "type": "t_bytes32"
      },
      {
        "astId": 324,
        "contract": "contracts/VerifyTwitter.sol:VerifyTwitter",
        "label": "s_link",
        "offset": 0,
        "slot": "2",
        "type": "t_contract(LinkTokenInterface)1251"
      },
      {
        "astId": 327,
        "contract": "contracts/VerifyTwitter.sol:VerifyTwitter",
        "label": "s_oracle",
        "offset": 0,
        "slot": "3",
        "type": "t_contract(OperatorInterface)1331"
      },
      {
        "astId": 330,
        "contract": "contracts/VerifyTwitter.sol:VerifyTwitter",
        "label": "s_requestCount",
        "offset": 0,
        "slot": "4",
        "type": "t_uint256"
      },
      {
        "astId": 334,
        "contract": "contracts/VerifyTwitter.sol:VerifyTwitter",
        "label": "s_pendingRequests",
        "offset": 0,
        "slot": "5",
        "type": "t_mapping(t_bytes32,t_address)"
      },
      {
        "astId": 889,
        "contract": "contracts/VerifyTwitter.sol:VerifyTwitter",
        "label": "s_owner",
        "offset": 0,
        "slot": "6",
        "type": "t_address"
      },
      {
        "astId": 891,
        "contract": "contracts/VerifyTwitter.sol:VerifyTwitter",
        "label": "s_pendingOwner",
        "offset": 0,
        "slot": "7",
        "type": "t_address"
      },
      {
        "astId": 2410,
        "contract": "contracts/VerifyTwitter.sol:VerifyTwitter",
        "label": "s_oracleJobId",
        "offset": 0,
        "slot": "8",
        "type": "t_bytes32"
      },
      {
        "astId": 2412,
        "contract": "contracts/VerifyTwitter.sol:VerifyTwitter",
        "label": "s_promiseFactoryContract",
        "offset": 0,
        "slot": "9",
        "type": "t_address"
      },
      {
        "astId": 2415,
        "contract": "contracts/VerifyTwitter.sol:VerifyTwitter",
        "label": "s_promiseFactoryInterface",
        "offset": 0,
        "slot": "10",
        "type": "t_contract(IPromiseFactory)2383"
      },
      {
        "astId": 2417,
        "contract": "contracts/VerifyTwitter.sol:VerifyTwitter",
        "label": "s_username",
        "offset": 0,
        "slot": "11",
        "type": "t_string_storage"
      },
      {
        "astId": 2419,
        "contract": "contracts/VerifyTwitter.sol:VerifyTwitter",
        "label": "s_userAddress",
        "offset": 0,
        "slot": "12",
        "type": "t_address"
      },
      {
        "astId": 2422,
        "contract": "contracts/VerifyTwitter.sol:VerifyTwitter",
        "label": "s_verified",
        "offset": 20,
        "slot": "12",
        "type": "t_bool"
      }
    ],
    "types": {
      "t_address": {
        "encoding": "inplace",
        "label": "address",
        "numberOfBytes": "20"
      },
      "t_bool": {
        "encoding": "inplace",
        "label": "bool",
        "numberOfBytes": "1"
      },
      "t_bytes32": {
        "encoding": "inplace",
        "label": "bytes32",
        "numberOfBytes": "32"
      },
      "t_contract(ENSInterface)1156": {
        "encoding": "inplace",
        "label": "contract ENSInterface",
        "numberOfBytes": "20"
      },
      "t_contract(IPromiseFactory)2383": {
        "encoding": "inplace",
        "label": "contract IPromiseFactory",
        "numberOfBytes": "20"
      },
      "t_contract(LinkTokenInterface)1251": {
        "encoding": "inplace",
        "label": "contract LinkTokenInterface",
        "numberOfBytes": "20"
      },
      "t_contract(OperatorInterface)1331": {
        "encoding": "inplace",
        "label": "contract OperatorInterface",
        "numberOfBytes": "20"
      },
      "t_mapping(t_bytes32,t_address)": {
        "encoding": "mapping",
        "key": "t_bytes32",
        "label": "mapping(bytes32 => address)",
        "numberOfBytes": "32",
        "value": "t_address"
      },
      "t_string_storage": {
        "encoding": "bytes",
        "label": "string",
        "numberOfBytes": "32"
      },
      "t_uint256": {
        "encoding": "inplace",
        "label": "uint256",
        "numberOfBytes": "32"
      }
    }
  }
}