{
  "address": "0x4Ddefe5d469B661A9ae62d9E82fC71bcaC120f10",
  "abi": [
    {
      "inputs": [
        {
          "internalType": "address",
          "name": "_linkTokenContract",
          "type": "address"
        },
        {
          "internalType": "address",
          "name": "_oracleContract",
          "type": "address"
        },
        {
          "internalType": "address",
          "name": "_promiseFactoryContract",
          "type": "address"
        }
      ],
      "stateMutability": "nonpayable",
      "type": "constructor"
    },
    {
      "anonymous": false,
      "inputs": [
        {
          "indexed": true,
          "internalType": "bytes32",
          "name": "id",
          "type": "bytes32"
        }
      ],
      "name": "ChainlinkCancelled",
      "type": "event"
    },
    {
      "anonymous": false,
      "inputs": [
        {
          "indexed": true,
          "internalType": "bytes32",
          "name": "id",
          "type": "bytes32"
        }
      ],
      "name": "ChainlinkFulfilled",
      "type": "event"
    },
    {
      "anonymous": false,
      "inputs": [
        {
          "indexed": true,
          "internalType": "bytes32",
          "name": "id",
          "type": "bytes32"
        }
      ],
      "name": "ChainlinkRequested",
      "type": "event"
    },
    {
      "anonymous": false,
      "inputs": [
        {
          "indexed": true,
          "internalType": "address",
          "name": "from",
          "type": "address"
        },
        {
          "indexed": true,
          "internalType": "address",
          "name": "to",
          "type": "address"
        }
      ],
      "name": "OwnershipTransferRequested",
      "type": "event"
    },
    {
      "anonymous": false,
      "inputs": [
        {
          "indexed": true,
          "internalType": "address",
          "name": "from",
          "type": "address"
        },
        {
          "indexed": true,
          "internalType": "address",
          "name": "to",
          "type": "address"
        }
      ],
      "name": "OwnershipTransferred",
      "type": "event"
    },
    {
      "anonymous": false,
      "inputs": [
        {
          "indexed": true,
          "internalType": "bytes32",
          "name": "requestId",
          "type": "bytes32"
        },
        {
          "indexed": false,
          "internalType": "string",
          "name": "username",
          "type": "string"
        }
      ],
      "name": "VerificationFailed",
      "type": "event"
    },
    {
      "anonymous": false,
      "inputs": [
        {
          "indexed": true,
          "internalType": "bytes32",
          "name": "requestId",
          "type": "bytes32"
        },
        {
          "indexed": false,
          "internalType": "string",
          "name": "username",
          "type": "string"
        }
      ],
      "name": "VerificationRequested",
      "type": "event"
    },
    {
      "anonymous": false,
      "inputs": [
        {
          "indexed": true,
          "internalType": "bytes32",
          "name": "requestId",
          "type": "bytes32"
        },
        {
          "indexed": false,
          "internalType": "string",
          "name": "username",
          "type": "string"
        },
        {
          "indexed": false,
          "internalType": "address",
          "name": "userAddress",
          "type": "address"
        },
        {
          "indexed": false,
          "internalType": "bool",
          "name": "verified",
          "type": "bool"
        }
      ],
      "name": "VerificationSuccessful",
      "type": "event"
    },
    {
      "inputs": [],
      "name": "acceptOwnership",
      "outputs": [],
      "stateMutability": "nonpayable",
      "type": "function"
    },
    {
      "inputs": [
        {
          "internalType": "address",
          "name": "_addr",
          "type": "address"
        }
      ],
      "name": "addressToString",
      "outputs": [
        {
          "internalType": "string",
          "name": "",
          "type": "string"
        }
      ],
      "stateMutability": "pure",
      "type": "function"
    },
    {
      "inputs": [
        {
          "internalType": "bytes32",
          "name": "_requestId",
          "type": "bytes32"
        },
        {
          "internalType": "string",
          "name": "_username",
          "type": "string"
        },
        {
          "internalType": "bool",
          "name": "_verified",
          "type": "bool"
        },
        {
          "internalType": "address",
          "name": "_userAddress",
          "type": "address"
        }
      ],
      "name": "fulfillVerification",
      "outputs": [],
      "stateMutability": "nonpayable",
      "type": "function"
    },
    {
      "inputs": [],
      "name": "getOracleJobId",
      "outputs": [
        {
          "internalType": "bytes32",
          "name": "",
          "type": "bytes32"
        }
      ],
      "stateMutability": "view",
      "type": "function"
    },
    {
      "inputs": [],
      "name": "getOraclePayment",
      "outputs": [
        {
          "internalType": "uint256",
          "name": "",
          "type": "uint256"
        }
      ],
      "stateMutability": "pure",
      "type": "function"
    },
    {
      "inputs": [],
      "name": "getOwner",
      "outputs": [
        {
          "internalType": "address",
          "name": "",
          "type": "address"
        }
      ],
      "stateMutability": "view",
      "type": "function"
    },
    {
      "inputs": [],
      "name": "getPromiseFactoryContract",
      "outputs": [
        {
          "internalType": "address",
          "name": "",
          "type": "address"
        }
      ],
      "stateMutability": "view",
      "type": "function"
    },
    {
      "inputs": [],
      "name": "owner",
      "outputs": [
        {
          "internalType": "address",
          "name": "",
          "type": "address"
        }
      ],
      "stateMutability": "view",
      "type": "function"
    },
    {
      "inputs": [
        {
          "internalType": "string",
          "name": "_username",
          "type": "string"
        }
      ],
      "name": "requestVerification",
      "outputs": [
        {
          "internalType": "bytes32",
          "name": "requestId",
          "type": "bytes32"
        }
      ],
      "stateMutability": "nonpayable",
      "type": "function"
    },
    {
      "inputs": [
        {
          "internalType": "bytes32",
          "name": "_oracleJobId",
          "type": "bytes32"
        }
      ],
      "name": "setOracleJobId",
      "outputs": [],
      "stateMutability": "nonpayable",
      "type": "function"
    },
    {
      "inputs": [
        {
          "internalType": "address",
          "name": "_promiseFactoryContract",
          "type": "address"
        }
      ],
      "name": "setPromiseFactoryContract",
      "outputs": [],
      "stateMutability": "nonpayable",
      "type": "function"
    },
    {
      "inputs": [
        {
          "internalType": "address",
          "name": "to",
          "type": "address"
        }
      ],
      "name": "transferOwnership",
      "outputs": [],
      "stateMutability": "nonpayable",
      "type": "function"
    }
  ],
  "transactionHash": "0x82340740b41660839c8479f196e1296d3073ecddda178b7371f81e65a6b1868a",
  "args": [
    "0x326C977E6efc84E512bB9C30f76E30c160eD06FB",
    "0x2BB8Dd9C16edeF313eb9ccBd5F42A8b577cB1E3c",
    "0x9a26cA9509C6E2bBE7CcB59A1fbbfcf9DFf37f60"
  ],
  "numDeployments": 5,
  "solcInputHash": "be2a06f10647b27679b38d73e853964a",
  "bytecode": "0x608060405260016004557f32616465653930663861383634616531616234313338643036643939613830666008556000600c60146101000a81548160ff0219169083151502179055503480156200005557600080fd5b5060405162002e9638038062002e9683398181016040528101906200007b919062000504565b338060008073ffffffffffffffffffffffffffffffffffffffff168273ffffffffffffffffffffffffffffffffffffffff1603620000f0576040517f08c379a0000000000000000000000000000000000000000000000000000000008152600401620000e790620005c1565b60405180910390fd5b81600660006101000a81548173ffffffffffffffffffffffffffffffffffffffff021916908373ffffffffffffffffffffffffffffffffffffffff160217905550600073ffffffffffffffffffffffffffffffffffffffff168173ffffffffffffffffffffffffffffffffffffffff161462000178576200017781620001b760201b60201c565b5b5050506200018c83620002e860201b60201c565b6200019d826200032c60201b60201c565b620001ae816200037060201b60201c565b505050620006c7565b3373ffffffffffffffffffffffffffffffffffffffff168173ffffffffffffffffffffffffffffffffffffffff160362000228576040517f08c379a00000000000000000000000000000000000000000000000000000000081526004016200021f9062000633565b60405180910390fd5b80600760006101000a81548173ffffffffffffffffffffffffffffffffffffffff021916908373ffffffffffffffffffffffffffffffffffffffff1602179055508073ffffffffffffffffffffffffffffffffffffffff16600660009054906101000a900473ffffffffffffffffffffffffffffffffffffffff1673ffffffffffffffffffffffffffffffffffffffff167fed8889f560326eb138920d842192f0eb3dd22b4f139c87a2c57538e05bae127860405160405180910390a350565b80600260006101000a81548173ffffffffffffffffffffffffffffffffffffffff021916908373ffffffffffffffffffffffffffffffffffffffff16021790555050565b80600360006101000a81548173ffffffffffffffffffffffffffffffffffffffff021916908373ffffffffffffffffffffffffffffffffffffffff16021790555050565b620003806200040560201b60201c565b80600960006101000a81548173ffffffffffffffffffffffffffffffffffffffff021916908373ffffffffffffffffffffffffffffffffffffffff16021790555080600a60006101000a81548173ffffffffffffffffffffffffffffffffffffffff021916908373ffffffffffffffffffffffffffffffffffffffff16021790555050565b600660009054906101000a900473ffffffffffffffffffffffffffffffffffffffff1673ffffffffffffffffffffffffffffffffffffffff163373ffffffffffffffffffffffffffffffffffffffff161462000498576040517f08c379a00000000000000000000000000000000000000000000000000000000081526004016200048f90620006a5565b60405180910390fd5b565b600080fd5b600073ffffffffffffffffffffffffffffffffffffffff82169050919050565b6000620004cc826200049f565b9050919050565b620004de81620004bf565b8114620004ea57600080fd5b50565b600081519050620004fe81620004d3565b92915050565b60008060006060848603121562000520576200051f6200049a565b5b60006200053086828701620004ed565b93505060206200054386828701620004ed565b92505060406200055686828701620004ed565b9150509250925092565b600082825260208201905092915050565b7f43616e6e6f7420736574206f776e657220746f207a65726f0000000000000000600082015250565b6000620005a960188362000560565b9150620005b68262000571565b602082019050919050565b60006020820190508181036000830152620005dc816200059a565b9050919050565b7f43616e6e6f74207472616e7366657220746f2073656c66000000000000000000600082015250565b60006200061b60178362000560565b91506200062882620005e3565b602082019050919050565b600060208201905081810360008301526200064e816200060c565b9050919050565b7f4f6e6c792063616c6c61626c65206279206f776e657200000000000000000000600082015250565b60006200068d60168362000560565b91506200069a8262000655565b602082019050919050565b60006020820190508181036000830152620006c0816200067e565b9050919050565b6127bf80620006d76000396000f3fe608060405234801561001057600080fd5b50600436106100b45760003560e01c806379ba50971161007157806379ba50971461018d578063893d20e8146101975780638da5cb5b146101b5578063c78613da146101d3578063df9776cf146101f1578063f2fde38b1461020d576100b4565b80632bde7979146100b9578063435a7b90146100d55780635e57966d146100f15780636986f2e9146101215780636cbff42a1461013f57806372c0c0a81461016f575b600080fd5b6100d360048036038101906100ce91906118cf565b610229565b005b6100ef60048036038101906100ea9190611952565b6104af565b005b61010b60048036038101906101069190611952565b61053c565b60405161011891906119fe565b60405180910390f35b610129610847565b6040516101369190611a39565b60405180910390f35b61015960048036038101906101549190611a54565b61086f565b6040516101669190611aac565b60405180910390f35b610177610a03565b6040516101849190611ad6565b60405180910390f35b610195610a2d565b005b61019f610bc4565b6040516101ac9190611ad6565b60405180910390f35b6101bd610bd3565b6040516101ca9190611ad6565b60405180910390f35b6101db610bfd565b6040516101e89190611aac565b60405180910390f35b61020b60048036038101906102069190611af1565b610c07565b005b61022760048036038101906102229190611952565b610c19565b005b836005600082815260200190815260200160002060009054906101000a900473ffffffffffffffffffffffffffffffffffffffff1673ffffffffffffffffffffffffffffffffffffffff163373ffffffffffffffffffffffffffffffffffffffff16146102cb576040517f08c379a00000000000000000000000000000000000000000000000000000000081526004016102c290611b90565b60405180910390fd5b6005600082815260200190815260200160002060006101000a81549073ffffffffffffffffffffffffffffffffffffffff0219169055807f7cc135e0cebb02c3480ae5d74d377283180a2601f8f644edf7987b009316c63a60405160405180910390a283600b908161033d9190611dbc565b5081600c60006101000a81548173ffffffffffffffffffffffffffffffffffffffff021916908373ffffffffffffffffffffffffffffffffffffffff16021790555082600c60146101000a81548160ff021916908315150217905550821561046f57600a60009054906101000a900473ffffffffffffffffffffffffffffffffffffffff1673ffffffffffffffffffffffffffffffffffffffff1663e31db57383866040518363ffffffff1660e01b81526004016103fc929190611e8e565b600060405180830381600087803b15801561041657600080fd5b505af115801561042a573d6000803e3d6000fd5b50505050847f11e51421fae5ce18b197a586401e292b3e0a8b6108ae67ade651f8bfbb73603085848660405161046293929190611ecd565b60405180910390a26104a8565b847f1b274bac0e8bb49d3ad90709790a3bf2aa1b86313b4c1a7ae5af9cb7832f72048560405161049f91906119fe565b60405180910390a25b5050505050565b6104b7610c2d565b80600960006101000a81548173ffffffffffffffffffffffffffffffffffffffff021916908373ffffffffffffffffffffffffffffffffffffffff16021790555080600a60006101000a81548173ffffffffffffffffffffffffffffffffffffffff021916908373ffffffffffffffffffffffffffffffffffffffff16021790555050565b606060008273ffffffffffffffffffffffffffffffffffffffff1660001b905060006040518060400160405280601081526020017f303132333435363738396162636465660000000000000000000000000000000081525090506000602a67ffffffffffffffff8111156105b3576105b261170e565b5b6040519080825280601f01601f1916602001820160405280156105e55781602001600182028036833780820191505090505b5090507f30000000000000000000000000000000000000000000000000000000000000008160008151811061061d5761061c611f0b565b5b60200101907effffffffffffffffffffffffffffffffffffffffffffffffffffffffffffff1916908160001a9053507f78000000000000000000000000000000000000000000000000000000000000008160018151811061068157610680611f0b565b5b60200101907effffffffffffffffffffffffffffffffffffffffffffffffffffffffffffff1916908160001a90535060005b601481101561083b5782600485600c846106cd9190611f69565b602081106106de576106dd611f0b565b5b1a60f81b7effffffffffffffffffffffffffffffffffffffffffffffffffffffffffffff1916901c60f81c60ff168151811061071d5761071c611f0b565b5b602001015160f81c60f81b826002836107369190611f9d565b60026107429190611f69565b8151811061075357610752611f0b565b5b60200101907effffffffffffffffffffffffffffffffffffffffffffffffffffffffffffff1916908160001a90535082600f60f81b85600c846107969190611f69565b602081106107a7576107a6611f0b565b5b1a60f81b1660f81c60ff16815181106107c3576107c2611f0b565b5b602001015160f81c60f81b826002836107dc9190611f9d565b60036107e89190611f69565b815181106107f9576107f8611f0b565b5b60200101907effffffffffffffffffffffffffffffffffffffffffffffffffffffffffffff1916908160001a905350808061083390611ff7565b9150506106b3565b50809350505050919050565b6000600a670de0b6b3a764000060016108609190611f9d565b61086a919061206e565b905090565b60008061088660085430632bde797960e01b610cbf565b905060006108933361053c565b90506000816040516020016108a8919061214d565b60405160208183030381529060405290506109036040518060400160405280600881526020017f757365726e616d650000000000000000000000000000000000000000000000008152508685610cf09092919063ffffffff16565b61094d6040518060400160405280600981526020017f7369676e617475726500000000000000000000000000000000000000000000008152508285610cf09092919063ffffffff16565b6109976040518060400160405280600781526020017f61646472657373000000000000000000000000000000000000000000000000008152508385610cf09092919063ffffffff16565b6109c183600a670de0b6b3a764000060016109b29190611f9d565b6109bc919061206e565b610d23565b9350837fc34ceda1e3b95f3c685a13629829c6cd83b0804b62f6362feaef6c1e61e740ca866040516109f391906119fe565b60405180910390a2505050919050565b6000600960009054906101000a900473ffffffffffffffffffffffffffffffffffffffff16905090565b600760009054906101000a900473ffffffffffffffffffffffffffffffffffffffff1673ffffffffffffffffffffffffffffffffffffffff163373ffffffffffffffffffffffffffffffffffffffff1614610abd576040517f08c379a0000000000000000000000000000000000000000000000000000000008152600401610ab4906121bb565b60405180910390fd5b6000600660009054906101000a900473ffffffffffffffffffffffffffffffffffffffff16905033600660006101000a81548173ffffffffffffffffffffffffffffffffffffffff021916908373ffffffffffffffffffffffffffffffffffffffff1602179055506000600760006101000a81548173ffffffffffffffffffffffffffffffffffffffff021916908373ffffffffffffffffffffffffffffffffffffffff1602179055503373ffffffffffffffffffffffffffffffffffffffff168173ffffffffffffffffffffffffffffffffffffffff167f8be0079c531659141344cd1fd0a4f28419497f9722a3daafe3b4186f6b6457e060405160405180910390a350565b6000610bce610bd3565b905090565b6000600660009054906101000a900473ffffffffffffffffffffffffffffffffffffffff16905090565b6000600854905090565b610c0f610c2d565b8060088190555050565b610c21610c2d565b610c2a81610d5a565b50565b600660009054906101000a900473ffffffffffffffffffffffffffffffffffffffff1673ffffffffffffffffffffffffffffffffffffffff163373ffffffffffffffffffffffffffffffffffffffff1614610cbd576040517f08c379a0000000000000000000000000000000000000000000000000000000008152600401610cb490612227565b60405180910390fd5b565b610cc7611622565b610ccf611622565b610ce685858584610e88909392919063ffffffff16565b9150509392505050565b610d07828460800151610f3890919063ffffffff16565b610d1e818460800151610f3890919063ffffffff16565b505050565b6000610d52600360009054906101000a900473ffffffffffffffffffffffffffffffffffffffff168484610f5d565b905092915050565b3373ffffffffffffffffffffffffffffffffffffffff168173ffffffffffffffffffffffffffffffffffffffff1603610dc8576040517f08c379a0000000000000000000000000000000000000000000000000000000008152600401610dbf90612293565b60405180910390fd5b80600760006101000a81548173ffffffffffffffffffffffffffffffffffffffff021916908373ffffffffffffffffffffffffffffffffffffffff1602179055508073ffffffffffffffffffffffffffffffffffffffff16600660009054906101000a900473ffffffffffffffffffffffffffffffffffffffff1673ffffffffffffffffffffffffffffffffffffffff167fed8889f560326eb138920d842192f0eb3dd22b4f139c87a2c57538e05bae127860405160405180910390a350565b610e90611622565b610ea08560800151610100611027565b508385600001818152505082856020019073ffffffffffffffffffffffffffffffffffffffff16908173ffffffffffffffffffffffffffffffffffffffff16815250508185604001907bffffffffffffffffffffffffffffffffffffffffffffffffffffffff191690817bffffffffffffffffffffffffffffffffffffffffffffffffffffffff191681525050849050949350505050565b610f458260038351611091565b610f58818361121690919063ffffffff16565b505050565b6000806004549050600181610f729190611f69565b6004819055506000633c6d41b960e01b600080876000015188604001518660028b6080015160000151604051602401610fb19796959493929190612343565b604051602081830303815290604052907bffffffffffffffffffffffffffffffffffffffffffffffffffffffff19166020820180517bffffffffffffffffffffffffffffffffffffffffffffffffffffffff8381831617835250505050905061101c86838684611238565b925050509392505050565b61102f61168f565b600060208361103e91906123b9565b1461106a5760208261105091906123b9565b602061105c91906123ea565b826110679190611f69565b91505b81836020018181525050604051808452600081528281016020016040525082905092915050565b60178167ffffffffffffffff16116110c8576110c28160058460ff16901b60ff1617846113cd90919063ffffffff16565b50611211565b60ff8167ffffffffffffffff161161111e576110f7601860058460ff16901b17846113cd90919063ffffffff16565b506111188167ffffffffffffffff166001856113ed9092919063ffffffff16565b50611210565b61ffff8167ffffffffffffffff16116111755761114e601960058460ff16901b17846113cd90919063ffffffff16565b5061116f8167ffffffffffffffff166002856113ed9092919063ffffffff16565b5061120f565b63ffffffff8167ffffffffffffffff16116111ce576111a7601a60058460ff16901b17846113cd90919063ffffffff16565b506111c88167ffffffffffffffff166004856113ed9092919063ffffffff16565b5061120e565b6111eb601b60058460ff16901b17846113cd90919063ffffffff16565b5061120c8167ffffffffffffffff166008856113ed9092919063ffffffff16565b505b5b5b5b505050565b61121e61168f565b6112308384600001515184855161140f565b905092915050565b6000308460405160200161124d9291906124cd565b604051602081830303815290604052805190602001209050846005600083815260200190815260200160002060006101000a81548173ffffffffffffffffffffffffffffffffffffffff021916908373ffffffffffffffffffffffffffffffffffffffff160217905550807fb5e6e01e79f91267dc17b4e6314d5d4d03593d2ceee0fbb452b750bd70ea5af960405160405180910390a2600260009054906101000a900473ffffffffffffffffffffffffffffffffffffffff1673ffffffffffffffffffffffffffffffffffffffff16634000aea08685856040518463ffffffff1660e01b8152600401611343939291906124f9565b6020604051808303816000875af1158015611362573d6000803e3d6000fd5b505050506040513d601f19601f82011682018060405250810190611386919061254c565b6113c5576040517f08c379a00000000000000000000000000000000000000000000000000000000081526004016113bc906125eb565b60405180910390fd5b949350505050565b6113d561168f565b6113e583846000015151846114fe565b905092915050565b6113f561168f565b611406848560000151518585611554565b90509392505050565b61141761168f565b825182111561142557600080fd5b846020015182856114369190611f69565b111561146b5761146a85600261145b886020015188876114569190611f69565b6115e2565b6114659190611f9d565b6115fe565b5b60008086518051876020830101935080888701111561148a5787860182525b60208701925050505b602084106114d157805182526020826114ac9190611f69565b91506020816114bb9190611f69565b90506020846114ca91906123ea565b9350611493565b60006001856020036101000a03905080198251168184511681811785525050508692505050949350505050565b61150661168f565b8360200151831061152c5761152b84600286602001516115269190611f9d565b6115fe565b5b83518051602085830101848153818603611547576001820183525b5050508390509392505050565b61155c61168f565b8460200151848361156d9190611f69565b11156115955761159485600286856115859190611f69565b61158f9190611f9d565b6115fe565b5b60006001836101006115a7919061273e565b6115b191906123ea565b905085518386820101858319825116178152815185880111156115d45784870182525b505085915050949350505050565b6000818311156115f4578290506115f8565b8190505b92915050565b6000826000015190506116118383611027565b5061161c8382611216565b50505050565b6040518060a0016040528060008019168152602001600073ffffffffffffffffffffffffffffffffffffffff16815260200160007bffffffffffffffffffffffffffffffffffffffffffffffffffffffff191681526020016000815260200161168961168f565b81525090565b604051806040016040528060608152602001600081525090565b6000604051905090565b600080fd5b600080fd5b6000819050919050565b6116d0816116bd565b81146116db57600080fd5b50565b6000813590506116ed816116c7565b92915050565b600080fd5b600080fd5b6000601f19601f8301169050919050565b7f4e487b7100000000000000000000000000000000000000000000000000000000600052604160045260246000fd5b611746826116fd565b810181811067ffffffffffffffff821117156117655761176461170e565b5b80604052505050565b60006117786116a9565b9050611784828261173d565b919050565b600067ffffffffffffffff8211156117a4576117a361170e565b5b6117ad826116fd565b9050602081019050919050565b82818337600083830152505050565b60006117dc6117d784611789565b61176e565b9050828152602081018484840111156117f8576117f76116f8565b5b6118038482856117ba565b509392505050565b600082601f8301126118205761181f6116f3565b5b81356118308482602086016117c9565b91505092915050565b60008115159050919050565b61184e81611839565b811461185957600080fd5b50565b60008135905061186b81611845565b92915050565b600073ffffffffffffffffffffffffffffffffffffffff82169050919050565b600061189c82611871565b9050919050565b6118ac81611891565b81146118b757600080fd5b50565b6000813590506118c9816118a3565b92915050565b600080600080608085870312156118e9576118e86116b3565b5b60006118f7878288016116de565b945050602085013567ffffffffffffffff811115611918576119176116b8565b5b6119248782880161180b565b93505060406119358782880161185c565b9250506060611946878288016118ba565b91505092959194509250565b600060208284031215611968576119676116b3565b5b6000611976848285016118ba565b91505092915050565b600081519050919050565b600082825260208201905092915050565b60005b838110156119b957808201518184015260208101905061199e565b60008484015250505050565b60006119d08261197f565b6119da818561198a565b93506119ea81856020860161199b565b6119f3816116fd565b840191505092915050565b60006020820190508181036000830152611a1881846119c5565b905092915050565b6000819050919050565b611a3381611a20565b82525050565b6000602082019050611a4e6000830184611a2a565b92915050565b600060208284031215611a6a57611a696116b3565b5b600082013567ffffffffffffffff811115611a8857611a876116b8565b5b611a948482850161180b565b91505092915050565b611aa6816116bd565b82525050565b6000602082019050611ac16000830184611a9d565b92915050565b611ad081611891565b82525050565b6000602082019050611aeb6000830184611ac7565b92915050565b600060208284031215611b0757611b066116b3565b5b6000611b15848285016116de565b91505092915050565b7f536f75726365206d75737420626520746865206f7261636c65206f662074686560008201527f2072657175657374000000000000000000000000000000000000000000000000602082015250565b6000611b7a60288361198a565b9150611b8582611b1e565b604082019050919050565b60006020820190508181036000830152611ba981611b6d565b9050919050565b7f4e487b7100000000000000000000000000000000000000000000000000000000600052602260045260246000fd5b60006002820490506001821680611bf757607f821691505b602082108103611c0a57611c09611bb0565b5b50919050565b60008190508160005260206000209050919050565b60006020601f8301049050919050565b600082821b905092915050565b600060088302611c727fffffffffffffffffffffffffffffffffffffffffffffffffffffffffffffffff82611c35565b611c7c8683611c35565b95508019841693508086168417925050509392505050565b6000819050919050565b6000611cb9611cb4611caf84611a20565b611c94565b611a20565b9050919050565b6000819050919050565b611cd383611c9e565b611ce7611cdf82611cc0565b848454611c42565b825550505050565b600090565b611cfc611cef565b611d07818484611cca565b505050565b5b81811015611d2b57611d20600082611cf4565b600181019050611d0d565b5050565b601f821115611d7057611d4181611c10565b611d4a84611c25565b81016020851015611d59578190505b611d6d611d6585611c25565b830182611d0c565b50505b505050565b600082821c905092915050565b6000611d9360001984600802611d75565b1980831691505092915050565b6000611dac8383611d82565b9150826002028217905092915050565b611dc58261197f565b67ffffffffffffffff811115611dde57611ddd61170e565b5b611de88254611bdf565b611df3828285611d2f565b600060209050601f831160018114611e265760008415611e14578287015190505b611e1e8582611da0565b865550611e86565b601f198416611e3486611c10565b60005b82811015611e5c57848901518255600182019150602085019450602081019050611e37565b86831015611e795784890151611e75601f891682611d82565b8355505b6001600288020188555050505b505050505050565b6000604082019050611ea36000830185611ac7565b8181036020830152611eb581846119c5565b90509392505050565b611ec781611839565b82525050565b60006060820190508181036000830152611ee781866119c5565b9050611ef66020830185611ac7565b611f036040830184611ebe565b949350505050565b7f4e487b7100000000000000000000000000000000000000000000000000000000600052603260045260246000fd5b7f4e487b7100000000000000000000000000000000000000000000000000000000600052601160045260246000fd5b6000611f7482611a20565b9150611f7f83611a20565b9250828201905080821115611f9757611f96611f3a565b5b92915050565b6000611fa882611a20565b9150611fb383611a20565b9250817fffffffffffffffffffffffffffffffffffffffffffffffffffffffffffffffff0483118215151615611fec57611feb611f3a565b5b828202905092915050565b600061200282611a20565b91507fffffffffffffffffffffffffffffffffffffffffffffffffffffffffffffffff820361203457612033611f3a565b5b600182019050919050565b7f4e487b7100000000000000000000000000000000000000000000000000000000600052601260045260246000fd5b600061207982611a20565b915061208483611a20565b9250826120945761209361203f565b5b828204905092915050565b600081905092915050565b7f566572696679696e67206d792054776974746572206163636f756e7420666f7260008201527f2045544820616464726573732000000000000000000000000000000000000000602082015250565b6000612106602d8361209f565b9150612111826120aa565b602d82019050919050565b60006121278261197f565b612131818561209f565b935061214181856020860161199b565b80840191505092915050565b6000612158826120f9565b9150612164828461211c565b915081905092915050565b7f4d7573742062652070726f706f736564206f776e657200000000000000000000600082015250565b60006121a560168361198a565b91506121b08261216f565b602082019050919050565b600060208201905081810360008301526121d481612198565b9050919050565b7f4f6e6c792063616c6c61626c65206279206f776e657200000000000000000000600082015250565b600061221160168361198a565b915061221c826121db565b602082019050919050565b6000602082019050818103600083015261224081612204565b9050919050565b7f43616e6e6f74207472616e7366657220746f2073656c66000000000000000000600082015250565b600061227d60178361198a565b915061228882612247565b602082019050919050565b600060208201905081810360008301526122ac81612270565b9050919050565b60007fffffffff0000000000000000000000000000000000000000000000000000000082169050919050565b6122e8816122b3565b82525050565b600081519050919050565b600082825260208201905092915050565b6000612315826122ee565b61231f81856122f9565b935061232f81856020860161199b565b612338816116fd565b840191505092915050565b600060e082019050612358600083018a611ac7565b6123656020830189611a2a565b6123726040830188611a9d565b61237f60608301876122df565b61238c6080830186611a2a565b61239960a0830185611a2a565b81810360c08301526123ab818461230a565b905098975050505050505050565b60006123c482611a20565b91506123cf83611a20565b9250826123df576123de61203f565b5b828206905092915050565b60006123f582611a20565b915061240083611a20565b925082820390508181111561241857612417611f3a565b5b92915050565b600061243961243461242f84611871565b611c94565b611871565b9050919050565b600061244b8261241e565b9050919050565b600061245d82612440565b9050919050565b60008160601b9050919050565b600061247c82612464565b9050919050565b600061248e82612471565b9050919050565b6124a66124a182612452565b612483565b82525050565b6000819050919050565b6124c76124c282611a20565b6124ac565b82525050565b60006124d98285612495565b6014820191506124e982846124b6565b6020820191508190509392505050565b600060608201905061250e6000830186611ac7565b61251b6020830185611a2a565b818103604083015261252d818461230a565b9050949350505050565b60008151905061254681611845565b92915050565b600060208284031215612562576125616116b3565b5b600061257084828501612537565b91505092915050565b7f756e61626c6520746f207472616e73666572416e6443616c6c20746f206f726160008201527f636c650000000000000000000000000000000000000000000000000000000000602082015250565b60006125d560238361198a565b91506125e082612579565b604082019050919050565b60006020820190508181036000830152612604816125c8565b9050919050565b60008160011c9050919050565b6000808291508390505b60018511156126625780860481111561263e5761263d611f3a565b5b600185161561264d5780820291505b808102905061265b8561260b565b9450612622565b94509492505050565b60008261267b5760019050612737565b816126895760009050612737565b816001811461269f57600281146126a9576126d8565b6001915050612737565b60ff8411156126bb576126ba611f3a565b5b8360020a9150848211156126d2576126d1611f3a565b5b50612737565b5060208310610133831016604e8410600b841016171561270d5782820a90508381111561270857612707611f3a565b5b612737565b61271a8484846001612618565b9250905081840481111561273157612730611f3a565b5b81810290505b9392505050565b600061274982611a20565b915061275483611a20565b92506127817fffffffffffffffffffffffffffffffffffffffffffffffffffffffffffffffff848461266b565b90509291505056fea2646970667358221220f3fb1384d7ddf93b8cfaca025ec5b8da7678e5aa182d45a415e424948bd78dee64736f6c63430008100033",
  "devdoc": {
    "author": "polarzero",
    "kind": "dev",
    "methods": {
      "addressToString(address)": {
        "params": {
          "_addr": "The address to convert"
        }
      },
      "constructor": {
        "params": {
          "_linkTokenContract": "(Mumbai): 0x326C977E6efc84E512bB9C30f76E30c160eD06FB",
          "_oracleContract": "(Mumbai): 0x2BB8Dd9C16edeF313eb9ccBd5F42A8b577cB1E3c",
          "_promiseFactoryContract": ": The address of the PromiseFactory contract"
        }
      },
      "fulfillVerification(bytes32,string,bool,address)": {
        "params": {
          "_requestId": "The request ID",
          "_username": "The username to verify",
          "_verified": "The verification result"
        }
      },
      "requestVerification(string)": {
        "params": {
          "_username": "The username to verify"
        }
      },
      "setPromiseFactoryContract(address)": {
        "details": "It also sets the promise factory contract interface with this address",
        "params": {
          "_promiseFactoryContract": "The address of the PromiseFactory contract"
        }
      }
    },
    "title": "VerifyTwitter",
    "version": 1
  },
  "userdoc": {
    "kind": "user",
    "methods": {
      "acceptOwnership()": {
        "notice": "Allows an ownership transfer to be completed by the recipient."
      },
      "addressToString(address)": {
        "notice": "Convert address to string"
      },
      "constructor": {
        "notice": "Initialize the link token and target oracle"
      },
      "fulfillVerification(bytes32,string,bool,address)": {
        "notice": "Callback function used by the oracle to return the verification result"
      },
      "owner()": {
        "notice": "Get the current owner"
      },
      "requestVerification(string)": {
        "notice": "Request a Twitter username to be verified"
      },
      "setPromiseFactoryContract(address)": {
        "notice": "Call the promise factory contract to verify a Twitter account"
      },
      "transferOwnership(address)": {
        "notice": "Allows an owner to begin transferring ownership to a new address, pending."
      }
    },
    "notice": "Sends a request to the Chainlink oracle to verify a Twitter account - The oracle will return the username, address, and verification status - It uses a Chainlink node & an external adapter to interact with the Twitter API",
    "version": 1
  },
  "storageLayout": {
    "storage": [
      {
        "astId": 319,
        "contract": "contracts/VerifyTwitter.sol:VerifyTwitter",
        "label": "s_ens",
        "offset": 0,
        "slot": "0",
        "type": "t_contract(ENSInterface)1156"
      },
      {
        "astId": 321,
        "contract": "contracts/VerifyTwitter.sol:VerifyTwitter",
        "label": "s_ensNode",
        "offset": 0,
        "slot": "1",
        "type": "t_bytes32"
      },
      {
        "astId": 324,
        "contract": "contracts/VerifyTwitter.sol:VerifyTwitter",
        "label": "s_link",
        "offset": 0,
        "slot": "2",
        "type": "t_contract(LinkTokenInterface)1251"
      },
      {
        "astId": 327,
        "contract": "contracts/VerifyTwitter.sol:VerifyTwitter",
        "label": "s_oracle",
        "offset": 0,
        "slot": "3",
        "type": "t_contract(OperatorInterface)1331"
      },
      {
        "astId": 330,
        "contract": "contracts/VerifyTwitter.sol:VerifyTwitter",
        "label": "s_requestCount",
        "offset": 0,
        "slot": "4",
        "type": "t_uint256"
      },
      {
        "astId": 334,
        "contract": "contracts/VerifyTwitter.sol:VerifyTwitter",
        "label": "s_pendingRequests",
        "offset": 0,
        "slot": "5",
        "type": "t_mapping(t_bytes32,t_address)"
      },
      {
        "astId": 889,
        "contract": "contracts/VerifyTwitter.sol:VerifyTwitter",
        "label": "s_owner",
        "offset": 0,
        "slot": "6",
        "type": "t_address"
      },
      {
        "astId": 891,
        "contract": "contracts/VerifyTwitter.sol:VerifyTwitter",
        "label": "s_pendingOwner",
        "offset": 0,
        "slot": "7",
        "type": "t_address"
      },
      {
        "astId": 2408,
        "contract": "contracts/VerifyTwitter.sol:VerifyTwitter",
        "label": "s_oracleJobId",
        "offset": 0,
        "slot": "8",
        "type": "t_bytes32"
      },
      {
        "astId": 2410,
        "contract": "contracts/VerifyTwitter.sol:VerifyTwitter",
        "label": "s_promiseFactoryContract",
        "offset": 0,
        "slot": "9",
        "type": "t_address"
      },
      {
        "astId": 2413,
        "contract": "contracts/VerifyTwitter.sol:VerifyTwitter",
        "label": "s_promiseFactoryInterface",
        "offset": 0,
        "slot": "10",
        "type": "t_contract(IPromiseFactory)2383"
      },
      {
        "astId": 2415,
        "contract": "contracts/VerifyTwitter.sol:VerifyTwitter",
        "label": "s_username",
        "offset": 0,
        "slot": "11",
        "type": "t_string_storage"
      },
      {
        "astId": 2417,
        "contract": "contracts/VerifyTwitter.sol:VerifyTwitter",
        "label": "s_userAddress",
        "offset": 0,
        "slot": "12",
        "type": "t_address"
      },
      {
        "astId": 2420,
        "contract": "contracts/VerifyTwitter.sol:VerifyTwitter",
        "label": "s_verified",
        "offset": 20,
        "slot": "12",
        "type": "t_bool"
      }
    ],
    "types": {
      "t_address": {
        "encoding": "inplace",
        "label": "address",
        "numberOfBytes": "20"
      },
      "t_bool": {
        "encoding": "inplace",
        "label": "bool",
        "numberOfBytes": "1"
      },
      "t_bytes32": {
        "encoding": "inplace",
        "label": "bytes32",
        "numberOfBytes": "32"
      },
      "t_contract(ENSInterface)1156": {
        "encoding": "inplace",
        "label": "contract ENSInterface",
        "numberOfBytes": "20"
      },
      "t_contract(IPromiseFactory)2383": {
        "encoding": "inplace",
        "label": "contract IPromiseFactory",
        "numberOfBytes": "20"
      },
      "t_contract(LinkTokenInterface)1251": {
        "encoding": "inplace",
        "label": "contract LinkTokenInterface",
        "numberOfBytes": "20"
      },
      "t_contract(OperatorInterface)1331": {
        "encoding": "inplace",
        "label": "contract OperatorInterface",
        "numberOfBytes": "20"
      },
      "t_mapping(t_bytes32,t_address)": {
        "encoding": "mapping",
        "key": "t_bytes32",
        "label": "mapping(bytes32 => address)",
        "numberOfBytes": "32",
        "value": "t_address"
      },
      "t_string_storage": {
        "encoding": "bytes",
        "label": "string",
        "numberOfBytes": "32"
      },
      "t_uint256": {
        "encoding": "inplace",
        "label": "uint256",
        "numberOfBytes": "32"
      }
    }
  }
}