{
  "address": "0x7dFeABA7D45DA6B2bDFC4d39b0970bD91c4C02f2",
  "abi": [
    {
      "inputs": [
        {
          "internalType": "address",
          "name": "_linkTokenContract",
          "type": "address"
        },
        {
          "internalType": "address",
          "name": "_oracleContract",
          "type": "address"
        },
        {
          "internalType": "address",
          "name": "_promiseFactoryContract",
          "type": "address"
        }
      ],
      "stateMutability": "nonpayable",
      "type": "constructor"
    },
    {
      "anonymous": false,
      "inputs": [
        {
          "indexed": true,
          "internalType": "bytes32",
          "name": "id",
          "type": "bytes32"
        }
      ],
      "name": "ChainlinkCancelled",
      "type": "event"
    },
    {
      "anonymous": false,
      "inputs": [
        {
          "indexed": true,
          "internalType": "bytes32",
          "name": "id",
          "type": "bytes32"
        }
      ],
      "name": "ChainlinkFulfilled",
      "type": "event"
    },
    {
      "anonymous": false,
      "inputs": [
        {
          "indexed": true,
          "internalType": "bytes32",
          "name": "id",
          "type": "bytes32"
        }
      ],
      "name": "ChainlinkRequested",
      "type": "event"
    },
    {
      "anonymous": false,
      "inputs": [
        {
          "indexed": true,
          "internalType": "address",
          "name": "from",
          "type": "address"
        },
        {
          "indexed": true,
          "internalType": "address",
          "name": "to",
          "type": "address"
        }
      ],
      "name": "OwnershipTransferRequested",
      "type": "event"
    },
    {
      "anonymous": false,
      "inputs": [
        {
          "indexed": true,
          "internalType": "address",
          "name": "from",
          "type": "address"
        },
        {
          "indexed": true,
          "internalType": "address",
          "name": "to",
          "type": "address"
        }
      ],
      "name": "OwnershipTransferred",
      "type": "event"
    },
    {
      "anonymous": false,
      "inputs": [
        {
          "indexed": true,
          "internalType": "bytes32",
          "name": "requestId",
          "type": "bytes32"
        },
        {
          "indexed": false,
          "internalType": "string",
          "name": "username",
          "type": "string"
        }
      ],
      "name": "VerificationFailed",
      "type": "event"
    },
    {
      "anonymous": false,
      "inputs": [
        {
          "indexed": true,
          "internalType": "bytes32",
          "name": "requestId",
          "type": "bytes32"
        },
        {
          "indexed": false,
          "internalType": "string",
          "name": "username",
          "type": "string"
        }
      ],
      "name": "VerificationRequested",
      "type": "event"
    },
    {
      "anonymous": false,
      "inputs": [
        {
          "indexed": true,
          "internalType": "bytes32",
          "name": "requestId",
          "type": "bytes32"
        },
        {
          "indexed": false,
          "internalType": "string",
          "name": "username",
          "type": "string"
        },
        {
          "indexed": false,
          "internalType": "address",
          "name": "userAddress",
          "type": "address"
        },
        {
          "indexed": false,
          "internalType": "bool",
          "name": "verified",
          "type": "bool"
        }
      ],
      "name": "VerificationSuccessful",
      "type": "event"
    },
    {
      "inputs": [],
      "name": "acceptOwnership",
      "outputs": [],
      "stateMutability": "nonpayable",
      "type": "function"
    },
    {
      "inputs": [
        {
          "internalType": "bytes32",
          "name": "_requestId",
          "type": "bytes32"
        },
        {
          "internalType": "string",
          "name": "_username",
          "type": "string"
        },
        {
          "internalType": "bool",
          "name": "_verified",
          "type": "bool"
        },
        {
          "internalType": "address",
          "name": "_userAddress",
          "type": "address"
        }
      ],
      "name": "fulfillVerification",
      "outputs": [],
      "stateMutability": "nonpayable",
      "type": "function"
    },
    {
      "inputs": [],
      "name": "getLinkBalance",
      "outputs": [
        {
          "internalType": "uint256",
          "name": "",
          "type": "uint256"
        }
      ],
      "stateMutability": "view",
      "type": "function"
    },
    {
      "inputs": [],
      "name": "getOracleJobId",
      "outputs": [
        {
          "internalType": "bytes32",
          "name": "",
          "type": "bytes32"
        }
      ],
      "stateMutability": "view",
      "type": "function"
    },
    {
      "inputs": [],
      "name": "getOraclePayment",
      "outputs": [
        {
          "internalType": "uint256",
          "name": "",
          "type": "uint256"
        }
      ],
      "stateMutability": "pure",
      "type": "function"
    },
    {
      "inputs": [],
      "name": "getPromiseFactoryContract",
      "outputs": [
        {
          "internalType": "address",
          "name": "",
          "type": "address"
        }
      ],
      "stateMutability": "view",
      "type": "function"
    },
    {
      "inputs": [],
      "name": "owner",
      "outputs": [
        {
          "internalType": "address",
          "name": "",
          "type": "address"
        }
      ],
      "stateMutability": "view",
      "type": "function"
    },
    {
      "inputs": [
        {
          "internalType": "string",
          "name": "_username",
          "type": "string"
        }
      ],
      "name": "requestVerification",
      "outputs": [
        {
          "internalType": "bytes32",
          "name": "requestId",
          "type": "bytes32"
        }
      ],
      "stateMutability": "nonpayable",
      "type": "function"
    },
    {
      "inputs": [
        {
          "internalType": "bytes32",
          "name": "_oracleJobId",
          "type": "bytes32"
        }
      ],
      "name": "setOracleJobId",
      "outputs": [],
      "stateMutability": "nonpayable",
      "type": "function"
    },
    {
      "inputs": [
        {
          "internalType": "address",
          "name": "_promiseFactoryContract",
          "type": "address"
        }
      ],
      "name": "setPromiseFactoryContract",
      "outputs": [],
      "stateMutability": "nonpayable",
      "type": "function"
    },
    {
      "inputs": [
        {
          "internalType": "address",
          "name": "to",
          "type": "address"
        }
      ],
      "name": "transferOwnership",
      "outputs": [],
      "stateMutability": "nonpayable",
      "type": "function"
    }
  ],
  "transactionHash": "0x8deb3b88f423f555369398027bf0d9802e79e718ca26e7f839c8a023ed9f2f16",
  "args": [
    "0x326C977E6efc84E512bB9C30f76E30c160eD06FB",
    "0xD4D1fe6FF0A871Ccf37bCfbce3135f548E5f05B5",
    "0x3d6661bc7d1D7efCcf86Cb9B3DaD46D20E7d864e"
  ],
  "numDeployments": 17,
  "solcInputHash": "6ba3c47c99f6afc32f88736cf3d16f73",
  "bytecode": "0x608060405260016004557f62366464643135653032653834653363623838343066373563373635386261386008553480156200003a57600080fd5b5060405162002ac338038062002ac38339818101604052810190620000609190620004e9565b338060008073ffffffffffffffffffffffffffffffffffffffff168273ffffffffffffffffffffffffffffffffffffffff1603620000d5576040517f08c379a0000000000000000000000000000000000000000000000000000000008152600401620000cc90620005a6565b60405180910390fd5b81600660006101000a81548173ffffffffffffffffffffffffffffffffffffffff021916908373ffffffffffffffffffffffffffffffffffffffff160217905550600073ffffffffffffffffffffffffffffffffffffffff168173ffffffffffffffffffffffffffffffffffffffff16146200015d576200015c816200019c60201b60201c565b5b5050506200017183620002cd60201b60201c565b62000182826200031160201b60201c565b62000193816200035560201b60201c565b505050620006ac565b3373ffffffffffffffffffffffffffffffffffffffff168173ffffffffffffffffffffffffffffffffffffffff16036200020d576040517f08c379a0000000000000000000000000000000000000000000000000000000008152600401620002049062000618565b60405180910390fd5b80600760006101000a81548173ffffffffffffffffffffffffffffffffffffffff021916908373ffffffffffffffffffffffffffffffffffffffff1602179055508073ffffffffffffffffffffffffffffffffffffffff16600660009054906101000a900473ffffffffffffffffffffffffffffffffffffffff1673ffffffffffffffffffffffffffffffffffffffff167fed8889f560326eb138920d842192f0eb3dd22b4f139c87a2c57538e05bae127860405160405180910390a350565b80600260006101000a81548173ffffffffffffffffffffffffffffffffffffffff021916908373ffffffffffffffffffffffffffffffffffffffff16021790555050565b80600360006101000a81548173ffffffffffffffffffffffffffffffffffffffff021916908373ffffffffffffffffffffffffffffffffffffffff16021790555050565b62000365620003ea60201b60201c565b80600960006101000a81548173ffffffffffffffffffffffffffffffffffffffff021916908373ffffffffffffffffffffffffffffffffffffffff16021790555080600a60006101000a81548173ffffffffffffffffffffffffffffffffffffffff021916908373ffffffffffffffffffffffffffffffffffffffff16021790555050565b600660009054906101000a900473ffffffffffffffffffffffffffffffffffffffff1673ffffffffffffffffffffffffffffffffffffffff163373ffffffffffffffffffffffffffffffffffffffff16146200047d576040517f08c379a000000000000000000000000000000000000000000000000000000000815260040162000474906200068a565b60405180910390fd5b565b600080fd5b600073ffffffffffffffffffffffffffffffffffffffff82169050919050565b6000620004b18262000484565b9050919050565b620004c381620004a4565b8114620004cf57600080fd5b50565b600081519050620004e381620004b8565b92915050565b6000806000606084860312156200050557620005046200047f565b5b60006200051586828701620004d2565b93505060206200052886828701620004d2565b92505060406200053b86828701620004d2565b9150509250925092565b600082825260208201905092915050565b7f43616e6e6f7420736574206f776e657220746f207a65726f0000000000000000600082015250565b60006200058e60188362000545565b91506200059b8262000556565b602082019050919050565b60006020820190508181036000830152620005c1816200057f565b9050919050565b7f43616e6e6f74207472616e7366657220746f2073656c66000000000000000000600082015250565b60006200060060178362000545565b91506200060d82620005c8565b602082019050919050565b600060208201905081810360008301526200063381620005f1565b9050919050565b7f4f6e6c792063616c6c61626c65206279206f776e657200000000000000000000600082015250565b60006200067260168362000545565b91506200067f826200063a565b602082019050919050565b60006020820190508181036000830152620006a58162000663565b9050919050565b61240780620006bc6000396000f3fe608060405234801561001057600080fd5b50600436106100a95760003560e01c806372c0c0a81161007157806372c0c0a81461015257806379ba5097146101705780638da5cb5b1461017a578063c78613da14610198578063df9776cf146101b6578063f2fde38b146101d2576100a9565b80632bde7979146100ae578063435a7b90146100ca57806350c5f975146100e65780636986f2e9146101045780636cbff42a14610122575b600080fd5b6100c860048036038101906100c39190611862565b6101ee565b005b6100e460048036038101906100df91906118e5565b610409565b005b6100ee610496565b6040516100fb919061192b565b60405180910390f35b61010c610523565b604051610119919061192b565b60405180910390f35b61013c60048036038101906101379190611946565b61054b565b604051610149919061199e565b60405180910390f35b61015a610670565b60405161016791906119c8565b60405180910390f35b61017861069a565b005b610182610831565b60405161018f91906119c8565b60405180910390f35b6101a061085b565b6040516101ad919061199e565b60405180910390f35b6101d060048036038101906101cb91906119e3565b610865565b005b6101ec60048036038101906101e791906118e5565b610877565b005b836005600082815260200190815260200160002060009054906101000a900473ffffffffffffffffffffffffffffffffffffffff1673ffffffffffffffffffffffffffffffffffffffff163373ffffffffffffffffffffffffffffffffffffffff1614610290576040517f08c379a000000000000000000000000000000000000000000000000000000000815260040161028790611a93565b60405180910390fd5b6005600082815260200190815260200160002060006101000a81549073ffffffffffffffffffffffffffffffffffffffff0219169055807f7cc135e0cebb02c3480ae5d74d377283180a2601f8f644edf7987b009316c63a60405160405180910390a282156103c957600a60009054906101000a900473ffffffffffffffffffffffffffffffffffffffff1673ffffffffffffffffffffffffffffffffffffffff1663e31db57383866040518363ffffffff1660e01b8152600401610356929190611b21565b600060405180830381600087803b15801561037057600080fd5b505af1158015610384573d6000803e3d6000fd5b50505050847f11e51421fae5ce18b197a586401e292b3e0a8b6108ae67ade651f8bfbb7360308584866040516103bc93929190611b60565b60405180910390a2610402565b847f1b274bac0e8bb49d3ad90709790a3bf2aa1b86313b4c1a7ae5af9cb7832f7204856040516103f99190611b9e565b60405180910390a25b5050505050565b61041161088b565b80600960006101000a81548173ffffffffffffffffffffffffffffffffffffffff021916908373ffffffffffffffffffffffffffffffffffffffff16021790555080600a60006101000a81548173ffffffffffffffffffffffffffffffffffffffff021916908373ffffffffffffffffffffffffffffffffffffffff16021790555050565b6000806104a161091d565b90508073ffffffffffffffffffffffffffffffffffffffff166370a08231306040518263ffffffff1660e01b81526004016104dc91906119c8565b602060405180830381865afa1580156104f9573d6000803e3d6000fd5b505050506040513d601f19601f8201168201806040525081019061051d9190611bec565b91505090565b6000600a670de0b6b3a7640000600161053c9190611c48565b6105469190611cd1565b905090565b60008061056260085430632bde797960e01b610947565b9050600061056f33610978565b90506105bb6040518060400160405280600881526020017f757365726e616d650000000000000000000000000000000000000000000000008152508584610c839092919063ffffffff16565b6106056040518060400160405280600781526020017f61646472657373000000000000000000000000000000000000000000000000008152508284610c839092919063ffffffff16565b61062f82600a670de0b6b3a764000060016106209190611c48565b61062a9190611cd1565b610cb6565b9250827fc34ceda1e3b95f3c685a13629829c6cd83b0804b62f6362feaef6c1e61e740ca856040516106619190611b9e565b60405180910390a25050919050565b6000600960009054906101000a900473ffffffffffffffffffffffffffffffffffffffff16905090565b600760009054906101000a900473ffffffffffffffffffffffffffffffffffffffff1673ffffffffffffffffffffffffffffffffffffffff163373ffffffffffffffffffffffffffffffffffffffff161461072a576040517f08c379a000000000000000000000000000000000000000000000000000000000815260040161072190611d4e565b60405180910390fd5b6000600660009054906101000a900473ffffffffffffffffffffffffffffffffffffffff16905033600660006101000a81548173ffffffffffffffffffffffffffffffffffffffff021916908373ffffffffffffffffffffffffffffffffffffffff1602179055506000600760006101000a81548173ffffffffffffffffffffffffffffffffffffffff021916908373ffffffffffffffffffffffffffffffffffffffff1602179055503373ffffffffffffffffffffffffffffffffffffffff168173ffffffffffffffffffffffffffffffffffffffff167f8be0079c531659141344cd1fd0a4f28419497f9722a3daafe3b4186f6b6457e060405160405180910390a350565b6000600660009054906101000a900473ffffffffffffffffffffffffffffffffffffffff16905090565b6000600854905090565b61086d61088b565b8060088190555050565b61087f61088b565b61088881610ced565b50565b600660009054906101000a900473ffffffffffffffffffffffffffffffffffffffff1673ffffffffffffffffffffffffffffffffffffffff163373ffffffffffffffffffffffffffffffffffffffff161461091b576040517f08c379a000000000000000000000000000000000000000000000000000000000815260040161091290611dba565b60405180910390fd5b565b6000600260009054906101000a900473ffffffffffffffffffffffffffffffffffffffff16905090565b61094f6115b5565b6109576115b5565b61096e85858584610e1b909392919063ffffffff16565b9150509392505050565b606060008273ffffffffffffffffffffffffffffffffffffffff1660001b905060006040518060400160405280601081526020017f303132333435363738396162636465660000000000000000000000000000000081525090506000602a67ffffffffffffffff8111156109ef576109ee6116a1565b5b6040519080825280601f01601f191660200182016040528015610a215781602001600182028036833780820191505090505b5090507f300000000000000000000000000000000000000000000000000000000000000081600081518110610a5957610a58611dda565b5b60200101907effffffffffffffffffffffffffffffffffffffffffffffffffffffffffffff1916908160001a9053507f780000000000000000000000000000000000000000000000000000000000000081600181518110610abd57610abc611dda565b5b60200101907effffffffffffffffffffffffffffffffffffffffffffffffffffffffffffff1916908160001a90535060005b6014811015610c775782600485600c84610b099190611e09565b60208110610b1a57610b19611dda565b5b1a60f81b7effffffffffffffffffffffffffffffffffffffffffffffffffffffffffffff1916901c60f81c60ff1681518110610b5957610b58611dda565b5b602001015160f81c60f81b82600283610b729190611c48565b6002610b7e9190611e09565b81518110610b8f57610b8e611dda565b5b60200101907effffffffffffffffffffffffffffffffffffffffffffffffffffffffffffff1916908160001a90535082600f60f81b85600c84610bd29190611e09565b60208110610be357610be2611dda565b5b1a60f81b1660f81c60ff1681518110610bff57610bfe611dda565b5b602001015160f81c60f81b82600283610c189190611c48565b6003610c249190611e09565b81518110610c3557610c34611dda565b5b60200101907effffffffffffffffffffffffffffffffffffffffffffffffffffffffffffff1916908160001a9053508080610c6f90611e3d565b915050610aef565b50809350505050919050565b610c9a828460800151610ecb90919063ffffffff16565b610cb1818460800151610ecb90919063ffffffff16565b505050565b6000610ce5600360009054906101000a900473ffffffffffffffffffffffffffffffffffffffff168484610ef0565b905092915050565b3373ffffffffffffffffffffffffffffffffffffffff168173ffffffffffffffffffffffffffffffffffffffff1603610d5b576040517f08c379a0000000000000000000000000000000000000000000000000000000008152600401610d5290611ed1565b60405180910390fd5b80600760006101000a81548173ffffffffffffffffffffffffffffffffffffffff021916908373ffffffffffffffffffffffffffffffffffffffff1602179055508073ffffffffffffffffffffffffffffffffffffffff16600660009054906101000a900473ffffffffffffffffffffffffffffffffffffffff1673ffffffffffffffffffffffffffffffffffffffff167fed8889f560326eb138920d842192f0eb3dd22b4f139c87a2c57538e05bae127860405160405180910390a350565b610e236115b5565b610e338560800151610100610fba565b508385600001818152505082856020019073ffffffffffffffffffffffffffffffffffffffff16908173ffffffffffffffffffffffffffffffffffffffff16815250508185604001907bffffffffffffffffffffffffffffffffffffffffffffffffffffffff191690817bffffffffffffffffffffffffffffffffffffffffffffffffffffffff191681525050849050949350505050565b610ed88260038351611024565b610eeb81836111a990919063ffffffff16565b505050565b6000806004549050600181610f059190611e09565b6004819055506000633c6d41b960e01b600080876000015188604001518660028b6080015160000151604051602401610f449796959493929190611f81565b604051602081830303815290604052907bffffffffffffffffffffffffffffffffffffffffffffffffffffffff19166020820180517bffffffffffffffffffffffffffffffffffffffffffffffffffffffff83818316178352505050509050610faf868386846111cb565b925050509392505050565b610fc2611622565b6000602083610fd19190611ff7565b14610ffd57602082610fe39190611ff7565b6020610fef9190612028565b82610ffa9190611e09565b91505b81836020018181525050604051808452600081528281016020016040525082905092915050565b60178167ffffffffffffffff161161105b576110558160058460ff16901b60ff16178461136090919063ffffffff16565b506111a4565b60ff8167ffffffffffffffff16116110b15761108a601860058460ff16901b178461136090919063ffffffff16565b506110ab8167ffffffffffffffff166001856113809092919063ffffffff16565b506111a3565b61ffff8167ffffffffffffffff1611611108576110e1601960058460ff16901b178461136090919063ffffffff16565b506111028167ffffffffffffffff166002856113809092919063ffffffff16565b506111a2565b63ffffffff8167ffffffffffffffff16116111615761113a601a60058460ff16901b178461136090919063ffffffff16565b5061115b8167ffffffffffffffff166004856113809092919063ffffffff16565b506111a1565b61117e601b60058460ff16901b178461136090919063ffffffff16565b5061119f8167ffffffffffffffff166008856113809092919063ffffffff16565b505b5b5b5b505050565b6111b1611622565b6111c3838460000151518485516113a2565b905092915050565b600030846040516020016111e0929190612115565b604051602081830303815290604052805190602001209050846005600083815260200190815260200160002060006101000a81548173ffffffffffffffffffffffffffffffffffffffff021916908373ffffffffffffffffffffffffffffffffffffffff160217905550807fb5e6e01e79f91267dc17b4e6314d5d4d03593d2ceee0fbb452b750bd70ea5af960405160405180910390a2600260009054906101000a900473ffffffffffffffffffffffffffffffffffffffff1673ffffffffffffffffffffffffffffffffffffffff16634000aea08685856040518463ffffffff1660e01b81526004016112d693929190612141565b6020604051808303816000875af11580156112f5573d6000803e3d6000fd5b505050506040513d601f19601f820116820180604052508101906113199190612194565b611358576040517f08c379a000000000000000000000000000000000000000000000000000000000815260040161134f90612233565b60405180910390fd5b949350505050565b611368611622565b6113788384600001515184611491565b905092915050565b611388611622565b6113998485600001515185856114e7565b90509392505050565b6113aa611622565b82518211156113b857600080fd5b846020015182856113c99190611e09565b11156113fe576113fd8560026113ee886020015188876113e99190611e09565b611575565b6113f89190611c48565b611591565b5b60008086518051876020830101935080888701111561141d5787860182525b60208701925050505b60208410611464578051825260208261143f9190611e09565b915060208161144e9190611e09565b905060208461145d9190612028565b9350611426565b60006001856020036101000a03905080198251168184511681811785525050508692505050949350505050565b611499611622565b836020015183106114bf576114be84600286602001516114b99190611c48565b611591565b5b835180516020858301018481538186036114da576001820183525b5050508390509392505050565b6114ef611622565b846020015184836115009190611e09565b11156115285761152785600286856115189190611e09565b6115229190611c48565b611591565b5b600060018361010061153a9190612386565b6115449190612028565b905085518386820101858319825116178152815185880111156115675784870182525b505085915050949350505050565b6000818311156115875782905061158b565b8190505b92915050565b6000826000015190506115a48383610fba565b506115af83826111a9565b50505050565b6040518060a0016040528060008019168152602001600073ffffffffffffffffffffffffffffffffffffffff16815260200160007bffffffffffffffffffffffffffffffffffffffffffffffffffffffff191681526020016000815260200161161c611622565b81525090565b604051806040016040528060608152602001600081525090565b6000604051905090565b600080fd5b600080fd5b6000819050919050565b61166381611650565b811461166e57600080fd5b50565b6000813590506116808161165a565b92915050565b600080fd5b600080fd5b6000601f19601f8301169050919050565b7f4e487b7100000000000000000000000000000000000000000000000000000000600052604160045260246000fd5b6116d982611690565b810181811067ffffffffffffffff821117156116f8576116f76116a1565b5b80604052505050565b600061170b61163c565b905061171782826116d0565b919050565b600067ffffffffffffffff821115611737576117366116a1565b5b61174082611690565b9050602081019050919050565b82818337600083830152505050565b600061176f61176a8461171c565b611701565b90508281526020810184848401111561178b5761178a61168b565b5b61179684828561174d565b509392505050565b600082601f8301126117b3576117b2611686565b5b81356117c384826020860161175c565b91505092915050565b60008115159050919050565b6117e1816117cc565b81146117ec57600080fd5b50565b6000813590506117fe816117d8565b92915050565b600073ffffffffffffffffffffffffffffffffffffffff82169050919050565b600061182f82611804565b9050919050565b61183f81611824565b811461184a57600080fd5b50565b60008135905061185c81611836565b92915050565b6000806000806080858703121561187c5761187b611646565b5b600061188a87828801611671565b945050602085013567ffffffffffffffff8111156118ab576118aa61164b565b5b6118b78782880161179e565b93505060406118c8878288016117ef565b92505060606118d98782880161184d565b91505092959194509250565b6000602082840312156118fb576118fa611646565b5b60006119098482850161184d565b91505092915050565b6000819050919050565b61192581611912565b82525050565b6000602082019050611940600083018461191c565b92915050565b60006020828403121561195c5761195b611646565b5b600082013567ffffffffffffffff81111561197a5761197961164b565b5b6119868482850161179e565b91505092915050565b61199881611650565b82525050565b60006020820190506119b3600083018461198f565b92915050565b6119c281611824565b82525050565b60006020820190506119dd60008301846119b9565b92915050565b6000602082840312156119f9576119f8611646565b5b6000611a0784828501611671565b91505092915050565b600082825260208201905092915050565b7f536f75726365206d75737420626520746865206f7261636c65206f662074686560008201527f2072657175657374000000000000000000000000000000000000000000000000602082015250565b6000611a7d602883611a10565b9150611a8882611a21565b604082019050919050565b60006020820190508181036000830152611aac81611a70565b9050919050565b600081519050919050565b60005b83811015611adc578082015181840152602081019050611ac1565b60008484015250505050565b6000611af382611ab3565b611afd8185611a10565b9350611b0d818560208601611abe565b611b1681611690565b840191505092915050565b6000604082019050611b3660008301856119b9565b8181036020830152611b488184611ae8565b90509392505050565b611b5a816117cc565b82525050565b60006060820190508181036000830152611b7a8186611ae8565b9050611b8960208301856119b9565b611b966040830184611b51565b949350505050565b60006020820190508181036000830152611bb88184611ae8565b905092915050565b611bc981611912565b8114611bd457600080fd5b50565b600081519050611be681611bc0565b92915050565b600060208284031215611c0257611c01611646565b5b6000611c1084828501611bd7565b91505092915050565b7f4e487b7100000000000000000000000000000000000000000000000000000000600052601160045260246000fd5b6000611c5382611912565b9150611c5e83611912565b9250817fffffffffffffffffffffffffffffffffffffffffffffffffffffffffffffffff0483118215151615611c9757611c96611c19565b5b828202905092915050565b7f4e487b7100000000000000000000000000000000000000000000000000000000600052601260045260246000fd5b6000611cdc82611912565b9150611ce783611912565b925082611cf757611cf6611ca2565b5b828204905092915050565b7f4d7573742062652070726f706f736564206f776e657200000000000000000000600082015250565b6000611d38601683611a10565b9150611d4382611d02565b602082019050919050565b60006020820190508181036000830152611d6781611d2b565b9050919050565b7f4f6e6c792063616c6c61626c65206279206f776e657200000000000000000000600082015250565b6000611da4601683611a10565b9150611daf82611d6e565b602082019050919050565b60006020820190508181036000830152611dd381611d97565b9050919050565b7f4e487b7100000000000000000000000000000000000000000000000000000000600052603260045260246000fd5b6000611e1482611912565b9150611e1f83611912565b9250828201905080821115611e3757611e36611c19565b5b92915050565b6000611e4882611912565b91507fffffffffffffffffffffffffffffffffffffffffffffffffffffffffffffffff8203611e7a57611e79611c19565b5b600182019050919050565b7f43616e6e6f74207472616e7366657220746f2073656c66000000000000000000600082015250565b6000611ebb601783611a10565b9150611ec682611e85565b602082019050919050565b60006020820190508181036000830152611eea81611eae565b9050919050565b60007fffffffff0000000000000000000000000000000000000000000000000000000082169050919050565b611f2681611ef1565b82525050565b600081519050919050565b600082825260208201905092915050565b6000611f5382611f2c565b611f5d8185611f37565b9350611f6d818560208601611abe565b611f7681611690565b840191505092915050565b600060e082019050611f96600083018a6119b9565b611fa3602083018961191c565b611fb0604083018861198f565b611fbd6060830187611f1d565b611fca608083018661191c565b611fd760a083018561191c565b81810360c0830152611fe98184611f48565b905098975050505050505050565b600061200282611912565b915061200d83611912565b92508261201d5761201c611ca2565b5b828206905092915050565b600061203382611912565b915061203e83611912565b925082820390508181111561205657612055611c19565b5b92915050565b6000819050919050565b600061208161207c61207784611804565b61205c565b611804565b9050919050565b600061209382612066565b9050919050565b60006120a582612088565b9050919050565b60008160601b9050919050565b60006120c4826120ac565b9050919050565b60006120d6826120b9565b9050919050565b6120ee6120e98261209a565b6120cb565b82525050565b6000819050919050565b61210f61210a82611912565b6120f4565b82525050565b600061212182856120dd565b60148201915061213182846120fe565b6020820191508190509392505050565b600060608201905061215660008301866119b9565b612163602083018561191c565b81810360408301526121758184611f48565b9050949350505050565b60008151905061218e816117d8565b92915050565b6000602082840312156121aa576121a9611646565b5b60006121b88482850161217f565b91505092915050565b7f756e61626c6520746f207472616e73666572416e6443616c6c20746f206f726160008201527f636c650000000000000000000000000000000000000000000000000000000000602082015250565b600061221d602383611a10565b9150612228826121c1565b604082019050919050565b6000602082019050818103600083015261224c81612210565b9050919050565b60008160011c9050919050565b6000808291508390505b60018511156122aa5780860481111561228657612285611c19565b5b60018516156122955780820291505b80810290506122a385612253565b945061226a565b94509492505050565b6000826122c3576001905061237f565b816122d1576000905061237f565b81600181146122e757600281146122f157612320565b600191505061237f565b60ff84111561230357612302611c19565b5b8360020a91508482111561231a57612319611c19565b5b5061237f565b5060208310610133831016604e8410600b84101617156123555782820a9050838111156123505761234f611c19565b5b61237f565b6123628484846001612260565b9250905081840481111561237957612378611c19565b5b81810290505b9392505050565b600061239182611912565b915061239c83611912565b92506123c97fffffffffffffffffffffffffffffffffffffffffffffffffffffffffffffffff84846122b3565b90509291505056fea2646970667358221220069262b02762fb95e99af6b3a72b673ed6d1099de7ee90f3453ca4a7dac4899d64736f6c63430008100033",
  "devdoc": {
    "author": "polarzero",
    "kind": "dev",
    "methods": {
      "constructor": {
        "params": {
          "_linkTokenContract": "(Mumbai): 0x326C977E6efc84E512bB9C30f76E30c160eD06FB",
          "_oracleContract": "(Mumbai): 0x2BB8Dd9C16edeF313eb9ccBd5F42A8b577cB1E3c",
          "_promiseFactoryContract": ": The address of the PromiseFactory contract"
        }
      },
      "fulfillVerification(bytes32,string,bool,address)": {
        "params": {
          "_requestId": "The request ID",
          "_username": "The username to verify",
          "_verified": "The verification result"
        }
      },
      "requestVerification(string)": {
        "params": {
          "_username": "The username to verify"
        }
      },
      "setOracleJobId(bytes32)": {
        "params": {
          "_oracleJobId": "The oracle job ID"
        }
      },
      "setPromiseFactoryContract(address)": {
        "params": {
          "_promiseFactoryContract": ": The address of the PromiseFactory contract"
        }
      }
    },
    "title": "VerifyTwitter",
    "version": 1
  },
  "userdoc": {
    "kind": "user",
    "methods": {
      "acceptOwnership()": {
        "notice": "Allows an ownership transfer to be completed by the recipient."
      },
      "constructor": {
        "notice": "Initialize the link token and target oracle"
      },
      "fulfillVerification(bytes32,string,bool,address)": {
        "notice": "Callback function used by the oracle to return the verification result"
      },
      "owner()": {
        "notice": "Get the current owner"
      },
      "requestVerification(string)": {
        "notice": "Request a Twitter username to be verified"
      },
      "setOracleJobId(bytes32)": {
        "notice": "Set the oracle job ID"
      },
      "setPromiseFactoryContract(address)": {
        "notice": "Set the address of the PromiseFactory contract"
      },
      "transferOwnership(address)": {
        "notice": "Allows an owner to begin transferring ownership to a new address, pending."
      }
    },
    "notice": "Sends a request to the Chainlink oracle to verify a Twitter account - The oracle will return the username, address, and verification status - It uses a Chainlink node & an external adapter to interact with the Twitter API",
    "version": 1
  },
  "storageLayout": {
    "storage": [
      {
        "astId": 319,
        "contract": "contracts/VerifyTwitter.sol:VerifyTwitter",
        "label": "s_ens",
        "offset": 0,
        "slot": "0",
        "type": "t_contract(ENSInterface)1156"
      },
      {
        "astId": 321,
        "contract": "contracts/VerifyTwitter.sol:VerifyTwitter",
        "label": "s_ensNode",
        "offset": 0,
        "slot": "1",
        "type": "t_bytes32"
      },
      {
        "astId": 324,
        "contract": "contracts/VerifyTwitter.sol:VerifyTwitter",
        "label": "s_link",
        "offset": 0,
        "slot": "2",
        "type": "t_contract(LinkTokenInterface)1251"
      },
      {
        "astId": 327,
        "contract": "contracts/VerifyTwitter.sol:VerifyTwitter",
        "label": "s_oracle",
        "offset": 0,
        "slot": "3",
        "type": "t_contract(OperatorInterface)1331"
      },
      {
        "astId": 330,
        "contract": "contracts/VerifyTwitter.sol:VerifyTwitter",
        "label": "s_requestCount",
        "offset": 0,
        "slot": "4",
        "type": "t_uint256"
      },
      {
        "astId": 334,
        "contract": "contracts/VerifyTwitter.sol:VerifyTwitter",
        "label": "s_pendingRequests",
        "offset": 0,
        "slot": "5",
        "type": "t_mapping(t_bytes32,t_address)"
      },
      {
        "astId": 889,
        "contract": "contracts/VerifyTwitter.sol:VerifyTwitter",
        "label": "s_owner",
        "offset": 0,
        "slot": "6",
        "type": "t_address"
      },
      {
        "astId": 891,
        "contract": "contracts/VerifyTwitter.sol:VerifyTwitter",
        "label": "s_pendingOwner",
        "offset": 0,
        "slot": "7",
        "type": "t_address"
      },
      {
        "astId": 4436,
        "contract": "contracts/VerifyTwitter.sol:VerifyTwitter",
        "label": "s_oracleJobId",
        "offset": 0,
        "slot": "8",
        "type": "t_bytes32"
      },
      {
        "astId": 4438,
        "contract": "contracts/VerifyTwitter.sol:VerifyTwitter",
        "label": "s_promiseFactoryContract",
        "offset": 0,
        "slot": "9",
        "type": "t_address"
      },
      {
        "astId": 4441,
        "contract": "contracts/VerifyTwitter.sol:VerifyTwitter",
        "label": "s_promiseFactoryInterface",
        "offset": 0,
        "slot": "10",
        "type": "t_contract(IPromiseFactory)2686"
      }
    ],
    "types": {
      "t_address": {
        "encoding": "inplace",
        "label": "address",
        "numberOfBytes": "20"
      },
      "t_bytes32": {
        "encoding": "inplace",
        "label": "bytes32",
        "numberOfBytes": "32"
      },
      "t_contract(ENSInterface)1156": {
        "encoding": "inplace",
        "label": "contract ENSInterface",
        "numberOfBytes": "20"
      },
      "t_contract(IPromiseFactory)2686": {
        "encoding": "inplace",
        "label": "contract IPromiseFactory",
        "numberOfBytes": "20"
      },
      "t_contract(LinkTokenInterface)1251": {
        "encoding": "inplace",
        "label": "contract LinkTokenInterface",
        "numberOfBytes": "20"
      },
      "t_contract(OperatorInterface)1331": {
        "encoding": "inplace",
        "label": "contract OperatorInterface",
        "numberOfBytes": "20"
      },
      "t_mapping(t_bytes32,t_address)": {
        "encoding": "mapping",
        "key": "t_bytes32",
        "label": "mapping(bytes32 => address)",
        "numberOfBytes": "32",
        "value": "t_address"
      },
      "t_uint256": {
        "encoding": "inplace",
        "label": "uint256",
        "numberOfBytes": "32"
      }
    }
  }
}