{
  "address": "0x5250d9a5B32f1715BDE204fb03EC5aB9FF2E05cB",
  "abi": [
    {
      "inputs": [
        {
          "internalType": "address",
          "name": "_linkTokenContract",
          "type": "address"
        },
        {
          "internalType": "address",
          "name": "_oracleContract",
          "type": "address"
        },
        {
          "internalType": "address",
          "name": "_promiseFactoryContract",
          "type": "address"
        }
      ],
      "stateMutability": "nonpayable",
      "type": "constructor"
    },
    {
      "inputs": [],
      "name": "VerifyStorage__NOT_FACTORY",
      "type": "error"
    },
    {
      "anonymous": false,
      "inputs": [
        {
          "indexed": true,
          "internalType": "bytes32",
          "name": "id",
          "type": "bytes32"
        }
      ],
      "name": "ChainlinkCancelled",
      "type": "event"
    },
    {
      "anonymous": false,
      "inputs": [
        {
          "indexed": true,
          "internalType": "bytes32",
          "name": "id",
          "type": "bytes32"
        }
      ],
      "name": "ChainlinkFulfilled",
      "type": "event"
    },
    {
      "anonymous": false,
      "inputs": [
        {
          "indexed": true,
          "internalType": "bytes32",
          "name": "id",
          "type": "bytes32"
        }
      ],
      "name": "ChainlinkRequested",
      "type": "event"
    },
    {
      "anonymous": false,
      "inputs": [
        {
          "indexed": true,
          "internalType": "address",
          "name": "from",
          "type": "address"
        },
        {
          "indexed": true,
          "internalType": "address",
          "name": "to",
          "type": "address"
        }
      ],
      "name": "OwnershipTransferRequested",
      "type": "event"
    },
    {
      "anonymous": false,
      "inputs": [
        {
          "indexed": true,
          "internalType": "address",
          "name": "from",
          "type": "address"
        },
        {
          "indexed": true,
          "internalType": "address",
          "name": "to",
          "type": "address"
        }
      ],
      "name": "OwnershipTransferred",
      "type": "event"
    },
    {
      "anonymous": false,
      "inputs": [
        {
          "indexed": true,
          "internalType": "bytes32",
          "name": "requestId",
          "type": "bytes32"
        },
        {
          "indexed": true,
          "internalType": "address",
          "name": "promiseAddress",
          "type": "address"
        }
      ],
      "name": "StorageStatusUpdateRequested",
      "type": "event"
    },
    {
      "anonymous": false,
      "inputs": [
        {
          "indexed": true,
          "internalType": "bytes32",
          "name": "requestId",
          "type": "bytes32"
        },
        {
          "indexed": true,
          "internalType": "address",
          "name": "promiseAddress",
          "type": "address"
        },
        {
          "indexed": false,
          "internalType": "uint8",
          "name": "storageStatus",
          "type": "uint8"
        }
      ],
      "name": "StorageStatusUpdateSuccessful",
      "type": "event"
    },
    {
      "inputs": [],
      "name": "acceptOwnership",
      "outputs": [],
      "stateMutability": "nonpayable",
      "type": "function"
    },
    {
      "inputs": [
        {
          "internalType": "bytes32",
          "name": "_requestId",
          "type": "bytes32"
        },
        {
          "internalType": "address",
          "name": "_promiseAddress",
          "type": "address"
        },
        {
          "internalType": "uint8",
          "name": "_backupStatus",
          "type": "uint8"
        }
      ],
      "name": "fulfillStorageStatusUpdate",
      "outputs": [],
      "stateMutability": "nonpayable",
      "type": "function"
    },
    {
      "inputs": [],
      "name": "getLinkBalance",
      "outputs": [
        {
          "internalType": "uint256",
          "name": "",
          "type": "uint256"
        }
      ],
      "stateMutability": "view",
      "type": "function"
    },
    {
      "inputs": [],
      "name": "getOracleJobId",
      "outputs": [
        {
          "internalType": "bytes32",
          "name": "",
          "type": "bytes32"
        }
      ],
      "stateMutability": "view",
      "type": "function"
    },
    {
      "inputs": [],
      "name": "getOraclePayment",
      "outputs": [
        {
          "internalType": "uint256",
          "name": "",
          "type": "uint256"
        }
      ],
      "stateMutability": "pure",
      "type": "function"
    },
    {
      "inputs": [],
      "name": "getPromiseFactoryContract",
      "outputs": [
        {
          "internalType": "address",
          "name": "",
          "type": "address"
        }
      ],
      "stateMutability": "view",
      "type": "function"
    },
    {
      "inputs": [],
      "name": "owner",
      "outputs": [
        {
          "internalType": "address",
          "name": "",
          "type": "address"
        }
      ],
      "stateMutability": "view",
      "type": "function"
    },
    {
      "inputs": [
        {
          "internalType": "address",
          "name": "_promiseAddress",
          "type": "address"
        },
        {
          "internalType": "address",
          "name": "_userAddress",
          "type": "address"
        },
        {
          "internalType": "string",
          "name": "_ipfsCid",
          "type": "string"
        },
        {
          "internalType": "string",
          "name": "_arweaveId",
          "type": "string"
        },
        {
          "internalType": "string",
          "name": "_encryptedProof",
          "type": "string"
        }
      ],
      "name": "requestStorageStatusUpdate",
      "outputs": [
        {
          "internalType": "bytes32",
          "name": "requestId",
          "type": "bytes32"
        }
      ],
      "stateMutability": "nonpayable",
      "type": "function"
    },
    {
      "inputs": [
        {
          "internalType": "bytes32",
          "name": "_oracleJobId",
          "type": "bytes32"
        }
      ],
      "name": "setOracleJobId",
      "outputs": [],
      "stateMutability": "nonpayable",
      "type": "function"
    },
    {
      "inputs": [
        {
          "internalType": "address",
          "name": "_promiseFactoryContract",
          "type": "address"
        }
      ],
      "name": "setPromiseFactoryContract",
      "outputs": [],
      "stateMutability": "nonpayable",
      "type": "function"
    },
    {
      "inputs": [
        {
          "internalType": "address",
          "name": "to",
          "type": "address"
        }
      ],
      "name": "transferOwnership",
      "outputs": [],
      "stateMutability": "nonpayable",
      "type": "function"
    }
  ],
  "transactionHash": "0xf2ead19fcfd779f319e09659370460b415c117d542460c15213d72fa054eb32e",
  "args": [
    "0x326C977E6efc84E512bB9C30f76E30c160eD06FB",
    "0xD4D1fe6FF0A871Ccf37bCfbce3135f548E5f05B5",
    "0x3d6661bc7d1D7efCcf86Cb9B3DaD46D20E7d864e"
  ],
  "numDeployments": 1,
  "solcInputHash": "73740e9959a17978dcfeef4b6bb53bf6",
  "bytecode": "0x608060405260016004557f63643433306465643635623634623566616530333266396239623337623839646008553480156200003a57600080fd5b5060405162002bff38038062002bff8339818101604052810190620000609190620004e9565b338060008073ffffffffffffffffffffffffffffffffffffffff168273ffffffffffffffffffffffffffffffffffffffff1603620000d5576040517f08c379a0000000000000000000000000000000000000000000000000000000008152600401620000cc90620005a6565b60405180910390fd5b81600660006101000a81548173ffffffffffffffffffffffffffffffffffffffff021916908373ffffffffffffffffffffffffffffffffffffffff160217905550600073ffffffffffffffffffffffffffffffffffffffff168173ffffffffffffffffffffffffffffffffffffffff16146200015d576200015c816200019c60201b60201c565b5b5050506200017183620002cd60201b60201c565b62000182826200031160201b60201c565b62000193816200035560201b60201c565b505050620006ac565b3373ffffffffffffffffffffffffffffffffffffffff168173ffffffffffffffffffffffffffffffffffffffff16036200020d576040517f08c379a0000000000000000000000000000000000000000000000000000000008152600401620002049062000618565b60405180910390fd5b80600760006101000a81548173ffffffffffffffffffffffffffffffffffffffff021916908373ffffffffffffffffffffffffffffffffffffffff1602179055508073ffffffffffffffffffffffffffffffffffffffff16600660009054906101000a900473ffffffffffffffffffffffffffffffffffffffff1673ffffffffffffffffffffffffffffffffffffffff167fed8889f560326eb138920d842192f0eb3dd22b4f139c87a2c57538e05bae127860405160405180910390a350565b80600260006101000a81548173ffffffffffffffffffffffffffffffffffffffff021916908373ffffffffffffffffffffffffffffffffffffffff16021790555050565b80600360006101000a81548173ffffffffffffffffffffffffffffffffffffffff021916908373ffffffffffffffffffffffffffffffffffffffff16021790555050565b62000365620003ea60201b60201c565b80600960006101000a81548173ffffffffffffffffffffffffffffffffffffffff021916908373ffffffffffffffffffffffffffffffffffffffff16021790555080600a60006101000a81548173ffffffffffffffffffffffffffffffffffffffff021916908373ffffffffffffffffffffffffffffffffffffffff16021790555050565b600660009054906101000a900473ffffffffffffffffffffffffffffffffffffffff1673ffffffffffffffffffffffffffffffffffffffff163373ffffffffffffffffffffffffffffffffffffffff16146200047d576040517f08c379a000000000000000000000000000000000000000000000000000000000815260040162000474906200068a565b60405180910390fd5b565b600080fd5b600073ffffffffffffffffffffffffffffffffffffffff82169050919050565b6000620004b18262000484565b9050919050565b620004c381620004a4565b8114620004cf57600080fd5b50565b600081519050620004e381620004b8565b92915050565b6000806000606084860312156200050557620005046200047f565b5b60006200051586828701620004d2565b93505060206200052886828701620004d2565b92505060406200053b86828701620004d2565b9150509250925092565b600082825260208201905092915050565b7f43616e6e6f7420736574206f776e657220746f207a65726f0000000000000000600082015250565b60006200058e60188362000545565b91506200059b8262000556565b602082019050919050565b60006020820190508181036000830152620005c1816200057f565b9050919050565b7f43616e6e6f74207472616e7366657220746f2073656c66000000000000000000600082015250565b60006200060060178362000545565b91506200060d82620005c8565b602082019050919050565b600060208201905081810360008301526200063381620005f1565b9050919050565b7f4f6e6c792063616c6c61626c65206279206f776e657200000000000000000000600082015250565b60006200067260168362000545565b91506200067f826200063a565b602082019050919050565b60006020820190508181036000830152620006a58162000663565b9050919050565b61254380620006bc6000396000f3fe608060405234801561001057600080fd5b50600436106100a95760003560e01c80638da5cb5b116100715780638da5cb5b1461012e57806398b6407d1461014c578063c28ecb071461017c578063c78613da14610198578063df9776cf146101b6578063f2fde38b146101d2576100a9565b8063435a7b90146100ae57806350c5f975146100ca5780636986f2e9146100e857806372c0c0a81461010657806379ba509714610124575b600080fd5b6100c860048036038101906100c39190611800565b6101ee565b005b6100d261027b565b6040516100df9190611846565b60405180910390f35b6100f0610308565b6040516100fd9190611846565b60405180910390f35b61010e610330565b60405161011b9190611870565b60405180910390f35b61012c61035a565b005b6101366104f1565b6040516101439190611870565b60405180910390f35b610166600480360381019061016191906119d1565b61051b565b6040516101739190611ab9565b60405180910390f35b61019660048036038101906101919190611b39565b6107c4565b005b6101a06109ad565b6040516101ad9190611ab9565b60405180910390f35b6101d060048036038101906101cb9190611b8c565b6109b7565b005b6101ec60048036038101906101e79190611800565b6109c9565b005b6101f66109dd565b80600960006101000a81548173ffffffffffffffffffffffffffffffffffffffff021916908373ffffffffffffffffffffffffffffffffffffffff16021790555080600a60006101000a81548173ffffffffffffffffffffffffffffffffffffffff021916908373ffffffffffffffffffffffffffffffffffffffff16021790555050565b600080610286610a6f565b90508073ffffffffffffffffffffffffffffffffffffffff166370a08231306040518263ffffffff1660e01b81526004016102c19190611870565b602060405180830381865afa1580156102de573d6000803e3d6000fd5b505050506040513d601f19601f820116820180604052508101906103029190611be5565b91505090565b6000600a670de0b6b3a764000060016103219190611c41565b61032b9190611cca565b905090565b6000600960009054906101000a900473ffffffffffffffffffffffffffffffffffffffff16905090565b600760009054906101000a900473ffffffffffffffffffffffffffffffffffffffff1673ffffffffffffffffffffffffffffffffffffffff163373ffffffffffffffffffffffffffffffffffffffff16146103ea576040517f08c379a00000000000000000000000000000000000000000000000000000000081526004016103e190611d58565b60405180910390fd5b6000600660009054906101000a900473ffffffffffffffffffffffffffffffffffffffff16905033600660006101000a81548173ffffffffffffffffffffffffffffffffffffffff021916908373ffffffffffffffffffffffffffffffffffffffff1602179055506000600760006101000a81548173ffffffffffffffffffffffffffffffffffffffff021916908373ffffffffffffffffffffffffffffffffffffffff1602179055503373ffffffffffffffffffffffffffffffffffffffff168173ffffffffffffffffffffffffffffffffffffffff167f8be0079c531659141344cd1fd0a4f28419497f9722a3daafe3b4186f6b6457e060405160405180910390a350565b6000600660009054906101000a900473ffffffffffffffffffffffffffffffffffffffff16905090565b6000600960009054906101000a900473ffffffffffffffffffffffffffffffffffffffff1673ffffffffffffffffffffffffffffffffffffffff163373ffffffffffffffffffffffffffffffffffffffff16146105a4576040517ff0f0d8f300000000000000000000000000000000000000000000000000000000815260040160405180910390fd5b60006105ba6008543063c28ecb0760e01b610a99565b905060006105c788610aca565b905060006105d488610aca565b90506106206040518060400160405280600e81526020017f70726f6d697365416464726573730000000000000000000000000000000000008152508385610dd59092919063ffffffff16565b61066a6040518060400160405280600b81526020017f75736572416464726573730000000000000000000000000000000000000000008152508285610dd59092919063ffffffff16565b6106b46040518060400160405280600781526020017f69706673436964000000000000000000000000000000000000000000000000008152508885610dd59092919063ffffffff16565b6106fe6040518060400160405280600981526020017f61727765617665496400000000000000000000000000000000000000000000008152508785610dd59092919063ffffffff16565b6107486040518060400160405280600e81526020017f656e6372797074656450726f6f660000000000000000000000000000000000008152508685610dd59092919063ffffffff16565b61077283600a670de0b6b3a764000060016107639190611c41565b61076d9190611cca565b610e08565b93508873ffffffffffffffffffffffffffffffffffffffff16847fea1fe969eb9425d4b455fdd44b55e1784f09ae22806df6a2bce7fce1a7d83b3660405160405180910390a350505095945050505050565b826005600082815260200190815260200160002060009054906101000a900473ffffffffffffffffffffffffffffffffffffffff1673ffffffffffffffffffffffffffffffffffffffff163373ffffffffffffffffffffffffffffffffffffffff1614610866576040517f08c379a000000000000000000000000000000000000000000000000000000000815260040161085d90611dea565b60405180910390fd5b6005600082815260200190815260200160002060006101000a81549073ffffffffffffffffffffffffffffffffffffffff0219169055807f7cc135e0cebb02c3480ae5d74d377283180a2601f8f644edf7987b009316c63a60405160405180910390a2600a60009054906101000a900473ffffffffffffffffffffffffffffffffffffffff1673ffffffffffffffffffffffffffffffffffffffff1663a2d0095e84846040518363ffffffff1660e01b8152600401610926929190611e19565b600060405180830381600087803b15801561094057600080fd5b505af1158015610954573d6000803e3d6000fd5b505050508273ffffffffffffffffffffffffffffffffffffffff16847f2b32f7b40fa9ebe1b1fb2ba5ade1624f47a6de66a11c02aa14cb85be8bfe84ea8460405161099f9190611e42565b60405180910390a350505050565b6000600854905090565b6109bf6109dd565b8060088190555050565b6109d16109dd565b6109da81610e3f565b50565b600660009054906101000a900473ffffffffffffffffffffffffffffffffffffffff1673ffffffffffffffffffffffffffffffffffffffff163373ffffffffffffffffffffffffffffffffffffffff1614610a6d576040517f08c379a0000000000000000000000000000000000000000000000000000000008152600401610a6490611ea9565b60405180910390fd5b565b6000600260009054906101000a900473ffffffffffffffffffffffffffffffffffffffff16905090565b610aa1611707565b610aa9611707565b610ac085858584610f6d909392919063ffffffff16565b9150509392505050565b606060008273ffffffffffffffffffffffffffffffffffffffff1660001b905060006040518060400160405280601081526020017f303132333435363738396162636465660000000000000000000000000000000081525090506000602a67ffffffffffffffff811115610b4157610b406118a6565b5b6040519080825280601f01601f191660200182016040528015610b735781602001600182028036833780820191505090505b5090507f300000000000000000000000000000000000000000000000000000000000000081600081518110610bab57610baa611ec9565b5b60200101907effffffffffffffffffffffffffffffffffffffffffffffffffffffffffffff1916908160001a9053507f780000000000000000000000000000000000000000000000000000000000000081600181518110610c0f57610c0e611ec9565b5b60200101907effffffffffffffffffffffffffffffffffffffffffffffffffffffffffffff1916908160001a90535060005b6014811015610dc95782600485600c84610c5b9190611ef8565b60208110610c6c57610c6b611ec9565b5b1a60f81b7effffffffffffffffffffffffffffffffffffffffffffffffffffffffffffff1916901c60f81c60ff1681518110610cab57610caa611ec9565b5b602001015160f81c60f81b82600283610cc49190611c41565b6002610cd09190611ef8565b81518110610ce157610ce0611ec9565b5b60200101907effffffffffffffffffffffffffffffffffffffffffffffffffffffffffffff1916908160001a90535082600f60f81b85600c84610d249190611ef8565b60208110610d3557610d34611ec9565b5b1a60f81b1660f81c60ff1681518110610d5157610d50611ec9565b5b602001015160f81c60f81b82600283610d6a9190611c41565b6003610d769190611ef8565b81518110610d8757610d86611ec9565b5b60200101907effffffffffffffffffffffffffffffffffffffffffffffffffffffffffffff1916908160001a9053508080610dc190611f2c565b915050610c41565b50809350505050919050565b610dec82846080015161101d90919063ffffffff16565b610e0381846080015161101d90919063ffffffff16565b505050565b6000610e37600360009054906101000a900473ffffffffffffffffffffffffffffffffffffffff168484611042565b905092915050565b3373ffffffffffffffffffffffffffffffffffffffff168173ffffffffffffffffffffffffffffffffffffffff1603610ead576040517f08c379a0000000000000000000000000000000000000000000000000000000008152600401610ea490611fc0565b60405180910390fd5b80600760006101000a81548173ffffffffffffffffffffffffffffffffffffffff021916908373ffffffffffffffffffffffffffffffffffffffff1602179055508073ffffffffffffffffffffffffffffffffffffffff16600660009054906101000a900473ffffffffffffffffffffffffffffffffffffffff1673ffffffffffffffffffffffffffffffffffffffff167fed8889f560326eb138920d842192f0eb3dd22b4f139c87a2c57538e05bae127860405160405180910390a350565b610f75611707565b610f85856080015161010061110c565b508385600001818152505082856020019073ffffffffffffffffffffffffffffffffffffffff16908173ffffffffffffffffffffffffffffffffffffffff16815250508185604001907bffffffffffffffffffffffffffffffffffffffffffffffffffffffff191690817bffffffffffffffffffffffffffffffffffffffffffffffffffffffff191681525050849050949350505050565b61102a8260038351611176565b61103d81836112fb90919063ffffffff16565b505050565b60008060045490506001816110579190611ef8565b6004819055506000633c6d41b960e01b600080876000015188604001518660028b6080015160000151604051602401611096979695949392919061209a565b604051602081830303815290604052907bffffffffffffffffffffffffffffffffffffffffffffffffffffffff19166020820180517bffffffffffffffffffffffffffffffffffffffffffffffffffffffff838183161783525050505090506111018683868461131d565b925050509392505050565b611114611774565b60006020836111239190612110565b1461114f576020826111359190612110565b60206111419190612141565b8261114c9190611ef8565b91505b81836020018181525050604051808452600081528281016020016040525082905092915050565b60178167ffffffffffffffff16116111ad576111a78160058460ff16901b60ff1617846114b290919063ffffffff16565b506112f6565b60ff8167ffffffffffffffff1611611203576111dc601860058460ff16901b17846114b290919063ffffffff16565b506111fd8167ffffffffffffffff166001856114d29092919063ffffffff16565b506112f5565b61ffff8167ffffffffffffffff161161125a57611233601960058460ff16901b17846114b290919063ffffffff16565b506112548167ffffffffffffffff166002856114d29092919063ffffffff16565b506112f4565b63ffffffff8167ffffffffffffffff16116112b35761128c601a60058460ff16901b17846114b290919063ffffffff16565b506112ad8167ffffffffffffffff166004856114d29092919063ffffffff16565b506112f3565b6112d0601b60058460ff16901b17846114b290919063ffffffff16565b506112f18167ffffffffffffffff166008856114d29092919063ffffffff16565b505b5b5b5b505050565b611303611774565b611315838460000151518485516114f4565b905092915050565b6000308460405160200161133292919061222e565b604051602081830303815290604052805190602001209050846005600083815260200190815260200160002060006101000a81548173ffffffffffffffffffffffffffffffffffffffff021916908373ffffffffffffffffffffffffffffffffffffffff160217905550807fb5e6e01e79f91267dc17b4e6314d5d4d03593d2ceee0fbb452b750bd70ea5af960405160405180910390a2600260009054906101000a900473ffffffffffffffffffffffffffffffffffffffff1673ffffffffffffffffffffffffffffffffffffffff16634000aea08685856040518463ffffffff1660e01b81526004016114289392919061225a565b6020604051808303816000875af1158015611447573d6000803e3d6000fd5b505050506040513d601f19601f8201168201806040525081019061146b91906122d0565b6114aa576040517f08c379a00000000000000000000000000000000000000000000000000000000081526004016114a19061236f565b60405180910390fd5b949350505050565b6114ba611774565b6114ca83846000015151846115e3565b905092915050565b6114da611774565b6114eb848560000151518585611639565b90509392505050565b6114fc611774565b825182111561150a57600080fd5b8460200151828561151b9190611ef8565b11156115505761154f8560026115408860200151888761153b9190611ef8565b6116c7565b61154a9190611c41565b6116e3565b5b60008086518051876020830101935080888701111561156f5787860182525b60208701925050505b602084106115b657805182526020826115919190611ef8565b91506020816115a09190611ef8565b90506020846115af9190612141565b9350611578565b60006001856020036101000a03905080198251168184511681811785525050508692505050949350505050565b6115eb611774565b8360200151831061161157611610846002866020015161160b9190611c41565b6116e3565b5b8351805160208583010184815381860361162c576001820183525b5050508390509392505050565b611641611774565b846020015184836116529190611ef8565b111561167a57611679856002868561166a9190611ef8565b6116749190611c41565b6116e3565b5b600060018361010061168c91906124c2565b6116969190612141565b905085518386820101858319825116178152815185880111156116b95784870182525b505085915050949350505050565b6000818311156116d9578290506116dd565b8190505b92915050565b6000826000015190506116f6838361110c565b5061170183826112fb565b50505050565b6040518060a0016040528060008019168152602001600073ffffffffffffffffffffffffffffffffffffffff16815260200160007bffffffffffffffffffffffffffffffffffffffffffffffffffffffff191681526020016000815260200161176e611774565b81525090565b604051806040016040528060608152602001600081525090565b6000604051905090565b600080fd5b600080fd5b600073ffffffffffffffffffffffffffffffffffffffff82169050919050565b60006117cd826117a2565b9050919050565b6117dd816117c2565b81146117e857600080fd5b50565b6000813590506117fa816117d4565b92915050565b60006020828403121561181657611815611798565b5b6000611824848285016117eb565b91505092915050565b6000819050919050565b6118408161182d565b82525050565b600060208201905061185b6000830184611837565b92915050565b61186a816117c2565b82525050565b60006020820190506118856000830184611861565b92915050565b600080fd5b600080fd5b6000601f19601f8301169050919050565b7f4e487b7100000000000000000000000000000000000000000000000000000000600052604160045260246000fd5b6118de82611895565b810181811067ffffffffffffffff821117156118fd576118fc6118a6565b5b80604052505050565b600061191061178e565b905061191c82826118d5565b919050565b600067ffffffffffffffff82111561193c5761193b6118a6565b5b61194582611895565b9050602081019050919050565b82818337600083830152505050565b600061197461196f84611921565b611906565b9050828152602081018484840111156119905761198f611890565b5b61199b848285611952565b509392505050565b600082601f8301126119b8576119b761188b565b5b81356119c8848260208601611961565b91505092915050565b600080600080600060a086880312156119ed576119ec611798565b5b60006119fb888289016117eb565b9550506020611a0c888289016117eb565b945050604086013567ffffffffffffffff811115611a2d57611a2c61179d565b5b611a39888289016119a3565b935050606086013567ffffffffffffffff811115611a5a57611a5961179d565b5b611a66888289016119a3565b925050608086013567ffffffffffffffff811115611a8757611a8661179d565b5b611a93888289016119a3565b9150509295509295909350565b6000819050919050565b611ab381611aa0565b82525050565b6000602082019050611ace6000830184611aaa565b92915050565b611add81611aa0565b8114611ae857600080fd5b50565b600081359050611afa81611ad4565b92915050565b600060ff82169050919050565b611b1681611b00565b8114611b2157600080fd5b50565b600081359050611b3381611b0d565b92915050565b600080600060608486031215611b5257611b51611798565b5b6000611b6086828701611aeb565b9350506020611b71868287016117eb565b9250506040611b8286828701611b24565b9150509250925092565b600060208284031215611ba257611ba1611798565b5b6000611bb084828501611aeb565b91505092915050565b611bc28161182d565b8114611bcd57600080fd5b50565b600081519050611bdf81611bb9565b92915050565b600060208284031215611bfb57611bfa611798565b5b6000611c0984828501611bd0565b91505092915050565b7f4e487b7100000000000000000000000000000000000000000000000000000000600052601160045260246000fd5b6000611c4c8261182d565b9150611c578361182d565b9250817fffffffffffffffffffffffffffffffffffffffffffffffffffffffffffffffff0483118215151615611c9057611c8f611c12565b5b828202905092915050565b7f4e487b7100000000000000000000000000000000000000000000000000000000600052601260045260246000fd5b6000611cd58261182d565b9150611ce08361182d565b925082611cf057611cef611c9b565b5b828204905092915050565b600082825260208201905092915050565b7f4d7573742062652070726f706f736564206f776e657200000000000000000000600082015250565b6000611d42601683611cfb565b9150611d4d82611d0c565b602082019050919050565b60006020820190508181036000830152611d7181611d35565b9050919050565b7f536f75726365206d75737420626520746865206f7261636c65206f662074686560008201527f2072657175657374000000000000000000000000000000000000000000000000602082015250565b6000611dd4602883611cfb565b9150611ddf82611d78565b604082019050919050565b60006020820190508181036000830152611e0381611dc7565b9050919050565b611e1381611b00565b82525050565b6000604082019050611e2e6000830185611861565b611e3b6020830184611e0a565b9392505050565b6000602082019050611e576000830184611e0a565b92915050565b7f4f6e6c792063616c6c61626c65206279206f776e657200000000000000000000600082015250565b6000611e93601683611cfb565b9150611e9e82611e5d565b602082019050919050565b60006020820190508181036000830152611ec281611e86565b9050919050565b7f4e487b7100000000000000000000000000000000000000000000000000000000600052603260045260246000fd5b6000611f038261182d565b9150611f0e8361182d565b9250828201905080821115611f2657611f25611c12565b5b92915050565b6000611f378261182d565b91507fffffffffffffffffffffffffffffffffffffffffffffffffffffffffffffffff8203611f6957611f68611c12565b5b600182019050919050565b7f43616e6e6f74207472616e7366657220746f2073656c66000000000000000000600082015250565b6000611faa601783611cfb565b9150611fb582611f74565b602082019050919050565b60006020820190508181036000830152611fd981611f9d565b9050919050565b60007fffffffff0000000000000000000000000000000000000000000000000000000082169050919050565b61201581611fe0565b82525050565b600081519050919050565b600082825260208201905092915050565b60005b8381101561205557808201518184015260208101905061203a565b60008484015250505050565b600061206c8261201b565b6120768185612026565b9350612086818560208601612037565b61208f81611895565b840191505092915050565b600060e0820190506120af600083018a611861565b6120bc6020830189611837565b6120c96040830188611aaa565b6120d6606083018761200c565b6120e36080830186611837565b6120f060a0830185611837565b81810360c08301526121028184612061565b905098975050505050505050565b600061211b8261182d565b91506121268361182d565b92508261213657612135611c9b565b5b828206905092915050565b600061214c8261182d565b91506121578361182d565b925082820390508181111561216f5761216e611c12565b5b92915050565b6000819050919050565b600061219a612195612190846117a2565b612175565b6117a2565b9050919050565b60006121ac8261217f565b9050919050565b60006121be826121a1565b9050919050565b60008160601b9050919050565b60006121dd826121c5565b9050919050565b60006121ef826121d2565b9050919050565b612207612202826121b3565b6121e4565b82525050565b6000819050919050565b6122286122238261182d565b61220d565b82525050565b600061223a82856121f6565b60148201915061224a8284612217565b6020820191508190509392505050565b600060608201905061226f6000830186611861565b61227c6020830185611837565b818103604083015261228e8184612061565b9050949350505050565b60008115159050919050565b6122ad81612298565b81146122b857600080fd5b50565b6000815190506122ca816122a4565b92915050565b6000602082840312156122e6576122e5611798565b5b60006122f4848285016122bb565b91505092915050565b7f756e61626c6520746f207472616e73666572416e6443616c6c20746f206f726160008201527f636c650000000000000000000000000000000000000000000000000000000000602082015250565b6000612359602383611cfb565b9150612364826122fd565b604082019050919050565b600060208201905081810360008301526123888161234c565b9050919050565b60008160011c9050919050565b6000808291508390505b60018511156123e6578086048111156123c2576123c1611c12565b5b60018516156123d15780820291505b80810290506123df8561238f565b94506123a6565b94509492505050565b6000826123ff57600190506124bb565b8161240d57600090506124bb565b8160018114612423576002811461242d5761245c565b60019150506124bb565b60ff84111561243f5761243e611c12565b5b8360020a91508482111561245657612455611c12565b5b506124bb565b5060208310610133831016604e8410600b84101617156124915782820a90508381111561248c5761248b611c12565b5b6124bb565b61249e848484600161239c565b925090508184048111156124b5576124b4611c12565b5b81810290505b9392505050565b60006124cd8261182d565b91506124d88361182d565b92506125057fffffffffffffffffffffffffffffffffffffffffffffffffffffffffffffffff84846123ef565b90509291505056fea2646970667358221220b22c4f4e96c9c3765e88e7816ed3ecb68e5017ea907b56dc7f123b5af8668b8a64736f6c63430008100033",
  "devdoc": {
    "author": "polarzero",
    "kind": "dev",
    "methods": {
      "constructor": {
        "params": {
          "_linkTokenContract": "(Mumbai): 0x326C977E6efc84E512bB9C30f76E30c160eD06FB",
          "_oracleContract": "(Mumbai): 0x2BB8Dd9C16edeF313eb9ccBd5F42A8b577cB1E3c",
          "_promiseFactoryContract": ": The address of the PromiseFactory contract"
        }
      },
      "fulfillStorageStatusUpdate(bytes32,address,uint8)": {
        "details": "Only the Chainlink oracle can call this function",
        "params": {
          "_backupStatus": "The storage status of the promise -> We're receiving _backupStatus instead of _storageStatus because the Node is confused about that _storage keyword, so it's better to change it only in that job.",
          "_promiseAddress": "The address of the promise contract",
          "_requestId": "The request ID"
        }
      },
      "requestStorageStatusUpdate(address,address,string,string,string)": {
        "details": "Only the PromiseFactory contract can call this function (it will after creating a new promise)",
        "params": {
          "_arweaveId": "The Arweave ID of the promise content",
          "_encryptedProof": "The encrypted string containing the user address, the IPFS hash and the Arweave ID",
          "_ipfsCid": "The IPFS CID of the promise content",
          "_promiseAddress": "The address of the promise contract",
          "_userAddress": "The address of the user who created the promise"
        }
      },
      "setOracleJobId(bytes32)": {
        "params": {
          "_oracleJobId": "The oracle job ID"
        }
      },
      "setPromiseFactoryContract(address)": {
        "params": {
          "_promiseFactoryContract": ": The address of the PromiseFactory contract"
        }
      }
    },
    "title": "VerifyStorage",
    "version": 1
  },
  "userdoc": {
    "kind": "user",
    "methods": {
      "acceptOwnership()": {
        "notice": "Allows an ownership transfer to be completed by the recipient."
      },
      "constructor": {
        "notice": "Initialize the link token and target oracle"
      },
      "fulfillStorageStatusUpdate(bytes32,address,uint8)": {
        "notice": "Callback function used by the oracleto return the promise storage status"
      },
      "owner()": {
        "notice": "Get the current owner"
      },
      "requestStorageStatusUpdate(address,address,string,string,string)": {
        "notice": "Request a promise storage status to be updated"
      },
      "setOracleJobId(bytes32)": {
        "notice": "Set the oracle job ID"
      },
      "setPromiseFactoryContract(address)": {
        "notice": "Set the address of the PromiseFactory contract"
      },
      "transferOwnership(address)": {
        "notice": "Allows an owner to begin transferring ownership to a new address, pending."
      }
    },
    "notice": "Sends a request to the Chainlink oracle to verify the IPFS & Arweave hashes of a promise contract - If the promise has been created through the website, a string containing the user address, the IPFS hash and the Arweave ID will be encrypted along with a secret key and sent with the contract creation arguments. It will be decrypted by making a request to the Chainlink Node, with the help of an external adapter. The latter will decrypt the string and verify it does indeed contain the correct IPFS & Arweave hashes. -> It allows us to make sure the promise links to a permanent storage for the content, and that this content is the one the user uploaded to both platforms. - The users can still create promises without using the website, in which case the hashes will be sent as arguments to the contract constructor. In this case, the oracle will simply not be able to verify the hashes, therefore the website will not be able to display a 'verified' badge.",
    "version": 1
  },
  "storageLayout": {
    "storage": [
      {
        "astId": 319,
        "contract": "contracts/VerifyStorage.sol:VerifyStorage",
        "label": "s_ens",
        "offset": 0,
        "slot": "0",
        "type": "t_contract(ENSInterface)1156"
      },
      {
        "astId": 321,
        "contract": "contracts/VerifyStorage.sol:VerifyStorage",
        "label": "s_ensNode",
        "offset": 0,
        "slot": "1",
        "type": "t_bytes32"
      },
      {
        "astId": 324,
        "contract": "contracts/VerifyStorage.sol:VerifyStorage",
        "label": "s_link",
        "offset": 0,
        "slot": "2",
        "type": "t_contract(LinkTokenInterface)1251"
      },
      {
        "astId": 327,
        "contract": "contracts/VerifyStorage.sol:VerifyStorage",
        "label": "s_oracle",
        "offset": 0,
        "slot": "3",
        "type": "t_contract(OperatorInterface)1331"
      },
      {
        "astId": 330,
        "contract": "contracts/VerifyStorage.sol:VerifyStorage",
        "label": "s_requestCount",
        "offset": 0,
        "slot": "4",
        "type": "t_uint256"
      },
      {
        "astId": 334,
        "contract": "contracts/VerifyStorage.sol:VerifyStorage",
        "label": "s_pendingRequests",
        "offset": 0,
        "slot": "5",
        "type": "t_mapping(t_bytes32,t_address)"
      },
      {
        "astId": 889,
        "contract": "contracts/VerifyStorage.sol:VerifyStorage",
        "label": "s_owner",
        "offset": 0,
        "slot": "6",
        "type": "t_address"
      },
      {
        "astId": 891,
        "contract": "contracts/VerifyStorage.sol:VerifyStorage",
        "label": "s_pendingOwner",
        "offset": 0,
        "slot": "7",
        "type": "t_address"
      },
      {
        "astId": 3939,
        "contract": "contracts/VerifyStorage.sol:VerifyStorage",
        "label": "s_oracleJobId",
        "offset": 0,
        "slot": "8",
        "type": "t_bytes32"
      },
      {
        "astId": 3941,
        "contract": "contracts/VerifyStorage.sol:VerifyStorage",
        "label": "s_promiseFactoryContract",
        "offset": 0,
        "slot": "9",
        "type": "t_address"
      },
      {
        "astId": 3944,
        "contract": "contracts/VerifyStorage.sol:VerifyStorage",
        "label": "s_promiseFactoryInterface",
        "offset": 0,
        "slot": "10",
        "type": "t_contract(IPromiseFactory)2686"
      }
    ],
    "types": {
      "t_address": {
        "encoding": "inplace",
        "label": "address",
        "numberOfBytes": "20"
      },
      "t_bytes32": {
        "encoding": "inplace",
        "label": "bytes32",
        "numberOfBytes": "32"
      },
      "t_contract(ENSInterface)1156": {
        "encoding": "inplace",
        "label": "contract ENSInterface",
        "numberOfBytes": "20"
      },
      "t_contract(IPromiseFactory)2686": {
        "encoding": "inplace",
        "label": "contract IPromiseFactory",
        "numberOfBytes": "20"
      },
      "t_contract(LinkTokenInterface)1251": {
        "encoding": "inplace",
        "label": "contract LinkTokenInterface",
        "numberOfBytes": "20"
      },
      "t_contract(OperatorInterface)1331": {
        "encoding": "inplace",
        "label": "contract OperatorInterface",
        "numberOfBytes": "20"
      },
      "t_mapping(t_bytes32,t_address)": {
        "encoding": "mapping",
        "key": "t_bytes32",
        "label": "mapping(bytes32 => address)",
        "numberOfBytes": "32",
        "value": "t_address"
      },
      "t_uint256": {
        "encoding": "inplace",
        "label": "uint256",
        "numberOfBytes": "32"
      }
    }
  }
}