{
  "address": "0x51649289e1C421AC9157d98F2aabc08a435Ed722",
  "abi": [
    {
      "inputs": [
        {
          "internalType": "address",
          "name": "_linkTokenContract",
          "type": "address"
        },
        {
          "internalType": "address",
          "name": "_oracleContract",
          "type": "address"
        },
        {
          "internalType": "address",
          "name": "_promiseFactoryContract",
          "type": "address"
        }
      ],
      "stateMutability": "nonpayable",
      "type": "constructor"
    },
    {
      "anonymous": false,
      "inputs": [
        {
          "indexed": true,
          "internalType": "bytes32",
          "name": "id",
          "type": "bytes32"
        }
      ],
      "name": "ChainlinkCancelled",
      "type": "event"
    },
    {
      "anonymous": false,
      "inputs": [
        {
          "indexed": true,
          "internalType": "bytes32",
          "name": "id",
          "type": "bytes32"
        }
      ],
      "name": "ChainlinkFulfilled",
      "type": "event"
    },
    {
      "anonymous": false,
      "inputs": [
        {
          "indexed": true,
          "internalType": "bytes32",
          "name": "id",
          "type": "bytes32"
        }
      ],
      "name": "ChainlinkRequested",
      "type": "event"
    },
    {
      "anonymous": false,
      "inputs": [
        {
          "indexed": false,
          "internalType": "address",
          "name": "funder",
          "type": "address"
        },
        {
          "indexed": false,
          "internalType": "uint256",
          "name": "amount",
          "type": "uint256"
        }
      ],
      "name": "ContractFunded",
      "type": "event"
    },
    {
      "anonymous": false,
      "inputs": [
        {
          "indexed": false,
          "internalType": "uint256",
          "name": "amount",
          "type": "uint256"
        }
      ],
      "name": "FundsWithdrawn",
      "type": "event"
    },
    {
      "anonymous": false,
      "inputs": [
        {
          "indexed": true,
          "internalType": "address",
          "name": "from",
          "type": "address"
        },
        {
          "indexed": true,
          "internalType": "address",
          "name": "to",
          "type": "address"
        }
      ],
      "name": "OwnershipTransferRequested",
      "type": "event"
    },
    {
      "anonymous": false,
      "inputs": [
        {
          "indexed": true,
          "internalType": "address",
          "name": "from",
          "type": "address"
        },
        {
          "indexed": true,
          "internalType": "address",
          "name": "to",
          "type": "address"
        }
      ],
      "name": "OwnershipTransferred",
      "type": "event"
    },
    {
      "anonymous": false,
      "inputs": [
        {
          "indexed": true,
          "internalType": "bytes32",
          "name": "requestId",
          "type": "bytes32"
        },
        {
          "indexed": false,
          "internalType": "string",
          "name": "username",
          "type": "string"
        }
      ],
      "name": "VerificationFailed",
      "type": "event"
    },
    {
      "anonymous": false,
      "inputs": [
        {
          "indexed": true,
          "internalType": "bytes32",
          "name": "requestId",
          "type": "bytes32"
        },
        {
          "indexed": false,
          "internalType": "string",
          "name": "username",
          "type": "string"
        }
      ],
      "name": "VerificationRequested",
      "type": "event"
    },
    {
      "anonymous": false,
      "inputs": [
        {
          "indexed": true,
          "internalType": "bytes32",
          "name": "requestId",
          "type": "bytes32"
        },
        {
          "indexed": false,
          "internalType": "string",
          "name": "username",
          "type": "string"
        },
        {
          "indexed": false,
          "internalType": "address",
          "name": "userAddress",
          "type": "address"
        },
        {
          "indexed": false,
          "internalType": "bool",
          "name": "verified",
          "type": "bool"
        }
      ],
      "name": "VerificationSuccessful",
      "type": "event"
    },
    {
      "inputs": [],
      "name": "acceptOwnership",
      "outputs": [],
      "stateMutability": "nonpayable",
      "type": "function"
    },
    {
      "inputs": [
        {
          "internalType": "address",
          "name": "_addr",
          "type": "address"
        }
      ],
      "name": "addressToString",
      "outputs": [
        {
          "internalType": "string",
          "name": "",
          "type": "string"
        }
      ],
      "stateMutability": "pure",
      "type": "function"
    },
    {
      "inputs": [
        {
          "internalType": "bytes32",
          "name": "_requestId",
          "type": "bytes32"
        },
        {
          "internalType": "string",
          "name": "_username",
          "type": "string"
        },
        {
          "internalType": "bool",
          "name": "_verified",
          "type": "bool"
        },
        {
          "internalType": "address",
          "name": "_userAddress",
          "type": "address"
        }
      ],
      "name": "fulfillVerification",
      "outputs": [],
      "stateMutability": "nonpayable",
      "type": "function"
    },
    {
      "inputs": [
        {
          "internalType": "uint256",
          "name": "_amount",
          "type": "uint256"
        }
      ],
      "name": "fundContract",
      "outputs": [],
      "stateMutability": "nonpayable",
      "type": "function"
    },
    {
      "inputs": [],
      "name": "getLinkBalance",
      "outputs": [
        {
          "internalType": "uint256",
          "name": "",
          "type": "uint256"
        }
      ],
      "stateMutability": "view",
      "type": "function"
    },
    {
      "inputs": [],
      "name": "getOracleJobId",
      "outputs": [
        {
          "internalType": "bytes32",
          "name": "",
          "type": "bytes32"
        }
      ],
      "stateMutability": "view",
      "type": "function"
    },
    {
      "inputs": [],
      "name": "getOraclePayment",
      "outputs": [
        {
          "internalType": "uint256",
          "name": "",
          "type": "uint256"
        }
      ],
      "stateMutability": "pure",
      "type": "function"
    },
    {
      "inputs": [],
      "name": "getPromiseFactoryContract",
      "outputs": [
        {
          "internalType": "address",
          "name": "",
          "type": "address"
        }
      ],
      "stateMutability": "view",
      "type": "function"
    },
    {
      "inputs": [],
      "name": "owner",
      "outputs": [
        {
          "internalType": "address",
          "name": "",
          "type": "address"
        }
      ],
      "stateMutability": "view",
      "type": "function"
    },
    {
      "inputs": [
        {
          "internalType": "string",
          "name": "_username",
          "type": "string"
        }
      ],
      "name": "requestVerification",
      "outputs": [
        {
          "internalType": "bytes32",
          "name": "requestId",
          "type": "bytes32"
        }
      ],
      "stateMutability": "nonpayable",
      "type": "function"
    },
    {
      "inputs": [
        {
          "internalType": "bytes32",
          "name": "_oracleJobId",
          "type": "bytes32"
        }
      ],
      "name": "setOracleJobId",
      "outputs": [],
      "stateMutability": "nonpayable",
      "type": "function"
    },
    {
      "inputs": [
        {
          "internalType": "address",
          "name": "_promiseFactoryContract",
          "type": "address"
        }
      ],
      "name": "setPromiseFactoryContract",
      "outputs": [],
      "stateMutability": "nonpayable",
      "type": "function"
    },
    {
      "inputs": [
        {
          "internalType": "address",
          "name": "to",
          "type": "address"
        }
      ],
      "name": "transferOwnership",
      "outputs": [],
      "stateMutability": "nonpayable",
      "type": "function"
    },
    {
      "inputs": [],
      "name": "withdrawLink",
      "outputs": [],
      "stateMutability": "nonpayable",
      "type": "function"
    }
  ],
  "transactionHash": "0xc3398c1fc2275b69de00def0eafc8188b259f74d947a4607f633f07a1fa8cc31",
  "args": [
    "0x326C977E6efc84E512bB9C30f76E30c160eD06FB",
    "0x2BB8Dd9C16edeF313eb9ccBd5F42A8b577cB1E3c",
    "0x9a26cA9509C6E2bBE7CcB59A1fbbfcf9DFf37f60"
  ],
  "numDeployments": 8,
  "solcInputHash": "100f89b4a0e41d0c5dcbeeb976f9976f",
  "bytecode": "0x608060405260016004557f32616465653930663861383634616531616234313338643036643939613830666008556000600c60146101000a81548160ff0219169083151502179055503480156200005557600080fd5b50604051620036c0380380620036c083398181016040528101906200007b919062000504565b338060008073ffffffffffffffffffffffffffffffffffffffff168273ffffffffffffffffffffffffffffffffffffffff1603620000f0576040517f08c379a0000000000000000000000000000000000000000000000000000000008152600401620000e790620005c1565b60405180910390fd5b81600660006101000a81548173ffffffffffffffffffffffffffffffffffffffff021916908373ffffffffffffffffffffffffffffffffffffffff160217905550600073ffffffffffffffffffffffffffffffffffffffff168173ffffffffffffffffffffffffffffffffffffffff161462000178576200017781620001b760201b60201c565b5b5050506200018c83620002e860201b60201c565b6200019d826200032c60201b60201c565b620001ae816200037060201b60201c565b505050620006c7565b3373ffffffffffffffffffffffffffffffffffffffff168173ffffffffffffffffffffffffffffffffffffffff160362000228576040517f08c379a00000000000000000000000000000000000000000000000000000000081526004016200021f9062000633565b60405180910390fd5b80600760006101000a81548173ffffffffffffffffffffffffffffffffffffffff021916908373ffffffffffffffffffffffffffffffffffffffff1602179055508073ffffffffffffffffffffffffffffffffffffffff16600660009054906101000a900473ffffffffffffffffffffffffffffffffffffffff1673ffffffffffffffffffffffffffffffffffffffff167fed8889f560326eb138920d842192f0eb3dd22b4f139c87a2c57538e05bae127860405160405180910390a350565b80600260006101000a81548173ffffffffffffffffffffffffffffffffffffffff021916908373ffffffffffffffffffffffffffffffffffffffff16021790555050565b80600360006101000a81548173ffffffffffffffffffffffffffffffffffffffff021916908373ffffffffffffffffffffffffffffffffffffffff16021790555050565b620003806200040560201b60201c565b80600960006101000a81548173ffffffffffffffffffffffffffffffffffffffff021916908373ffffffffffffffffffffffffffffffffffffffff16021790555080600a60006101000a81548173ffffffffffffffffffffffffffffffffffffffff021916908373ffffffffffffffffffffffffffffffffffffffff16021790555050565b600660009054906101000a900473ffffffffffffffffffffffffffffffffffffffff1673ffffffffffffffffffffffffffffffffffffffff163373ffffffffffffffffffffffffffffffffffffffff161462000498576040517f08c379a00000000000000000000000000000000000000000000000000000000081526004016200048f90620006a5565b60405180910390fd5b565b600080fd5b600073ffffffffffffffffffffffffffffffffffffffff82169050919050565b6000620004cc826200049f565b9050919050565b620004de81620004bf565b8114620004ea57600080fd5b50565b600081519050620004fe81620004d3565b92915050565b60008060006060848603121562000520576200051f6200049a565b5b60006200053086828701620004ed565b93505060206200054386828701620004ed565b92505060406200055686828701620004ed565b9150509250925092565b600082825260208201905092915050565b7f43616e6e6f7420736574206f776e657220746f207a65726f0000000000000000600082015250565b6000620005a960188362000560565b9150620005b68262000571565b602082019050919050565b60006020820190508181036000830152620005dc816200059a565b9050919050565b7f43616e6e6f74207472616e7366657220746f2073656c66000000000000000000600082015250565b60006200061b60178362000560565b91506200062882620005e3565b602082019050919050565b600060208201905081810360008301526200064e816200060c565b9050919050565b7f4f6e6c792063616c6c61626c65206279206f776e657200000000000000000000600082015250565b60006200068d60168362000560565b91506200069a8262000655565b602082019050919050565b60006020820190508181036000830152620006c0816200067e565b9050919050565b612fe980620006d76000396000f3fe608060405234801561001057600080fd5b50600436106100ea5760003560e01c806372c0c0a81161008c5780638dc654a2116100665780638dc654a214610225578063c78613da1461022f578063df9776cf1461024d578063f2fde38b14610269576100ea565b806372c0c0a8146101df57806379ba5097146101fd5780638da5cb5b14610207576100ea565b806350c5f975116100c857806350c5f975146101435780635e57966d146101615780636986f2e9146101915780636cbff42a146101af576100ea565b80632bde7979146100ef5780633519a2f81461010b578063435a7b9014610127575b600080fd5b61010960048036038101906101049190611ed3565b610285565b005b61012560048036038101906101209190611f8c565b61050b565b005b610141600480360381019061013c9190611fb9565b6107a0565b005b61014b61082d565b6040516101589190611ff5565b60405180910390f35b61017b60048036038101906101769190611fb9565b6108ba565b604051610188919061208f565b60405180910390f35b610199610bc5565b6040516101a69190611ff5565b60405180910390f35b6101c960048036038101906101c491906120b1565b610bed565b6040516101d69190612109565b60405180910390f35b6101e7610d81565b6040516101f49190612133565b60405180910390f35b610205610dab565b005b61020f610f42565b60405161021c9190612133565b60405180910390f35b61022d610f6c565b005b6102376111d7565b6040516102449190612109565b60405180910390f35b6102676004803603810190610262919061214e565b6111e1565b005b610283600480360381019061027e9190611fb9565b6111f3565b005b836005600082815260200190815260200160002060009054906101000a900473ffffffffffffffffffffffffffffffffffffffff1673ffffffffffffffffffffffffffffffffffffffff163373ffffffffffffffffffffffffffffffffffffffff1614610327576040517f08c379a000000000000000000000000000000000000000000000000000000000815260040161031e906121ed565b60405180910390fd5b6005600082815260200190815260200160002060006101000a81549073ffffffffffffffffffffffffffffffffffffffff0219169055807f7cc135e0cebb02c3480ae5d74d377283180a2601f8f644edf7987b009316c63a60405160405180910390a283600b90816103999190612419565b5081600c60006101000a81548173ffffffffffffffffffffffffffffffffffffffff021916908373ffffffffffffffffffffffffffffffffffffffff16021790555082600c60146101000a81548160ff02191690831515021790555082156104cb57600a60009054906101000a900473ffffffffffffffffffffffffffffffffffffffff1673ffffffffffffffffffffffffffffffffffffffff1663e31db57383866040518363ffffffff1660e01b81526004016104589291906124eb565b600060405180830381600087803b15801561047257600080fd5b505af1158015610486573d6000803e3d6000fd5b50505050847f11e51421fae5ce18b197a586401e292b3e0a8b6108ae67ade651f8bfbb7360308584866040516104be9392919061252a565b60405180910390a2610504565b847f1b274bac0e8bb49d3ad90709790a3bf2aa1b86313b4c1a7ae5af9cb7832f7204856040516104fb919061208f565b60405180910390a25b5050505050565b6000610515611207565b905060003073ffffffffffffffffffffffffffffffffffffffff1663095ea7b360e01b308560405160240161054b929190612568565b604051602081830303815290604052907bffffffffffffffffffffffffffffffffffffffffffffffffffffffff19166020820180517bffffffffffffffffffffffffffffffffffffffffffffffffffffffff83818316178352505050506040516105b591906125d8565b6000604051808303816000865af19150503d80600081146105f2576040519150601f19603f3d011682016040523d82523d6000602084013e6105f7565b606091505b505090508061063b576040517f08c379a00000000000000000000000000000000000000000000000000000000081526004016106329061263b565b60405180910390fd5b60003073ffffffffffffffffffffffffffffffffffffffff166323b872dd60e01b3330876040516024016106719392919061265b565b604051602081830303815290604052907bffffffffffffffffffffffffffffffffffffffffffffffffffffffff19166020820180517bffffffffffffffffffffffffffffffffffffffffffffffffffffffff83818316178352505050506040516106db91906125d8565b6000604051808303816000865af19150503d8060008114610718576040519150601f19603f3d011682016040523d82523d6000602084013e61071d565b606091505b5050905080610761576040517f08c379a0000000000000000000000000000000000000000000000000000000008152600401610758906126de565b60405180910390fd5b7f0939f6f4877faf071412e527bc4c6d0bd65ad077e52b57334f7765265647a7f13385604051610792929190612568565b60405180910390a150505050565b6107a8611231565b80600960006101000a81548173ffffffffffffffffffffffffffffffffffffffff021916908373ffffffffffffffffffffffffffffffffffffffff16021790555080600a60006101000a81548173ffffffffffffffffffffffffffffffffffffffff021916908373ffffffffffffffffffffffffffffffffffffffff16021790555050565b600080610838611207565b90508073ffffffffffffffffffffffffffffffffffffffff166370a08231306040518263ffffffff1660e01b81526004016108739190612133565b602060405180830381865afa158015610890573d6000803e3d6000fd5b505050506040513d601f19601f820116820180604052508101906108b49190612713565b91505090565b606060008273ffffffffffffffffffffffffffffffffffffffff1660001b905060006040518060400160405280601081526020017f303132333435363738396162636465660000000000000000000000000000000081525090506000602a67ffffffffffffffff81111561093157610930611d12565b5b6040519080825280601f01601f1916602001820160405280156109635781602001600182028036833780820191505090505b5090507f30000000000000000000000000000000000000000000000000000000000000008160008151811061099b5761099a612740565b5b60200101907effffffffffffffffffffffffffffffffffffffffffffffffffffffffffffff1916908160001a9053507f7800000000000000000000000000000000000000000000000000000000000000816001815181106109ff576109fe612740565b5b60200101907effffffffffffffffffffffffffffffffffffffffffffffffffffffffffffff1916908160001a90535060005b6014811015610bb95782600485600c84610a4b919061279e565b60208110610a5c57610a5b612740565b5b1a60f81b7effffffffffffffffffffffffffffffffffffffffffffffffffffffffffffff1916901c60f81c60ff1681518110610a9b57610a9a612740565b5b602001015160f81c60f81b82600283610ab491906127d2565b6002610ac0919061279e565b81518110610ad157610ad0612740565b5b60200101907effffffffffffffffffffffffffffffffffffffffffffffffffffffffffffff1916908160001a90535082600f60f81b85600c84610b14919061279e565b60208110610b2557610b24612740565b5b1a60f81b1660f81c60ff1681518110610b4157610b40612740565b5b602001015160f81c60f81b82600283610b5a91906127d2565b6003610b66919061279e565b81518110610b7757610b76612740565b5b60200101907effffffffffffffffffffffffffffffffffffffffffffffffffffffffffffff1916908160001a9053508080610bb19061282c565b915050610a31565b50809350505050919050565b6000600a670de0b6b3a76400006001610bde91906127d2565b610be891906128a3565b905090565b600080610c0460085430632bde797960e01b6112c3565b90506000610c11336108ba565b9050600081604051602001610c269190612982565b6040516020818303038152906040529050610c816040518060400160405280600881526020017f757365726e616d6500000000000000000000000000000000000000000000000081525086856112f49092919063ffffffff16565b610ccb6040518060400160405280600981526020017f7369676e6174757265000000000000000000000000000000000000000000000081525082856112f49092919063ffffffff16565b610d156040518060400160405280600781526020017f616464726573730000000000000000000000000000000000000000000000000081525083856112f49092919063ffffffff16565b610d3f83600a670de0b6b3a76400006001610d3091906127d2565b610d3a91906128a3565b611327565b9350837fc34ceda1e3b95f3c685a13629829c6cd83b0804b62f6362feaef6c1e61e740ca86604051610d71919061208f565b60405180910390a2505050919050565b6000600960009054906101000a900473ffffffffffffffffffffffffffffffffffffffff16905090565b600760009054906101000a900473ffffffffffffffffffffffffffffffffffffffff1673ffffffffffffffffffffffffffffffffffffffff163373ffffffffffffffffffffffffffffffffffffffff1614610e3b576040517f08c379a0000000000000000000000000000000000000000000000000000000008152600401610e32906129f0565b60405180910390fd5b6000600660009054906101000a900473ffffffffffffffffffffffffffffffffffffffff16905033600660006101000a81548173ffffffffffffffffffffffffffffffffffffffff021916908373ffffffffffffffffffffffffffffffffffffffff1602179055506000600760006101000a81548173ffffffffffffffffffffffffffffffffffffffff021916908373ffffffffffffffffffffffffffffffffffffffff1602179055503373ffffffffffffffffffffffffffffffffffffffff168173ffffffffffffffffffffffffffffffffffffffff167f8be0079c531659141344cd1fd0a4f28419497f9722a3daafe3b4186f6b6457e060405160405180910390a350565b6000600660009054906101000a900473ffffffffffffffffffffffffffffffffffffffff16905090565b610f74611231565b6000610f7e611207565b905060008173ffffffffffffffffffffffffffffffffffffffff166370a08231306040518263ffffffff1660e01b8152600401610fbb9190612133565b602060405180830381865afa158015610fd8573d6000803e3d6000fd5b505050506040513d601f19601f82011682018060405250810190610ffc9190612713565b905060003073ffffffffffffffffffffffffffffffffffffffff1663a9059cbb60e01b338573ffffffffffffffffffffffffffffffffffffffff166370a08231306040518263ffffffff1660e01b81526004016110599190612133565b602060405180830381865afa158015611076573d6000803e3d6000fd5b505050506040513d601f19601f8201168201806040525081019061109a9190612713565b6040516024016110ab929190612568565b604051602081830303815290604052907bffffffffffffffffffffffffffffffffffffffffffffffffffffffff19166020820180517bffffffffffffffffffffffffffffffffffffffffffffffffffffffff838183161783525050505060405161111591906125d8565b6000604051808303816000865af19150503d8060008114611152576040519150601f19603f3d011682016040523d82523d6000602084013e611157565b606091505b505090508061119b576040517f08c379a0000000000000000000000000000000000000000000000000000000008152600401611192906126de565b60405180910390fd5b7f4a37b25aab49761ecf63117fe82b98d750917451133cf797507bc9fb5b96044a826040516111ca9190611ff5565b60405180910390a1505050565b6000600854905090565b6111e9611231565b8060088190555050565b6111fb611231565b6112048161135e565b50565b6000600260009054906101000a900473ffffffffffffffffffffffffffffffffffffffff16905090565b600660009054906101000a900473ffffffffffffffffffffffffffffffffffffffff1673ffffffffffffffffffffffffffffffffffffffff163373ffffffffffffffffffffffffffffffffffffffff16146112c1576040517f08c379a00000000000000000000000000000000000000000000000000000000081526004016112b890612a5c565b60405180910390fd5b565b6112cb611c26565b6112d3611c26565b6112ea8585858461148c909392919063ffffffff16565b9150509392505050565b61130b82846080015161153c90919063ffffffff16565b61132281846080015161153c90919063ffffffff16565b505050565b6000611356600360009054906101000a900473ffffffffffffffffffffffffffffffffffffffff168484611561565b905092915050565b3373ffffffffffffffffffffffffffffffffffffffff168173ffffffffffffffffffffffffffffffffffffffff16036113cc576040517f08c379a00000000000000000000000000000000000000000000000000000000081526004016113c390612ac8565b60405180910390fd5b80600760006101000a81548173ffffffffffffffffffffffffffffffffffffffff021916908373ffffffffffffffffffffffffffffffffffffffff1602179055508073ffffffffffffffffffffffffffffffffffffffff16600660009054906101000a900473ffffffffffffffffffffffffffffffffffffffff1673ffffffffffffffffffffffffffffffffffffffff167fed8889f560326eb138920d842192f0eb3dd22b4f139c87a2c57538e05bae127860405160405180910390a350565b611494611c26565b6114a4856080015161010061162b565b508385600001818152505082856020019073ffffffffffffffffffffffffffffffffffffffff16908173ffffffffffffffffffffffffffffffffffffffff16815250508185604001907bffffffffffffffffffffffffffffffffffffffffffffffffffffffff191690817bffffffffffffffffffffffffffffffffffffffffffffffffffffffff191681525050849050949350505050565b6115498260038351611695565b61155c818361181a90919063ffffffff16565b505050565b6000806004549050600181611576919061279e565b6004819055506000633c6d41b960e01b600080876000015188604001518660028b60800151600001516040516024016115b59796959493929190612b6d565b604051602081830303815290604052907bffffffffffffffffffffffffffffffffffffffffffffffffffffffff19166020820180517bffffffffffffffffffffffffffffffffffffffffffffffffffffffff838183161783525050505090506116208683868461183c565b925050509392505050565b611633611c93565b60006020836116429190612be3565b1461166e576020826116549190612be3565b60206116609190612c14565b8261166b919061279e565b91505b81836020018181525050604051808452600081528281016020016040525082905092915050565b60178167ffffffffffffffff16116116cc576116c68160058460ff16901b60ff1617846119d190919063ffffffff16565b50611815565b60ff8167ffffffffffffffff1611611722576116fb601860058460ff16901b17846119d190919063ffffffff16565b5061171c8167ffffffffffffffff166001856119f19092919063ffffffff16565b50611814565b61ffff8167ffffffffffffffff161161177957611752601960058460ff16901b17846119d190919063ffffffff16565b506117738167ffffffffffffffff166002856119f19092919063ffffffff16565b50611813565b63ffffffff8167ffffffffffffffff16116117d2576117ab601a60058460ff16901b17846119d190919063ffffffff16565b506117cc8167ffffffffffffffff166004856119f19092919063ffffffff16565b50611812565b6117ef601b60058460ff16901b17846119d190919063ffffffff16565b506118108167ffffffffffffffff166008856119f19092919063ffffffff16565b505b5b5b5b505050565b611822611c93565b61183483846000015151848551611a13565b905092915050565b60003084604051602001611851929190612cf7565b604051602081830303815290604052805190602001209050846005600083815260200190815260200160002060006101000a81548173ffffffffffffffffffffffffffffffffffffffff021916908373ffffffffffffffffffffffffffffffffffffffff160217905550807fb5e6e01e79f91267dc17b4e6314d5d4d03593d2ceee0fbb452b750bd70ea5af960405160405180910390a2600260009054906101000a900473ffffffffffffffffffffffffffffffffffffffff1673ffffffffffffffffffffffffffffffffffffffff16634000aea08685856040518463ffffffff1660e01b815260040161194793929190612d23565b6020604051808303816000875af1158015611966573d6000803e3d6000fd5b505050506040513d601f19601f8201168201806040525081019061198a9190612d76565b6119c9576040517f08c379a00000000000000000000000000000000000000000000000000000000081526004016119c090612e15565b60405180910390fd5b949350505050565b6119d9611c93565b6119e98384600001515184611b02565b905092915050565b6119f9611c93565b611a0a848560000151518585611b58565b90509392505050565b611a1b611c93565b8251821115611a2957600080fd5b84602001518285611a3a919061279e565b1115611a6f57611a6e856002611a5f88602001518887611a5a919061279e565b611be6565b611a6991906127d2565b611c02565b5b600080865180518760208301019350808887011115611a8e5787860182525b60208701925050505b60208410611ad55780518252602082611ab0919061279e565b9150602081611abf919061279e565b9050602084611ace9190612c14565b9350611a97565b60006001856020036101000a03905080198251168184511681811785525050508692505050949350505050565b611b0a611c93565b83602001518310611b3057611b2f8460028660200151611b2a91906127d2565b611c02565b5b83518051602085830101848153818603611b4b576001820183525b5050508390509392505050565b611b60611c93565b84602001518483611b71919061279e565b1115611b9957611b988560028685611b89919061279e565b611b9391906127d2565b611c02565b5b6000600183610100611bab9190612f68565b611bb59190612c14565b90508551838682010185831982511617815281518588011115611bd85784870182525b505085915050949350505050565b600081831115611bf857829050611bfc565b8190505b92915050565b600082600001519050611c15838361162b565b50611c20838261181a565b50505050565b6040518060a0016040528060008019168152602001600073ffffffffffffffffffffffffffffffffffffffff16815260200160007bffffffffffffffffffffffffffffffffffffffffffffffffffffffff1916815260200160008152602001611c8d611c93565b81525090565b604051806040016040528060608152602001600081525090565b6000604051905090565b600080fd5b600080fd5b6000819050919050565b611cd481611cc1565b8114611cdf57600080fd5b50565b600081359050611cf181611ccb565b92915050565b600080fd5b600080fd5b6000601f19601f8301169050919050565b7f4e487b7100000000000000000000000000000000000000000000000000000000600052604160045260246000fd5b611d4a82611d01565b810181811067ffffffffffffffff82111715611d6957611d68611d12565b5b80604052505050565b6000611d7c611cad565b9050611d888282611d41565b919050565b600067ffffffffffffffff821115611da857611da7611d12565b5b611db182611d01565b9050602081019050919050565b82818337600083830152505050565b6000611de0611ddb84611d8d565b611d72565b905082815260208101848484011115611dfc57611dfb611cfc565b5b611e07848285611dbe565b509392505050565b600082601f830112611e2457611e23611cf7565b5b8135611e34848260208601611dcd565b91505092915050565b60008115159050919050565b611e5281611e3d565b8114611e5d57600080fd5b50565b600081359050611e6f81611e49565b92915050565b600073ffffffffffffffffffffffffffffffffffffffff82169050919050565b6000611ea082611e75565b9050919050565b611eb081611e95565b8114611ebb57600080fd5b50565b600081359050611ecd81611ea7565b92915050565b60008060008060808587031215611eed57611eec611cb7565b5b6000611efb87828801611ce2565b945050602085013567ffffffffffffffff811115611f1c57611f1b611cbc565b5b611f2887828801611e0f565b9350506040611f3987828801611e60565b9250506060611f4a87828801611ebe565b91505092959194509250565b6000819050919050565b611f6981611f56565b8114611f7457600080fd5b50565b600081359050611f8681611f60565b92915050565b600060208284031215611fa257611fa1611cb7565b5b6000611fb084828501611f77565b91505092915050565b600060208284031215611fcf57611fce611cb7565b5b6000611fdd84828501611ebe565b91505092915050565b611fef81611f56565b82525050565b600060208201905061200a6000830184611fe6565b92915050565b600081519050919050565b600082825260208201905092915050565b60005b8381101561204a57808201518184015260208101905061202f565b60008484015250505050565b600061206182612010565b61206b818561201b565b935061207b81856020860161202c565b61208481611d01565b840191505092915050565b600060208201905081810360008301526120a98184612056565b905092915050565b6000602082840312156120c7576120c6611cb7565b5b600082013567ffffffffffffffff8111156120e5576120e4611cbc565b5b6120f184828501611e0f565b91505092915050565b61210381611cc1565b82525050565b600060208201905061211e60008301846120fa565b92915050565b61212d81611e95565b82525050565b60006020820190506121486000830184612124565b92915050565b60006020828403121561216457612163611cb7565b5b600061217284828501611ce2565b91505092915050565b7f536f75726365206d75737420626520746865206f7261636c65206f662074686560008201527f2072657175657374000000000000000000000000000000000000000000000000602082015250565b60006121d760288361201b565b91506121e28261217b565b604082019050919050565b60006020820190508181036000830152612206816121ca565b9050919050565b7f4e487b7100000000000000000000000000000000000000000000000000000000600052602260045260246000fd5b6000600282049050600182168061225457607f821691505b6020821081036122675761226661220d565b5b50919050565b60008190508160005260206000209050919050565b60006020601f8301049050919050565b600082821b905092915050565b6000600883026122cf7fffffffffffffffffffffffffffffffffffffffffffffffffffffffffffffffff82612292565b6122d98683612292565b95508019841693508086168417925050509392505050565b6000819050919050565b600061231661231161230c84611f56565b6122f1565b611f56565b9050919050565b6000819050919050565b612330836122fb565b61234461233c8261231d565b84845461229f565b825550505050565b600090565b61235961234c565b612364818484612327565b505050565b5b818110156123885761237d600082612351565b60018101905061236a565b5050565b601f8211156123cd5761239e8161226d565b6123a784612282565b810160208510156123b6578190505b6123ca6123c285612282565b830182612369565b50505b505050565b600082821c905092915050565b60006123f0600019846008026123d2565b1980831691505092915050565b600061240983836123df565b9150826002028217905092915050565b61242282612010565b67ffffffffffffffff81111561243b5761243a611d12565b5b612445825461223c565b61245082828561238c565b600060209050601f8311600181146124835760008415612471578287015190505b61247b85826123fd565b8655506124e3565b601f1984166124918661226d565b60005b828110156124b957848901518255600182019150602085019450602081019050612494565b868310156124d657848901516124d2601f8916826123df565b8355505b6001600288020188555050505b505050505050565b60006040820190506125006000830185612124565b81810360208301526125128184612056565b90509392505050565b61252481611e3d565b82525050565b600060608201905081810360008301526125448186612056565b90506125536020830185612124565b612560604083018461251b565b949350505050565b600060408201905061257d6000830185612124565b61258a6020830184611fe6565b9392505050565b600081519050919050565b600081905092915050565b60006125b282612591565b6125bc818561259c565b93506125cc81856020860161202c565b80840191505092915050565b60006125e482846125a7565b915081905092915050565b7f556e61626c6520746f20617070726f7665000000000000000000000000000000600082015250565b600061262560118361201b565b9150612630826125ef565b602082019050919050565b6000602082019050818103600083015261265481612618565b9050919050565b60006060820190506126706000830186612124565b61267d6020830185612124565b61268a6040830184611fe6565b949350505050565b7f556e61626c6520746f207472616e736665720000000000000000000000000000600082015250565b60006126c860128361201b565b91506126d382612692565b602082019050919050565b600060208201905081810360008301526126f7816126bb565b9050919050565b60008151905061270d81611f60565b92915050565b60006020828403121561272957612728611cb7565b5b6000612737848285016126fe565b91505092915050565b7f4e487b7100000000000000000000000000000000000000000000000000000000600052603260045260246000fd5b7f4e487b7100000000000000000000000000000000000000000000000000000000600052601160045260246000fd5b60006127a982611f56565b91506127b483611f56565b92508282019050808211156127cc576127cb61276f565b5b92915050565b60006127dd82611f56565b91506127e883611f56565b9250817fffffffffffffffffffffffffffffffffffffffffffffffffffffffffffffffff04831182151516156128215761282061276f565b5b828202905092915050565b600061283782611f56565b91507fffffffffffffffffffffffffffffffffffffffffffffffffffffffffffffffff82036128695761286861276f565b5b600182019050919050565b7f4e487b7100000000000000000000000000000000000000000000000000000000600052601260045260246000fd5b60006128ae82611f56565b91506128b983611f56565b9250826128c9576128c8612874565b5b828204905092915050565b600081905092915050565b7f566572696679696e67206d792054776974746572206163636f756e7420666f7260008201527f2045544820616464726573732000000000000000000000000000000000000000602082015250565b600061293b602d836128d4565b9150612946826128df565b602d82019050919050565b600061295c82612010565b61296681856128d4565b935061297681856020860161202c565b80840191505092915050565b600061298d8261292e565b91506129998284612951565b915081905092915050565b7f4d7573742062652070726f706f736564206f776e657200000000000000000000600082015250565b60006129da60168361201b565b91506129e5826129a4565b602082019050919050565b60006020820190508181036000830152612a09816129cd565b9050919050565b7f4f6e6c792063616c6c61626c65206279206f776e657200000000000000000000600082015250565b6000612a4660168361201b565b9150612a5182612a10565b602082019050919050565b60006020820190508181036000830152612a7581612a39565b9050919050565b7f43616e6e6f74207472616e7366657220746f2073656c66000000000000000000600082015250565b6000612ab260178361201b565b9150612abd82612a7c565b602082019050919050565b60006020820190508181036000830152612ae181612aa5565b9050919050565b60007fffffffff0000000000000000000000000000000000000000000000000000000082169050919050565b612b1d81612ae8565b82525050565b600082825260208201905092915050565b6000612b3f82612591565b612b498185612b23565b9350612b5981856020860161202c565b612b6281611d01565b840191505092915050565b600060e082019050612b82600083018a612124565b612b8f6020830189611fe6565b612b9c60408301886120fa565b612ba96060830187612b14565b612bb66080830186611fe6565b612bc360a0830185611fe6565b81810360c0830152612bd58184612b34565b905098975050505050505050565b6000612bee82611f56565b9150612bf983611f56565b925082612c0957612c08612874565b5b828206905092915050565b6000612c1f82611f56565b9150612c2a83611f56565b9250828203905081811115612c4257612c4161276f565b5b92915050565b6000612c63612c5e612c5984611e75565b6122f1565b611e75565b9050919050565b6000612c7582612c48565b9050919050565b6000612c8782612c6a565b9050919050565b60008160601b9050919050565b6000612ca682612c8e565b9050919050565b6000612cb882612c9b565b9050919050565b612cd0612ccb82612c7c565b612cad565b82525050565b6000819050919050565b612cf1612cec82611f56565b612cd6565b82525050565b6000612d038285612cbf565b601482019150612d138284612ce0565b6020820191508190509392505050565b6000606082019050612d386000830186612124565b612d456020830185611fe6565b8181036040830152612d578184612b34565b9050949350505050565b600081519050612d7081611e49565b92915050565b600060208284031215612d8c57612d8b611cb7565b5b6000612d9a84828501612d61565b91505092915050565b7f756e61626c6520746f207472616e73666572416e6443616c6c20746f206f726160008201527f636c650000000000000000000000000000000000000000000000000000000000602082015250565b6000612dff60238361201b565b9150612e0a82612da3565b604082019050919050565b60006020820190508181036000830152612e2e81612df2565b9050919050565b60008160011c9050919050565b6000808291508390505b6001851115612e8c57808604811115612e6857612e6761276f565b5b6001851615612e775780820291505b8081029050612e8585612e35565b9450612e4c565b94509492505050565b600082612ea55760019050612f61565b81612eb35760009050612f61565b8160018114612ec95760028114612ed357612f02565b6001915050612f61565b60ff841115612ee557612ee461276f565b5b8360020a915084821115612efc57612efb61276f565b5b50612f61565b5060208310610133831016604e8410600b8410161715612f375782820a905083811115612f3257612f3161276f565b5b612f61565b612f448484846001612e42565b92509050818404811115612f5b57612f5a61276f565b5b81810290505b9392505050565b6000612f7382611f56565b9150612f7e83611f56565b9250612fab7fffffffffffffffffffffffffffffffffffffffffffffffffffffffffffffffff8484612e95565b90509291505056fea264697066735822122092a2e0f1ed2a2afeecd7eeae167552353a09e3d90636a3a4780f65262fac672364736f6c63430008100033",
  "devdoc": {
    "author": "polarzero",
    "kind": "dev",
    "methods": {
      "addressToString(address)": {
        "params": {
          "_addr": "The address to convert"
        }
      },
      "constructor": {
        "params": {
          "_linkTokenContract": "(Mumbai): 0x326C977E6efc84E512bB9C30f76E30c160eD06FB",
          "_oracleContract": "(Mumbai): 0x2BB8Dd9C16edeF313eb9ccBd5F42A8b577cB1E3c",
          "_promiseFactoryContract": ": The address of the PromiseFactory contract"
        }
      },
      "fulfillVerification(bytes32,string,bool,address)": {
        "params": {
          "_requestId": "The request ID",
          "_username": "The username to verify",
          "_verified": "The verification result"
        }
      },
      "requestVerification(string)": {
        "params": {
          "_username": "The username to verify"
        }
      },
      "setPromiseFactoryContract(address)": {
        "details": "It also sets the promise factory contract interface with this address",
        "params": {
          "_promiseFactoryContract": "The address of the PromiseFactory contract"
        }
      }
    },
    "title": "VerifyTwitter",
    "version": 1
  },
  "userdoc": {
    "kind": "user",
    "methods": {
      "acceptOwnership()": {
        "notice": "Allows an ownership transfer to be completed by the recipient."
      },
      "addressToString(address)": {
        "notice": "Convert address to string"
      },
      "constructor": {
        "notice": "Initialize the link token and target oracle"
      },
      "fulfillVerification(bytes32,string,bool,address)": {
        "notice": "Callback function used by the oracle to return the verification result"
      },
      "fundContract(uint256)": {
        "notice": "Fund the contract with LINK and emit an event"
      },
      "owner()": {
        "notice": "Get the current owner"
      },
      "requestVerification(string)": {
        "notice": "Request a Twitter username to be verified"
      },
      "setPromiseFactoryContract(address)": {
        "notice": "Call the promise factory contract to verify a Twitter account"
      },
      "transferOwnership(address)": {
        "notice": "Allows an owner to begin transferring ownership to a new address, pending."
      },
      "withdrawLink()": {
        "notice": "Withdraw LINK from this contract"
      }
    },
    "notice": "Sends a request to the Chainlink oracle to verify a Twitter account - The oracle will return the username, address, and verification status - It uses a Chainlink node & an external adapter to interact with the Twitter API",
    "version": 1
  },
  "storageLayout": {
    "storage": [
      {
        "astId": 319,
        "contract": "contracts/VerifyTwitter.sol:VerifyTwitter",
        "label": "s_ens",
        "offset": 0,
        "slot": "0",
        "type": "t_contract(ENSInterface)1156"
      },
      {
        "astId": 321,
        "contract": "contracts/VerifyTwitter.sol:VerifyTwitter",
        "label": "s_ensNode",
        "offset": 0,
        "slot": "1",
        "type": "t_bytes32"
      },
      {
        "astId": 324,
        "contract": "contracts/VerifyTwitter.sol:VerifyTwitter",
        "label": "s_link",
        "offset": 0,
        "slot": "2",
        "type": "t_contract(LinkTokenInterface)1251"
      },
      {
        "astId": 327,
        "contract": "contracts/VerifyTwitter.sol:VerifyTwitter",
        "label": "s_oracle",
        "offset": 0,
        "slot": "3",
        "type": "t_contract(OperatorInterface)1331"
      },
      {
        "astId": 330,
        "contract": "contracts/VerifyTwitter.sol:VerifyTwitter",
        "label": "s_requestCount",
        "offset": 0,
        "slot": "4",
        "type": "t_uint256"
      },
      {
        "astId": 334,
        "contract": "contracts/VerifyTwitter.sol:VerifyTwitter",
        "label": "s_pendingRequests",
        "offset": 0,
        "slot": "5",
        "type": "t_mapping(t_bytes32,t_address)"
      },
      {
        "astId": 889,
        "contract": "contracts/VerifyTwitter.sol:VerifyTwitter",
        "label": "s_owner",
        "offset": 0,
        "slot": "6",
        "type": "t_address"
      },
      {
        "astId": 891,
        "contract": "contracts/VerifyTwitter.sol:VerifyTwitter",
        "label": "s_pendingOwner",
        "offset": 0,
        "slot": "7",
        "type": "t_address"
      },
      {
        "astId": 2409,
        "contract": "contracts/VerifyTwitter.sol:VerifyTwitter",
        "label": "s_oracleJobId",
        "offset": 0,
        "slot": "8",
        "type": "t_bytes32"
      },
      {
        "astId": 2411,
        "contract": "contracts/VerifyTwitter.sol:VerifyTwitter",
        "label": "s_promiseFactoryContract",
        "offset": 0,
        "slot": "9",
        "type": "t_address"
      },
      {
        "astId": 2414,
        "contract": "contracts/VerifyTwitter.sol:VerifyTwitter",
        "label": "s_promiseFactoryInterface",
        "offset": 0,
        "slot": "10",
        "type": "t_contract(IPromiseFactory)2383"
      },
      {
        "astId": 2416,
        "contract": "contracts/VerifyTwitter.sol:VerifyTwitter",
        "label": "s_username",
        "offset": 0,
        "slot": "11",
        "type": "t_string_storage"
      },
      {
        "astId": 2418,
        "contract": "contracts/VerifyTwitter.sol:VerifyTwitter",
        "label": "s_userAddress",
        "offset": 0,
        "slot": "12",
        "type": "t_address"
      },
      {
        "astId": 2421,
        "contract": "contracts/VerifyTwitter.sol:VerifyTwitter",
        "label": "s_verified",
        "offset": 20,
        "slot": "12",
        "type": "t_bool"
      }
    ],
    "types": {
      "t_address": {
        "encoding": "inplace",
        "label": "address",
        "numberOfBytes": "20"
      },
      "t_bool": {
        "encoding": "inplace",
        "label": "bool",
        "numberOfBytes": "1"
      },
      "t_bytes32": {
        "encoding": "inplace",
        "label": "bytes32",
        "numberOfBytes": "32"
      },
      "t_contract(ENSInterface)1156": {
        "encoding": "inplace",
        "label": "contract ENSInterface",
        "numberOfBytes": "20"
      },
      "t_contract(IPromiseFactory)2383": {
        "encoding": "inplace",
        "label": "contract IPromiseFactory",
        "numberOfBytes": "20"
      },
      "t_contract(LinkTokenInterface)1251": {
        "encoding": "inplace",
        "label": "contract LinkTokenInterface",
        "numberOfBytes": "20"
      },
      "t_contract(OperatorInterface)1331": {
        "encoding": "inplace",
        "label": "contract OperatorInterface",
        "numberOfBytes": "20"
      },
      "t_mapping(t_bytes32,t_address)": {
        "encoding": "mapping",
        "key": "t_bytes32",
        "label": "mapping(bytes32 => address)",
        "numberOfBytes": "32",
        "value": "t_address"
      },
      "t_string_storage": {
        "encoding": "bytes",
        "label": "string",
        "numberOfBytes": "32"
      },
      "t_uint256": {
        "encoding": "inplace",
        "label": "uint256",
        "numberOfBytes": "32"
      }
    }
  }
}