{
  "address": "0xE5A675f5b7e6d2268cB846Aac0E9cD47dBfb24ad",
  "abi": [
    {
      "inputs": [
        {
          "internalType": "address",
          "name": "_linkTokenContract",
          "type": "address"
        },
        {
          "internalType": "address",
          "name": "_oracleContract",
          "type": "address"
        },
        {
          "internalType": "address",
          "name": "_promiseFactoryContract",
          "type": "address"
        }
      ],
      "stateMutability": "nonpayable",
      "type": "constructor"
    },
    {
      "anonymous": false,
      "inputs": [
        {
          "indexed": true,
          "internalType": "bytes32",
          "name": "id",
          "type": "bytes32"
        }
      ],
      "name": "ChainlinkCancelled",
      "type": "event"
    },
    {
      "anonymous": false,
      "inputs": [
        {
          "indexed": true,
          "internalType": "bytes32",
          "name": "id",
          "type": "bytes32"
        }
      ],
      "name": "ChainlinkFulfilled",
      "type": "event"
    },
    {
      "anonymous": false,
      "inputs": [
        {
          "indexed": true,
          "internalType": "bytes32",
          "name": "id",
          "type": "bytes32"
        }
      ],
      "name": "ChainlinkRequested",
      "type": "event"
    },
    {
      "anonymous": false,
      "inputs": [
        {
          "indexed": true,
          "internalType": "address",
          "name": "from",
          "type": "address"
        },
        {
          "indexed": true,
          "internalType": "address",
          "name": "to",
          "type": "address"
        }
      ],
      "name": "OwnershipTransferRequested",
      "type": "event"
    },
    {
      "anonymous": false,
      "inputs": [
        {
          "indexed": true,
          "internalType": "address",
          "name": "from",
          "type": "address"
        },
        {
          "indexed": true,
          "internalType": "address",
          "name": "to",
          "type": "address"
        }
      ],
      "name": "OwnershipTransferred",
      "type": "event"
    },
    {
      "anonymous": false,
      "inputs": [
        {
          "indexed": true,
          "internalType": "bytes32",
          "name": "requestId",
          "type": "bytes32"
        },
        {
          "indexed": false,
          "internalType": "string",
          "name": "username",
          "type": "string"
        }
      ],
      "name": "VerificationFailed",
      "type": "event"
    },
    {
      "anonymous": false,
      "inputs": [
        {
          "indexed": true,
          "internalType": "bytes32",
          "name": "requestId",
          "type": "bytes32"
        },
        {
          "indexed": false,
          "internalType": "string",
          "name": "username",
          "type": "string"
        }
      ],
      "name": "VerificationRequested",
      "type": "event"
    },
    {
      "anonymous": false,
      "inputs": [
        {
          "indexed": true,
          "internalType": "bytes32",
          "name": "requestId",
          "type": "bytes32"
        },
        {
          "indexed": false,
          "internalType": "string",
          "name": "username",
          "type": "string"
        },
        {
          "indexed": false,
          "internalType": "address",
          "name": "userAddress",
          "type": "address"
        },
        {
          "indexed": false,
          "internalType": "bool",
          "name": "verified",
          "type": "bool"
        }
      ],
      "name": "VerificationSuccessful",
      "type": "event"
    },
    {
      "inputs": [],
      "name": "acceptOwnership",
      "outputs": [],
      "stateMutability": "nonpayable",
      "type": "function"
    },
    {
      "inputs": [
        {
          "internalType": "address",
          "name": "_addr",
          "type": "address"
        }
      ],
      "name": "addressToString",
      "outputs": [
        {
          "internalType": "string",
          "name": "",
          "type": "string"
        }
      ],
      "stateMutability": "pure",
      "type": "function"
    },
    {
      "inputs": [
        {
          "internalType": "bytes32",
          "name": "_requestId",
          "type": "bytes32"
        },
        {
          "internalType": "string",
          "name": "_username",
          "type": "string"
        },
        {
          "internalType": "bool",
          "name": "_verified",
          "type": "bool"
        },
        {
          "internalType": "address",
          "name": "_userAddress",
          "type": "address"
        }
      ],
      "name": "fulfillVerification",
      "outputs": [],
      "stateMutability": "nonpayable",
      "type": "function"
    },
    {
      "inputs": [],
      "name": "getOraclePayment",
      "outputs": [
        {
          "internalType": "uint256",
          "name": "",
          "type": "uint256"
        }
      ],
      "stateMutability": "pure",
      "type": "function"
    },
    {
      "inputs": [],
      "name": "getPromiseFactoryContract",
      "outputs": [
        {
          "internalType": "address",
          "name": "",
          "type": "address"
        }
      ],
      "stateMutability": "view",
      "type": "function"
    },
    {
      "inputs": [],
      "name": "owner",
      "outputs": [
        {
          "internalType": "address",
          "name": "",
          "type": "address"
        }
      ],
      "stateMutability": "view",
      "type": "function"
    },
    {
      "inputs": [
        {
          "internalType": "string",
          "name": "_username",
          "type": "string"
        }
      ],
      "name": "requestVerification",
      "outputs": [
        {
          "internalType": "bytes32",
          "name": "requestId",
          "type": "bytes32"
        }
      ],
      "stateMutability": "nonpayable",
      "type": "function"
    },
    {
      "inputs": [],
      "name": "s_oracleJobId",
      "outputs": [
        {
          "internalType": "bytes32",
          "name": "",
          "type": "bytes32"
        }
      ],
      "stateMutability": "view",
      "type": "function"
    },
    {
      "inputs": [],
      "name": "s_promiseFactoryContract",
      "outputs": [
        {
          "internalType": "address",
          "name": "",
          "type": "address"
        }
      ],
      "stateMutability": "view",
      "type": "function"
    },
    {
      "inputs": [],
      "name": "s_promiseFactoryInterface",
      "outputs": [
        {
          "internalType": "contract IPromiseFactory",
          "name": "",
          "type": "address"
        }
      ],
      "stateMutability": "view",
      "type": "function"
    },
    {
      "inputs": [],
      "name": "s_userAddress",
      "outputs": [
        {
          "internalType": "address",
          "name": "",
          "type": "address"
        }
      ],
      "stateMutability": "view",
      "type": "function"
    },
    {
      "inputs": [],
      "name": "s_username",
      "outputs": [
        {
          "internalType": "string",
          "name": "",
          "type": "string"
        }
      ],
      "stateMutability": "view",
      "type": "function"
    },
    {
      "inputs": [],
      "name": "s_verified",
      "outputs": [
        {
          "internalType": "bool",
          "name": "",
          "type": "bool"
        }
      ],
      "stateMutability": "view",
      "type": "function"
    },
    {
      "inputs": [
        {
          "internalType": "bytes32",
          "name": "_oracleJobId",
          "type": "bytes32"
        }
      ],
      "name": "setOracleJobId",
      "outputs": [],
      "stateMutability": "nonpayable",
      "type": "function"
    },
    {
      "inputs": [
        {
          "internalType": "address",
          "name": "_promiseFactoryContract",
          "type": "address"
        }
      ],
      "name": "setPromiseFactoryContract",
      "outputs": [],
      "stateMutability": "nonpayable",
      "type": "function"
    },
    {
      "inputs": [
        {
          "internalType": "address",
          "name": "to",
          "type": "address"
        }
      ],
      "name": "transferOwnership",
      "outputs": [],
      "stateMutability": "nonpayable",
      "type": "function"
    }
  ],
  "transactionHash": "0x8e1ea59d609d408dfd7c359195c497dd00cbc240701b36bd77748867ff9cf7b2",
  "args": [
    "0x326C977E6efc84E512bB9C30f76E30c160eD06FB",
    "0x2BB8Dd9C16edeF313eb9ccBd5F42A8b577cB1E3c",
    "0x9a26cA9509C6E2bBE7CcB59A1fbbfcf9DFf37f60"
  ],
  "numDeployments": 4,
  "solcInputHash": "6766262f31f885a7ee0604a07579ab4e",
  "bytecode": "0x608060405260016004557f33386164646536306535373934376365616461346464326539613133326464636008556000600c60146101000a81548160ff0219169083151502179055503480156200005557600080fd5b50604051620030b1380380620030b183398181016040528101906200007b919062000504565b338060008073ffffffffffffffffffffffffffffffffffffffff168273ffffffffffffffffffffffffffffffffffffffff1603620000f0576040517f08c379a0000000000000000000000000000000000000000000000000000000008152600401620000e790620005c1565b60405180910390fd5b81600660006101000a81548173ffffffffffffffffffffffffffffffffffffffff021916908373ffffffffffffffffffffffffffffffffffffffff160217905550600073ffffffffffffffffffffffffffffffffffffffff168173ffffffffffffffffffffffffffffffffffffffff161462000178576200017781620001b760201b60201c565b5b5050506200018c83620002e860201b60201c565b6200019d826200032c60201b60201c565b620001ae816200037060201b60201c565b505050620006c7565b3373ffffffffffffffffffffffffffffffffffffffff168173ffffffffffffffffffffffffffffffffffffffff160362000228576040517f08c379a00000000000000000000000000000000000000000000000000000000081526004016200021f9062000633565b60405180910390fd5b80600760006101000a81548173ffffffffffffffffffffffffffffffffffffffff021916908373ffffffffffffffffffffffffffffffffffffffff1602179055508073ffffffffffffffffffffffffffffffffffffffff16600660009054906101000a900473ffffffffffffffffffffffffffffffffffffffff1673ffffffffffffffffffffffffffffffffffffffff167fed8889f560326eb138920d842192f0eb3dd22b4f139c87a2c57538e05bae127860405160405180910390a350565b80600260006101000a81548173ffffffffffffffffffffffffffffffffffffffff021916908373ffffffffffffffffffffffffffffffffffffffff16021790555050565b80600360006101000a81548173ffffffffffffffffffffffffffffffffffffffff021916908373ffffffffffffffffffffffffffffffffffffffff16021790555050565b620003806200040560201b60201c565b80600960006101000a81548173ffffffffffffffffffffffffffffffffffffffff021916908373ffffffffffffffffffffffffffffffffffffffff16021790555080600a60006101000a81548173ffffffffffffffffffffffffffffffffffffffff021916908373ffffffffffffffffffffffffffffffffffffffff16021790555050565b600660009054906101000a900473ffffffffffffffffffffffffffffffffffffffff1673ffffffffffffffffffffffffffffffffffffffff163373ffffffffffffffffffffffffffffffffffffffff161462000498576040517f08c379a00000000000000000000000000000000000000000000000000000000081526004016200048f90620006a5565b60405180910390fd5b565b600080fd5b600073ffffffffffffffffffffffffffffffffffffffff82169050919050565b6000620004cc826200049f565b9050919050565b620004de81620004bf565b8114620004ea57600080fd5b50565b600081519050620004fe81620004d3565b92915050565b60008060006060848603121562000520576200051f6200049a565b5b60006200053086828701620004ed565b93505060206200054386828701620004ed565b92505060406200055686828701620004ed565b9150509250925092565b600082825260208201905092915050565b7f43616e6e6f7420736574206f776e657220746f207a65726f0000000000000000600082015250565b6000620005a960188362000560565b9150620005b68262000571565b602082019050919050565b60006020820190508181036000830152620005dc816200059a565b9050919050565b7f43616e6e6f74207472616e7366657220746f2073656c66000000000000000000600082015250565b60006200061b60178362000560565b91506200062882620005e3565b602082019050919050565b600060208201905081810360008301526200064e816200060c565b9050919050565b7f4f6e6c792063616c6c61626c65206279206f776e657200000000000000000000600082015250565b60006200068d60168362000560565b91506200069a8262000655565b602082019050919050565b60006020820190508181036000830152620006c0816200067e565b9050919050565b6129da80620006d76000396000f3fe608060405234801561001057600080fd5b50600436106101005760003560e01c806372c0c0a8116100975780639d3ee816116100665780639d3ee81614610279578063af017b9b14610297578063df9776cf146102b5578063f2fde38b146102d157610100565b806372c0c0a81461021557806373a5ffc71461023357806379ba5097146102515780638da5cb5b1461025b57610100565b8063435a7b90116100d3578063435a7b901461017b5780635e57966d146101975780636986f2e9146101c75780636cbff42a146101e557610100565b806311ba1d2f146101055780631359d423146101235780632a6d42b7146101415780632bde79791461015f575b600080fd5b61010d6102ed565b60405161011a91906118ec565b60405180910390f35b61012b610313565b6040516101389190611997565b60405180910390f35b6101496103a1565b60405161015691906119da565b60405180910390f35b61017960048036038101906101749190611bd8565b6103c7565b005b61019560048036038101906101909190611c5b565b61064d565b005b6101b160048036038101906101ac9190611c5b565b6106da565b6040516101be9190611997565b60405180910390f35b6101cf6109e5565b6040516101dc9190611ca1565b60405180910390f35b6101ff60048036038101906101fa9190611cbc565b610a0d565b60405161020c9190611d14565b60405180910390f35b61021d610ba1565b60405161022a91906119da565b60405180910390f35b61023b610bcb565b6040516102489190611d3e565b60405180910390f35b610259610bde565b005b610263610d75565b60405161027091906119da565b60405180910390f35b610281610d9f565b60405161028e9190611d14565b60405180910390f35b61029f610da5565b6040516102ac91906119da565b60405180910390f35b6102cf60048036038101906102ca9190611d59565b610dcb565b005b6102eb60048036038101906102e69190611c5b565b610ddd565b005b600a60009054906101000a900473ffffffffffffffffffffffffffffffffffffffff1681565b600b805461032090611db5565b80601f016020809104026020016040519081016040528092919081815260200182805461034c90611db5565b80156103995780601f1061036e57610100808354040283529160200191610399565b820191906000526020600020905b81548152906001019060200180831161037c57829003601f168201915b505050505081565b600c60009054906101000a900473ffffffffffffffffffffffffffffffffffffffff1681565b836005600082815260200190815260200160002060009054906101000a900473ffffffffffffffffffffffffffffffffffffffff1673ffffffffffffffffffffffffffffffffffffffff163373ffffffffffffffffffffffffffffffffffffffff1614610469576040517f08c379a000000000000000000000000000000000000000000000000000000000815260040161046090611e58565b60405180910390fd5b6005600082815260200190815260200160002060006101000a81549073ffffffffffffffffffffffffffffffffffffffff0219169055807f7cc135e0cebb02c3480ae5d74d377283180a2601f8f644edf7987b009316c63a60405160405180910390a283600b90816104db919061201a565b5081600c60006101000a81548173ffffffffffffffffffffffffffffffffffffffff021916908373ffffffffffffffffffffffffffffffffffffffff16021790555082600c60146101000a81548160ff021916908315150217905550821561060d57600a60009054906101000a900473ffffffffffffffffffffffffffffffffffffffff1673ffffffffffffffffffffffffffffffffffffffff1663e31db57383866040518363ffffffff1660e01b815260040161059a9291906120ec565b600060405180830381600087803b1580156105b457600080fd5b505af11580156105c8573d6000803e3d6000fd5b50505050847f11e51421fae5ce18b197a586401e292b3e0a8b6108ae67ade651f8bfbb7360308584866040516106009392919061211c565b60405180910390a2610646565b847f1b274bac0e8bb49d3ad90709790a3bf2aa1b86313b4c1a7ae5af9cb7832f72048560405161063d9190611997565b60405180910390a25b5050505050565b610655610df1565b80600960006101000a81548173ffffffffffffffffffffffffffffffffffffffff021916908373ffffffffffffffffffffffffffffffffffffffff16021790555080600a60006101000a81548173ffffffffffffffffffffffffffffffffffffffff021916908373ffffffffffffffffffffffffffffffffffffffff16021790555050565b606060008273ffffffffffffffffffffffffffffffffffffffff1660001b905060006040518060400160405280601081526020017f303132333435363738396162636465660000000000000000000000000000000081525090506000602a67ffffffffffffffff81111561075157610750611a49565b5b6040519080825280601f01601f1916602001820160405280156107835781602001600182028036833780820191505090505b5090507f3000000000000000000000000000000000000000000000000000000000000000816000815181106107bb576107ba61215a565b5b60200101907effffffffffffffffffffffffffffffffffffffffffffffffffffffffffffff1916908160001a9053507f78000000000000000000000000000000000000000000000000000000000000008160018151811061081f5761081e61215a565b5b60200101907effffffffffffffffffffffffffffffffffffffffffffffffffffffffffffff1916908160001a90535060005b60148110156109d95782600485600c8461086b91906121b8565b6020811061087c5761087b61215a565b5b1a60f81b7effffffffffffffffffffffffffffffffffffffffffffffffffffffffffffff1916901c60f81c60ff16815181106108bb576108ba61215a565b5b602001015160f81c60f81b826002836108d491906121ec565b60026108e091906121b8565b815181106108f1576108f061215a565b5b60200101907effffffffffffffffffffffffffffffffffffffffffffffffffffffffffffff1916908160001a90535082600f60f81b85600c8461093491906121b8565b602081106109455761094461215a565b5b1a60f81b1660f81c60ff16815181106109615761096061215a565b5b602001015160f81c60f81b8260028361097a91906121ec565b600361098691906121b8565b815181106109975761099661215a565b5b60200101907effffffffffffffffffffffffffffffffffffffffffffffffffffffffffffff1916908160001a90535080806109d190612246565b915050610851565b50809350505050919050565b6000600a670de0b6b3a764000060016109fe91906121ec565b610a0891906122bd565b905090565b600080610a2460085430632bde797960e01b610e83565b90506000610a31336106da565b9050600081604051602001610a46919061239c565b6040516020818303038152906040529050610aa16040518060400160405280600881526020017f757365726e616d650000000000000000000000000000000000000000000000008152508685610eb49092919063ffffffff16565b610aeb6040518060400160405280600981526020017f7369676e617475726500000000000000000000000000000000000000000000008152508285610eb49092919063ffffffff16565b610b356040518060400160405280600781526020017f61646472657373000000000000000000000000000000000000000000000000008152508385610eb49092919063ffffffff16565b610b5f83600a670de0b6b3a76400006001610b5091906121ec565b610b5a91906122bd565b610ee7565b9350837fc34ceda1e3b95f3c685a13629829c6cd83b0804b62f6362feaef6c1e61e740ca86604051610b919190611997565b60405180910390a2505050919050565b6000600960009054906101000a900473ffffffffffffffffffffffffffffffffffffffff16905090565b600c60149054906101000a900460ff1681565b600760009054906101000a900473ffffffffffffffffffffffffffffffffffffffff1673ffffffffffffffffffffffffffffffffffffffff163373ffffffffffffffffffffffffffffffffffffffff1614610c6e576040517f08c379a0000000000000000000000000000000000000000000000000000000008152600401610c659061240a565b60405180910390fd5b6000600660009054906101000a900473ffffffffffffffffffffffffffffffffffffffff16905033600660006101000a81548173ffffffffffffffffffffffffffffffffffffffff021916908373ffffffffffffffffffffffffffffffffffffffff1602179055506000600760006101000a81548173ffffffffffffffffffffffffffffffffffffffff021916908373ffffffffffffffffffffffffffffffffffffffff1602179055503373ffffffffffffffffffffffffffffffffffffffff168173ffffffffffffffffffffffffffffffffffffffff167f8be0079c531659141344cd1fd0a4f28419497f9722a3daafe3b4186f6b6457e060405160405180910390a350565b6000600660009054906101000a900473ffffffffffffffffffffffffffffffffffffffff16905090565b60085481565b600960009054906101000a900473ffffffffffffffffffffffffffffffffffffffff1681565b610dd3610df1565b8060088190555050565b610de5610df1565b610dee81610f1e565b50565b600660009054906101000a900473ffffffffffffffffffffffffffffffffffffffff1673ffffffffffffffffffffffffffffffffffffffff163373ffffffffffffffffffffffffffffffffffffffff1614610e81576040517f08c379a0000000000000000000000000000000000000000000000000000000008152600401610e7890612476565b60405180910390fd5b565b610e8b6117e6565b610e936117e6565b610eaa8585858461104c909392919063ffffffff16565b9150509392505050565b610ecb8284608001516110fc90919063ffffffff16565b610ee28184608001516110fc90919063ffffffff16565b505050565b6000610f16600360009054906101000a900473ffffffffffffffffffffffffffffffffffffffff168484611121565b905092915050565b3373ffffffffffffffffffffffffffffffffffffffff168173ffffffffffffffffffffffffffffffffffffffff1603610f8c576040517f08c379a0000000000000000000000000000000000000000000000000000000008152600401610f83906124e2565b60405180910390fd5b80600760006101000a81548173ffffffffffffffffffffffffffffffffffffffff021916908373ffffffffffffffffffffffffffffffffffffffff1602179055508073ffffffffffffffffffffffffffffffffffffffff16600660009054906101000a900473ffffffffffffffffffffffffffffffffffffffff1673ffffffffffffffffffffffffffffffffffffffff167fed8889f560326eb138920d842192f0eb3dd22b4f139c87a2c57538e05bae127860405160405180910390a350565b6110546117e6565b61106485608001516101006111eb565b508385600001818152505082856020019073ffffffffffffffffffffffffffffffffffffffff16908173ffffffffffffffffffffffffffffffffffffffff16815250508185604001907bffffffffffffffffffffffffffffffffffffffffffffffffffffffff191690817bffffffffffffffffffffffffffffffffffffffffffffffffffffffff191681525050849050949350505050565b6111098260038351611255565b61111c81836113da90919063ffffffff16565b505050565b600080600454905060018161113691906121b8565b6004819055506000633c6d41b960e01b600080876000015188604001518660028b60800151600001516040516024016111759796959493929190612592565b604051602081830303815290604052907bffffffffffffffffffffffffffffffffffffffffffffffffffffffff19166020820180517bffffffffffffffffffffffffffffffffffffffffffffffffffffffff838183161783525050505090506111e0868386846113fc565b925050509392505050565b6111f3611853565b60006020836112029190612608565b1461122e576020826112149190612608565b60206112209190612639565b8261122b91906121b8565b91505b81836020018181525050604051808452600081528281016020016040525082905092915050565b60178167ffffffffffffffff161161128c576112868160058460ff16901b60ff16178461159190919063ffffffff16565b506113d5565b60ff8167ffffffffffffffff16116112e2576112bb601860058460ff16901b178461159190919063ffffffff16565b506112dc8167ffffffffffffffff166001856115b19092919063ffffffff16565b506113d4565b61ffff8167ffffffffffffffff161161133957611312601960058460ff16901b178461159190919063ffffffff16565b506113338167ffffffffffffffff166002856115b19092919063ffffffff16565b506113d3565b63ffffffff8167ffffffffffffffff16116113925761136b601a60058460ff16901b178461159190919063ffffffff16565b5061138c8167ffffffffffffffff166004856115b19092919063ffffffff16565b506113d2565b6113af601b60058460ff16901b178461159190919063ffffffff16565b506113d08167ffffffffffffffff166008856115b19092919063ffffffff16565b505b5b5b5b505050565b6113e2611853565b6113f4838460000151518485516115d3565b905092915050565b600030846040516020016114119291906126e8565b604051602081830303815290604052805190602001209050846005600083815260200190815260200160002060006101000a81548173ffffffffffffffffffffffffffffffffffffffff021916908373ffffffffffffffffffffffffffffffffffffffff160217905550807fb5e6e01e79f91267dc17b4e6314d5d4d03593d2ceee0fbb452b750bd70ea5af960405160405180910390a2600260009054906101000a900473ffffffffffffffffffffffffffffffffffffffff1673ffffffffffffffffffffffffffffffffffffffff16634000aea08685856040518463ffffffff1660e01b815260040161150793929190612714565b6020604051808303816000875af1158015611526573d6000803e3d6000fd5b505050506040513d601f19601f8201168201806040525081019061154a9190612767565b611589576040517f08c379a000000000000000000000000000000000000000000000000000000000815260040161158090612806565b60405180910390fd5b949350505050565b611599611853565b6115a983846000015151846116c2565b905092915050565b6115b9611853565b6115ca848560000151518585611718565b90509392505050565b6115db611853565b82518211156115e957600080fd5b846020015182856115fa91906121b8565b111561162f5761162e85600261161f8860200151888761161a91906121b8565b6117a6565b61162991906121ec565b6117c2565b5b60008086518051876020830101935080888701111561164e5787860182525b60208701925050505b60208410611695578051825260208261167091906121b8565b915060208161167f91906121b8565b905060208461168e9190612639565b9350611657565b60006001856020036101000a03905080198251168184511681811785525050508692505050949350505050565b6116ca611853565b836020015183106116f0576116ef84600286602001516116ea91906121ec565b6117c2565b5b8351805160208583010184815381860361170b576001820183525b5050508390509392505050565b611720611853565b8460200151848361173191906121b8565b111561175957611758856002868561174991906121b8565b61175391906121ec565b6117c2565b5b600060018361010061176b9190612959565b6117759190612639565b905085518386820101858319825116178152815185880111156117985784870182525b505085915050949350505050565b6000818311156117b8578290506117bc565b8190505b92915050565b6000826000015190506117d583836111eb565b506117e083826113da565b50505050565b6040518060a0016040528060008019168152602001600073ffffffffffffffffffffffffffffffffffffffff16815260200160007bffffffffffffffffffffffffffffffffffffffffffffffffffffffff191681526020016000815260200161184d611853565b81525090565b604051806040016040528060608152602001600081525090565b600073ffffffffffffffffffffffffffffffffffffffff82169050919050565b6000819050919050565b60006118b26118ad6118a88461186d565b61188d565b61186d565b9050919050565b60006118c482611897565b9050919050565b60006118d6826118b9565b9050919050565b6118e6816118cb565b82525050565b600060208201905061190160008301846118dd565b92915050565b600081519050919050565b600082825260208201905092915050565b60005b83811015611941578082015181840152602081019050611926565b60008484015250505050565b6000601f19601f8301169050919050565b600061196982611907565b6119738185611912565b9350611983818560208601611923565b61198c8161194d565b840191505092915050565b600060208201905081810360008301526119b1818461195e565b905092915050565b60006119c48261186d565b9050919050565b6119d4816119b9565b82525050565b60006020820190506119ef60008301846119cb565b92915050565b6000604051905090565b600080fd5b600080fd5b6000819050919050565b611a1c81611a09565b8114611a2757600080fd5b50565b600081359050611a3981611a13565b92915050565b600080fd5b600080fd5b7f4e487b7100000000000000000000000000000000000000000000000000000000600052604160045260246000fd5b611a818261194d565b810181811067ffffffffffffffff82111715611aa057611a9f611a49565b5b80604052505050565b6000611ab36119f5565b9050611abf8282611a78565b919050565b600067ffffffffffffffff821115611adf57611ade611a49565b5b611ae88261194d565b9050602081019050919050565b82818337600083830152505050565b6000611b17611b1284611ac4565b611aa9565b905082815260208101848484011115611b3357611b32611a44565b5b611b3e848285611af5565b509392505050565b600082601f830112611b5b57611b5a611a3f565b5b8135611b6b848260208601611b04565b91505092915050565b60008115159050919050565b611b8981611b74565b8114611b9457600080fd5b50565b600081359050611ba681611b80565b92915050565b611bb5816119b9565b8114611bc057600080fd5b50565b600081359050611bd281611bac565b92915050565b60008060008060808587031215611bf257611bf16119ff565b5b6000611c0087828801611a2a565b945050602085013567ffffffffffffffff811115611c2157611c20611a04565b5b611c2d87828801611b46565b9350506040611c3e87828801611b97565b9250506060611c4f87828801611bc3565b91505092959194509250565b600060208284031215611c7157611c706119ff565b5b6000611c7f84828501611bc3565b91505092915050565b6000819050919050565b611c9b81611c88565b82525050565b6000602082019050611cb66000830184611c92565b92915050565b600060208284031215611cd257611cd16119ff565b5b600082013567ffffffffffffffff811115611cf057611cef611a04565b5b611cfc84828501611b46565b91505092915050565b611d0e81611a09565b82525050565b6000602082019050611d296000830184611d05565b92915050565b611d3881611b74565b82525050565b6000602082019050611d536000830184611d2f565b92915050565b600060208284031215611d6f57611d6e6119ff565b5b6000611d7d84828501611a2a565b91505092915050565b7f4e487b7100000000000000000000000000000000000000000000000000000000600052602260045260246000fd5b60006002820490506001821680611dcd57607f821691505b602082108103611de057611ddf611d86565b5b50919050565b7f536f75726365206d75737420626520746865206f7261636c65206f662074686560008201527f2072657175657374000000000000000000000000000000000000000000000000602082015250565b6000611e42602883611912565b9150611e4d82611de6565b604082019050919050565b60006020820190508181036000830152611e7181611e35565b9050919050565b60008190508160005260206000209050919050565b60006020601f8301049050919050565b600082821b905092915050565b600060088302611eda7fffffffffffffffffffffffffffffffffffffffffffffffffffffffffffffffff82611e9d565b611ee48683611e9d565b95508019841693508086168417925050509392505050565b6000611f17611f12611f0d84611c88565b61188d565b611c88565b9050919050565b6000819050919050565b611f3183611efc565b611f45611f3d82611f1e565b848454611eaa565b825550505050565b600090565b611f5a611f4d565b611f65818484611f28565b505050565b5b81811015611f8957611f7e600082611f52565b600181019050611f6b565b5050565b601f821115611fce57611f9f81611e78565b611fa884611e8d565b81016020851015611fb7578190505b611fcb611fc385611e8d565b830182611f6a565b50505b505050565b600082821c905092915050565b6000611ff160001984600802611fd3565b1980831691505092915050565b600061200a8383611fe0565b9150826002028217905092915050565b61202382611907565b67ffffffffffffffff81111561203c5761203b611a49565b5b6120468254611db5565b612051828285611f8d565b600060209050601f8311600181146120845760008415612072578287015190505b61207c8582611ffe565b8655506120e4565b601f19841661209286611e78565b60005b828110156120ba57848901518255600182019150602085019450602081019050612095565b868310156120d757848901516120d3601f891682611fe0565b8355505b6001600288020188555050505b505050505050565b600060408201905061210160008301856119cb565b8181036020830152612113818461195e565b90509392505050565b60006060820190508181036000830152612136818661195e565b905061214560208301856119cb565b6121526040830184611d2f565b949350505050565b7f4e487b7100000000000000000000000000000000000000000000000000000000600052603260045260246000fd5b7f4e487b7100000000000000000000000000000000000000000000000000000000600052601160045260246000fd5b60006121c382611c88565b91506121ce83611c88565b92508282019050808211156121e6576121e5612189565b5b92915050565b60006121f782611c88565b915061220283611c88565b9250817fffffffffffffffffffffffffffffffffffffffffffffffffffffffffffffffff048311821515161561223b5761223a612189565b5b828202905092915050565b600061225182611c88565b91507fffffffffffffffffffffffffffffffffffffffffffffffffffffffffffffffff820361228357612282612189565b5b600182019050919050565b7f4e487b7100000000000000000000000000000000000000000000000000000000600052601260045260246000fd5b60006122c882611c88565b91506122d383611c88565b9250826122e3576122e261228e565b5b828204905092915050565b600081905092915050565b7f566572696679696e67206d792054776974746572206163636f756e7420666f7260008201527f2045544820616464726573732000000000000000000000000000000000000000602082015250565b6000612355602d836122ee565b9150612360826122f9565b602d82019050919050565b600061237682611907565b61238081856122ee565b9350612390818560208601611923565b80840191505092915050565b60006123a782612348565b91506123b3828461236b565b915081905092915050565b7f4d7573742062652070726f706f736564206f776e657200000000000000000000600082015250565b60006123f4601683611912565b91506123ff826123be565b602082019050919050565b60006020820190508181036000830152612423816123e7565b9050919050565b7f4f6e6c792063616c6c61626c65206279206f776e657200000000000000000000600082015250565b6000612460601683611912565b915061246b8261242a565b602082019050919050565b6000602082019050818103600083015261248f81612453565b9050919050565b7f43616e6e6f74207472616e7366657220746f2073656c66000000000000000000600082015250565b60006124cc601783611912565b91506124d782612496565b602082019050919050565b600060208201905081810360008301526124fb816124bf565b9050919050565b60007fffffffff0000000000000000000000000000000000000000000000000000000082169050919050565b61253781612502565b82525050565b600081519050919050565b600082825260208201905092915050565b60006125648261253d565b61256e8185612548565b935061257e818560208601611923565b6125878161194d565b840191505092915050565b600060e0820190506125a7600083018a6119cb565b6125b46020830189611c92565b6125c16040830188611d05565b6125ce606083018761252e565b6125db6080830186611c92565b6125e860a0830185611c92565b81810360c08301526125fa8184612559565b905098975050505050505050565b600061261382611c88565b915061261e83611c88565b92508261262e5761262d61228e565b5b828206905092915050565b600061264482611c88565b915061264f83611c88565b925082820390508181111561266757612666612189565b5b92915050565b6000612678826118b9565b9050919050565b60008160601b9050919050565b60006126978261267f565b9050919050565b60006126a98261268c565b9050919050565b6126c16126bc8261266d565b61269e565b82525050565b6000819050919050565b6126e26126dd82611c88565b6126c7565b82525050565b60006126f482856126b0565b60148201915061270482846126d1565b6020820191508190509392505050565b600060608201905061272960008301866119cb565b6127366020830185611c92565b81810360408301526127488184612559565b9050949350505050565b60008151905061276181611b80565b92915050565b60006020828403121561277d5761277c6119ff565b5b600061278b84828501612752565b91505092915050565b7f756e61626c6520746f207472616e73666572416e6443616c6c20746f206f726160008201527f636c650000000000000000000000000000000000000000000000000000000000602082015250565b60006127f0602383611912565b91506127fb82612794565b604082019050919050565b6000602082019050818103600083015261281f816127e3565b9050919050565b60008160011c9050919050565b6000808291508390505b600185111561287d5780860481111561285957612858612189565b5b60018516156128685780820291505b808102905061287685612826565b945061283d565b94509492505050565b6000826128965760019050612952565b816128a45760009050612952565b81600181146128ba57600281146128c4576128f3565b6001915050612952565b60ff8411156128d6576128d5612189565b5b8360020a9150848211156128ed576128ec612189565b5b50612952565b5060208310610133831016604e8410600b84101617156129285782820a90508381111561292357612922612189565b5b612952565b6129358484846001612833565b9250905081840481111561294c5761294b612189565b5b81810290505b9392505050565b600061296482611c88565b915061296f83611c88565b925061299c7fffffffffffffffffffffffffffffffffffffffffffffffffffffffffffffffff8484612886565b90509291505056fea2646970667358221220c31f8ae9d286a9fb9ec83d2ace19f16b4f6daa921ab41b747e3e301c82dd328064736f6c63430008100033",
  "devdoc": {
    "author": "polarzero",
    "kind": "dev",
    "methods": {
      "addressToString(address)": {
        "params": {
          "_addr": "The address to convert"
        }
      },
      "constructor": {
        "params": {
          "_linkTokenContract": "(Mumbai): 0x326C977E6efc84E512bB9C30f76E30c160eD06FB",
          "_oracleContract": "(Mumbai): 0x2BB8Dd9C16edeF313eb9ccBd5F42A8b577cB1E3c",
          "_promiseFactoryContract": ": The address of the PromiseFactory contract"
        }
      },
      "fulfillVerification(bytes32,string,bool,address)": {
        "params": {
          "_requestId": "The request ID",
          "_username": "The username to verify",
          "_verified": "The verification result"
        }
      },
      "requestVerification(string)": {
        "params": {
          "_username": "The username to verify"
        }
      },
      "setPromiseFactoryContract(address)": {
        "details": "It also sets the promise factory contract interface with this address",
        "params": {
          "_promiseFactoryContract": "The address of the PromiseFactory contract"
        }
      }
    },
    "title": "VerifyTwitter",
    "version": 1
  },
  "userdoc": {
    "kind": "user",
    "methods": {
      "acceptOwnership()": {
        "notice": "Allows an ownership transfer to be completed by the recipient."
      },
      "addressToString(address)": {
        "notice": "Convert address to string"
      },
      "constructor": {
        "notice": "Initialize the link token and target oracle"
      },
      "fulfillVerification(bytes32,string,bool,address)": {
        "notice": "Callback function used by the oracle to return the verification result"
      },
      "owner()": {
        "notice": "Get the current owner"
      },
      "requestVerification(string)": {
        "notice": "Request a Twitter username to be verified"
      },
      "setPromiseFactoryContract(address)": {
        "notice": "Call the promise factory contract to verify a Twitter account"
      },
      "transferOwnership(address)": {
        "notice": "Allows an owner to begin transferring ownership to a new address, pending."
      }
    },
    "notice": "Sends a request to the Chainlink oracle to verify a Twitter account - The oracle will return the username, address, and verification status - It uses a Chainlink node & an external adapter to interact with the Twitter API",
    "version": 1
  },
  "storageLayout": {
    "storage": [
      {
        "astId": 319,
        "contract": "contracts/VerifyTwitter.sol:VerifyTwitter",
        "label": "s_ens",
        "offset": 0,
        "slot": "0",
        "type": "t_contract(ENSInterface)1156"
      },
      {
        "astId": 321,
        "contract": "contracts/VerifyTwitter.sol:VerifyTwitter",
        "label": "s_ensNode",
        "offset": 0,
        "slot": "1",
        "type": "t_bytes32"
      },
      {
        "astId": 324,
        "contract": "contracts/VerifyTwitter.sol:VerifyTwitter",
        "label": "s_link",
        "offset": 0,
        "slot": "2",
        "type": "t_contract(LinkTokenInterface)1251"
      },
      {
        "astId": 327,
        "contract": "contracts/VerifyTwitter.sol:VerifyTwitter",
        "label": "s_oracle",
        "offset": 0,
        "slot": "3",
        "type": "t_contract(OperatorInterface)1331"
      },
      {
        "astId": 330,
        "contract": "contracts/VerifyTwitter.sol:VerifyTwitter",
        "label": "s_requestCount",
        "offset": 0,
        "slot": "4",
        "type": "t_uint256"
      },
      {
        "astId": 334,
        "contract": "contracts/VerifyTwitter.sol:VerifyTwitter",
        "label": "s_pendingRequests",
        "offset": 0,
        "slot": "5",
        "type": "t_mapping(t_bytes32,t_address)"
      },
      {
        "astId": 889,
        "contract": "contracts/VerifyTwitter.sol:VerifyTwitter",
        "label": "s_owner",
        "offset": 0,
        "slot": "6",
        "type": "t_address"
      },
      {
        "astId": 891,
        "contract": "contracts/VerifyTwitter.sol:VerifyTwitter",
        "label": "s_pendingOwner",
        "offset": 0,
        "slot": "7",
        "type": "t_address"
      },
      {
        "astId": 2408,
        "contract": "contracts/VerifyTwitter.sol:VerifyTwitter",
        "label": "s_oracleJobId",
        "offset": 0,
        "slot": "8",
        "type": "t_bytes32"
      },
      {
        "astId": 2410,
        "contract": "contracts/VerifyTwitter.sol:VerifyTwitter",
        "label": "s_promiseFactoryContract",
        "offset": 0,
        "slot": "9",
        "type": "t_address"
      },
      {
        "astId": 2413,
        "contract": "contracts/VerifyTwitter.sol:VerifyTwitter",
        "label": "s_promiseFactoryInterface",
        "offset": 0,
        "slot": "10",
        "type": "t_contract(IPromiseFactory)2383"
      },
      {
        "astId": 2415,
        "contract": "contracts/VerifyTwitter.sol:VerifyTwitter",
        "label": "s_username",
        "offset": 0,
        "slot": "11",
        "type": "t_string_storage"
      },
      {
        "astId": 2417,
        "contract": "contracts/VerifyTwitter.sol:VerifyTwitter",
        "label": "s_userAddress",
        "offset": 0,
        "slot": "12",
        "type": "t_address"
      },
      {
        "astId": 2420,
        "contract": "contracts/VerifyTwitter.sol:VerifyTwitter",
        "label": "s_verified",
        "offset": 20,
        "slot": "12",
        "type": "t_bool"
      }
    ],
    "types": {
      "t_address": {
        "encoding": "inplace",
        "label": "address",
        "numberOfBytes": "20"
      },
      "t_bool": {
        "encoding": "inplace",
        "label": "bool",
        "numberOfBytes": "1"
      },
      "t_bytes32": {
        "encoding": "inplace",
        "label": "bytes32",
        "numberOfBytes": "32"
      },
      "t_contract(ENSInterface)1156": {
        "encoding": "inplace",
        "label": "contract ENSInterface",
        "numberOfBytes": "20"
      },
      "t_contract(IPromiseFactory)2383": {
        "encoding": "inplace",
        "label": "contract IPromiseFactory",
        "numberOfBytes": "20"
      },
      "t_contract(LinkTokenInterface)1251": {
        "encoding": "inplace",
        "label": "contract LinkTokenInterface",
        "numberOfBytes": "20"
      },
      "t_contract(OperatorInterface)1331": {
        "encoding": "inplace",
        "label": "contract OperatorInterface",
        "numberOfBytes": "20"
      },
      "t_mapping(t_bytes32,t_address)": {
        "encoding": "mapping",
        "key": "t_bytes32",
        "label": "mapping(bytes32 => address)",
        "numberOfBytes": "32",
        "value": "t_address"
      },
      "t_string_storage": {
        "encoding": "bytes",
        "label": "string",
        "numberOfBytes": "32"
      },
      "t_uint256": {
        "encoding": "inplace",
        "label": "uint256",
        "numberOfBytes": "32"
      }
    }
  }
}