{
  "address": "0xCFe69375AD251DA5fb2879a1D683ab6d69BdE825",
  "abi": [
    {
      "inputs": [
        {
          "internalType": "address",
          "name": "_linkTokenContract",
          "type": "address"
        },
        {
          "internalType": "address",
          "name": "_oracleContract",
          "type": "address"
        },
        {
          "internalType": "address",
          "name": "_promiseFactoryContract",
          "type": "address"
        }
      ],
      "stateMutability": "nonpayable",
      "type": "constructor"
    },
    {
      "anonymous": false,
      "inputs": [
        {
          "indexed": true,
          "internalType": "bytes32",
          "name": "id",
          "type": "bytes32"
        }
      ],
      "name": "ChainlinkCancelled",
      "type": "event"
    },
    {
      "anonymous": false,
      "inputs": [
        {
          "indexed": true,
          "internalType": "bytes32",
          "name": "id",
          "type": "bytes32"
        }
      ],
      "name": "ChainlinkFulfilled",
      "type": "event"
    },
    {
      "anonymous": false,
      "inputs": [
        {
          "indexed": true,
          "internalType": "bytes32",
          "name": "id",
          "type": "bytes32"
        }
      ],
      "name": "ChainlinkRequested",
      "type": "event"
    },
    {
      "anonymous": false,
      "inputs": [],
      "name": "Here",
      "type": "event"
    },
    {
      "anonymous": false,
      "inputs": [
        {
          "indexed": false,
          "internalType": "uint256",
          "name": "amount",
          "type": "uint256"
        }
      ],
      "name": "LinkAmount",
      "type": "event"
    },
    {
      "anonymous": false,
      "inputs": [
        {
          "indexed": true,
          "internalType": "address",
          "name": "from",
          "type": "address"
        },
        {
          "indexed": true,
          "internalType": "address",
          "name": "to",
          "type": "address"
        }
      ],
      "name": "OwnershipTransferRequested",
      "type": "event"
    },
    {
      "anonymous": false,
      "inputs": [
        {
          "indexed": true,
          "internalType": "address",
          "name": "from",
          "type": "address"
        },
        {
          "indexed": true,
          "internalType": "address",
          "name": "to",
          "type": "address"
        }
      ],
      "name": "OwnershipTransferred",
      "type": "event"
    },
    {
      "anonymous": false,
      "inputs": [
        {
          "indexed": false,
          "internalType": "bytes32",
          "name": "id",
          "type": "bytes32"
        },
        {
          "indexed": false,
          "internalType": "address",
          "name": "callbackAddress",
          "type": "address"
        },
        {
          "indexed": false,
          "internalType": "bytes4",
          "name": "callbackfunctionSelector",
          "type": "bytes4"
        },
        {
          "indexed": false,
          "internalType": "bytes",
          "name": "data",
          "type": "bytes"
        }
      ],
      "name": "Request",
      "type": "event"
    },
    {
      "anonymous": false,
      "inputs": [
        {
          "indexed": true,
          "internalType": "bytes32",
          "name": "requestId",
          "type": "bytes32"
        },
        {
          "indexed": false,
          "internalType": "string",
          "name": "username",
          "type": "string"
        }
      ],
      "name": "VerificationFailed",
      "type": "event"
    },
    {
      "anonymous": false,
      "inputs": [
        {
          "indexed": true,
          "internalType": "bytes32",
          "name": "requestId",
          "type": "bytes32"
        },
        {
          "indexed": false,
          "internalType": "string",
          "name": "username",
          "type": "string"
        }
      ],
      "name": "VerificationRequested",
      "type": "event"
    },
    {
      "anonymous": false,
      "inputs": [
        {
          "indexed": true,
          "internalType": "bytes32",
          "name": "requestId",
          "type": "bytes32"
        },
        {
          "indexed": false,
          "internalType": "string",
          "name": "username",
          "type": "string"
        },
        {
          "indexed": false,
          "internalType": "address",
          "name": "userAddress",
          "type": "address"
        },
        {
          "indexed": false,
          "internalType": "bool",
          "name": "verified",
          "type": "bool"
        }
      ],
      "name": "VerificationSuccessful",
      "type": "event"
    },
    {
      "inputs": [],
      "name": "acceptOwnership",
      "outputs": [],
      "stateMutability": "nonpayable",
      "type": "function"
    },
    {
      "inputs": [
        {
          "internalType": "bytes32",
          "name": "_requestId",
          "type": "bytes32"
        },
        {
          "internalType": "bytes32",
          "name": "",
          "type": "bytes32"
        }
      ],
      "name": "fulfillRequest",
      "outputs": [],
      "stateMutability": "nonpayable",
      "type": "function"
    },
    {
      "inputs": [
        {
          "internalType": "bytes32",
          "name": "_requestId",
          "type": "bytes32"
        },
        {
          "internalType": "string",
          "name": "_username",
          "type": "string"
        },
        {
          "internalType": "bool",
          "name": "_verified",
          "type": "bool"
        },
        {
          "internalType": "address",
          "name": "_userAddress",
          "type": "address"
        }
      ],
      "name": "fulfillVerification",
      "outputs": [],
      "stateMutability": "nonpayable",
      "type": "function"
    },
    {
      "inputs": [],
      "name": "getOraclePayment",
      "outputs": [
        {
          "internalType": "uint256",
          "name": "",
          "type": "uint256"
        }
      ],
      "stateMutability": "pure",
      "type": "function"
    },
    {
      "inputs": [],
      "name": "getPromiseFactoryContract",
      "outputs": [
        {
          "internalType": "address",
          "name": "",
          "type": "address"
        }
      ],
      "stateMutability": "view",
      "type": "function"
    },
    {
      "inputs": [],
      "name": "modifierOnlyOwner",
      "outputs": [],
      "stateMutability": "nonpayable",
      "type": "function"
    },
    {
      "inputs": [],
      "name": "owner",
      "outputs": [
        {
          "internalType": "address",
          "name": "",
          "type": "address"
        }
      ],
      "stateMutability": "view",
      "type": "function"
    },
    {
      "inputs": [
        {
          "internalType": "address",
          "name": "_oracle",
          "type": "address"
        },
        {
          "internalType": "bytes32",
          "name": "_requestId",
          "type": "bytes32"
        }
      ],
      "name": "publicAddExternalRequest",
      "outputs": [],
      "stateMutability": "nonpayable",
      "type": "function"
    },
    {
      "inputs": [
        {
          "internalType": "bytes32",
          "name": "_requestId",
          "type": "bytes32"
        },
        {
          "internalType": "uint256",
          "name": "_payment",
          "type": "uint256"
        },
        {
          "internalType": "bytes4",
          "name": "_callbackFunctionId",
          "type": "bytes4"
        },
        {
          "internalType": "uint256",
          "name": "_expiration",
          "type": "uint256"
        }
      ],
      "name": "publicCancelRequest",
      "outputs": [],
      "stateMutability": "nonpayable",
      "type": "function"
    },
    {
      "inputs": [],
      "name": "publicChainlinkToken",
      "outputs": [
        {
          "internalType": "address",
          "name": "",
          "type": "address"
        }
      ],
      "stateMutability": "view",
      "type": "function"
    },
    {
      "inputs": [
        {
          "internalType": "bytes32",
          "name": "_requestId",
          "type": "bytes32"
        },
        {
          "internalType": "bytes32",
          "name": "",
          "type": "bytes32"
        }
      ],
      "name": "publicFulfillChainlinkRequest",
      "outputs": [],
      "stateMutability": "nonpayable",
      "type": "function"
    },
    {
      "inputs": [
        {
          "internalType": "uint256",
          "name": "_amount",
          "type": "uint256"
        }
      ],
      "name": "publicLINK",
      "outputs": [],
      "stateMutability": "nonpayable",
      "type": "function"
    },
    {
      "inputs": [
        {
          "internalType": "bytes32",
          "name": "_id",
          "type": "bytes32"
        },
        {
          "internalType": "address",
          "name": "_address",
          "type": "address"
        },
        {
          "internalType": "bytes",
          "name": "_fulfillmentSignature",
          "type": "bytes"
        }
      ],
      "name": "publicNewRequest",
      "outputs": [],
      "stateMutability": "nonpayable",
      "type": "function"
    },
    {
      "inputs": [],
      "name": "publicOracleAddress",
      "outputs": [
        {
          "internalType": "address",
          "name": "",
          "type": "address"
        }
      ],
      "stateMutability": "view",
      "type": "function"
    },
    {
      "inputs": [
        {
          "internalType": "bytes32",
          "name": "_id",
          "type": "bytes32"
        },
        {
          "internalType": "address",
          "name": "_address",
          "type": "address"
        },
        {
          "internalType": "bytes",
          "name": "_fulfillmentSignature",
          "type": "bytes"
        },
        {
          "internalType": "uint256",
          "name": "_wei",
          "type": "uint256"
        }
      ],
      "name": "publicRequest",
      "outputs": [],
      "stateMutability": "nonpayable",
      "type": "function"
    },
    {
      "inputs": [
        {
          "internalType": "bytes32",
          "name": "_id",
          "type": "bytes32"
        },
        {
          "internalType": "bytes",
          "name": "_fulfillmentSignature",
          "type": "bytes"
        },
        {
          "internalType": "uint256",
          "name": "_wei",
          "type": "uint256"
        }
      ],
      "name": "publicRequestOracleData",
      "outputs": [],
      "stateMutability": "nonpayable",
      "type": "function"
    },
    {
      "inputs": [
        {
          "internalType": "address",
          "name": "_oracle",
          "type": "address"
        },
        {
          "internalType": "bytes32",
          "name": "_id",
          "type": "bytes32"
        },
        {
          "internalType": "bytes",
          "name": "_fulfillmentSignature",
          "type": "bytes"
        },
        {
          "internalType": "uint256",
          "name": "_wei",
          "type": "uint256"
        }
      ],
      "name": "publicRequestOracleDataFrom",
      "outputs": [],
      "stateMutability": "nonpayable",
      "type": "function"
    },
    {
      "inputs": [
        {
          "internalType": "address",
          "name": "_oracle",
          "type": "address"
        },
        {
          "internalType": "bytes32",
          "name": "_id",
          "type": "bytes32"
        },
        {
          "internalType": "address",
          "name": "_address",
          "type": "address"
        },
        {
          "internalType": "bytes",
          "name": "_fulfillmentSignature",
          "type": "bytes"
        },
        {
          "internalType": "uint256",
          "name": "_wei",
          "type": "uint256"
        }
      ],
      "name": "publicRequestRunTo",
      "outputs": [],
      "stateMutability": "nonpayable",
      "type": "function"
    },
    {
      "inputs": [
        {
          "internalType": "string",
          "name": "_username",
          "type": "string"
        }
      ],
      "name": "requestVerification",
      "outputs": [
        {
          "internalType": "bytes32",
          "name": "requestId",
          "type": "bytes32"
        }
      ],
      "stateMutability": "nonpayable",
      "type": "function"
    },
    {
      "inputs": [],
      "name": "s_promiseFactoryContract",
      "outputs": [
        {
          "internalType": "address",
          "name": "",
          "type": "address"
        }
      ],
      "stateMutability": "view",
      "type": "function"
    },
    {
      "inputs": [],
      "name": "s_promiseFactoryInterface",
      "outputs": [
        {
          "internalType": "contract IPromiseFactory",
          "name": "",
          "type": "address"
        }
      ],
      "stateMutability": "view",
      "type": "function"
    },
    {
      "inputs": [],
      "name": "s_userAddress",
      "outputs": [
        {
          "internalType": "address",
          "name": "",
          "type": "address"
        }
      ],
      "stateMutability": "view",
      "type": "function"
    },
    {
      "inputs": [],
      "name": "s_username",
      "outputs": [
        {
          "internalType": "string",
          "name": "",
          "type": "string"
        }
      ],
      "stateMutability": "view",
      "type": "function"
    },
    {
      "inputs": [],
      "name": "s_verified",
      "outputs": [
        {
          "internalType": "bool",
          "name": "",
          "type": "bool"
        }
      ],
      "stateMutability": "view",
      "type": "function"
    },
    {
      "inputs": [
        {
          "internalType": "address",
          "name": "_promiseFactoryContract",
          "type": "address"
        }
      ],
      "name": "setPromiseFactoryContract",
      "outputs": [],
      "stateMutability": "nonpayable",
      "type": "function"
    },
    {
      "inputs": [
        {
          "internalType": "address",
          "name": "to",
          "type": "address"
        }
      ],
      "name": "transferOwnership",
      "outputs": [],
      "stateMutability": "nonpayable",
      "type": "function"
    }
  ],
  "transactionHash": "0x5e5f94ee9b4eea47d4c8d9f2ad84ca3e71a829ac1669dc0df23228ae344e1fb2",
  "args": [
    "0x326C977E6efc84E512bB9C30f76E30c160eD06FB",
    "0xD4D1fe6FF0A871Ccf37bCfbce3135f548E5f05B5",
    "0xC98bC3b8886960473e7877C89915745b27fBf12f"
  ],
  "numDeployments": 1,
  "solcInputHash": "3017430c52a40131a92c437f3017f515",
  "bytecode": "0x608060405260016004556000600b60146101000a81548160ff0219169083151502179055503480156200003157600080fd5b506040516200333838038062003338833981810160405281019062000057919062000507565b3380600085856200006e82620001ba60201b60201c565b6200007f81620001fe60201b60201c565b5050600073ffffffffffffffffffffffffffffffffffffffff168273ffffffffffffffffffffffffffffffffffffffff1603620000f3576040517f08c379a0000000000000000000000000000000000000000000000000000000008152600401620000ea90620005c4565b60405180910390fd5b81600660006101000a81548173ffffffffffffffffffffffffffffffffffffffff021916908373ffffffffffffffffffffffffffffffffffffffff160217905550600073ffffffffffffffffffffffffffffffffffffffff168173ffffffffffffffffffffffffffffffffffffffff16146200017b576200017a816200024260201b60201c565b5b5050506200018f83620001ba60201b60201c565b620001a082620001fe60201b60201c565b620001b1816200037360201b60201c565b505050620006ca565b80600260006101000a81548173ffffffffffffffffffffffffffffffffffffffff021916908373ffffffffffffffffffffffffffffffffffffffff16021790555050565b80600360006101000a81548173ffffffffffffffffffffffffffffffffffffffff021916908373ffffffffffffffffffffffffffffffffffffffff16021790555050565b3373ffffffffffffffffffffffffffffffffffffffff168173ffffffffffffffffffffffffffffffffffffffff1603620002b3576040517f08c379a0000000000000000000000000000000000000000000000000000000008152600401620002aa9062000636565b60405180910390fd5b80600760006101000a81548173ffffffffffffffffffffffffffffffffffffffff021916908373ffffffffffffffffffffffffffffffffffffffff1602179055508073ffffffffffffffffffffffffffffffffffffffff16600660009054906101000a900473ffffffffffffffffffffffffffffffffffffffff1673ffffffffffffffffffffffffffffffffffffffff167fed8889f560326eb138920d842192f0eb3dd22b4f139c87a2c57538e05bae127860405160405180910390a350565b620003836200040860201b60201c565b80600860006101000a81548173ffffffffffffffffffffffffffffffffffffffff021916908373ffffffffffffffffffffffffffffffffffffffff16021790555080600960006101000a81548173ffffffffffffffffffffffffffffffffffffffff021916908373ffffffffffffffffffffffffffffffffffffffff16021790555050565b600660009054906101000a900473ffffffffffffffffffffffffffffffffffffffff1673ffffffffffffffffffffffffffffffffffffffff163373ffffffffffffffffffffffffffffffffffffffff16146200049b576040517f08c379a00000000000000000000000000000000000000000000000000000000081526004016200049290620006a8565b60405180910390fd5b565b600080fd5b600073ffffffffffffffffffffffffffffffffffffffff82169050919050565b6000620004cf82620004a2565b9050919050565b620004e181620004c2565b8114620004ed57600080fd5b50565b6000815190506200050181620004d6565b92915050565b6000806000606084860312156200052357620005226200049d565b5b60006200053386828701620004f0565b93505060206200054686828701620004f0565b92505060406200055986828701620004f0565b9150509250925092565b600082825260208201905092915050565b7f43616e6e6f7420736574206f776e657220746f207a65726f0000000000000000600082015250565b6000620005ac60188362000563565b9150620005b98262000574565b602082019050919050565b60006020820190508181036000830152620005df816200059d565b9050919050565b7f43616e6e6f74207472616e7366657220746f2073656c66000000000000000000600082015250565b60006200061e60178362000563565b91506200062b82620005e6565b602082019050919050565b6000602082019050818103600083015262000651816200060f565b9050919050565b7f4f6e6c792063616c6c61626c65206279206f776e657200000000000000000000600082015250565b60006200069060168362000563565b91506200069d8262000658565b602082019050919050565b60006020820190508181036000830152620006c38162000681565b9050919050565b612c5e80620006da6000396000f3fe608060405234801561001057600080fd5b506004361061018e5760003560e01c806373a5ffc7116100de578063ad7e401c11610097578063d9a2671611610071578063d9a26716146103fd578063e24fe90c14610419578063f2fde38b14610435578063f7ea03ff146104515761018e565b8063ad7e401c146103b9578063af017b9b146103d5578063d1f4537e146103f35761018e565b806373a5ffc71461031d57806379ba50971461033b578063831b5cbd146103455780638da5cb5b1461036157806398bb2b2d1461037f578063a1179a271461039d5761018e565b8063448d6c101161014b57806366a4f3501161012557806366a4f350146102955780636986f2e9146102b15780636cbff42a146102cf57806372c0c0a8146102ff5761018e565b8063448d6c10146102415780635491ec6a1461025d5780635d64e310146102795761018e565b806311ba1d2f146101935780631359d423146101b15780632a6d42b7146101cf5780632bde7979146101ed5780633f14df8214610209578063435a7b9014610225575b600080fd5b61019b61046f565b6040516101a89190611858565b60405180910390f35b6101b9610495565b6040516101c69190611903565b60405180910390f35b6101d7610523565b6040516101e49190611946565b60405180910390f35b61020760048036038101906102029190611b44565b610549565b005b610223600480360381019061021e9190611bfd565b6107cf565b005b61023f600480360381019061023a9190611c2a565b61081c565b005b61025b60048036038101906102569190611caf565b6108a9565b005b61027760048036038101906102729190611d16565b6108bb565b005b610293600480360381019061028e9190611d56565b6108c9565b005b6102af60048036038101906102aa9190611e37565b6108d6565b005b6102b96108fe565b6040516102c69190611ec9565b60405180910390f35b6102e960048036038101906102e49190611ee4565b610926565b6040516102f69190611f3c565b60405180910390f35b610307610992565b6040516103149190611946565b60405180910390f35b6103256109bc565b6040516103329190611f66565b60405180910390f35b6103436109cf565b005b61035f600480360381019061035a9190611f81565b610b66565b005b610369610b8c565b6040516103769190611946565b60405180910390f35b610387610bb6565b6040516103949190611946565b60405180910390f35b6103b760048036038101906103b29190611ff0565b610bc5565b005b6103d360048036038101906103ce9190611d56565b610bef565b005b6103dd610c00565b6040516103ea9190611946565b60405180910390f35b6103fb610c26565b005b61041760048036038101906104129190612087565b610c5c565b005b610433600480360381019061042e91906120f6565b610cc9565b005b61044f600480360381019061044a9190611c2a565b610cf1565b005b610459610d05565b6040516104669190611946565b60405180910390f35b600960009054906101000a900473ffffffffffffffffffffffffffffffffffffffff1681565b600a80546104a2906121a8565b80601f01602080910402602001604051908101604052809291908181526020018280546104ce906121a8565b801561051b5780601f106104f05761010080835404028352916020019161051b565b820191906000526020600020905b8154815290600101906020018083116104fe57829003601f168201915b505050505081565b600b60009054906101000a900473ffffffffffffffffffffffffffffffffffffffff1681565b836005600082815260200190815260200160002060009054906101000a900473ffffffffffffffffffffffffffffffffffffffff1673ffffffffffffffffffffffffffffffffffffffff163373ffffffffffffffffffffffffffffffffffffffff16146105eb576040517f08c379a00000000000000000000000000000000000000000000000000000000081526004016105e29061224b565b60405180910390fd5b6005600082815260200190815260200160002060006101000a81549073ffffffffffffffffffffffffffffffffffffffff0219169055807f7cc135e0cebb02c3480ae5d74d377283180a2601f8f644edf7987b009316c63a60405160405180910390a283600a908161065d919061240d565b5081600b60006101000a81548173ffffffffffffffffffffffffffffffffffffffff021916908373ffffffffffffffffffffffffffffffffffffffff16021790555082600b60146101000a81548160ff021916908315150217905550821561078f57600960009054906101000a900473ffffffffffffffffffffffffffffffffffffffff1673ffffffffffffffffffffffffffffffffffffffff1663e31db57383866040518363ffffffff1660e01b815260040161071c9291906124df565b600060405180830381600087803b15801561073657600080fd5b505af115801561074a573d6000803e3d6000fd5b50505050847f11e51421fae5ce18b197a586401e292b3e0a8b6108ae67ade651f8bfbb7360308584866040516107829392919061250f565b60405180910390a26107c8565b847f1b274bac0e8bb49d3ad90709790a3bf2aa1b86313b4c1a7ae5af9cb7832f7204856040516107bf9190611903565b60405180910390a25b5050505050565b7f81c82a6ea1ed1cf28a5376c6d13caab9047c853ec5107907ec9431c50ec1a85c81670de0b6b3a7640000610804919061257c565b6040516108119190611ec9565b60405180910390a150565b610824610d14565b80600860006101000a81548173ffffffffffffffffffffffffffffffffffffffff021916908373ffffffffffffffffffffffffffffffffffffffff16021790555080600960006101000a81548173ffffffffffffffffffffffffffffffffffffffff021916908373ffffffffffffffffffffffffffffffffffffffff16021790555050565b6108b584848484610da6565b50505050565b6108c58282610eb9565b5050565b6108d282610fb3565b5050565b60006108ea858585805190602001206110bc565b90506108f681836110ed565b505050505050565b6000600a670de0b6b3a76400006001610917919061257c565b6109219190612605565b905090565b60007f3078313233343536373839300000000000000000000000000000000000000000905061095533826108bb565b807fc34ceda1e3b95f3c685a13629829c6cd83b0804b62f6362feaef6c1e61e740ca836040516109859190611903565b60405180910390a2919050565b6000600860009054906101000a900473ffffffffffffffffffffffffffffffffffffffff16905090565b600b60149054906101000a900460ff1681565b600760009054906101000a900473ffffffffffffffffffffffffffffffffffffffff1673ffffffffffffffffffffffffffffffffffffffff163373ffffffffffffffffffffffffffffffffffffffff1614610a5f576040517f08c379a0000000000000000000000000000000000000000000000000000000008152600401610a5690612682565b60405180910390fd5b6000600660009054906101000a900473ffffffffffffffffffffffffffffffffffffffff16905033600660006101000a81548173ffffffffffffffffffffffffffffffffffffffff021916908373ffffffffffffffffffffffffffffffffffffffff1602179055506000600760006101000a81548173ffffffffffffffffffffffffffffffffffffffff021916908373ffffffffffffffffffffffffffffffffffffffff1602179055503373ffffffffffffffffffffffffffffffffffffffff168173ffffffffffffffffffffffffffffffffffffffff167f8be0079c531659141344cd1fd0a4f28419497f9722a3daafe3b4186f6b6457e060405160405180910390a350565b6000610b79848480519060200120611124565b9050610b858183611154565b5050505050565b6000600660009054906101000a900473ffffffffffffffffffffffffffffffffffffffff16905090565b6000610bc061118b565b905090565b6000610bd9858585805190602001206110bc565b9050610be68682846111b5565b50505050505050565b610bfc826000801b6108c9565b5050565b600860009054906101000a900473ffffffffffffffffffffffffffffffffffffffff1681565b610c2e610d14565b7ffe92bbc330eb12cd316e909741296a7fbde0684922f2564d9a9021f08959374060405160405180910390a1565b6000610c70848484805190602001206110bc565b90507f6ae3654efc50e419eaebe21a0569020545587e83c4409cfb1d3a4217cbed8a21816000015182602001518360400151846080015160000151604051610cbb9493929190612706565b60405180910390a150505050565b6000610cdc848480519060200120611124565b9050610ce9858284611281565b505050505050565b610cf9610d14565b610d028161134b565b50565b6000610d0f611479565b905090565b600660009054906101000a900473ffffffffffffffffffffffffffffffffffffffff1673ffffffffffffffffffffffffffffffffffffffff163373ffffffffffffffffffffffffffffffffffffffff1614610da4576040517f08c379a0000000000000000000000000000000000000000000000000000000008152600401610d9b9061279e565b60405180910390fd5b565b60006005600086815260200190815260200160002060009054906101000a900473ffffffffffffffffffffffffffffffffffffffff1690506005600086815260200190815260200160002060006101000a81549073ffffffffffffffffffffffffffffffffffffffff0219169055847fe1fe3afa0f7f761ff0a8b89086790efd5140d2907ebd5b7ff6bfcb5e075fd4c560405160405180910390a28073ffffffffffffffffffffffffffffffffffffffff16636ee4d553868686866040518563ffffffff1660e01b8152600401610e8094939291906127be565b600060405180830381600087803b158015610e9a57600080fd5b505af1158015610eae573d6000803e3d6000fd5b505050505050505050565b80600073ffffffffffffffffffffffffffffffffffffffff166005600083815260200190815260200160002060009054906101000a900473ffffffffffffffffffffffffffffffffffffffff1673ffffffffffffffffffffffffffffffffffffffff1614610f5c576040517f08c379a0000000000000000000000000000000000000000000000000000000008152600401610f539061284f565b60405180910390fd5b826005600084815260200190815260200160002060006101000a81548173ffffffffffffffffffffffffffffffffffffffff021916908373ffffffffffffffffffffffffffffffffffffffff160217905550505050565b806005600082815260200190815260200160002060009054906101000a900473ffffffffffffffffffffffffffffffffffffffff1673ffffffffffffffffffffffffffffffffffffffff163373ffffffffffffffffffffffffffffffffffffffff1614611055576040517f08c379a000000000000000000000000000000000000000000000000000000000815260040161104c9061224b565b60405180910390fd5b6005600082815260200190815260200160002060006101000a81549073ffffffffffffffffffffffffffffffffffffffff0219169055807f7cc135e0cebb02c3480ae5d74d377283180a2601f8f644edf7987b009316c63a60405160405180910390a25050565b6110c4611752565b6110cc611752565b6110e3858585846114a3909392919063ffffffff16565b9150509392505050565b600061111c600360009054906101000a900473ffffffffffffffffffffffffffffffffffffffff1684846111b5565b905092915050565b61112c611752565b611134611752565b61114b843085846114a3909392919063ffffffff16565b91505092915050565b6000611183600360009054906101000a900473ffffffffffffffffffffffffffffffffffffffff168484611281565b905092915050565b6000600260009054906101000a900473ffffffffffffffffffffffffffffffffffffffff16905090565b60008060045490506001816111ca919061286f565b6004819055506000634042994660e01b60008087600001513089604001518760018c608001516000015160405160240161120b9897969594939291906128a3565b604051602081830303815290604052907bffffffffffffffffffffffffffffffffffffffffffffffffffffffff19166020820180517bffffffffffffffffffffffffffffffffffffffffffffffffffffffff8381831617835250505050905061127686838684611553565b925050509392505050565b6000806004549050600181611296919061286f565b6004819055506000633c6d41b960e01b600080876000015188604001518660028b60800151600001516040516024016112d59796959493929190612928565b604051602081830303815290604052907bffffffffffffffffffffffffffffffffffffffffffffffffffffffff19166020820180517bffffffffffffffffffffffffffffffffffffffffffffffffffffffff8381831617835250505050905061134086838684611553565b925050509392505050565b3373ffffffffffffffffffffffffffffffffffffffff168173ffffffffffffffffffffffffffffffffffffffff16036113b9576040517f08c379a00000000000000000000000000000000000000000000000000000000081526004016113b0906129ea565b60405180910390fd5b80600760006101000a81548173ffffffffffffffffffffffffffffffffffffffff021916908373ffffffffffffffffffffffffffffffffffffffff1602179055508073ffffffffffffffffffffffffffffffffffffffff16600660009054906101000a900473ffffffffffffffffffffffffffffffffffffffff1673ffffffffffffffffffffffffffffffffffffffff167fed8889f560326eb138920d842192f0eb3dd22b4f139c87a2c57538e05bae127860405160405180910390a350565b6000600360009054906101000a900473ffffffffffffffffffffffffffffffffffffffff16905090565b6114ab611752565b6114bb85608001516101006116e8565b508385600001818152505082856020019073ffffffffffffffffffffffffffffffffffffffff16908173ffffffffffffffffffffffffffffffffffffffff16815250508185604001907bffffffffffffffffffffffffffffffffffffffffffffffffffffffff191690817bffffffffffffffffffffffffffffffffffffffffffffffffffffffff191681525050849050949350505050565b60003084604051602001611568929190612a85565b604051602081830303815290604052805190602001209050846005600083815260200190815260200160002060006101000a81548173ffffffffffffffffffffffffffffffffffffffff021916908373ffffffffffffffffffffffffffffffffffffffff160217905550807fb5e6e01e79f91267dc17b4e6314d5d4d03593d2ceee0fbb452b750bd70ea5af960405160405180910390a2600260009054906101000a900473ffffffffffffffffffffffffffffffffffffffff1673ffffffffffffffffffffffffffffffffffffffff16634000aea08685856040518463ffffffff1660e01b815260040161165e93929190612ab1565b6020604051808303816000875af115801561167d573d6000803e3d6000fd5b505050506040513d601f19601f820116820180604052508101906116a19190612b04565b6116e0576040517f08c379a00000000000000000000000000000000000000000000000000000000081526004016116d790612ba3565b60405180910390fd5b949350505050565b6116f06117bf565b60006020836116ff9190612bc3565b1461172b576020826117119190612bc3565b602061171d9190612bf4565b82611728919061286f565b91505b81836020018181525050604051808452600081528281016020016040525082905092915050565b6040518060a0016040528060008019168152602001600073ffffffffffffffffffffffffffffffffffffffff16815260200160007bffffffffffffffffffffffffffffffffffffffffffffffffffffffff19168152602001600081526020016117b96117bf565b81525090565b604051806040016040528060608152602001600081525090565b600073ffffffffffffffffffffffffffffffffffffffff82169050919050565b6000819050919050565b600061181e611819611814846117d9565b6117f9565b6117d9565b9050919050565b600061183082611803565b9050919050565b600061184282611825565b9050919050565b61185281611837565b82525050565b600060208201905061186d6000830184611849565b92915050565b600081519050919050565b600082825260208201905092915050565b60005b838110156118ad578082015181840152602081019050611892565b60008484015250505050565b6000601f19601f8301169050919050565b60006118d582611873565b6118df818561187e565b93506118ef81856020860161188f565b6118f8816118b9565b840191505092915050565b6000602082019050818103600083015261191d81846118ca565b905092915050565b6000611930826117d9565b9050919050565b61194081611925565b82525050565b600060208201905061195b6000830184611937565b92915050565b6000604051905090565b600080fd5b600080fd5b6000819050919050565b61198881611975565b811461199357600080fd5b50565b6000813590506119a58161197f565b92915050565b600080fd5b600080fd5b7f4e487b7100000000000000000000000000000000000000000000000000000000600052604160045260246000fd5b6119ed826118b9565b810181811067ffffffffffffffff82111715611a0c57611a0b6119b5565b5b80604052505050565b6000611a1f611961565b9050611a2b82826119e4565b919050565b600067ffffffffffffffff821115611a4b57611a4a6119b5565b5b611a54826118b9565b9050602081019050919050565b82818337600083830152505050565b6000611a83611a7e84611a30565b611a15565b905082815260208101848484011115611a9f57611a9e6119b0565b5b611aaa848285611a61565b509392505050565b600082601f830112611ac757611ac66119ab565b5b8135611ad7848260208601611a70565b91505092915050565b60008115159050919050565b611af581611ae0565b8114611b0057600080fd5b50565b600081359050611b1281611aec565b92915050565b611b2181611925565b8114611b2c57600080fd5b50565b600081359050611b3e81611b18565b92915050565b60008060008060808587031215611b5e57611b5d61196b565b5b6000611b6c87828801611996565b945050602085013567ffffffffffffffff811115611b8d57611b8c611970565b5b611b9987828801611ab2565b9350506040611baa87828801611b03565b9250506060611bbb87828801611b2f565b91505092959194509250565b6000819050919050565b611bda81611bc7565b8114611be557600080fd5b50565b600081359050611bf781611bd1565b92915050565b600060208284031215611c1357611c1261196b565b5b6000611c2184828501611be8565b91505092915050565b600060208284031215611c4057611c3f61196b565b5b6000611c4e84828501611b2f565b91505092915050565b60007fffffffff0000000000000000000000000000000000000000000000000000000082169050919050565b611c8c81611c57565b8114611c9757600080fd5b50565b600081359050611ca981611c83565b92915050565b60008060008060808587031215611cc957611cc861196b565b5b6000611cd787828801611996565b9450506020611ce887828801611be8565b9350506040611cf987828801611c9a565b9250506060611d0a87828801611be8565b91505092959194509250565b60008060408385031215611d2d57611d2c61196b565b5b6000611d3b85828601611b2f565b9250506020611d4c85828601611996565b9150509250929050565b60008060408385031215611d6d57611d6c61196b565b5b6000611d7b85828601611996565b9250506020611d8c85828601611996565b9150509250929050565b600067ffffffffffffffff821115611db157611db06119b5565b5b611dba826118b9565b9050602081019050919050565b6000611dda611dd584611d96565b611a15565b905082815260208101848484011115611df657611df56119b0565b5b611e01848285611a61565b509392505050565b600082601f830112611e1e57611e1d6119ab565b5b8135611e2e848260208601611dc7565b91505092915050565b60008060008060808587031215611e5157611e5061196b565b5b6000611e5f87828801611996565b9450506020611e7087828801611b2f565b935050604085013567ffffffffffffffff811115611e9157611e90611970565b5b611e9d87828801611e09565b9250506060611eae87828801611be8565b91505092959194509250565b611ec381611bc7565b82525050565b6000602082019050611ede6000830184611eba565b92915050565b600060208284031215611efa57611ef961196b565b5b600082013567ffffffffffffffff811115611f1857611f17611970565b5b611f2484828501611ab2565b91505092915050565b611f3681611975565b82525050565b6000602082019050611f516000830184611f2d565b92915050565b611f6081611ae0565b82525050565b6000602082019050611f7b6000830184611f57565b92915050565b600080600060608486031215611f9a57611f9961196b565b5b6000611fa886828701611996565b935050602084013567ffffffffffffffff811115611fc957611fc8611970565b5b611fd586828701611e09565b9250506040611fe686828701611be8565b9150509250925092565b600080600080600060a0868803121561200c5761200b61196b565b5b600061201a88828901611b2f565b955050602061202b88828901611996565b945050604061203c88828901611b2f565b935050606086013567ffffffffffffffff81111561205d5761205c611970565b5b61206988828901611e09565b925050608061207a88828901611be8565b9150509295509295909350565b6000806000606084860312156120a05761209f61196b565b5b60006120ae86828701611996565b93505060206120bf86828701611b2f565b925050604084013567ffffffffffffffff8111156120e0576120df611970565b5b6120ec86828701611e09565b9150509250925092565b600080600080608085870312156121105761210f61196b565b5b600061211e87828801611b2f565b945050602061212f87828801611996565b935050604085013567ffffffffffffffff8111156121505761214f611970565b5b61215c87828801611e09565b925050606061216d87828801611be8565b91505092959194509250565b7f4e487b7100000000000000000000000000000000000000000000000000000000600052602260045260246000fd5b600060028204905060018216806121c057607f821691505b6020821081036121d3576121d2612179565b5b50919050565b7f536f75726365206d75737420626520746865206f7261636c65206f662074686560008201527f2072657175657374000000000000000000000000000000000000000000000000602082015250565b600061223560288361187e565b9150612240826121d9565b604082019050919050565b6000602082019050818103600083015261226481612228565b9050919050565b60008190508160005260206000209050919050565b60006020601f8301049050919050565b600082821b905092915050565b6000600883026122cd7fffffffffffffffffffffffffffffffffffffffffffffffffffffffffffffffff82612290565b6122d78683612290565b95508019841693508086168417925050509392505050565b600061230a61230561230084611bc7565b6117f9565b611bc7565b9050919050565b6000819050919050565b612324836122ef565b61233861233082612311565b84845461229d565b825550505050565b600090565b61234d612340565b61235881848461231b565b505050565b5b8181101561237c57612371600082612345565b60018101905061235e565b5050565b601f8211156123c1576123928161226b565b61239b84612280565b810160208510156123aa578190505b6123be6123b685612280565b83018261235d565b50505b505050565b600082821c905092915050565b60006123e4600019846008026123c6565b1980831691505092915050565b60006123fd83836123d3565b9150826002028217905092915050565b61241682611873565b67ffffffffffffffff81111561242f5761242e6119b5565b5b61243982546121a8565b612444828285612380565b600060209050601f8311600181146124775760008415612465578287015190505b61246f85826123f1565b8655506124d7565b601f1984166124858661226b565b60005b828110156124ad57848901518255600182019150602085019450602081019050612488565b868310156124ca57848901516124c6601f8916826123d3565b8355505b6001600288020188555050505b505050505050565b60006040820190506124f46000830185611937565b818103602083015261250681846118ca565b90509392505050565b6000606082019050818103600083015261252981866118ca565b90506125386020830185611937565b6125456040830184611f57565b949350505050565b7f4e487b7100000000000000000000000000000000000000000000000000000000600052601160045260246000fd5b600061258782611bc7565b915061259283611bc7565b9250817fffffffffffffffffffffffffffffffffffffffffffffffffffffffffffffffff04831182151516156125cb576125ca61254d565b5b828202905092915050565b7f4e487b7100000000000000000000000000000000000000000000000000000000600052601260045260246000fd5b600061261082611bc7565b915061261b83611bc7565b92508261262b5761262a6125d6565b5b828204905092915050565b7f4d7573742062652070726f706f736564206f776e657200000000000000000000600082015250565b600061266c60168361187e565b915061267782612636565b602082019050919050565b6000602082019050818103600083015261269b8161265f565b9050919050565b6126ab81611c57565b82525050565b600081519050919050565b600082825260208201905092915050565b60006126d8826126b1565b6126e281856126bc565b93506126f281856020860161188f565b6126fb816118b9565b840191505092915050565b600060808201905061271b6000830187611f2d565b6127286020830186611937565b61273560408301856126a2565b818103606083015261274781846126cd565b905095945050505050565b7f4f6e6c792063616c6c61626c65206279206f776e657200000000000000000000600082015250565b600061278860168361187e565b915061279382612752565b602082019050919050565b600060208201905081810360008301526127b78161277b565b9050919050565b60006080820190506127d36000830187611f2d565b6127e06020830186611eba565b6127ed60408301856126a2565b6127fa6060830184611eba565b95945050505050565b7f5265717565737420697320616c72656164792070656e64696e67000000000000600082015250565b6000612839601a8361187e565b915061284482612803565b602082019050919050565b600060208201905081810360008301526128688161282c565b9050919050565b600061287a82611bc7565b915061288583611bc7565b925082820190508082111561289d5761289c61254d565b5b92915050565b6000610100820190506128b9600083018b611937565b6128c6602083018a611eba565b6128d36040830189611f2d565b6128e06060830188611937565b6128ed60808301876126a2565b6128fa60a0830186611eba565b61290760c0830185611eba565b81810360e083015261291981846126cd565b90509998505050505050505050565b600060e08201905061293d600083018a611937565b61294a6020830189611eba565b6129576040830188611f2d565b61296460608301876126a2565b6129716080830186611eba565b61297e60a0830185611eba565b81810360c083015261299081846126cd565b905098975050505050505050565b7f43616e6e6f74207472616e7366657220746f2073656c66000000000000000000600082015250565b60006129d460178361187e565b91506129df8261299e565b602082019050919050565b60006020820190508181036000830152612a03816129c7565b9050919050565b6000612a1582611825565b9050919050565b60008160601b9050919050565b6000612a3482612a1c565b9050919050565b6000612a4682612a29565b9050919050565b612a5e612a5982612a0a565b612a3b565b82525050565b6000819050919050565b612a7f612a7a82611bc7565b612a64565b82525050565b6000612a918285612a4d565b601482019150612aa18284612a6e565b6020820191508190509392505050565b6000606082019050612ac66000830186611937565b612ad36020830185611eba565b8181036040830152612ae581846126cd565b9050949350505050565b600081519050612afe81611aec565b92915050565b600060208284031215612b1a57612b1961196b565b5b6000612b2884828501612aef565b91505092915050565b7f756e61626c6520746f207472616e73666572416e6443616c6c20746f206f726160008201527f636c650000000000000000000000000000000000000000000000000000000000602082015250565b6000612b8d60238361187e565b9150612b9882612b31565b604082019050919050565b60006020820190508181036000830152612bbc81612b80565b9050919050565b6000612bce82611bc7565b9150612bd983611bc7565b925082612be957612be86125d6565b5b828206905092915050565b6000612bff82611bc7565b9150612c0a83611bc7565b9250828203905081811115612c2257612c2161254d565b5b9291505056fea26469706673582212203379706e607b68ef6aaf592b376d409d5dc1e9304839f521a0976cc2ad549a0764736f6c63430008100033",
  "devdoc": {
    "kind": "dev",
    "methods": {
      "fulfillVerification(bytes32,string,bool,address)": {
        "params": {
          "_requestId": "The request ID",
          "_username": "The username to verify",
          "_verified": "The verification result"
        }
      },
      "requestVerification(string)": {
        "params": {
          "_username": "The username to verify"
        }
      },
      "setPromiseFactoryContract(address)": {
        "details": "It also sets the promise factory contract interface with this address",
        "params": {
          "_promiseFactoryContract": "The address of the PromiseFactory contract"
        }
      }
    },
    "version": 1
  },
  "userdoc": {
    "kind": "user",
    "methods": {
      "acceptOwnership()": {
        "notice": "Allows an ownership transfer to be completed by the recipient."
      },
      "constructor": {
        "notice": "Initialize the link token and target oracle Operator contract: 0x2BB8Dd9C16edeF313eb9ccBd5F42A8b577cB1E3c Link token: 0x326C977E6efc84E512bB9C30f76E30c160eD06FB Job ID: 79bf989a-d076-48c0-a59b-d679f366592d"
      },
      "fulfillVerification(bytes32,string,bool,address)": {
        "notice": "Callback function used by the oracle to return the verification result"
      },
      "owner()": {
        "notice": "Get the current owner"
      },
      "requestVerification(string)": {
        "notice": "Request a Twitter username to be verified"
      },
      "setPromiseFactoryContract(address)": {
        "notice": "Call the promise factory contract to verify a Twitter account"
      },
      "transferOwnership(address)": {
        "notice": "Allows an owner to begin transferring ownership to a new address, pending."
      }
    },
    "notice": "This contract is used to test the VerifyTwitter contract The functions are the same, but they don't actually send data to the operator We make use of the ChainlinkClientTestHelper contract to mock the ChainlinkClient as well as the ConfirmedOwnerTestHelper contract to mock the ConfirmedOwner They provide additional functions to test that the contract is correctly initialized",
    "version": 1
  },
  "storageLayout": {
    "storage": [
      {
        "astId": 319,
        "contract": "contracts/MockVerifyTwitter.sol:MockVerifyTwitter",
        "label": "s_ens",
        "offset": 0,
        "slot": "0",
        "type": "t_contract(ENSInterface)1156"
      },
      {
        "astId": 321,
        "contract": "contracts/MockVerifyTwitter.sol:MockVerifyTwitter",
        "label": "s_ensNode",
        "offset": 0,
        "slot": "1",
        "type": "t_bytes32"
      },
      {
        "astId": 324,
        "contract": "contracts/MockVerifyTwitter.sol:MockVerifyTwitter",
        "label": "s_link",
        "offset": 0,
        "slot": "2",
        "type": "t_contract(LinkTokenInterface)1251"
      },
      {
        "astId": 327,
        "contract": "contracts/MockVerifyTwitter.sol:MockVerifyTwitter",
        "label": "s_oracle",
        "offset": 0,
        "slot": "3",
        "type": "t_contract(OperatorInterface)1331"
      },
      {
        "astId": 330,
        "contract": "contracts/MockVerifyTwitter.sol:MockVerifyTwitter",
        "label": "s_requestCount",
        "offset": 0,
        "slot": "4",
        "type": "t_uint256"
      },
      {
        "astId": 334,
        "contract": "contracts/MockVerifyTwitter.sol:MockVerifyTwitter",
        "label": "s_pendingRequests",
        "offset": 0,
        "slot": "5",
        "type": "t_mapping(t_bytes32,t_address)"
      },
      {
        "astId": 889,
        "contract": "contracts/MockVerifyTwitter.sol:MockVerifyTwitter",
        "label": "s_owner",
        "offset": 0,
        "slot": "6",
        "type": "t_address"
      },
      {
        "astId": 891,
        "contract": "contracts/MockVerifyTwitter.sol:MockVerifyTwitter",
        "label": "s_pendingOwner",
        "offset": 0,
        "slot": "7",
        "type": "t_address"
      },
      {
        "astId": 3926,
        "contract": "contracts/MockVerifyTwitter.sol:MockVerifyTwitter",
        "label": "s_promiseFactoryContract",
        "offset": 0,
        "slot": "8",
        "type": "t_address"
      },
      {
        "astId": 3929,
        "contract": "contracts/MockVerifyTwitter.sol:MockVerifyTwitter",
        "label": "s_promiseFactoryInterface",
        "offset": 0,
        "slot": "9",
        "type": "t_contract(IPromiseFactory)2679"
      },
      {
        "astId": 3931,
        "contract": "contracts/MockVerifyTwitter.sol:MockVerifyTwitter",
        "label": "s_username",
        "offset": 0,
        "slot": "10",
        "type": "t_string_storage"
      },
      {
        "astId": 3933,
        "contract": "contracts/MockVerifyTwitter.sol:MockVerifyTwitter",
        "label": "s_userAddress",
        "offset": 0,
        "slot": "11",
        "type": "t_address"
      },
      {
        "astId": 3936,
        "contract": "contracts/MockVerifyTwitter.sol:MockVerifyTwitter",
        "label": "s_verified",
        "offset": 20,
        "slot": "11",
        "type": "t_bool"
      }
    ],
    "types": {
      "t_address": {
        "encoding": "inplace",
        "label": "address",
        "numberOfBytes": "20"
      },
      "t_bool": {
        "encoding": "inplace",
        "label": "bool",
        "numberOfBytes": "1"
      },
      "t_bytes32": {
        "encoding": "inplace",
        "label": "bytes32",
        "numberOfBytes": "32"
      },
      "t_contract(ENSInterface)1156": {
        "encoding": "inplace",
        "label": "contract ENSInterface",
        "numberOfBytes": "20"
      },
      "t_contract(IPromiseFactory)2679": {
        "encoding": "inplace",
        "label": "contract IPromiseFactory",
        "numberOfBytes": "20"
      },
      "t_contract(LinkTokenInterface)1251": {
        "encoding": "inplace",
        "label": "contract LinkTokenInterface",
        "numberOfBytes": "20"
      },
      "t_contract(OperatorInterface)1331": {
        "encoding": "inplace",
        "label": "contract OperatorInterface",
        "numberOfBytes": "20"
      },
      "t_mapping(t_bytes32,t_address)": {
        "encoding": "mapping",
        "key": "t_bytes32",
        "label": "mapping(bytes32 => address)",
        "numberOfBytes": "32",
        "value": "t_address"
      },
      "t_string_storage": {
        "encoding": "bytes",
        "label": "string",
        "numberOfBytes": "32"
      },
      "t_uint256": {
        "encoding": "inplace",
        "label": "uint256",
        "numberOfBytes": "32"
      }
    }
  }
}