{
  "address": "0xEA9A6d373d4f1cA9E65c4394A0d49427C28b674d",
  "abi": [
    {
      "inputs": [],
      "name": "MasterContract__createContract__DUPLICATE_ADDRESS",
      "type": "error"
    },
    {
      "inputs": [],
      "name": "MasterContract__createContract__EMPTY_FIELD",
      "type": "error"
    },
    {
      "inputs": [],
      "name": "MasterContract__createContract__INCORRECT_FIELD_LENGTH",
      "type": "error"
    },
    {
      "anonymous": false,
      "inputs": [
        {
          "indexed": true,
          "internalType": "address",
          "name": "_owner",
          "type": "address"
        },
        {
          "indexed": true,
          "internalType": "address",
          "name": "_contractAddress",
          "type": "address"
        },
        {
          "indexed": false,
          "internalType": "string",
          "name": "_agreementName",
          "type": "string"
        },
        {
          "indexed": false,
          "internalType": "string",
          "name": "_pdfUri",
          "type": "string"
        },
        {
          "indexed": false,
          "internalType": "string[]",
          "name": "_partyNames",
          "type": "string[]"
        },
        {
          "indexed": false,
          "internalType": "string[]",
          "name": "_partyTwitterHandles",
          "type": "string[]"
        },
        {
          "indexed": true,
          "internalType": "address[]",
          "name": "_partyAddresses",
          "type": "address[]"
        }
      ],
      "name": "ChildContractCreated",
      "type": "event"
    },
    {
      "inputs": [
        {
          "internalType": "address",
          "name": "",
          "type": "address"
        },
        {
          "internalType": "uint256",
          "name": "",
          "type": "uint256"
        }
      ],
      "name": "childContracts",
      "outputs": [
        {
          "internalType": "contract ChildContract",
          "name": "",
          "type": "address"
        }
      ],
      "stateMutability": "view",
      "type": "function"
    },
    {
      "inputs": [
        {
          "internalType": "string",
          "name": "_agreementName",
          "type": "string"
        },
        {
          "internalType": "string",
          "name": "_pdfUri",
          "type": "string"
        },
        {
          "internalType": "string[]",
          "name": "_partyNames",
          "type": "string[]"
        },
        {
          "internalType": "string[]",
          "name": "_partyTwitterHandles",
          "type": "string[]"
        },
        {
          "internalType": "address[]",
          "name": "_partyAddresses",
          "type": "address[]"
        }
      ],
      "name": "createContract",
      "outputs": [
        {
          "internalType": "address",
          "name": "childContractAddress",
          "type": "address"
        }
      ],
      "stateMutability": "nonpayable",
      "type": "function"
    },
    {
      "inputs": [
        {
          "internalType": "address",
          "name": "_owner",
          "type": "address"
        }
      ],
      "name": "getChildContractAddresses",
      "outputs": [
        {
          "internalType": "contract ChildContract[]",
          "name": "",
          "type": "address[]"
        }
      ],
      "stateMutability": "view",
      "type": "function"
    },
    {
      "inputs": [
        {
          "internalType": "address",
          "name": "_userAddress",
          "type": "address"
        }
      ],
      "name": "getChildContractCount",
      "outputs": [
        {
          "internalType": "uint256",
          "name": "",
          "type": "uint256"
        }
      ],
      "stateMutability": "view",
      "type": "function"
    }
  ],
  "transactionHash": "0x8bc4ba3b508da2678366593c5abc9a5a83f4f5284f8b629dc180d643fae70fa3",
  "args": [],
  "numDeployments": 3,
  "solcInputHash": "f540e83bca2fef1f18f457473d778f23",
  "bytecode": "0x608060405234801561001057600080fd5b506138a2806100206000396000f3fe60806040523480156200001157600080fd5b5060043610620000525760003560e01c80632889ee30146200005757806348b837fc146200008d578063dad7fd4814620000c3578063e9a54d4214620000f9575b600080fd5b6200007560048036038101906200006f919062000640565b6200012f565b6040516200008491906200068d565b60405180910390f35b620000ab6004803603810190620000a5919062000640565b6200017a565b604051620000ba9190620007d2565b60405180910390f35b620000e16004803603810190620000db919062000827565b62000248565b604051620000f091906200087f565b60405180910390f35b62000117600480360381019062000111919062000bd0565b62000297565b60405162000126919062000d04565b60405180910390f35b60008060008373ffffffffffffffffffffffffffffffffffffffff1673ffffffffffffffffffffffffffffffffffffffff168152602001908152602001600020805490509050919050565b60606000808373ffffffffffffffffffffffffffffffffffffffff1673ffffffffffffffffffffffffffffffffffffffff1681526020019081526020016000208054806020026020016040519081016040528092919081815260200182805480156200023c57602002820191906000526020600020905b8160009054906101000a900473ffffffffffffffffffffffffffffffffffffffff1673ffffffffffffffffffffffffffffffffffffffff1681526020019060010190808311620001f1575b50505050509050919050565b600060205281600052604060002081815481106200026557600080fd5b906000526020600020016000915091509054906101000a900473ffffffffffffffffffffffffffffffffffffffff1681565b6000808651118015620002ab575060008551115b8015620002b9575060008451115b8015620002c7575060008251115b620002fe576040517f5414a19000000000000000000000000000000000000000000000000000000000815260040160405180910390fd5b8251825114801562000311575083518251145b62000348576040517fe010299900000000000000000000000000000000000000000000000000000000815260040160405180910390fd5b60005b82518110156200044057600060018262000366919062000d50565b90505b8351811015620004295783818151811062000389576200038862000d8b565b5b602002602001015173ffffffffffffffffffffffffffffffffffffffff16848381518110620003bd57620003bc62000d8b565b5b602002602001015173ffffffffffffffffffffffffffffffffffffffff160362000413576040517fa15406e400000000000000000000000000000000000000000000000000000000815260040160405180910390fd5b8080620004209062000dba565b91505062000369565b508080620004379062000dba565b9150506200034b565b5060003387878787876040516200045790620005b9565b62000468969594939291906200106f565b604051809103906000f08015801562000485573d6000803e3d6000fd5b5090506000803373ffffffffffffffffffffffffffffffffffffffff1673ffffffffffffffffffffffffffffffffffffffff168152602001908152602001600020819080600181540180825580915050600190039060005260206000200160009091909190916101000a81548173ffffffffffffffffffffffffffffffffffffffff021916908373ffffffffffffffffffffffffffffffffffffffff160217905550826040516200053791906200119f565b60405180910390208173ffffffffffffffffffffffffffffffffffffffff163373ffffffffffffffffffffffffffffffffffffffff167f7582393aab787b22528c351ff0eb398c48abb4d9c48175beb7117c7cc1062cf38a8a8a8a604051620005a49493929190620011b8565b60405180910390a48091505095945050505050565b61264b806200122283390190565b6000604051905090565b600080fd5b600080fd5b600073ffffffffffffffffffffffffffffffffffffffff82169050919050565b60006200060882620005db565b9050919050565b6200061a81620005fb565b81146200062657600080fd5b50565b6000813590506200063a816200060f565b92915050565b600060208284031215620006595762000658620005d1565b5b6000620006698482850162000629565b91505092915050565b6000819050919050565b620006878162000672565b82525050565b6000602082019050620006a460008301846200067c565b92915050565b600081519050919050565b600082825260208201905092915050565b6000819050602082019050919050565b6000819050919050565b600062000701620006fb620006f584620005db565b620006d6565b620005db565b9050919050565b60006200071582620006e0565b9050919050565b6000620007298262000708565b9050919050565b6200073b816200071c565b82525050565b60006200074f838362000730565b60208301905092915050565b6000602082019050919050565b60006200077582620006aa565b620007818185620006b5565b93506200078e83620006c6565b8060005b83811015620007c5578151620007a9888262000741565b9750620007b6836200075b565b92505060018101905062000792565b5085935050505092915050565b60006020820190508181036000830152620007ee818462000768565b905092915050565b620008018162000672565b81146200080d57600080fd5b50565b6000813590506200082181620007f6565b92915050565b60008060408385031215620008415762000840620005d1565b5b6000620008518582860162000629565b9250506020620008648582860162000810565b9150509250929050565b62000879816200071c565b82525050565b60006020820190506200089660008301846200086e565b92915050565b600080fd5b600080fd5b6000601f19601f8301169050919050565b7f4e487b7100000000000000000000000000000000000000000000000000000000600052604160045260246000fd5b620008f182620008a6565b810181811067ffffffffffffffff82111715620009135762000912620008b7565b5b80604052505050565b600062000928620005c7565b9050620009368282620008e6565b919050565b600067ffffffffffffffff821115620009595762000958620008b7565b5b6200096482620008a6565b9050602081019050919050565b82818337600083830152505050565b60006200099762000991846200093b565b6200091c565b905082815260208101848484011115620009b657620009b5620008a1565b5b620009c384828562000971565b509392505050565b600082601f830112620009e357620009e26200089c565b5b8135620009f584826020860162000980565b91505092915050565b600067ffffffffffffffff82111562000a1c5762000a1b620008b7565b5b602082029050602081019050919050565b600080fd5b600062000a4962000a4384620009fe565b6200091c565b9050808382526020820190506020840283018581111562000a6f5762000a6e62000a2d565b5b835b8181101562000abd57803567ffffffffffffffff81111562000a985762000a976200089c565b5b80860162000aa78982620009cb565b8552602085019450505060208101905062000a71565b5050509392505050565b600082601f83011262000adf5762000ade6200089c565b5b813562000af184826020860162000a32565b91505092915050565b600067ffffffffffffffff82111562000b185762000b17620008b7565b5b602082029050602081019050919050565b600062000b4062000b3a8462000afa565b6200091c565b9050808382526020820190506020840283018581111562000b665762000b6562000a2d565b5b835b8181101562000b93578062000b7e888262000629565b84526020840193505060208101905062000b68565b5050509392505050565b600082601f83011262000bb55762000bb46200089c565b5b813562000bc784826020860162000b29565b91505092915050565b600080600080600060a0868803121562000bef5762000bee620005d1565b5b600086013567ffffffffffffffff81111562000c105762000c0f620005d6565b5b62000c1e88828901620009cb565b955050602086013567ffffffffffffffff81111562000c425762000c41620005d6565b5b62000c5088828901620009cb565b945050604086013567ffffffffffffffff81111562000c745762000c73620005d6565b5b62000c828882890162000ac7565b935050606086013567ffffffffffffffff81111562000ca65762000ca5620005d6565b5b62000cb48882890162000ac7565b925050608086013567ffffffffffffffff81111562000cd85762000cd7620005d6565b5b62000ce68882890162000b9d565b9150509295509295909350565b62000cfe81620005fb565b82525050565b600060208201905062000d1b600083018462000cf3565b92915050565b7f4e487b7100000000000000000000000000000000000000000000000000000000600052601160045260246000fd5b600062000d5d8262000672565b915062000d6a8362000672565b925082820190508082111562000d855762000d8462000d21565b5b92915050565b7f4e487b7100000000000000000000000000000000000000000000000000000000600052603260045260246000fd5b600062000dc78262000672565b91507fffffffffffffffffffffffffffffffffffffffffffffffffffffffffffffffff820362000dfc5762000dfb62000d21565b5b600182019050919050565b600081519050919050565b600082825260208201905092915050565b60005b8381101562000e4357808201518184015260208101905062000e26565b60008484015250505050565b600062000e5c8262000e07565b62000e68818562000e12565b935062000e7a81856020860162000e23565b62000e8581620008a6565b840191505092915050565b600081519050919050565b600082825260208201905092915050565b6000819050602082019050919050565b600082825260208201905092915050565b600062000eda8262000e07565b62000ee6818562000ebc565b935062000ef881856020860162000e23565b62000f0381620008a6565b840191505092915050565b600062000f1c838362000ecd565b905092915050565b6000602082019050919050565b600062000f3e8262000e90565b62000f4a818562000e9b565b93508360208202850162000f5e8562000eac565b8060005b8581101562000fa0578484038952815162000f7e858262000f0e565b945062000f8b8362000f24565b925060208a0199505060018101905062000f62565b50829750879550505050505092915050565b600081519050919050565b6000819050602082019050919050565b62000fd881620005fb565b82525050565b600062000fec838362000fcd565b60208301905092915050565b6000602082019050919050565b6000620010128262000fb2565b6200101e8185620006b5565b93506200102b8362000fbd565b8060005b838110156200106257815162001046888262000fde565b9750620010538362000ff8565b9250506001810190506200102f565b5085935050505092915050565b600060c08201905062001086600083018962000cf3565b81810360208301526200109a818862000e4f565b90508181036040830152620010b0818762000e4f565b90508181036060830152620010c6818662000f31565b90508181036080830152620010dc818562000f31565b905081810360a0830152620010f2818462001005565b9050979650505050505050565b600081905092915050565b6200111581620005fb565b82525050565b60006200112983836200110a565b60208301905092915050565b6000620011428262000fb2565b6200114e8185620010ff565b93506200115b8362000fbd565b8060005b83811015620011925781516200117688826200111b565b9750620011838362000ff8565b9250506001810190506200115f565b5085935050505092915050565b6000620011ad828462001135565b915081905092915050565b60006080820190508181036000830152620011d4818762000e4f565b90508181036020830152620011ea818662000e4f565b9050818103604083015262001200818562000f31565b9050818103606083015262001216818462000f31565b90509594505050505056fe60a06040526000600460006101000a81548160ff0219169083151502179055503480156200002c57600080fd5b506040516200264b3803806200264b8339818101604052810190620000529190620006c0565b8573ffffffffffffffffffffffffffffffffffffffff1660808173ffffffffffffffffffffffffffffffffffffffff1681525050846001908162000097919062000a42565b508360029081620000a9919062000a42565b50805160008190555060005b81518110156200013f5762000129848281518110620000d957620000d862000b29565b5b6020026020010151848381518110620000f757620000f662000b29565b5b602002602001015184848151811062000115576200011462000b29565b5b60200260200101516200014c60201b60201c565b8080620001369062000b87565b915050620000b5565b5050505050505062000c61565b600060405180606001604052808581526020018481526020018373ffffffffffffffffffffffffffffffffffffffff16815250905080600560008473ffffffffffffffffffffffffffffffffffffffff1673ffffffffffffffffffffffffffffffffffffffff1681526020019081526020016000206000820151816000019081620001d8919062000a42565b506020820151816001019081620001f0919062000a42565b5060408201518160020160006101000a81548173ffffffffffffffffffffffffffffffffffffffff021916908373ffffffffffffffffffffffffffffffffffffffff1602179055509050506003829080600181540180825580915050600190039060005260206000200160009091909190916101000a81548173ffffffffffffffffffffffffffffffffffffffff021916908373ffffffffffffffffffffffffffffffffffffffff1602179055508173ffffffffffffffffffffffffffffffffffffffff167fd76352dcc1f8336c0abdec06ee73330eee3e75ba620ba2c87510a25a32439d4e8585604051620002e892919062000c26565b60405180910390a250505050565b6000604051905090565b600080fd5b600080fd5b600073ffffffffffffffffffffffffffffffffffffffff82169050919050565b600062000337826200030a565b9050919050565b62000349816200032a565b81146200035557600080fd5b50565b60008151905062000369816200033e565b92915050565b600080fd5b600080fd5b6000601f19601f8301169050919050565b7f4e487b7100000000000000000000000000000000000000000000000000000000600052604160045260246000fd5b620003c48262000379565b810181811067ffffffffffffffff82111715620003e657620003e56200038a565b5b80604052505050565b6000620003fb620002f6565b9050620004098282620003b9565b919050565b600067ffffffffffffffff8211156200042c576200042b6200038a565b5b620004378262000379565b9050602081019050919050565b60005b838110156200046457808201518184015260208101905062000447565b60008484015250505050565b60006200048762000481846200040e565b620003ef565b905082815260208101848484011115620004a657620004a562000374565b5b620004b384828562000444565b509392505050565b600082601f830112620004d357620004d26200036f565b5b8151620004e584826020860162000470565b91505092915050565b600067ffffffffffffffff8211156200050c576200050b6200038a565b5b602082029050602081019050919050565b600080fd5b6000620005396200053384620004ee565b620003ef565b905080838252602082019050602084028301858111156200055f576200055e6200051d565b5b835b81811015620005ad57805167ffffffffffffffff8111156200058857620005876200036f565b5b808601620005978982620004bb565b8552602085019450505060208101905062000561565b5050509392505050565b600082601f830112620005cf57620005ce6200036f565b5b8151620005e184826020860162000522565b91505092915050565b600067ffffffffffffffff8211156200060857620006076200038a565b5b602082029050602081019050919050565b6000620006306200062a84620005ea565b620003ef565b905080838252602082019050602084028301858111156200065657620006556200051d565b5b835b818110156200068357806200066e888262000358565b84526020840193505060208101905062000658565b5050509392505050565b600082601f830112620006a557620006a46200036f565b5b8151620006b784826020860162000619565b91505092915050565b60008060008060008060c08789031215620006e057620006df62000300565b5b6000620006f089828a0162000358565b965050602087015167ffffffffffffffff81111562000714576200071362000305565b5b6200072289828a01620004bb565b955050604087015167ffffffffffffffff81111562000746576200074562000305565b5b6200075489828a01620004bb565b945050606087015167ffffffffffffffff81111562000778576200077762000305565b5b6200078689828a01620005b7565b935050608087015167ffffffffffffffff811115620007aa57620007a962000305565b5b620007b889828a01620005b7565b92505060a087015167ffffffffffffffff811115620007dc57620007db62000305565b5b620007ea89828a016200068d565b9150509295509295509295565b600081519050919050565b7f4e487b7100000000000000000000000000000000000000000000000000000000600052602260045260246000fd5b600060028204905060018216806200084a57607f821691505b60208210810362000860576200085f62000802565b5b50919050565b60008190508160005260206000209050919050565b60006020601f8301049050919050565b600082821b905092915050565b600060088302620008ca7fffffffffffffffffffffffffffffffffffffffffffffffffffffffffffffffff826200088b565b620008d686836200088b565b95508019841693508086168417925050509392505050565b6000819050919050565b6000819050919050565b6000620009236200091d6200091784620008ee565b620008f8565b620008ee565b9050919050565b6000819050919050565b6200093f8362000902565b620009576200094e826200092a565b84845462000898565b825550505050565b600090565b6200096e6200095f565b6200097b81848462000934565b505050565b5b81811015620009a3576200099760008262000964565b60018101905062000981565b5050565b601f821115620009f257620009bc8162000866565b620009c7846200087b565b81016020851015620009d7578190505b620009ef620009e6856200087b565b83018262000980565b50505b505050565b600082821c905092915050565b600062000a1760001984600802620009f7565b1980831691505092915050565b600062000a32838362000a04565b9150826002028217905092915050565b62000a4d82620007f7565b67ffffffffffffffff81111562000a695762000a686200038a565b5b62000a75825462000831565b62000a82828285620009a7565b600060209050601f83116001811462000aba576000841562000aa5578287015190505b62000ab1858262000a24565b86555062000b21565b601f19841662000aca8662000866565b60005b8281101562000af45784890151825560018201915060208501945060208101905062000acd565b8683101562000b14578489015162000b10601f89168262000a04565b8355505b6001600288020188555050505b505050505050565b7f4e487b7100000000000000000000000000000000000000000000000000000000600052603260045260246000fd5b7f4e487b7100000000000000000000000000000000000000000000000000000000600052601160045260246000fd5b600062000b9482620008ee565b91507fffffffffffffffffffffffffffffffffffffffffffffffffffffffffffffffff820362000bc95762000bc862000b58565b5b600182019050919050565b600082825260208201905092915050565b600062000bf282620007f7565b62000bfe818562000bd4565b935062000c1081856020860162000444565b62000c1b8162000379565b840191505092915050565b6000604082019050818103600083015262000c42818562000be5565b9050818103602083015262000c58818462000be5565b90509392505050565b6080516119b962000c92600039600081816104a30152818161094801528181610fc3015261126801526119b96000f3fe608060405234801561001057600080fd5b50600436106101165760003560e01c80637488b7ab116100a2578063a7d136a811610071578063a7d136a8146102d5578063ad605729146102f3578063cd73eb8314610311578063dba6335f1461032f578063fbba434c1461034d57610116565b80637488b7ab1461023757806375e5725114610267578063893d20e81461028557806392be02d8146102a357610116565b806349004a86116100e957806349004a86146101a357806353d54866146101c157806363cf7ce2146101df5780636538eb87146101fd5780637143059f1461020757610116565b806317d7de7c1461011b57806319dec62a146101395780633683b583146101435780633686b77814610173575b600080fd5b61012361036b565b6040516101309190611426565b60405180910390f35b6101416103fd565b005b61015d600480360381019061015891906114ab565b610794565b60405161016a91906114f3565b60405180910390f35b61018d60048036038101906101889190611544565b6107b4565b60405161019a9190611580565b60405180910390f35b6101ab6107f3565b6040516101b891906114f3565b60405180910390f35b6101c961080a565b6040516101d691906115aa565b60405180910390f35b6101e7610810565b6040516101f49190611426565b60405180910390f35b6102056108a2565b005b610221600480360381019061021c91906114ab565b610c40565b60405161022e9190611675565b60405180910390f35b610251600480360381019061024c91906114ab565b610edb565b60405161025e91906114f3565b60405180910390f35b61026f610f31565b60405161027c9190611426565b60405180910390f35b61028d610fbf565b60405161029a9190611580565b60405180910390f35b6102bd60048036038101906102b891906114ab565b610fe7565b6040516102cc93929190611697565b60405180910390f35b6102dd611141565b6040516102ea919061178b565b60405180910390f35b6102fb6111cf565b60405161030891906115aa565b60405180910390f35b6103196111d8565b6040516103269190611426565b60405180910390f35b610337611266565b6040516103449190611580565b60405180910390f35b61035561128a565b60405161036291906114f3565b60405180910390f35b60606001805461037a906117dc565b80601f01602080910402602001604051908101604052809291908181526020018280546103a6906117dc565b80156103f35780601f106103c8576101008083540402835291602001916103f3565b820191906000526020600020905b8154815290600101906020018083116103d657829003601f168201915b5050505050905090565b6000600380548060200260200160405190810160405280929190818152602001828054801561048157602002820191906000526020600020905b8160009054906101000a900473ffffffffffffffffffffffffffffffffffffffff1673ffffffffffffffffffffffffffffffffffffffff1681526020019060010190808311610437575b5050505050905060003373ffffffffffffffffffffffffffffffffffffffff167f000000000000000000000000000000000000000000000000000000000000000073ffffffffffffffffffffffffffffffffffffffff16036104e6576001905061055e565b60005b60005481101561055c573373ffffffffffffffffffffffffffffffffffffffff1683828151811061051d5761051c61180d565b5b602002602001015173ffffffffffffffffffffffffffffffffffffffff1603610549576001915061055c565b80806105549061186b565b9150506104e9565b505b80610595576040517faf1a9d0100000000000000000000000000000000000000000000000000000000815260040160405180910390fd5b600460009054906101000a900460ff16156105dc576040517fc3976ed200000000000000000000000000000000000000000000000000000000815260040160405180910390fd5b60011515600660003373ffffffffffffffffffffffffffffffffffffffff1673ffffffffffffffffffffffffffffffffffffffff16815260200190815260200160002060009054906101000a900460ff16151503610666576040517f28081ddd00000000000000000000000000000000000000000000000000000000815260040160405180910390fd5b6001600660003373ffffffffffffffffffffffffffffffffffffffff1673ffffffffffffffffffffffffffffffffffffffff16815260200190815260200160002060006101000a81548160ff0219169083151502179055503373ffffffffffffffffffffffffffffffffffffffff167f26c25af05520e978d353f976c99fa4c277ddc75aed4170ec47c9e24f06e62a1c600560003373ffffffffffffffffffffffffffffffffffffffff1673ffffffffffffffffffffffffffffffffffffffff168152602001908152602001600020600001600560003373ffffffffffffffffffffffffffffffffffffffff1673ffffffffffffffffffffffffffffffffffffffff16815260200190815260200160002060010160405161078892919061194c565b60405180910390a25050565b60066020528060005260406000206000915054906101000a900460ff1681565b600381815481106107c457600080fd5b906000526020600020016000915054906101000a900473ffffffffffffffffffffffffffffffffffffffff1681565b6000600460009054906101000a900460ff16905090565b60005481565b60606002805461081f906117dc565b80601f016020809104026020016040519081016040528092919081815260200182805461084b906117dc565b80156108985780601f1061086d57610100808354040283529160200191610898565b820191906000526020600020905b81548152906001019060200180831161087b57829003601f168201915b5050505050905090565b6000600380548060200260200160405190810160405280929190818152602001828054801561092657602002820191906000526020600020905b8160009054906101000a900473ffffffffffffffffffffffffffffffffffffffff1673ffffffffffffffffffffffffffffffffffffffff16815260200190600101908083116108dc575b5050505050905060003373ffffffffffffffffffffffffffffffffffffffff167f000000000000000000000000000000000000000000000000000000000000000073ffffffffffffffffffffffffffffffffffffffff160361098b5760019050610a03565b60005b600054811015610a01573373ffffffffffffffffffffffffffffffffffffffff168382815181106109c2576109c161180d565b5b602002602001015173ffffffffffffffffffffffffffffffffffffffff16036109ee5760019150610a01565b80806109f99061186b565b91505061098e565b505b80610a3a576040517faf1a9d0100000000000000000000000000000000000000000000000000000000815260040160405180910390fd5b600460009054906101000a900460ff1615610a81576040517fc3976ed200000000000000000000000000000000000000000000000000000000815260040160405180910390fd5b60006003805480602002602001604051908101604052809291908181526020018280548015610b0557602002820191906000526020600020905b8160009054906101000a900473ffffffffffffffffffffffffffffffffffffffff1673ffffffffffffffffffffffffffffffffffffffff1681526020019060010190808311610abb575b5050505050905060005b600054811015610bf3576000151560066000848481518110610b3457610b3361180d565b5b602002602001015173ffffffffffffffffffffffffffffffffffffffff1673ffffffffffffffffffffffffffffffffffffffff16815260200190815260200160002060009054906101000a900460ff16151503610be057610bae828281518110610ba157610ba061180d565b5b602002602001015161129d565b6040517ff2423e7400000000000000000000000000000000000000000000000000000000815260040160405180910390fd5b8080610beb9061186b565b915050610b0f565b506001600460006101000a81548160ff0219169083151502179055507f8f684ec4e5cf6918ed76f89bf575e71e4c85067265dd93331fc3fa67122720dc60405160405180910390a1505050565b610c4861135f565b600073ffffffffffffffffffffffffffffffffffffffff16600560008473ffffffffffffffffffffffffffffffffffffffff1673ffffffffffffffffffffffffffffffffffffffff16815260200190815260200160002060020160009054906101000a900473ffffffffffffffffffffffffffffffffffffffff1673ffffffffffffffffffffffffffffffffffffffff1603610d10576040517faf1a9d0100000000000000000000000000000000000000000000000000000000815260040160405180910390fd5b600560008373ffffffffffffffffffffffffffffffffffffffff1673ffffffffffffffffffffffffffffffffffffffff168152602001908152602001600020604051806060016040529081600082018054610d6a906117dc565b80601f0160208091040260200160405190810160405280929190818152602001828054610d96906117dc565b8015610de35780601f10610db857610100808354040283529160200191610de3565b820191906000526020600020905b815481529060010190602001808311610dc657829003601f168201915b50505050508152602001600182018054610dfc906117dc565b80601f0160208091040260200160405190810160405280929190818152602001828054610e28906117dc565b8015610e755780601f10610e4a57610100808354040283529160200191610e75565b820191906000526020600020905b815481529060010190602001808311610e5857829003601f168201915b505050505081526020016002820160009054906101000a900473ffffffffffffffffffffffffffffffffffffffff1673ffffffffffffffffffffffffffffffffffffffff1673ffffffffffffffffffffffffffffffffffffffff16815250509050919050565b6000600660008373ffffffffffffffffffffffffffffffffffffffff1673ffffffffffffffffffffffffffffffffffffffff16815260200190815260200160002060009054906101000a900460ff169050919050565b60028054610f3e906117dc565b80601f0160208091040260200160405190810160405280929190818152602001828054610f6a906117dc565b8015610fb75780601f10610f8c57610100808354040283529160200191610fb7565b820191906000526020600020905b815481529060010190602001808311610f9a57829003601f168201915b505050505081565b60007f0000000000000000000000000000000000000000000000000000000000000000905090565b600560205280600052604060002060009150905080600001805461100a906117dc565b80601f0160208091040260200160405190810160405280929190818152602001828054611036906117dc565b80156110835780601f1061105857610100808354040283529160200191611083565b820191906000526020600020905b81548152906001019060200180831161106657829003601f168201915b505050505090806001018054611098906117dc565b80601f01602080910402602001604051908101604052809291908181526020018280546110c4906117dc565b80156111115780601f106110e657610100808354040283529160200191611111565b820191906000526020600020905b8154815290600101906020018083116110f457829003601f168201915b5050505050908060020160009054906101000a900473ffffffffffffffffffffffffffffffffffffffff16905083565b606060038054806020026020016040519081016040528092919081815260200182805480156111c557602002820191906000526020600020905b8160009054906101000a900473ffffffffffffffffffffffffffffffffffffffff1673ffffffffffffffffffffffffffffffffffffffff168152602001906001019080831161117b575b5050505050905090565b60008054905090565b600180546111e5906117dc565b80601f0160208091040260200160405190810160405280929190818152602001828054611211906117dc565b801561125e5780601f106112335761010080835404028352916020019161125e565b820191906000526020600020905b81548152906001019060200180831161124157829003601f168201915b505050505081565b7f000000000000000000000000000000000000000000000000000000000000000081565b600460009054906101000a900460ff1681565b611333816040516024016112b19190611580565b6040516020818303038152906040527f2c2ecbc2000000000000000000000000000000000000000000000000000000007bffffffffffffffffffffffffffffffffffffffffffffffffffffffff19166020820180517bffffffffffffffffffffffffffffffffffffffffffffffffffffffff8381831617835250505050611336565b50565b60008151905060006a636f6e736f6c652e6c6f679050602083016000808483855afa5050505050565b60405180606001604052806060815260200160608152602001600073ffffffffffffffffffffffffffffffffffffffff1681525090565b600081519050919050565b600082825260208201905092915050565b60005b838110156113d05780820151818401526020810190506113b5565b60008484015250505050565b6000601f19601f8301169050919050565b60006113f882611396565b61140281856113a1565b93506114128185602086016113b2565b61141b816113dc565b840191505092915050565b6000602082019050818103600083015261144081846113ed565b905092915050565b600080fd5b600073ffffffffffffffffffffffffffffffffffffffff82169050919050565b60006114788261144d565b9050919050565b6114888161146d565b811461149357600080fd5b50565b6000813590506114a58161147f565b92915050565b6000602082840312156114c1576114c0611448565b5b60006114cf84828501611496565b91505092915050565b60008115159050919050565b6114ed816114d8565b82525050565b600060208201905061150860008301846114e4565b92915050565b6000819050919050565b6115218161150e565b811461152c57600080fd5b50565b60008135905061153e81611518565b92915050565b60006020828403121561155a57611559611448565b5b60006115688482850161152f565b91505092915050565b61157a8161146d565b82525050565b60006020820190506115956000830184611571565b92915050565b6115a48161150e565b82525050565b60006020820190506115bf600083018461159b565b92915050565b600082825260208201905092915050565b60006115e182611396565b6115eb81856115c5565b93506115fb8185602086016113b2565b611604816113dc565b840191505092915050565b6116188161146d565b82525050565b6000606083016000830151848203600086015261163b82826115d6565b9150506020830151848203602086015261165582826115d6565b915050604083015161166a604086018261160f565b508091505092915050565b6000602082019050818103600083015261168f818461161e565b905092915050565b600060608201905081810360008301526116b181866113ed565b905081810360208301526116c581856113ed565b90506116d46040830184611571565b949350505050565b600081519050919050565b600082825260208201905092915050565b6000819050602082019050919050565b6000611714838361160f565b60208301905092915050565b6000602082019050919050565b6000611738826116dc565b61174281856116e7565b935061174d836116f8565b8060005b8381101561177e5781516117658882611708565b975061177083611720565b925050600181019050611751565b5085935050505092915050565b600060208201905081810360008301526117a5818461172d565b905092915050565b7f4e487b7100000000000000000000000000000000000000000000000000000000600052602260045260246000fd5b600060028204905060018216806117f457607f821691505b602082108103611807576118066117ad565b5b50919050565b7f4e487b7100000000000000000000000000000000000000000000000000000000600052603260045260246000fd5b7f4e487b7100000000000000000000000000000000000000000000000000000000600052601160045260246000fd5b60006118768261150e565b91507fffffffffffffffffffffffffffffffffffffffffffffffffffffffffffffffff82036118a8576118a761183c565b5b600182019050919050565b60008190508160005260206000209050919050565b600081546118d5816117dc565b6118df81866113a1565b945060018216600081146118fa576001811461191057611943565b60ff198316865281151560200286019350611943565b611919856118b3565b60005b8381101561193b5781548189015260018201915060208101905061191c565b808801955050505b50505092915050565b6000604082019050818103600083015261196681856118c8565b9050818103602083015261197a81846118c8565b9050939250505056fea26469706673582212204b662fa9e5cc4b3b38b7d7259b30372eefe4d666de847ca7f8265bb65c5c306a64736f6c63430008110033a264697066735822122031fa1af67c22b6edc18c1431a6f813277560cdda00cc779162df2ca6e4d862b764736f6c63430008110033",
  "devdoc": {
    "author": "polarzero",
    "kind": "dev",
    "methods": {
      "createContract(string,string,string[],string[],address[])": {
        "params": {
          "_agreementName": "The name of the contract specified by the user",
          "_partyAddresses": "The addresses specified by the user that will be allowed to interact with the contract",
          "_partyNames": "The names of the parties specified by the user",
          "_partyTwitterHandles": "The Twitter handles of the parties specified by the user",
          "_pdfUri": "The URI of the PDF file stored on IPFS"
        }
      }
    },
    "title": "Master Contract",
    "version": 1
  },
  "userdoc": {
    "errors": {
      "MasterContract__createContract__EMPTY_FIELD()": [
        {
          "notice": "Errors"
        }
      ]
    },
    "events": {
      "ChildContractCreated(address,address,string,string,string[],string[],address[])": {
        "notice": "Events"
      }
    },
    "kind": "user",
    "methods": {
      "createContract(string,string,string[],string[],address[])": {
        "notice": "Create a new contract and add it to the list of child contracts"
      },
      "getChildContractAddresses(address)": {
        "notice": "Getters"
      }
    },
    "notice": "This is the master contract initializing & referencing all child contracts",
    "version": 1
  },
  "storageLayout": {
    "storage": [
      {
        "astId": 434,
        "contract": "contracts/MasterContract.sol:MasterContract",
        "label": "childContracts",
        "offset": 0,
        "slot": "0",
        "type": "t_mapping(t_address,t_array(t_contract(ChildContract)416)dyn_storage)"
      }
    ],
    "types": {
      "t_address": {
        "encoding": "inplace",
        "label": "address",
        "numberOfBytes": "20"
      },
      "t_array(t_contract(ChildContract)416)dyn_storage": {
        "base": "t_contract(ChildContract)416",
        "encoding": "dynamic_array",
        "label": "contract ChildContract[]",
        "numberOfBytes": "32"
      },
      "t_contract(ChildContract)416": {
        "encoding": "inplace",
        "label": "contract ChildContract",
        "numberOfBytes": "20"
      },
      "t_mapping(t_address,t_array(t_contract(ChildContract)416)dyn_storage)": {
        "encoding": "mapping",
        "key": "t_address",
        "label": "mapping(address => contract ChildContract[])",
        "numberOfBytes": "32",
        "value": "t_array(t_contract(ChildContract)416)dyn_storage"
      }
    }
  }
}